:020000040C00EE
:100000000008001001020008B1020008B102000857
:10001000B1020008B1020008B102000800000000AF
:10002000000000000000000000000000B102000815
:10003000B102000800000000B1020008B10200088F
:10004000B1020008B1020008B1020008B1020008C4
:10005000B102000805430008B1020008A1420008EF
:100060003143000800000000000000000000000014
:10007000B102000800000000B1020008B10200084F
:10008000B1020008B1020008B1020008B102000884
:10009000B1020008B1020008B1020008B102000874
:1000A000B1020008B1020008B1020008B102000864
:1000B000B1020008B1020008B1020008B102000854
:1000C000B1020008B1020008B1020008B102000844
:1000D000B1020008B1020008B1020008B102000834
:1000E000B1020008B1020008B1020008B102000824
:1000F000B1020008B1020008B1020008B102000814
:10010000B1020008B1020008B1020008B102000803
:10011000B1020008B1020008B1020008B1020008F3
:10012000E14000085D430008B10200086942000890
:10013000B1020008B1020008B102000869430008DA
:10014000B1020008B1020008B1020008B1020008C3
:10015000B1020008B1020008B1020008B1020008B3
:10016000000000000000000000000000000000008F
:1001700089400008793F0008B1020008B102000878
:10018000B1020008B1020008B1020008B102000883
:10019000B1020008B1020008B1020008B102000873
:1001A000B1020008B1020008B1020008B102000863
:1001B000B1020008B1020008B1020008B102000853
:1001C000B1020008B1020008B1020008B102000843
:1001D000B1020008B1020008B102000800000000EE
:1001E000B1020008B1020008B1020008B102000823
:1001F000B102000800000000B10200080000000089
:10020000DFF88CD023488047234C244DAC4209DAD8
:1002100021686268A368043BA2BFC858D050FAE7BF
:100220000C34F3E71E4B1F4CA34208DA19685A68D6
:100230000020043AA4BF8850FBE70833F4E71A48CB
:1002400080471A4880470000B07D000C0000002065
:1002500004040000B481000C000000300000000025
:10026000B07D000C480C0010000000006879000C04
:10027000000800104804000004040020C40000002E
:100280000000003000000000480C001000000000DA
:1002900000080010B50200084802000878020008B3
:1002A0007802000890020008D96800082D3F000875
:1002B000FEE7000098B500AF054A4FF00053144622
:1002C0000FCB84E80F0003F087F903F0EFF998BD36
:1002D000C4FF002080B584B000AF2F4BDB6803F46F
:1002E0008033002B3ED02D4BDB6803F00103002B45
:1002F00002D02B4BFB6002E003F0CEF9F860274BF5
:100300001B6803F00403002B20D0244B9B6803F0F0
:1003100070631B0E0133BB60204B9B6803F4FE43EC
:100320001B0A01337B601D4B9B6803F4FE031B0C0F
:1003300001333B60BB683A6802FB03F3FA68B2FB27
:10034000F3F37A6802FB03F3FB600DE0134B9B6849
:1003500003F07F0301333B60FA683B68B2FBF3F3C1
:10036000FB6001E00E4BFB600B4BDB68DBB2013343
:10037000FA68B2FBF3F3FB60074B1B6903F0010360
:100380000133FA68B2FBF3F3FB60064AFB681360C3
:100390001037BD4680BD00BF0046005010470050DA
:1003A00000366E01C0FF002080B582B000AF7860DB
:1003B0007B68054A934203D14FF4803000F076F910
:1003C0000837BD4680BD00BF0040044080B485B002
:1003D00000AFF8600B467A60FB72FB7A9B08DBB2D9
:1003E0001846FB7A9B08DBB21A46FB68043253F8C6
:1003F0002220FB7A03F00303DB001946F8238B402D
:10040000DB4302EA0301FB68021D43F82210FB688C
:100410005A6FFB7A5B00194603238B40DB431A407B
:10042000FB685A67FB683A4A934203D0FB68394A33
:1004300093420AD1FB681A6EFB7A012101FA03F399
:10044000DB431A40FB681A6642E07B681B78DBB22C
:100450005BB2002B3CDA7B685A68FB7A9A40FB68F7
:100460005A60FB7ADB08DBB21846FB7ADB08DBB2AA
:100470001A46FB68103253F82220FB7A03F0070378
:100480009B00194607238B40DB4302EA0301FB680C
:1004900000F1100243F82210FB7ADB08DBB21846A9
:1004A000FB7ADB08DBB21A46FB68103253F82220D5
:1004B0007B681B7A1946FB7A03F007039B0001FA5D
:1004C00003F342EA0301FB6800F1100243F8221033
:1004D000FB7A9B08DBB21846FB7A9B08DBB21A4614
:1004E000FB68043253F822207B681B781946FB7A9C
:1004F00003F00303DB0001FA03F342EA0301FB68A4
:10050000021D43F822101437BD465DF8047B704786
:10051000008E0248008F024880B400AF034B1B6876
:100520001846BD465DF8047B704700BFC0FF002041
:1005300080B400AF034BD3F8C4301846BD465DF815
:10054000047B70470040005080B584B000AF7860F5
:10055000FFF7C0FE0B4B1B680B4AA2FB03239A0C50
:100560007B6802FB03F37B600023FB6003E000BFBA
:10057000FB680133FB60FA687B689A42F7D3103757
:10058000BD4680BDC0FF002083DE1B4380B400AFAA
:10059000034B5B681846BD465DF8047B704700BF9F
:1005A0007440005080B483B000AF7860034A7B6829
:1005B000D3600C37BD465DF8047B70477440005033
:1005C000B0B584B002AF7860002000F09BF800F076
:1005D0002DFA7B68DB79002B0AD000F065FA00BFAA
:1005E00000F050FA034683F00103DBB2002BF7D191
:1005F0007B685B7A184600F0FFF800BFFFF798FFB2
:100600000346002BFAD17B681B7A184600F0E8F904
:100610007B681B7C184600F00DF97B685B7C1846F4
:1006200000F030F97B689B7C184600F017F97B6876
:10063000DB7C184600F03AF97B689B79002B0AD0E6
:1006400000F06AFA00BF00F08FFA034683F001035E
:10065000DBB2002BF7D17B68DB78002B02D100F0F6
:10066000A7FA14E000F094FA7B6899887B68DA783E
:100670007B685B781D467B681B781C467B689B7893
:100680000093084611462A46234600F0A1FA7B68EB
:10069000DB68B3F5803F03D14FF4803000F032F8CF
:1006A000FFF718FE0837BD46B0BD00BF80B485B067
:1006B00000AF78607B681B0FFB607B6823F07043A2
:1006C000BB60FA6813465B0013449B001A46044B58
:1006D0001344BA681A601437BD465DF8047B70474E
:1006E0001444005080B500AFFFF716FF0246044BDC
:1006F0005B6903F0010322FA03F3184680BD00BFD3
:100700000046005080B483B000AF78600649064BC5
:10071000DB6823F480327B681343CB600C37BD4623
:100720005DF8047B704700BF0046005080B483B082
:1007300000AF78600649064B9B6923F480327B68E2
:1007400013438B610C37BD465DF8047B704700BFD7
:100750000046005080B483B000AF78600649064B75
:100760005B6A23F440327B6813434B620C37BD460F
:100770005DF8047B704700BF0046005080B483B032
:1007800000AF0346FB80FB88002B08D10A4A0A4BC6
:10079000DB6823F4807323F00103D36007E0064A8B
:1007A000054BDB6843F4807343F00103D3600C37DF
:1007B000BD465DF8047B70471047005080B483B09D
:1007C00000AF0346FB7100BF094BD3F8C43003F000
:1007D0000803002BF8D10749064BDB6823F04002E1
:1007E000FB791343CB600C37BD465DF8047B704743
:1007F000004000500043005080B483B000AF034677
:10080000FB7100BF094BD3F8C43003F00803002B81
:10081000F8D10749064BDB6823F08002FB791343CC
:10082000CB600C37BD465DF8047B7047004000503C
:100830000043005080B483B000AF78600649064B97
:10084000DB6823F0FF027B68013B1343CB600C376E
:10085000BD465DF8047B70470046005080B483B00D
:1008600000AF78600649064B1B6A23F001027B68E3
:10087000013B13430B620C37BD465DF8047B7047A8
:100880000046005080B483B000AF78600649064B44
:100890001B6923F001027B68013B13430B610C379A
:1008A000BD465DF8047B70470046005080B483B0BD
:1008B00000AF78600649064B5B6923F001027B6854
:1008C000013B13434B610C37BD465DF8047B704719
:1008D0000046005080B483B000AF78600649064BF4
:1008E0009B6923F007027B68013B13438B610C3744
:1008F000BD465DF8047B70470046005080B483B06D
:1009000000AF78600649064BDB6923F03F027B6845
:10091000013B1343CB610C37BD465DF8047B704748
:100920000046005080B483B000AF78600649064BA3
:100930005B6A23F0FF027B68013B13434B620C3779
:10094000BD465DF8047B70470046005080B483B01C
:1009500000AF0346FB71044AFB7953600C37BD4678
:100960005DF8047B704700BF0046005080B483B040
:1009700000AF78603960194A184B5B6943F0010396
:100980005361164A154B5B6943F0100353611349D9
:100990003B68013B1A027B68013B1B0613434B611A
:1009A0000E4A0E4B5B6943F0400353610B4A0B4BFD
:1009B0005B6923F010035361084A084B5B6943F4F9
:1009C0008023536100BF054B1B6903F00403002B18
:1009D000F9D00C37BD465DF8047B704710470050D6
:1009E00080B582B000AF0346FB710F4A0E4B5B68C7
:1009F00043F480135360FB79012B0ED10A4A0A4B52
:100A00005B6823F4801353606420FFF79DFD064A62
:100A1000054B5B6843F4002353606420FFF794FDAB
:100A20000837BD4680BD00BF1047005080B400AFFE
:100A3000124B1B6803F00103002B09D10F4B01225D
:100A40005A6000BF0D4B1B6803F00103002BF9D067
:100A50000B4B1B6803F40073002B0AD0084B4FF4B8
:100A600000729A6000BF064B1B6803F40073002BF2
:100A7000F9D1BD465DF8047B704700BF00420050CD
:100A80000044005080B400AF064B1B6803F008031D
:100A9000002B0CBF01230023DBB21846BD465DF8D6
:100AA000047B70470043005080B500AF4FF4000056
:100AB000FFF778FD174A174BDB6923F03003D3614A
:100AC00000BFFFF763FD034603F40003002BF8D0DB
:100AD0004FF40030FFF766FD0E4B08225A6000BF4E
:100AE000FFF754FD034603F40033002BF8D04FF416
:100AF0000020FFF757FD074A064BDB6843F0080369
:100B0000D36000BFFFF742FD034603F40023002B30
:100B1000F8D080BD00430050B0B500AF0F4A0F4B76
:100B20005B6823F4803353600D4D0D4B5B6823F4F9
:100B3000702424F0300402F0AFFD0246094BA3FB01
:100B400002231B0D013B1B0423436B60034A034B31
:100B50005B6823F400335360B0BD00BF1047005002
:100B6000004700506BCA5F6B80B400AF074B1B6837
:100B700003F46073B3F5607F0CBF01230023DBB285
:100B80001846BD465DF8047B704700BF1047005013
:100B900080B400AF054A054B5B6823F4803323F033
:100BA00002035360BD465DF8047B70471047005058
:100BB00080B400AF054A054B5B6843F4803343F0D3
:100BC00002035360BD465DF8047B70471047005038
:100BD00080B586B000AFBA607B600346FB810B46F0
:100BE0007B73FB891846FFF7C9FD7B7B012B40F027
:100BF0008480FB89002B09D102F04EFD02464B4B4D
:100C0000A3FB02239B0C9B057B6102E04FF0C063BA
:100C10007B617B697A6802FB03F2BB68B2FBF3F38A
:100C20007B617B69424AA2FB03231B099B0D3B614D
:100C3000404A404B5B6843F0010353603D4A3D4BE3
:100C40005B6843F0100353603A493A4B9A683A4B59
:100C500013407A68013A12021A433B69013B1B04B4
:100C60001A43BB68013B1B0613438B60314A314B6F
:100C70005B6843F0400353602E4A2E4B5B6823F0C1
:100C8000100353602B4A2B4B5B6843F48023536063
:100C900000BF284B1B6803F00403002BF9D0254A42
:100CA000244B5B6823F00103536000BF214B1B689A
:100CB00003F00103002BF9D17B69204AA2FB032337
:100CC0005B099B0D3B613A6A3B699A4202D23869E3
:100CD00000F038F87B695B08194AA2FB03235B0923
:100CE0009B0D3B613A6A3B699A4202D2386900F037
:100CF00029F8386A00F026F815E00E490D4B9B687C
:100D000023F07F023B6A013B13438B60094A094B86
:100D10005B6843F00103536000BF064B1B6803F0A0
:100D20000103002BF9D01837BD4680BD83DE1B437D
:100D3000ABAAAAAA10470050FF8080F08988888853
:100D4000B7600BB680B582B000AF78600749074B3B
:100D50009B6823F4FE027B68013B1B0413438B60FA
:100D60003220FFF7F1FB0837BD4680BD1047005029
:100D700080B483B000AF78607B68D3F8C43103F4EB
:100D80004073002B0CBF01230023DBB218460C3745
:100D9000BD465DF8047B704780B483B000AF7860D7
:100DA000084611461A460346FB700B46BB701346B5
:100DB0007B70FA78BB781B0403F47F031A437B78BB
:100DC0001B061A437B68C3F8C4210C37BD465DF887
:100DD000047B704780B483B000AF78607B681B6889
:100DE00043F040027B681A600C37BD465DF8047B17
:100DF000704700BF80B483B000AF78607B681B6829
:100E000023F040027B681A600C37BD465DF8047B16
:100E1000704700BF80B483B000AF786039603A6833
:100E20007B68934238BF134618460C37BD465DF8C1
:100E3000047B704780B483B000AF786039603A6853
:100E40007B68934228BF134618460C37BD465DF8B1
:100E5000047B704780B590B000AF786039600C2398
:100E6000FB630C23BB6300237B6301233B630023F1
:100E70007B610023FB6242F21073BB620123FB63C0
:100E800067E03B681A6813469B0013445B001A46F0
:100E9000FB6BB2FBF3F33B613B685B683A69B2FB07
:100EA000F3F37B62796A5B4BA3FB0123DA081346F9
:100EB0009B0013445B00CA1A052A09D97B6A554A6C
:100EC000A2FB0323DB087B627B6A01337B6205E0C4
:100ED0007B6A504AA2FB0323DB087B627B6A002B00
:100EE0000AD07A6A13469B0013445B001A463B699A
:100EF000B3FBF2F33B6207E03B69464AA2FB0323E4
:100F0000DB083B6201237B623B685A683B6A9A427A
:100F100005D83B685B683A6AD31AFB6104E03B681A
:100F20005A683B6AD31AFB617B6A142B0ED8BA6AE3
:100F3000FB699A420AD9FB6B7B637B6AFB62FB69A4
:100F4000BB62FB69B3F57A7F00D205E0FB6B01332E
:100F5000FB63FB6B402B94D942F21073BB624023BE
:100F6000BB632EE0BB6B013342F2107202FB03F253
:100F7000FB6AB2FBF3F3FB603B681B891A46FB6814
:100F80009A4206D83B681B891A46FB689B1ABB61CC
:100F900005E03B681B891A46FB68D31ABB61BA6A35
:100FA000BB699A4203D9BB6B3B63BB69BB623B68BD
:100FB0001B891A46FB689A4200D905E0BB6B013BCE
:100FC000BB63BB6B022BCDD8FA6A3B6BD31A013BD8
:100FD0007B617868FFF7FEFE7B69013B1B0303F42E
:100FE000E0423B685B89013B9B01DBB21A433B6BF0
:100FF000013B1B0203F470631A437B6B013B03F05C
:101000003F031A437B681A617868FFF7F3FE4037A5
:10101000BD4680BDCDCCCCCC80B582B000AF786071
:101020000B46FB701346BB7000BF7868FFF7A0FE4D
:10103000034683F00103DBB2002BF6D1FB780133CA
:10104000DBB2BA7878680221FFF7A6FE0837BD4602
:1010500080BD00BF80B582B000AF78600948FFF75F
:1010600025FB7B681B6823F001027B681A6000BFC8
:101070007B681B6803F00203002BF9D10837BD46DB
:1010800080BD00BF1000001080B483B000AF786056
:101090000B46FB700C37BD465DF8047B704700BF04
:1010A00080B584B000AF7860FFF71CFBF860FB6888
:1010B00018461037BD4680BD80B588B000AFF860D7
:1010C0000B467A60FB72F868FFF7C4FFFB7AF8689A
:1010D0001946FFF7D9FFF868FFF7E2FFF861FA69F0
:1010E0007B68B2FBF3F3C3F5806300201946FFF77A
:1010F00091FE0346184640F2FF31FFF79BFEB861B0
:10110000BB69C3F58063FA69B2FBF3F37B61FB68EB
:10111000DB6823F4434323F0FF03FA68D360FB68E2
:10112000DA68BB69134343F48042FB68DA607B6989
:1011300018462037BD4680BD80B586B000AF7860C8
:101140007B681B6803F13843A3F5A8335B097B6117
:101150007B695B095A037B6903F01F031B0213437E
:101160003B617B681B687A681268926822F47F4250
:101170009A607B681B687A68126891683A690A43CA
:101180009A607B68DB7903F02003DBB2002B07D089
:101190007B68DB7903F02003DBB2002B00D160E039
:1011A0007B681B7E002B04D07B681B7E012B00D04C
:1011B00057E07B681B682022DA617B68DB7903F0EB
:1011C0002003DBB2002B28D17B685B68FB60FB68E7
:1011D00003F06043FB607B685B68C3F31C039B0404
:1011E0001A46FB681343FB607B681B68FA689A61C8
:1011F0007B689B68FB60FB6803F06043FB607B6877
:101200009B68C3F31C039B041A46FB681343FB60F3
:101210007B681B68FA68DA6009E07B681B687A689B
:1012200052689A617B681B687A689268DA607B68AA
:101230001B7E012B0CD1786800F01AF87B681B68C4
:101240004FF00062DA617B681B68074ADA6108E0E8
:101250007B681B684FF40062DA617B681B68034A95
:10126000DA611837BD4680BDC00020064006A000E8
:1012700080B485B000AF78600323FB737B681B7E6E
:10128000012B22D17B681B682022DA617B681B68F6
:101290007A681268126822F070617A68127B12060E
:1012A00002F070620A431A607B681B687A681269F0
:1012B0001A617B681B687A6852695A617B681B688F
:1012C000064ADA610023FB7301E00323FB73FB7B17
:1012D00018461437BD465DF8047B7047400028006F
:1012E00080B487B000AF78600123FB757B681B6812
:1012F000DB6903F020035B093B617B681B68DB69EA
:1013000003F480731B0AFB603B69002B02D10423AA
:10131000FB750CE0FB68012B02D10223FB7506E094
:101320007B681B684FF0E062DA610023FB75FB7D90
:1013300018461C37BD465DF8047B704780B487B003
:1013400000AF78600123FB750023BB7500237B751C
:101350007B681B68DB6903F40063DB0A3B617B6825
:101360001B68DB6903F004039B08FB603B69002BEF
:1013700002D00323FB75A7E0FB68012B02D10223F7
:10138000FB75A1E07B681B680822DA617B681B683B
:101390009B6903F000535B0F002B40D17A68D3792F
:1013A0006FF34513D3717B681B689A694A4B1340EE
:1013B0009B0C23F060417A68536861F31C0353600F
:1013C0007B681B68DB6803F000535B0FDBB203F044
:1013D0000103D9B27A68D37A61F34513D3727B687B
:1013E000DB7A03F02003DBB2002B0DD07B681B6897
:1013F000DA68394B13409B0C23F060417A6893689C
:1014000061F31C03936032E07B681B68DB6823F0A8
:1014100060417A68936861F31C03936027E07A68FF
:10142000D37943F02003D3717B681B689B6923F059
:1014300060417A68536861F31C0353607B681B68E2
:10144000DB6823F060417A68936861F31C03936062
:101450007B681B68DB6803F000535B0FDBB203F0B3
:101460000103D9B27A68D37A61F34513D3727B68EA
:101470001B681B6803F070631B0EDAB27B681A737B
:101480007B681B681A697B681A617B681B685A69EC
:101490007B685A617B681B68DB6903F004039B0867
:1014A000BB757B681B68DB6903F00803DB087B7591
:1014B000BB7D002B03D07B7D002B7FF463AF7B686B
:1014C00000221A760023FB75FB7D18461C37BD46AB
:1014D0005DF8047B704700BF0000FC1F80B483B040
:1014E00000AF786039603B68B3F5800F06D07B6849
:1014F0001A683B681A437B681A6005E07B689A6942
:101500003B681A437B689A610C37BD465DF8047BE3
:10151000704700BF80B483B000AF78607B68DB6841
:1015200043F480727B68DA600C37BD465DF8047B5B
:10153000704700BF80B582B000AF78607B68104A0A
:10154000934203D10420FFF7B1F816E07B680D4AFF
:10155000934203D10820FFF7A9F80EE07B680A4AFE
:10156000934203D11020FFF7A1F806E07B68074AF9
:10157000934202D10648FFF799F80837BD4680BD6F
:1015800000C0004000000140004001400040004811
:101590000100001080B582B000AF78601020FFF726
:1015A000D5F97868FFF7C6FF0837BD4680BD00BF94
:1015B00080B584B000AF78600B46FB707868FFF7A9
:1015C000E9FF7868FFF7A6FF7B681B68FB60FB6894
:1015D00023F44043FB60FB789B03FA681343FB60F2
:1015E0007B68FA681A601037BD4680BD80B483B04E
:1015F00000AF786039603B681A687B685A613B6865
:101600005B79C3F34013DBB21A057B685A603B6811
:101610001B79C3F30303DBB21A467B685A623B684B
:101620005B79C3F30303DBB21A467B681A623B683B
:101630005B79C3F30013DBB21A467B689A613B689F
:101640001B79C3F30313DBB21A467B68DA620C37EB
:10165000BD465DF8047B704780B487B000AF78600A
:101660000B46FB701346BB707B68D3F8A830FB6059
:10167000FB78092B2CD801A252F823F0A5160008FC
:10168000A5160008AF160008AF160008D11600080E
:10169000D1160008D1160008D1160008B9160008A6
:1016A000C516000803233B6100237B6116E00C2371
:1016B0003B6102237B6111E04FF440733B610823DF
:1016C0007B610BE04FF440633B610A237B6105E0E3
:1016D0004FF440533B610C237B6100BF3B69DB430C
:1016E000FA681340FB60BA787B6902FA03F3FA6880
:1016F0001343FB607B68FA68C3F8A8201C37BD461B
:101700005DF8047B704700BF80B483B000AF7860A1
:101710007B68DB6843F480727B68DA600C37BD4617
:101720005DF8047B704700BF80B483B000AF786081
:101730007B6801221A610C37BD465DF8047B704757
:1017400080B582B000AF78607B68094A934203D1CC
:101750008020FEF7ABFF07E07B68064A934203D187
:101760004FF48070FEF7A2FF0837BD4680BD00BF72
:10177000000002400040024080B582B000AF7860B7
:101780001020FFF7E3F87868FFF7DAFF0837BD4667
:1017900080BD00BF80B584B000AF78600B46FB70A1
:1017A0007868FFF7E9FF7868FFF7AEFF7B681B6892
:1017B000FB60FB6823F44043FB60FB789B03FA6803
:1017C0001343FB607B68FA681A601037BD4680BD22
:1017D00080B582B000AF786039607868FFF7A4FF09
:1017E0003B681A687B685A613B685B7BC3F30013F4
:1017F000DBB21A057B685A603B681B7BC3F30303AB
:10180000DBB21A467B685A623B681B7BC3F3031347
:10181000DBB21A467B68DA623B685B7BC3F3030387
:10182000DBB21A467B681A623B685A687B689A6129
:101830003B689B6883F014027B689A640837BD4656
:1018400080BD00BF80B485B000AF78600B46FB70F0
:101850001346BB707B685B68BB60BB6823F0030307
:10186000BB60FB78BA681343BB607B68BA685A6098
:101870007B685B69FB60BB78012B04D1FB6843F498
:101880008063FB6003E0FB6823F48063FB607B689C
:10189000FA685A611437BD465DF8047B704700BF93
:1018A00080B485B000AF78600B46FB701346BB7008
:1018B0007B685B68BB60BB6823F40033BB60BB68BC
:1018C00043F40033BB607B68BA685A607B685B692D
:1018D000FB60BB78002B04D0FB6843F40013FB6073
:1018E00003E0FB6823F40013FB60FB78012B04D1B9
:1018F000FB6843F48003FB6003E0FB6823F4800390
:10190000FB607B68FA685A611437BD465DF8047B5A
:10191000704700BF80B489B000AFF8600B467A60B2
:10192000FB72FB7A013BFB77FB681B68BB61FB7FAB
:101930005B00DBB21033FB75FB7D032202FA03F37D
:10194000DB43BA691340BB617B685B781A46FB7D59
:1019500002FA03F3BA691343BB61FB7F1633FB75CD
:10196000FB7D012202FA03F3DB43BA691340BB613A
:101970007B689B781A46FB7D02FA03F3BA6913432E
:10198000BB61FB7F5B00DBB21933FB75FB7D032280
:1019900002FA03F3DB43BA691340BB617B68DB786F
:1019A0001A46FB7D02FA03F3BA691343BB61FB7F5E
:1019B0009B00FB75FB7D0F2202FA03F3DB43BA6940
:1019C0001340BB617B681B781A46FB7D02FA03F368
:1019D000BA691343BB61FB68BA691A602437BD4614
:1019E0005DF8047B704700BF80B483B000AF7860BF
:1019F0000B467B807A887B685A630C37BD465DF85E
:101A0000047B704780B483B000AF78600B46FB70F6
:101A100013463B80FB78002B03D13A887B68DA635E
:101A200002E03A887B685A640C37BD465DF8047B57
:101A3000704700BF80B483B000AF786039603B6806
:101A40005A687B681A653B689A687B685A653B6888
:101A50001A687B68DA640C37BD465DF8047B704712
:101A600080B483B000AF78600B46FB707B685B6925
:101A700023F0C0427B685A617B685A69FB785B0738
:101A80001A437B685A610C37BD465DF8047B70478A
:101A900080B584B000AFF8600B467A60FB72F868DE
:101AA000FEF782FCFB681A68FB7A9B0019460F233D
:101AB0008B40DB431A407B681B68F97A89008B40B6
:101AC0001A43FB681A60FA7A7B685968FB6804322B
:101AD00043F822101037BD4680BD00BF80B483B0EC
:101AE00000AF78600B46FB701346BB70FA78BB788A
:101AF00003F00303D9B27B68083201F00301090146
:101B000053F8220020F03000014343F822100C3734
:101B1000BD465DF8047B704780B483B000AF786049
:101B20000B46FB701346BB707B685A6FFB785B00FB
:101B3000194603238B40DB431A407B685A677B6856
:101B40005A6FBB78F97849008B401A437B685A6713
:101B50000C37BD465DF8047B704700BF80B582B08E
:101B600000AF78603960786800F046F83B681B7910
:101B7000002B06D13B681B6878681946022200F0EA
:101B800087F87B680E4A5A637B684FF4A2629A63B7
:101B90003B681B79002B07D13B685B7943F00B0353
:101BA000DBB21A467B68DA637B684FF0FF32DA6497
:101BB0003B68DB881A467B681A640837BD4680BDDF
:101BC00002013F0780B485B000AF78607B68D3F82E
:101BD0000C3103F0E063002B03D17B685B6DFB816C
:101BE00003E07B68D3F81C31FB81FB89184614376E
:101BF000BD465DF8047B704780B582B000AF786069
:101C00007B681A4A934203D07B68194A934203D1F6
:101C1000184800F01BF916E07B68174A934203D07E
:101C20007B68164A934203D1154800F00FF90AE089
:101C30007B68144A934203D07B68134A934202D1D3
:101C4000124800F003F97B680322DA6000BF7B686A
:101C5000DB6803F00103002BF9D07B681B6C23F0D9
:101C60000F027B681A640837BD4680BD0000034040
:101C7000000203400800034000000248000202483E
:101C8000080002480040024800420248084002485A
:101C900080B58EB000AFF860B9607A60BB68632B26
:101CA00058D97B68002B55D0FEF71CFD02462E4B01
:101CB000A3FB02235B093B62BB682B4AA2FB032305
:101CC0005B09BB600123FB620123BB6240F2FF336F
:101CD0007B6240F2FF333B6322E03B6A3A6B02FBDC
:101CE00003F2BB68796801FB03F3B2FBF3F3FB611A
:101CF000FB699B0ABB61FB69C3F309037B61BB6999
:101D0000B3F5806F09D27A697B6A9A4205D27B6902
:101D10007B62BB69BB623B6BFB623B6B013B3B6322
:101D20003B6B002BD9D1FB6A43F40042FB681A617C
:101D3000FB685A690D4B13407A68013A92021A43C4
:101D4000BB6A013B1B041A43FB685A61002387F8F6
:101D5000373002E0012387F8373097F837301846DC
:101D60003837BD4680BD00BF1F85EB51EF8000FCBA
:101D700080B485B000AFF860B9603B601346FB717A
:101D8000FB68D3F8083123F0E062FB68C3F8082150
:101D9000FB68D3F80821094B13403A681102BA686E
:101DA0001143FA7912060A431A43FB68C3F8082163
:101DB0001437BD465DF8047B704700BFC0C0FFF814
:101DC00080B485B000AFF860B9603B601346FB712A
:101DD000FB68D3F80C3123F0E062FB68C3F80C21F8
:101DE000FB68D3F80C210A4B13403A681102BA6819
:101DF0001143FA7912060A43134343F08052FB68F9
:101E0000C3F80C211437BD465DF8047B704700BF52
:101E1000C0C0FFEF80B485B000AFF8600B467A60B9
:101E2000FB72FB689A69FB7A072101FA03F3DB4333
:101E30001A40FB7A796801FA03F31A43FB689A6146
:101E40001437BD465DF8047B704700BF80B582B093
:101E500000AF78607B680D4A934204D14FF4006074
:101E6000FEF724FC0EE07B68094A934203D109483F
:101E7000FEF71CFC06E07B68074A934202D1074844
:101E8000FEF714FC0837BD4680BD00BF08000340C4
:101E900008000248800000100840024800010010BD
:101EA00080B400AFBD465DF8047B704780B483B05A
:101EB00000AF78600B46FB707B68DA68FB78012125
:101EC00001FA03F31A437B68DA600C37BD465DF80C
:101ED000047B704780B483B000AF78607B680122D8
:101EE000DA600C37BD465DF8047B704780B483B080
:101EF00000AF78607B6802221A610C37BD465DF83E
:101F0000047B704780B483B000AF78600B467B8061
:101F10007A887B685A630C37BD465DF8047B70474E
:101F200080B483B000AF78600B467B807A887B6892
:101F3000DA630C37BD465DF8047B704780B483B02C
:101F400000AF786039607B683A681A610C37BD462B
:101F50005DF8047B704700BF80B483B000AF786049
:101F60000B46FB707B68D3F8A420FB78012101FAB3
:101F700003F31A437B68C3F8A4200C37BD465DF811
:101F8000047B704780B584B000AF78600023FB739A
:101F90007B6893F8263083F00103DBB2002B09D075
:101FA0007B6893F82130002B04D1786800F008F8A2
:101FB0000346FB73FB7B18461037BD4680BD00BF50
:101FC00080B584B000AF78607B681B69184601F06B
:101FD0007FFA0346FB737B681B699A687B681B7EEC
:101FE00010461946FFF762FF7B685A697B68DB6918
:101FF00010461946FFF7FAFA786800F02DF87B686A
:1020000093F82530002B0FD07B685A697B6893F8D2
:102010002030104600211A46FFF71EFB7B685B69E3
:1020200018460021FFF798FF7B685B691846FFF7A9
:102030005DFF7B68012283F826207B6893F82430BB
:10204000002B04D07B685B691846FFF743FFFB7BDE
:1020500018461037BD4680BD80B582B000AF7860AD
:102060007B685A697B685B8C10461946FFF74AFF0C
:102070007B685B6918460021FFF752FF7B681B698C
:102080009A687B68DB6810461946FFF757FF0837E8
:10209000BD4680BD80B485B000AFF8600B467A6065
:1020A0007B817989FB687A68203243F822101437E3
:1020B000BD465DF8047B704780B483B000AF7860A4
:1020C0007B689B6BDBB223F07F03DBB218460C37D7
:1020D000BD465DF8047B704780B483B000AF786084
:1020E0007B681B6D03F4C04318460C37BD465DF892
:1020F000047B704780B485B000AFF8600B467A600F
:102100007B817989FB687A68603243F82210143742
:10211000BD465DF8047B704780B483B000AF786043
:102120007B684FF48042C3F818210C37BD465DF838
:10213000047B704780B483B000AF78607B68D3F8CD
:10214000143103F00803002B14BF01230023DBB27A
:1021500018460C37BD465DF8047B704780B483B0E9
:1021600000AF786039607B683A68C3F818210C3793
:10217000BD465DF8047B704780B483B000AF7860E3
:102180000B46FB707B681B6C23F0C002FB789B0145
:10219000DBB21A437B681A640C37BD465DF8047BDA
:1021A000704700BF80B483B000AF786039607B684F
:1021B000DA6C3B681A437B68DA640C37BD465DF81D
:1021C000047B704780B584B000AF78607B685B6843
:1021D0005B6898470346FB73FB7B18461037BD4688
:1021E00080BD00BF80B586B000AFF860B9607A608E
:1021F0000123FB75FB685B6893F88530022B06D1E1
:10220000F868B9687A6800F007F80346FB75FB7D4B
:1022100018461837BD4680BD80B586B000AFF8605F
:10222000B9607A600223FB75FB689B683B61BB6801
:10223000002B33D07B68002B30D03B69DB7FDBB2D7
:1022400083F00103DBB2002B27D03B6993F82030E9
:10225000DBB283F00103DBB2002B1ED03B6901220D
:10226000DA773B69BA685A613B69104A9A613B69FF
:10227000012283F821203B69002283F82220F8689C
:10228000796800F015F80346FB753B69002283F876
:1022900021203B690022DA7702E001E00323FB758D
:1022A000FB7D18461837BD4680BD00BF800000206A
:1022B00090B587B000AF7860396001237B617B689F
:1022C0009B68FB6000237B82FB6800221A61FB682D
:1022D00000229A607B689B681B68082B01D9022347
:1022E0007B617B69013B1A463B6803FA02F2FB689B
:1022F000DA607B681A68FB681B7FDBB21046194600
:10230000FFF73AFF7B685B6893F87D30002B00F0A5
:10231000D6807B681B681846FFF7FEFE7B681B684B
:10232000184600F0C5F9FB6893F82130DBB2002BAA
:102330000BD07B681A68FB681B7FDBB210464FF638
:10234000FF711A46FFF7D6FE1DE07B69022B07D10D
:10235000FB689A69FB689B6813441B887B8206E0D4
:10236000FB689A69FB689B6813441B787B827B68D7
:102370001A68FB681B7FDBB21C467B8A1046194635
:102380002246FFF7B7FEFB689A687B691A44FB6830
:102390009A6061E0FB6893F82130DBB2002B0BD030
:1023A0007B681A68FB681B7FDBB210464FF6FF7133
:1023B0001A46FFF79FFE1DE07B69022B07D1FB68E1
:1023C0009A69FB689B6813441B887B8206E0FB6864
:1023D0009A69FB689B6813441B787B827B681A6848
:1023E000FB681B7FDBB21C467B8A104619462246DF
:1023F000FFF780FE00BF7B681B681846FFF79AFE58
:102400000346002BF7D17B681B681846FFF7DAFB01
:1024100003467B82FB685A69FB681B6913447A8A0E
:10242000D2B21A707B69022B0AD1FB685A69FB6829
:102430001B69013313447A8A120A92B2D2B21A701B
:10244000FB681A697B691A44FB681A61FB689A6821
:102450007B691A44FB689A60FB689A68FB68DB68D2
:102460009A4297D300BF7B681B681846FFF762FE4D
:102470000346002BF7D17B681B681846FFF7A2FBC9
:1024800003467B82FB685A69FB681B6913447A8A9E
:10249000D2B21A707B69022B0AD1FB685A69FB68B9
:1024A0001B69013313447A8A120A92B2D2B21A70AB
:1024B0007B681B6818460521FFF750FEE9E07B6842
:1024C0001B68184600F0F4F800BF7B681B681846CC
:1024D000FFF7F2FD0346802BF7D0FB6893F821301D
:1024E000DBB2002B0BD07B681A68FB681B7FDBB26A
:1024F00010464FF6FF711A46FFF7CCFD1DE07B69D1
:10250000022B07D1FB689A69FB689B6813441B8800
:102510007B8206E0FB689A69FB689B6813441B7822
:102520007B827B681A68FB681B7FDBB21C467B8A58
:10253000104619462246FFF7ADFDFB689A687B6995
:102540001A44FB689A6071E000BF7B681B681846FC
:10255000FFF7B2FD0346802BF7D0FB6893F82130DC
:10256000DBB2002B0BD07B681A68FB681B7FDBB2E9
:1025700010464FF6FF711A46FFF78CFD1DE07B6990
:10258000022B07D1FB689A69FB689B6813441B8880
:102590007B8206E0FB689A69FB689B6813441B78A2
:1025A0007B827B681A68FB681B7FDBB21C467B8AD8
:1025B000104619462246FFF76DFD00BF7B681B6879
:1025C0001846FFF789FD0346002BF7D07B681B6890
:1025D0001846FFF7F7FA03467B82FB685A69FB68E7
:1025E0001B6913447A8AD2B21A707B69022B0AD112
:1025F000FB685A69FB681B69013313447A8A120A23
:1026000092B2D2B21A70FB681A697B691A44FB68ED
:102610001A61FB689A687B691A44FB689A607B6858
:102620001B6818464FF44041FFF7BCFDFB689A68F1
:10263000FB68DB689A4287D300BF7B681B6818463B
:10264000FFF74AFD0346002BF7D07B681B6818464E
:10265000FFF7B8FA03467B82FB685A69FB681B697F
:1026600013447A8AD2B21A707B69022B0AD1FB68B2
:102670005A69FB681B69013313447A8A120A92B2C1
:10268000D2B21A707B681B6818464FF44041FFF7BE
:1026900089FDFB680022DA60FB6800221A61FB6892
:1026A00000229A60002318461C37BD4690BD00BF2B
:1026B00080B582B000AF78607868FFF783FA7868F9
:1026C000FFF780FA0837BD4680BD00BF80B483B0F5
:1026D00000AF78600B46FB701346BB70F878FB7850
:1026E0007A6806339B0013445B6823F00702BB78CB
:1026F0001A437968831D9B000B445A600C37BD4612
:102700005DF8047B704700BF80B483B000AF786091
:102710000B46FB707B685B6B23F07062FB78013BC0
:102720001B061A437B685A630C37BD465DF8047B71
:10273000704700BF80B483B000AF78600B46FB7079
:102740007B685B6B23F47C12FB78013B1B041A4310
:102750007B685A630C37BD465DF8047B704700BF49
:1027600080B485B000AFF860B9607A60FB685B69DF
:1027700023F05042BB681A437B681A43FB685A61D6
:102780001437BD465DF8047B704700BF80B483B04A
:1027900000AF78600B46FB707B681B6C23F00F0268
:1027A000FB781A437B681A640C37BD465DF8047BDE
:1027B000704700BF80B582B000AF786078680121B3
:1027C000FFF7E4FF0837BD4680BD00BF80B483B08B
:1027D00000AF78607B685B6B43F001027B685A63F3
:1027E0000C37BD465DF8047B704700BF80B483B0F2
:1027F00000AF786039607B685B6923F4FE423B6818
:10280000013B9B02134343F480727B685A610C378F
:10281000BD465DF8047B704780B483B000AF78603C
:102820007B68DB6B23F008027B68DA630C37BD46FC
:102830005DF8047B704700BF80B584B000AFF860DE
:10284000B9607A60F868B9687A68FFF789FF10376D
:10285000BD4680BD80B582B000AF78600B46FB708E
:10286000FB7878681946FFF74FFF0837BD4680BDF3
:1028700080B582B000AF78600B46FB70FB7878685B
:102880001946FFF757FF0837BD4680BD80B582B0B7
:1028900000AF78600B46FB701346BB70F878FB788E
:1028A0007A6806339B0013445B6823F0500343F0BF
:1028B00010027968831D9B000B445A60FA78BB783C
:1028C000786811461A46FFF701FF0837BD4680BDFC
:1028D00080B582B000AF0023FB7124482449FFF784
:1028E0003DF92248FFF798FF2048FFF76FFF1F4888
:1028F0000821FFF7AFFF1D481021FFF7B9FF1B4864
:1029000000210022FFF798FF18481421FFF76EFFFF
:1029100018480421184AFDF759FD144800210122E6
:10292000FFF7B4FF1148FFF745FF12480721134A8C
:10293000FDF74CFD0F480121114AFDF747FD0B48FB
:1029400010210522FFF766FA08481021042201230E
:10295000FFF70EFA0548002104220F23FFF730FA93
:10296000FB7918460837BD4680BD00BF0000034014
:1029700098000020008102481404002084000020F8
:102980005069000880B483B000AF78600B46FB70DC
:102990007B68DA68FB78012101FA03F31A437B684C
:1029A000DA600C37BD465DF8047B704780B483B0B5
:1029B00000AF786039607B685A693B685B041A43F2
:1029C0007B685A610C37BD465DF8047B704700BFD9
:1029D00080B483B000AF786039607B683A681A6170
:1029E0000C37BD465DF8047B704700BF80B483B0F0
:1029F00000AF78600B467B807A887B681A670C375B
:102A0000BD465DF8047B704780B483B000AF78604A
:102A10000B46FB707B68D3F8A420FB78012101FAF8
:102A200003F31A437B68C3F8A4200C37BD465DF856
:102A3000047B704780B483B000AF78600B46FB70B6
:102A40007B68D3F8B020FB78012101FA03F31A4325
:102A50007B68C3F8B0200C37BD465DF8047B704737
:102A600080B483B000AF78600549054BDA6C7B68B1
:102A70001343CB640C37BD465DF8047B704700BF41
:102A80000040005080B483B000AF78600549054B2A
:102A9000DA6C7B68DB431340CB640C37BD465DF8D2
:102AA000047B70470040005080B483B000AF786072
:102AB0000B46FB70FB7801229A407B685A600C370A
:102AC000BD465DF8047B704780B483B000AF78608A
:102AD0000B46FB70FB784FF480329A407B685A605B
:102AE0000C37BD465DF8047B704700BF80B582B0EF
:102AF00000AF78607B681B6893F84430012B06D1E7
:102B00007B689B681B6818460021FFF77DFF7B6888
:102B10001B6893F84530012B06D17B689B681B68C6
:102B200018460A21FFF770FF0837BD4680BD00BF79
:102B300080B582B000AF78607B681B68DB7C012BBE
:102B400009D17B689B6D1A687B689B6D1B79104669
:102B50001946FFF7B9FF7B681B68DB7C022B09D1A4
:102B60007B689B6D1A687B689B6D1B7910461946C4
:102B7000FFF79AFF0837BD4680BD00BF80B582B021
:102B800000AF78607B681B68DB7C012B09D17B6818
:102B90009B6D1A687B689B6D1B7910461946FFF781
:102BA00083FF7B681B68DB7C022B09D17B689B6DF4
:102BB0001A687B689B6D1B7910461946FFF784FFE6
:102BC0000837BD4680BD00BF80B586B000AF7860D5
:102BD00000237B6100233B610023FB737B681B6840
:102BE000BB607B6893F89030002B40F033817B68AA
:102BF0009B6E184600F03CFC0346FB7300233B61D0
:102C000016E07B683A69083253F8223018687B680E
:102C10003A69083253F8223019797B683A690E32E2
:102C200053F822301A46FDF7D1FB3B6901333B6173
:102C30003B69052BE5D9BB6893F84730012B1AD1C6
:102C40007B681B6D19687B681B6D1A797B685B6DEF
:102C5000084611461A46FDF7B9FB7B681B6D1968DB
:102C60007B681B6D1A797B681B689B7C0846114644
:102C70001A46FEF751FFBB68DB7C002B0CD07B684B
:102C80009B6D19687B689B6D1A797B68DB6D0846C4
:102C900011461A46FDF79AFB7868FFF749FF0023B3
:102CA0007B61A4E07B687A69023253F822301A68AB
:102CB0007B689B6910461946FEF78AFD7B687A6936
:102CC000023253F822301A687B68DB6E10461946D0
:102CD000FEF7B0FE7B687A69023253F822301A6838
:102CE0007B685B6E104601211A46FEF713FEBB6837
:102CF00093F84730012B21D17B687A69023253F86F
:102D000022301A687B681B6E104603211A46FEF7B4
:102D100001FE7B687A69023253F822301968BB6879
:102D20005A7CBB6893F84830002B14BF0123002362
:102D3000DBB2084611461A46FEF7B2FD7B687A6997
:102D4000023253F822301A687B68D3F89C309BB269
:102D500010461946FEF748FE7B687A69023253F83E
:102D600022301B68184600210022FEF74BFE7B68CC
:102D70007A69023253F822301B681846012100227A
:102D8000FEF740FE7B687A69023253F822301968F8
:102D90007B681A687B69134408331B790846194617
:102DA000FEF75EFE7B687A69023253F822301B68B8
:102DB0007A687969023152F821201268D2F8A81095
:102DC000BA6878690A3052F820200A43C3F8A8206C
:102DD0007B6859687B687A69023253F822301B7924
:102DE00008461946FFF7CEFD7B6901337B617B699D
:102DF000022B7FF657AF7868FFF778FE7B685A683A
:102E0000BB685B6A10461946FFF7E2FD7B68DB6E24
:102E10001B791A467B68C3F894207B68DB6E5B796C
:102E20001A467B68C3F898207B68DB6E1B78C3F377
:102E30008113DBB21A467B6883F89120FB7B012B60
:102E400006D00023FB737B68012283F8902001E009
:102E50000123FB73FB7B18461837BD4680BD00BFBE
:102E600080B584B000AF78600023FB607B681B688E
:102E7000BB607B6893F89030012B05D07B6893F89A
:102E80009030032B40F033817B680022A3F8AE2002
:102E90007B680022A3F8B0207B680022A3F8B22050
:102EA0007B680022A3F8B4207B680022A3F8B62038
:102EB0007B680022A3F8B8207B680022A3F8BA2020
:102EC0007B680022A3F8BC207B680022C3F8A42002
:102ED0007B680022A3F8C0207868FFF74FFE00232C
:102EE000FB6026E0BB6893F84730012B13D17B6869
:102EF000FA68023253F822301B6818460A21FFF79D
:102F000099FD7B68FA68023253F822301B68184634
:102F10000B21FFF78FFD7B68FA68023253F82230ED
:102F20001B68184601210122FEF78CFCFB68013367
:102F3000FB60FB68022BD5D9BB6893F84730012BA7
:102F400029D17B689B681A68BB681B7D1946BB68E2
:102F50001B7D5B000B4310461946FFF727FD7B687E
:102F6000DB681A68BB685B7D1946BB685B7D5B00EC
:102F70000B4310461946FFF719FD7B681B691A6859
:102F8000BB689B7D1946BB689B7D5B000B4310466D
:102F90001946FFF70BFDBB681B7C002B75D07B68C7
:102FA0005B691B68184601210122FEF74BFCBB68D8
:102FB0001B7C012B33D17B689B6819687B68B3F855
:102FC000C2305B089AB2BB68B3F8403013449BB27E
:102FD00008461946FFF70AFD7B68DB6819687B68BD
:102FE000B3F8C2305B089AB2BB68B3F84030134400
:102FF0009BB208461946FFF7F9FC7B681B69196804
:103000007B68B3F8C2305B089AB2BB68B3F8403053
:1030100013449BB208461946FFF7E8FC35E07B688D
:103020009B6819687B68D3F894309BB2DBB29AB284
:10303000BB68B3F8403013449BB208461946FFF70B
:10304000D5FC7B68DB6819687B68D3F894309BB249
:10305000DBB29AB2BB68B3F8403013449BB2084667
:103060001946FFF7C3FC7B681B6919687B68D3F8B6
:1030700094309BB2DBB29AB2BB68B3F840301344D1
:103080009BB208461946FFF7B1FCBB681B6A18469D
:10309000FFF7E6FC7B689B681B681846002101224D
:1030A000FEF7D0FB7B68DB681B6818460021012215
:1030B000FEF7C8FB7B681B691B68184600210122CC
:1030C000FEF7C0FBBB681B7C002B07D07B685B69ED
:1030D0001B68184600210122FEF7B4FBBB681B6A7F
:1030E0001846FFF7CFFC7B68022283F89020103748
:1030F000BD4680BD80B400AF044BDB6803F4E063E1
:103100001B0A1846BD465DF8047B704700ED00E0E1
:1031100080B483B000AF0346FB7197F90730002BF2
:103120000BDB084997F907305B09FA7902F01F02B7
:10313000012000FA02F241F823200C37BD465DF869
:10314000047B704700E100E080B483B000AF034629
:10315000FB7197F90730002B0CDB094997F9073011
:103160005B09FA7902F01F02012000FA02F26033D3
:1031700041F823200C37BD465DF8047B704700BF43
:1031800000E100E080B483B000AF03463960FB711A
:1031900097F90730002B0ADB0D4997F907303A6899
:1031A000D2B29200D2B20B4483F800230AE009495C
:1031B000FB7903F00F03043B3A68D2B29200D2B21B
:1031C0000B441A760C37BD465DF8047B704700BF90
:1031D00000E100E000ED00E080B489B000AFF860ED
:1031E000B9607A60FB6803F00703FB61FB69C3F118
:1031F0000703062B28BF0623BB61FB690633062B9A
:1032000002D9FB69013B00E000237B61BB6901221D
:1032100002FA03F35A1EBB681A407B699A407B6925
:10322000012101FA03F3591E7B680B401343184632
:103230002437BD465DF8047B704700BF90B583B06E
:1032400000AF78607B6859687B6893F821207B68C1
:103250000833084611461A46FDF7B8F87B68196826
:103260007B68DA7F7B681433084611461A46FEF7FE
:103270000FFC7B681A687B6893F82030104619466B
:103280000122FEF72BFC7B681C7FFFF733FF014612
:103290007B685B7F1A467B689B7F084611461A460F
:1032A000FFF79AFF024663B218461146FFF76AFF1E
:1032B0007B6893F82230002B0BD07B681B7F5BB2BE
:1032C0001846FFF741FF7B681B7F5BB21846FFF78C
:1032D0001FFF002318460C37BD4690BD80B400AFD9
:1032E000044BDB6803F4E0631B0A1846BD465DF837
:1032F000047B704700ED00E080B483B000AF03466C
:10330000FB7197F90730002B0BDB084997F9073061
:103310005B09FA7902F01F02012000FA02F241F87B
:1033200023200C37BD465DF8047B704700E100E0C8
:1033300080B483B000AF03463960FB7197F9073062
:10334000002B0ADB0D4997F907303A68D2B2920098
:10335000D2B20B4483F800230AE00949FB7903F059
:103360000F03043B3A68D2B29200D2B20B441A76F1
:103370000C37BD465DF8047B704700BF00E100E0FC
:1033800000ED00E080B489B000AFF860B9607A6009
:10339000FB6803F00703FB61FB69C3F10703062B1E
:1033A00028BF0623BB61FB690633062B02D9FB69E4
:1033B000013B00E000237B61BB69012202FA03F3B9
:1033C0005A1EBB681A407B699A407B69012101FA49
:1033D00003F3591E7B680B40134318462437BD4640
:1033E0005DF8047B704700BF80B582B000AF7860A5
:1033F0007B681B785BB21846FFF77EFF0837BD4637
:1034000080BD00BF90B583B000AF78607B681C784A
:10341000FFF764FF01467B685B781A467B689B7800
:10342000084611461A46FFF7ADFF024663B218463A
:103430001146FFF77DFF7B68DB78002B02D07868B0
:10344000FFF7D2FF002318460C37BD4690BD00BFE2
:1034500080B483B000AF78607B68DB6843F480722F
:103460007B68DA600C37BD465DF8047B704700BFAF
:1034700080B582B000AF78607B685B7B83F001032E
:10348000DBB2002B0FD07B689A687B681B7B1046F1
:103490001946FEF77FF97B689B681846FFF7D8FF4F
:1034A0007B6801225A73002318460837BD4680BD49
:1034B00080B483B000AF78607B68DB6843F48072CF
:1034C0007B68DA600C37BD465DF8047B704700BF4F
:1034D00080B582B000AF78607B685B7B83F00103CE
:1034E000DBB2002B0FD07B689A687B681B7B104691
:1034F0001946FEF75DF87B689B681846FFF7D8FF12
:103500007B6801225A73002318460837BD4680BDE8
:1035100080B584B000AF78600023FB737B685B7A72
:1035200083F00103DBB2002B0DD07B685A687B6807
:103530001B68104601211A46FDF7BEFD7B6801227B
:103540005A720023FB73FB7B18461037BD4680BDC3
:1035500080B582B000AF78607B6819687B681A7CA0
:103560007B680433084611461A46FCF72FFF7B6838
:1035700019687B681A7C7B685B7C084611461A4692
:10358000FEF7CAFA002318460837BD4680BD00BFC3
:1035900080B485B000AF78607B6803F00703FB6000
:1035A0000C4BDB68BB60BA684FF6FF031340BB608F
:1035B000FB681A02BB68134343F0BF6343F4003354
:1035C000BB60044ABB68D3601437BD465DF8047B1A
:1035D000704700BF00ED00E080B582B000AF012071
:1035E000FFF7D6FF72B6214B214A9A60BFF34F8F87
:1035F00062B61E4A1D4BD3F8883043F47003C2F8FC
:1036000088301C4B03F5805314331B687B607B6848
:1036100023F00F037B607B6843F003037B60154B53
:1036200003F5805314337A681A60104A0F4B5B69B4
:1036300023F0100353610D4A0C4B5B6923F0080320
:1036400053610A4A094B5B6A23F480335362074A89
:10365000064B5B6A23F400335362044A034B5B6AF4
:1036600023F4802353620837BD4680BD00ED00E09F
:10367000000000080010005880B485B000AF7860EA
:103680000023FB737B6801221A70FB7B18461437FA
:10369000BD465DF8047B704780B400AF024B18460E
:1036A000BD465DF8047B7047001BB700B0B586B01F
:1036B00000AF124B3C1D1D460FCD0FC42B6823607D
:1036C0003B1D1846FCF77CFF0020FDF777F8002033
:1036D000FDF72CF80420FDF7FDF801202021FDF76F
:1036E00045F90020FDF736F80120FDF71BF9012010
:1036F000FDF704F91837BD46B0BD00BF18740008C7
:1037000080B485B000AFF8600B467A60FB72FB684E
:103710009A68FB7A072101FA03F3DB431A40FB7A2C
:10372000796801FA03F31A43FB689A601437BD46BF
:103730005DF8047B704700BF80B483B000AF786051
:103740000B46FB707B68DB6823F00702FB7803F015
:1037500007031A437B68DA600C37BD465DF8047BCB
:10376000704700BF80B483B000AF78607B68DB68CF
:1037700043F480727B68DA600C37BD465DF8047BE9
:10378000704700BF80B483B000AF78607B681B686F
:1037900043F040027B681A600C37BD465DF8047B3D
:1037A000704700BF80B483B000AF78607B681B684F
:1037B00023F040027B681A600C37BD465DF8047B3D
:1037C000704700BF80B483B000AF78607B681B682F
:1037D00043F001027B681A600C37BD465DF8047B3C
:1037E000704700BF80B483B000AF78607B681B680F
:1037F00023F001027B681A600C37BD465DF8047B3C
:10380000704700BF80B485B000AFF8600B467A60A7
:10381000FB72FB681B68FA6812689168FA7A0720E5
:1038200000FA02F2D2431140FA7A786800FA02F202
:103830000A439A601437BD465DF8047B704700BFA9
:1038400080B483B000AF786039607B681B687A68A9
:10385000126811683A680A431A600C37BD465DF871
:10386000047B704780B582B000AF78607B681B68CE
:1038700018464FF40031FFF7E3FF0837BD4680BD1F
:1038800080B582B000AF78607B681B6818464FF443
:103890008031FFF7D5FF0837BD4680BD80B584B0C5
:1038A00000AF78600023FB60786800F031F87B6837
:1038B00093F8A430002B03D0FB6843F00203FB60B5
:1038C0007B6893F8A330002B03D0FB6843F004031C
:1038D000FB607B6893F8A530002B03D0FB6843F0B6
:1038E0000803FB607B685B681846F968FDF7F6FD26
:1038F0007B6893F8A630002B06D07B685B6818467F
:103900004FF48001FDF7EAFD1037BD4680BD00BFD2
:1039100080B582B000AF78607B685A687B68D3F866
:103920008C301B78104600211A46FFF7E9FE7B68B1
:103930005A687B68D3F88C305B78104604211A46AD
:10394000FFF7DEFE7B685A687B68D3F88C309B7883
:10395000104608211A46FFF7D3FE7B685A687B6839
:10396000D3F88C30DB7810460C211A46FFF7C8FEDE
:103970000837BD4680BD00BF80B582B000AF78601B
:103980007B681B681846FDF7D7FB7B68DB79002B4B
:103990000BD07B681A687B685B79104604211A4655
:1039A000FFF730FF7868FFF75DFF7B681B7A002B1D
:1039B0000BD07B681A687B689B79104600211A46F9
:1039C000FFF720FF7868FFF75BFF0837BD4680BD33
:1039D00080B584B000AF78600023FB737B681B6800
:1039E0001846FDF77DFC0346FB73FB7B184610373A
:1039F000BD4680BD80B584B000AF78600023FB7306
:103A00007B681B681846FDF799FC0346FB73FB7B3C
:103A100018461037BD4680BD80B584B000AF7860D1
:103A200039600023FB733B68BB607B681B68BA6826
:103A300012681A617B681B68BA6852685A617B68B1
:103A40001B681846FDF714FC0346FB73FB7B184606
:103A50001037BD4680BD00BF80B586B000AF78602E
:103A60000023FB757B68D3F89030FB607B681B6894
:103A70001846FFF74DFD0346FB75FB7D002B7BD100
:103A80007B685A687B689B6810461946FDF7E2F927
:103A90007B685B681846FFF775FE7B685B681846B5
:103AA000FFF790FE7B6893F8A730002B05D07B686A
:103AB0005B681846FFF756FE18E07B68D3F898302D
:103AC00019687B68D3F898301A797B68D3F89C30F2
:103AD000084611461A46FCF779FC7B685A687B68F1
:103AE00093F8A03010461946FFF726FE7868FFF7D6
:103AF000D5FE00233B6119E07A683B6902339B00E5
:103B000013445B68BB607B681B6859687B6893F8EB
:103B1000A120BB681B79084611461A46FDF77CFABE
:103B2000B868FFF729FF3B6901333B617B6893F875
:103B3000A2301A463B699A42DED87B685B68184619
:103B4000FFF730FE7B685B681846FFF74BFE7B682B
:103B500093F8A73083F00103DBB2002B0ED0FB6893
:103B60001968FB681A797B68D3F8943008461146C7
:103B70001A46FCF72BFC01E00123FB75FB7D184680
:103B80001837BD4680BD00BF80B485B000AFF86077
:103B90000B467A60FB72FB7A7A689A40FB685A603F
:103BA0001437BD465DF8047B704700BF80B584B014
:103BB00000AF78607B685B7C83F00103DBB2002B95
:103BC00020D00023FB7315E07B681A68FB7BDB00C9
:103BD000134419687B681A68FB7BDB0013441A796D
:103BE0007B680433084611461A46FCF7EFFBFB7B63
:103BF0000133FB737B681B7CFA7B9A42E4D37B68BE
:103C000001225A74002318461037BD4680BD00BFFC
:103C100080B584B000AF78600B467B807B681B6802
:103C2000BB600023FB7323E0FB7B012202FA03F35A
:103C30009AB27B8813409BB2002B09D0BB681A68EC
:103C4000BB681B79104619460122FFF79DFF09E06A
:103C5000BB681A68BB681B79104619464FF480325E
:103C6000FFF792FFBB680833BB60FB7B0133FB733C
:103C70007B681B7CFA7B9A42D6D31037BD4680BD49
:103C800080B582B000AF0023FB715D48FFF7F4FC04
:103C90000346FB71FB79002B04D15A48FFF758FC0F
:103CA0000346FB71FB79002B04D15748FFF750FC0A
:103CB0000346FB71FB79002B04D15448FEF782FACE
:103CC0000346FB71FB79002B04D15148FFF76EFFCF
:103CD0000346FB71FB79002B04D14E48FFF7AEFA87
:103CE0000346FB71FB79002B04D14B48FFF7A6FA82
:103CF0000346FB71FB79002B04D14848FFF79EFA7D
:103D00000346FB71FB79002B04D14548FEF75CFFAD
:103D10000346FB71FB79002B04D14248FFF772FB8D
:103D20000346FB71FB79002B04D13F48FEF72AF9CB
:103D30000346FB71FB79002B04D13C48FFF762FB83
:103D40000346FB71FB79002B04D13948FFF776FA63
:103D50000346FB71FB79002B04D13648FFF76EFA5E
:103D60000346FB71FB79002B04D13348FFF766FA59
:103D70000346FB71FB79002B04D13048FFF742FB6F
:103D80000346FB71FB79002B04D12D48FFF764FE3D
:103D90000346FB71FB79002B04D12A48FFF732FB65
:103DA0000346FB71FB79002B04D12748FEF7EAF8A4
:103DB0000346FB71FB79002B04D12448FFF722FB5B
:103DC0000346FB71FB79002B04D12148FEF7DAF89A
:103DD0000346FB71FB79002B04D11E48FFF712FB51
:103DE0000346FB71FB79002B04D11B48FFF70AFB4C
:103DF0000346FB71FB7918460837BD4680BD00BFFE
:103E000028040020F073000804740008C400002097
:103E1000C0020020FC7200082073000844730008F0
:103E2000DC000020D473000800000020D8730008D4
:103E3000687300088C730008B0730008DC73000816
:103E4000AC740008E073000828000020E473000848
:103E500058000020E8730008EC73000880B483B0B9
:103E600000AF78600B46FB70FB7801229A407B68BC
:103E70005A600C37BD465DF8047B704780B483B050
:103E800000AF78600B46FB70FB784FF480329A40AD
:103E90007B685A600C37BD465DF8047B704700BFF5
:103EA00080B483B000AF78600B46FB707B685A6AC1
:103EB000FB7822FA03F303F0010318460C37BD46E2
:103EC0005DF8047B704700BF80B582B000AF7860BA
:103ED0007B681A687B681B7C10461946FFF7BEFF9B
:103EE0000837BD4680BD00BF80B582B000AF7860A6
:103EF0007B681A687B681B7C10461946FFF7BEFF7B
:103F00000837BD4680BD00BF80B582B000AF786085
:103F10007B685A687B6893F8213010461946FFF792
:103F2000BFFF034618460837BD4680BD80B582B046
:103F300000AFFFF7A5FE0346FB7100F049FAFB79DD
:103F4000002B00D0FEE70948FFF786FD0346BB7152
:103F50000748FEF785FF074B1B78DBB2032B04D91C
:103F6000044B00221A7000F0EFFAF4E7AC7400087A
:103F7000DC0000207C04002080B584B000AF3C4B06
:103F80001B691B68BB603A4B1B691846FFF732FD83
:103F90000023FB600CE0BA68FB6813441033197807
:103FA0003A46FB6813440A461A70FB680133FB600B
:103FB000FB68072BEFDD0023FB601AE0FB685B006A
:103FC000013307F11002134413F8103C1B029AB29C
:103FD000FB685B0007F110010B4413F8103C9BB227
:103FE000134399B2234AFB6822F81310FB6801338C
:103FF000FB60FB68032BE1DD1E4B5B881BB207EE09
:10400000903AF8EEE77A9FED1C7AC7EE877A1B4B61
:10401000C3ED007A194BD3ED007AF1EE677A174BB6
:10402000C3ED007A154BD3ED007AB0EE007AF4EED2
:10403000C77AF1EE10FA03DD104B4FF080421A60A0
:104040000E4BD3ED007AB8EE007AF4EEC77AF1EEBB
:1040500010FA03D5094B4FF040421A60084B012279
:104060001A70084B00221A701037BD4680BD00BF81
:10407000AC740008B404002000007A4468040020F6
:104080006C0400206D04002080B584B000AF124B9A
:104090005B6A1B68BB60104B5B6A1846FFF7AAFCA3
:1040A0000023FB600CE0BA68FB68134410331978F6
:1040B0003A1DFB6813440A461A70FB680133FB6023
:1040C000FB68032BEFDD7B79012B02D1034B002230
:1040D0001A601037BD4680BDAC7400087004002023
:1040E00080B586B000AF0023FB6000233B61012355
:1040F000BB81554B1B78FA2B02D90023BB8101E011
:104100000123FB81514B1B68184602F029F9024636
:104110000B461046194648A3D3E9002302F074F970
:1041200002460B46104619464FF00002484B02F07B
:1041300095FA02460B461046194602F077FB0246F6
:10414000444B1A60434BD3ED007AF1EE677A414B52
:10415000C3ED007A3F4BD3ED007A9FED3F7A67EED7
:10416000877AFDEEE77AC7ED017ABB889BB23B8286
:104170003A4B1B6807EE903AF8EEE77AB0EE007A19
:10418000C7EE877AB2EE067AC7EE877A17EE900A04
:1041900002F0E6F802460B461046194628A3D3E97A
:1041A000002302F031F902460B461046194601F091
:1041B00079FF02460B46104619461FA3D3E9002398
:1041C00002F022F902460B461046194602F02EFB79
:1041D0000246234B1A60224BD3ED007AF1EE677A48
:1041E0001F4BC3ED007A1E4BD3ED007A9FED1A7A78
:1041F00067EE877AFDEEE77AC7ED017ABB889BB25E
:104200007B820323FB75FB7D164A02339B0013441C
:104210005A6807F10C0310461946FFF7FDFBFB7DBA
:10422000104A02339B0013445B681846FFF7D0FB2B
:104230001837BD4680BD00BF48E17A14AE47B13F94
:10424000F1D4C853FB2109406D0400204004002034
:10425000000026407404002000007A44700400200E
:1042600078040020AC74000880B400AF094B1B68D0
:104270000133084A1360084B1B680133064A136078
:10428000064B1B680133054A1360BD465DF8047B8D
:10429000704700BF300400203404002038040020A0
:1042A00080B500AF00F0E2F8114B1B68114A1360B3
:1042B0000F4B00221A60104B41221A700F4B1B78D3
:1042C000DBB25BB2012B05D10D4B1B6801330C4AED
:1042D00013600BE0094B1B78DBB25BB2B3F1FF3F1D
:1042E00004D1074B1B68013B054A136080BD00BF2A
:1042F00030040020180300208C0400202D0400202E
:104300007004002080B500AF00F0B0F8054B1B68CA
:10431000054A1360034B00221A60044B42221A70B4
:1043200080BD00BF34040020180300208C0400204E
:1043300080B500AF00F09AF8054B1B68054A136082
:10434000034B00221A60044B43221A7080BD00BF49
:1043500038040020180300208C04002080B400AF33
:10436000BD465DF8047B704780B582B000AF144B4A
:104370001B78DBB20133DAB2114B1A70104B1B7889
:10438000DBB2012B18D10F4BD3ED007AFCEEE77AAC
:10439000C7ED017ABB889AB20B4BD3ED007AFCEEE5
:1043A000E77A17EE901A4BF20B6303FB01F3074811
:1043B00011461A4602F0B8FA0837BD4680BD00BF64
:1043C0007C040020C4040020AC040020DC00002099
:1043D00090B583B000AF2148FFF796FD0346DBB2EE
:1043E0005B00DCB21E48FFF78FFD0346DBB22343C0
:1043F000DBB25B00DCB21B48FFF786FD0346DBB295
:104400002343FB71FB79042B03D1174B00221A7055
:1044100021E0FB79062B03D1134B01221A701AE01D
:10442000FB79022B03D1104B02221A7013E0FB79A7
:10443000032B03D10C4B03221A700CE0FB79012BE8
:1044400003D1094B04221A7005E0FB79052B02D138
:10445000054B05221A700C37BD4690BD68730008E5
:104460008C730008B07300082C04002090B583B052
:1044700000AF2E4B1B889BB2DB009AB22B4B1A80ED
:104480002B48FFF741FD0346DBB25B00DCB2294855
:10449000FFF73AFD0346DBB22343DBB25B00DCB23D
:1044A0002548FFF731FD0346DBB22343FB71FB795F
:1044B0009AB21E4B1B889BB213439AB21B4B1A80B5
:1044C0001A4B1B889BB203F03F031C4AD25C1C4B67
:1044D0001A70FB79042B03D11A4B00221A7021E0C9
:1044E000FB79062B03D1174B01221A701AE0FB79D6
:1044F000022B03D1134B02221A7013E0FB79032B1A
:1045000003D1104B03221A700CE0FB79012B03D16D
:104510000C4B04221A7005E0FB79052B02D1094BE4
:1045200005221A700C37BD4690BD00BF2E04002036
:10453000687300088C730008B0730008D80200206C
:104540002D0400202C040020B0B52DED028B84B08A
:1045500000AFAF48FFF7B8FCAE4B1B78DBB2412B86
:1045600003D1AD4B1B68FB6010E0AA4B1B78DBB29C
:10457000422B03D1A94B1B68FB6007E0A54B1B78BE
:10458000DBB2432B02D1A64B1B68FB60A54B1B681B
:10459000A54A1360A44B1B6840F6C412934204D989
:1045A000A14B40F6C4121A6006E09F4B1B68012B1A
:1045B00002D89D4B02221A60FB6841F28732934277
:1045C00035D8994B1B6807EE903AF8EE677A17EEEC
:1045D000900A01F0C5FE02460B464FF000009349D9
:1045E00002F03CF802460B4614461D46F86801F0FE
:1045F00095FE02460B462046294601F005FF02467D
:104600000B461046194602F011F90246884B1A6013
:10461000874BD3ED007A9FED877AF4EEC77AF1EEFF
:1046200010FA00DC06E0824B834A1A6002E0804BFD
:10463000824A1A60824B1B78DBB25BB2012B54D1E9
:10464000804B1B78DBB25BB2184601F077FE024666
:104650000B46104619464FF000027B4B01F0D4FE8A
:1046600002460B4614461D46714B1B68184601F066
:1046700077FE02460B462046294601F013FD02460E
:104680000B461046194602F0D1F802466F4B1A60ED
:104690006E4B93ED007A6E4BD3ED007A77EE277A6E
:1046A0006A4BC3ED007A694BD3ED007A9FED697ACE
:1046B000F4EEC77AF1EE10FA09DD644BD3ED007A1F
:1046C0009FED647A77EEC77A604BC3ED007A564B64
:1046D0001B6807EE903AF8EE677A9FED5F7AC7EEB7
:1046E000277A5E4BC3ED007A6FE0564B1B78DBB246
:1046F0005BB2184601F022FE02460B4610461946F0
:104700004FF00002504B01F07FFE02460B4614466C
:104710001D46474B1B68184601F022FE02460B4619
:104720002046294601F0BCFC02460B4610461946BD
:1047300002F07CF80246454B1A60444BD3ED007AF8
:104740009FED3C7A77EE877A404BC3ED007A3F4B82
:10475000D3ED007AF5EEC07AF1EE10FA09D53B4BB5
:10476000D3ED007A9FED3B7A77EE877A374BC3ED36
:10477000007A364B93ED007A394BD3ED007A77EE21
:10478000277A324BC3ED007A304BD3ED007A9FEDA0
:10479000317AF4EEC77AF1EE10FA09DD2B4BD3ED46
:1047A000007A9FED2C7A77EEC77A284BC3ED007A1A
:1047B0001D4B1B6807EE903AF8EE677A9FED297A59
:1047C000C7EE277A254BC3ED007A244BD3ED007A50
:1047D0009FED257AF4EEC77AF1EE10FA0DD51F4B56
:1047E000D3ED007A9FED217AF4EEC77AF1EE10FA5C
:1047F00003DD1A4B1B681E4A1360FB6841F28832C6
:10480000934239D91B4B4FF000021A6058E000BFA9
:10481000047400088C0400203004002034040020BC
:1048200038040020180300201C030020008066408C
:104830002003002000007042000070420000F041A0
:104840002D0400202C04002000004E403C040020D9
:10485000280300200000B4430000E1434804002086
:104860002C0300200000E1C300004843000048C3BF
:104870004404002040040020A34BD3ED007A77EEDF
:10488000A77A17EE900A01F06BFD02460B46104620
:10489000194693A3D3E9002301F0B6FD02460B4667
:1048A000104619464FF00002984B01F0ADFD02464C
:1048B0000B461046194601F0B9FF0246944B1A60A8
:1048C000934B1B68184601F04BFD02460B46104601
:1048D000194685A3D3E9002301F0C0FE02460B462A
:1048E0001046194601F0A2FF02468A4B1A600620C4
:1048F00000F026FB0246884B1A60052000F020FBE2
:104900000246864B1A60032000F01AFB0246844BD5
:104910001A60844B1B68184601F022FD02460B46C4
:104920001046194670A3D3E9002301F06DFD02463D
:104930000B461046194601F079FF0346BB60B86884
:1049400000F030FC7860B86800F076FC3860724B9C
:1049500093ED007AD7ED017A27EE278AB86801F047
:10496000FFFC02460B461046194661A3D3E900231B
:1049700001F096FB02460B461046194601F056FF21
:104980000346184600F00EFC07EE100A634BD3ED09
:10499000007A67EE277A38EE278AB86801F0E0FCE3
:1049A00002460B461046194653A3D3E9002301F0F3
:1049B00077FB02460B461046194601F037FF0346C7
:1049C000184600F0EFFB07EE100A554BD3ED007AC6
:1049D00067EE277A78EE277A17EE900A01F0C0FC8E
:1049E00002460B461046194645A3D3E9002301F0C1
:1049F0000BFD02460B461046194601F017FF024612
:104A0000494B1A60D7ED007AB1EE677A424BD3ED8D
:104A1000007A27EE278AB86801F0A2FC02460B460E
:104A20001046194632A3D3E9002301F039FB0246B0
:104A30000B461046194601F0F9FE0346184600F0F1
:104A4000FBFB07EE100A354BD3ED007A67EE277AB1
:104A500038EE678AB86801F083FC02460B461046C0
:104A6000194625A3D3E9002301F01AFB02460B46A1
:104A70001046194601F0DAFE0346184600F0DCFB4A
:104A800007EE100A264BD3ED007A67EE277A78EE10
:104A9000677A17EE900A01F063FC02460B46104657
:104AA000194617A3D3E9002301F0AEFC02460B46DA
:104AB0001046194601F0BAFE02461C4B1A601C4B08
:104AC0001B78012B50D11B4B1B78012B38D11A4B73
:104AD0001B681A4A1360174B00221A7036E000BF99
:104AE000F1D4C853FB2109404DC9077746DF913FF8
:104AF000A038DB3752C10040A038DB3752C110402C
:104B000093761F575555E53F44040020000026408A
:104B1000400400204C040020B00400209404002035
:104B2000BC0400203C0400209C04002088040020D9
:104B3000D50200206C0400206804002050040020EE
:104B4000B34B1B780133DAB2B14B1A70B04B1B7800
:104B5000FA2B09D9AF4B00221A70AD4BFA221A700A
:104B6000AD4B4FF000021A60AB4BD3ED007AB2EEC2
:104B7000067A67EE877A17EE900A01F0F1FB02469B
:104B80000B46104619469AA3D3E9002301F066FDAF
:104B900002460B461046194601F048FE02469F4B5E
:104BA0001A609E4BD3ED007AF5EE407AF1EE10FAE2
:104BB0001CD19B4B1B78012B18D19A4BD3ED007A5B
:104BC0009FED997AF4EEC77AF1EE10FA0EDD954B6F
:104BD000D3ED007A9FED957AF4EEC77AF1EE10FAF4
:104BE00004D5934B4FF000021A600BE08B4B1A6810
:104BF0008C4B1B68104619468E4A00F041F902465C
:104C00008B4B1A60864B1B78012B1BD1884BD3ED45
:104C1000007AF1EE677A17EE903A184601F0A0FBA1
:104C200002460B461046194673A3D3E9002301F050
:104C300015FD02460B461046194601F0F7FD0246E7
:104C40007D4B1A607C4BD3ED007AB9EE047AF4EE1A
:104C5000C77AF1EE10FA02D5774B784A1A60764B94
:104C6000D3ED007AB1EE047AF4EEC77AF1EE10FAE1
:104C700002DD714B724A1A60724B1B684FF00000E4
:104C80001946714A00F0FCF80246704B1A606A4BF4
:104C90001A686F4B1B68104619466E4A00F0F0F810
:104CA00002466D4B1A60694B93ED007AD7ED017A9D
:104CB00027EE277A684BD3ED006AD7ED007A66EECF
:104CC000A77A77EE677A654BC3ED007A5F4B93ED79
:104CD000007AD7ED007A27EE277A5F4BD3ED006A92
:104CE000D7ED017A66EEA77A77EE277A5C4BC3EDB3
:104CF000007A5B4B93ED007A584BD3ED007AC7EE08
:104D0000277A17EE900A00F06FF90246554B1A60A9
:104D1000544B1B68184601F023FB02460B46104615
:104D2000194637A3D3E9002301F098FC02460B464D
:104D30001046194601F07AFD02464B4B1A60474B6C
:104D4000D3ED007AF5EEC07AF1EE10FA0AD5464BB3
:104D5000D3ED007A9FED457A77EE877A424BC3ED2B
:104D6000007A11E03E4BD3ED007AF5EEC07AF1EE19
:104D700010FA09D53C4BD3ED007A9FED3D7A77EEE2
:104D8000877A394BC3ED007A344B93ED007A334B7D
:104D9000D3ED007A27EE277A314BD3ED006A304B02
:104DA000D3ED007A66EEA77A77EE277A17EE900AAF
:104DB00000F090FA0346184601F0D2FA02460B467C
:104DC0001046194610A3D3E9002301F01DFB02464B
:104DD0000B461046194601F029FD0246254B1A6084
:104DE0002548FFF781F81037BD46BDEC028BB0BDFA
:104DF00048E17A14AE47B13FE17A14AE47E1CA3FC9
:104E00004DC9077746DF913F1361C3D3AB0A824098
:104E10006D0400206C040020500400205404002085
:104E2000D402002040040020000048C30000484392
:104E30005C04002078030020580400200000A0C07B
:104E40000000A0409C0400205403002060040020C7
:104E5000880400203003002064040020C0040020E7
:104E6000A804002080040020AC040020000034438B
:104E70000000B443C404002004740008AFF30080B1
:104E800080B489B000AFF860B9607A6097ED037ABA
:104E9000D7ED027A77EE677AC7ED067A7B6893EDF5
:104EA000007AD7ED067A67EE277AC7ED057A7B6838
:104EB00093ED017A214BD3ED007A27EE277AD7EDD7
:104EC000067A27EE277AD7ED057A37EE277A7B68C0
:104ED000D3ED087A77EE277AC7ED077A7B6893EDF2
:104EE000037AD7ED077AB4EEE77AF1EE10FA03D839
:104EF0007B68DB68FB610CE07B6893ED047AD7ED9F
:104F0000077AB4EEE77AF1EE10FA02DD7B681B69EE
:104F1000FB6197ED077AD7ED057A77EE677A7B68C4
:104F2000C3ED087A7B68FA695A617B685B69184649
:104F30002437BD465DF8047B704700BF2403002082
:104F400080B586B000AF0346FB71FB799BB2224867
:104F50001946FEF75DFE07F10C03204819460222B0
:104F6000FDF740F91C480721FEF752FE3B7B03F09A
:104F70001F03DBB23B733B7B1B029AB27B7B9BB272
:104F800013439BB2FB82FB8A07EE903AF8EE677AF6
:104F900017EE900A01F0E4F902460B461046194656
:104FA0004FF000020E4B01F07BF802460B46104614
:104FB00019464FF000020B4B01F050FB02460B4626
:104FC0001046194601F032FC03463B613B69184626
:104FD0001837BD4680BD00BFC0020020C4000020BD
:104FE0000000B0400000644038B520F00044B4F147
:104FF000A14F07EE900A05460DDBB4F1FF4F5CDCD4
:10500000DFED557A9FED557A0028D8BFF0EE477A4C
:1050100017EE900A38BD524B9C4261DCB4F1445FFC
:1050200050DB4FF0FF3367EEA75A9FED4E1A9FED0E
:105030004E2A9FED4E3ADFED4E1ADFED4E2A9FEDE0
:105040004E4ADFED4E3A9FED4E5ADFED4E4A9FED50
:105050004E6ADFED4E6A25EEA57A5A1CA7EE012AAC
:10506000E7EE212AA2EE073AE2EE873AA3EE074ADC
:10507000E3EE874AA4EE075AE4EE876AA5EE076AD4
:1050800026EE877A66EE256A41D0414A41499B0067
:105090001A4476EE876A92ED007A96EEA77A0B4470
:1050A000002DD3ED006A77EE677A76EEE77AB8BF27
:1050B000F1EE677A17EE900A38BD77EEA77A17EE11
:1050C000900A38BD9FED347A37EE877AF7EE006AA2
:1050D000B4EEE67AF1EE10FAA3DD17EE900A38BDD1
:1050E00000F0A6F82D4B9C4207EE100A14DCA3F545
:1050F000D0039C4225DCF0EE007AFFEE006AE7EE7A
:10510000276A002377EE277AC6EEA77A8BE776EE3A
:10511000876AE6EEE77A7BE7214B9C420BDCF7EEF1
:10512000087AF7EE006AE7EE276A022377EE677ADD
:10513000C7EEA67A77E7FFEE007AC7EE877A0323F9
:1051400071E7F7EE007A77EE676A77EE277A012348
:10515000C6EEA77A67E700BFDB0FC93FDB0FC9BF09
:10516000FFFFDF3ED769853C59DA4B3D356B883D03
:1051700021A215BD6BF16EBD6E2EBA3D95879DBD0A
:105180002549123E388EE3BDABAAAA3ECDCC4CBE1B
:105190006C7500087C750008CAF24971FFFF973FE3
:1051A000FFFF1B4000B585B0204A0190019B23F012
:1051B000004393421DDDB3F1FF4F08DBDDED017AC3
:1051C00077EEE77A17EE900A05B05DF804FB02A9C6
:1051D00000F0D8F800F00302012A0298039919D0D0
:1051E000022A10D0EAB1012200F00CFE07EE900A6C
:1051F000E8E7002100F068FA07EE900A17EE900A3F
:1052000005B05DF804FB00F05FFA07EE900AF1EEDE
:10521000677AD7E700F0F6FD07EE900AF1EE677ABD
:10522000D0E700F051FA07EE900ACBE7D80F493FDC
:1052300020F00040704700BF00B585B0244A0190BF
:10524000019B23F0004393421EDDB3F1FF4F08DBC7
:10525000DDED017A77EEE77A17EE900A05B05DF89A
:1052600004FB02A900F08EF800F00300012820D012
:10527000022814D020B30298039900F025FA07EE13
:10528000900AF1EE677AE7E70021002200F0BAFD0C
:1052900007EE900A17EE900A05B05DF804FB02983D
:1052A0000399012200F0AEFD07EE900AF1EE677A55
:1052B000D2E70298039900F007FA07EE900ACBE7CD
:1052C00002980399012200F09DFD07EE900AC3E7C2
:1052D000D80F493F30B52DED028B284D8BB008EE2D
:1052E000100A00F09BF995F900300133044609D00B
:1052F00018EE100A00F030FE20B1B5EEC08AF1EED3
:1053000010FA04D420460BB0BDEC028B30BD012353
:105310001B4A009318EE100A00230192089301F033
:105320001FF82C78CDE90401CDE902018CB90022E7
:105330000023CDE90623684600F0B2FD98B1089B32
:10534000B3B9DDE9060101F071FA0BB0BDEC028BD7
:1053500030BD0020002102460B4601F07FF9022CEF
:10536000CDE90601E7D101F0B1FA21230360E6E7B8
:1053700001F0ACFA089B0360E3E700BF9C03002048
:105380008C75000870B5974A20F00044944286B0AE
:1053900006460D4668DD944A94421CDC0028DFED89
:1053A000937A934A24F00F0407EE100A40F3E28048
:1053B000944277EE677A67D09FED8E7A77EEC76A70
:1053C000012077EEE67AC1ED006A77EEC77AC1ED8B
:1053D000017A06B070BD884A944267DDB4F1FF4F90
:1053E00048DAE215863AA4EBC25307EE103AFDEE16
:1053F000C76ADFED827AF8EEE66A37EE667ACDEDBF
:10540000036A27EE277AFDEEC76AF8EEE66A37EE02
:10541000667ACDED046A67EE277AF5EE407AF1EE12
:1054200010FACDED057A40F0B880F5EE406AF1EE65
:1054300010FA14BF02230123714902208DE80300F2
:1054400003A8294600F0CAF9002E11DA95ED007A7A
:10545000D5ED017AB1EE477AF1EE677A404285EDFB
:10546000007AC5ED017A03E0002228604A6000203E
:1054700006B070BD07EE900A77EEE77A0020C1ED26
:10548000017AC1ED007AF3E7DFED5E6A9FED5E7AA7
:1054900077EEE67A012077EEC76A77EEE67AC1ED1D
:1054A000006A77EEC77AC1ED017AE1E7FFF7C0FE47
:1054B0009FED566A9FED4D5ADFED4E6A07EE100ADA
:1054C000F6EE007AE7EE067AFDEEE77AB8EEE76AE6
:1054D00017EE900AF1EE465AF0EE477A1F28E5EEF5
:1054E000857A26EE267A1DDC494A411E24F0FF0308
:1054F00052F82120934215D077EEC76AC5ED006AB5
:1055000077EEE67A002E77EEC77AC5ED017AAFDA4C
:10551000F1EE666AF1EE677AC5ED006AC5ED017AD3
:105520004042A5E777EEC76AE41516EE903AC3F35A
:10553000C753E31A082BE1DD9FED327ADFED326AC3
:10554000B0EE675AA5EE875A77EEC57AE5EE877A10
:10555000D6EE267A75EE676AB0EE677A16EE903A66
:10556000C3F3C753E41A192C2CDCC5ED006AF0EE26
:10557000457AC5E7944277EE277A10D09FED1D7AE1
:1055800077EE876A4FF0FF3077EEE67AC1ED006A7A
:1055900077EE877AC1ED017A6AE703234CE7DFED06
:1055A000196A9FED197A77EEA67A4FF0FF3077EE01
:1055B000876A77EEE67AC1ED006A77EE877AC1ED09
:1055C000017A55E7DFED136ADFED134AF0EE457A15
:1055D000E5EEA67A35EE677AA5EEA67A96EE247AFF
:1055E0008AE700BFD80F493FE3CB1640800FC93F81
:1055F000D00FC93F43443537800F494300008043F3
:10560000147600080044353708A3852E84F9223F1C
:105610009475000800A3852E32318D2420F00042BD
:10562000B2F1FF4F70B407EE900A034632D26AB36C
:10563000002841DBB2F5000F4FEAE05130D3A1F171
:105640007F02C3F31603D10743F4000348BF5B0096
:10565000002456105B00254619214FF08072A818CF
:10566000984202DC1B1A8518144401394FEA43039F
:105670004FEA5202F3D113B104F001031C44641049
:1056800004F17C5404EBC65307EE903A17EE900AEF
:1056900070BC7047E7EEA77A70BC17EE900A7047AF
:1056A00010F400020DD15B00180202F10102FAD5DC
:1056B000C2F101021144C2E777EEE77AC7EEA77A9A
:1056C000E4E701221144BAE720F00043B3F1485F58
:1056D00006EE100A06EE901A2EDAFDEEC67A17EEE6
:1056E000903A002B64D026EE067ADFED343A9FED37
:1056F000344ADFED344A9FED345ADFED347ADFED82
:10570000345AA7EE234AE4EE074AA4EE875AE5EEA0
:10571000077AE7EE875A65EE875A66EEC66AB6EEF6
:10572000006AE7EE256AF7EE007AD7EE066A77EEB2
:10573000E67A17EE900A704726EE067ADFED1F3AFA
:105740009FED1F4ADFED1F4A9FED1F5ADFED1F7AC5
:10575000DFED1F5A1F4AA7EE234A9342E4EE074AA1
:10576000A4EE875AE5EE077AE7EE875A65EE875A88
:10577000D3DD194A934216DC03F17F4307EE903ADA
:10578000B7EE005A35EE675A66EEC66AB6EE006AA4
:10579000E7EE256AD7EE067A77EEE67A75EE677A57
:1057A00017EE900A7047B6EE075AF5EE027AEBE76D
:1057B000F7EE007A17EE900A704700BF4ED747AD5C
:1057C000F6740F317CF293B4010DD037610BB6BA89
:1057D000ABAA2A3D9999993E0000483F2DE9F04F28
:1057E0002DED048BD7B05E1EA54C649D0293D31E95
:1057F00048BF131D54F825500191DB1023EAE373D1
:105800006FEA030A71190393814602EBCA0AA3EBFC
:10581000060314D41944659801311AAA002BAABFB3
:1058200050F82340DFED977A07EE904A03F1010329
:10583000A8BFF8EEE77A8B42E2EC017AEED1002DB8
:105840001ADB029B1AA96C1C01EB840442A89F007E
:10585000002EC0F2CE81DFED8B7A4A46CB1933EDB4
:10586000017AF2EC016A9942E6EE877AF7D10431C7
:10587000A142E0EC017AEBD1029ADFED848A9FED40
:10588000828A05F18043013B9B00C2EB827806AA25
:105890001F1D1344174404934FEA88082C464FEA0F
:1058A000840B56AB5B44002C53ED146A19DD42A9FE
:1058B00001EB0B0305AA66EEA87AB0EE667AFDEE60
:1058C000E77A33ED016AF8EEE77A8B42A7EEC87A01
:1058D00077EE866ABDEEC77A17EE100A42F8040F1B
:1058E000E9D116EE900A514600F050FB09EE100A7D
:1058F000F4EE007A69EE277A17EE900A00F0D2FAF9
:1059000007EE100AF2EE007AA7EE679ABAF1000FDE
:10591000FDEEC99AF8EEE97A39EE679A40F34D81C7
:10592000611E06AACAF1080352F8210040FA03F2E8
:1059300002FA03F30DF1180EC31A4EF8213019EED6
:10594000901A1144CAF1070009EE901A43FA00FCBC
:10595000BCF1000F37DD19EE903A002C03F1010382
:1059600009EE903A40F3DE810022104605A908E0D6
:10597000C3F5807E13B1C1F800E0012001329442EA
:105980000BDD51F8043F0028F2D00132C3F1FF03D0
:1059900094420B604FF00100F3DCBAF1000F0FDD11
:1059A000BAF1010F00F01181BAF1020F08D1621EA5
:1059B00006AB06A953F8223003F03F0341F822302A
:1059C000BCF1020F64D0B5EE409AF1EE10FA77D137
:1059D000631E9D420BDC06AA934400225BF8041D63
:1059E000BB4542EA0102F9D1002A40F085816B1ED5
:1059F00006AA52F82330002B40F09181049B4FF00F
:105A0000010C53F8042D0CF1010C002AF9D0A44428
:105A1000631C634531DC039A03EB020E029A0EF11C
:105A2000804EA0180CEB020B659A0EF1FF3E02EBC4
:105A30008E0E1AAA02EB800002EB8B0B42AA02EB3D
:105A400083045EF8043F07EE903AF8EEE77A002E02
:105A5000E0EC017ADFED0B7A0BDB4A4600EB080144
:105A6000034633ED017AF2EC016A8B42E6EE877A67
:105A7000F7D15845E4EC017AE3D164460FE700BF63
:105A80002C79000800000000000080430000803BEB
:105A9000F7EE007A37EEC99A002894D017EE900AF4
:105AA0005146CDF814C000F071FA07EE900A39EEB5
:105AB000679ADDF814C0B5EE409AF1EE10FA87D07F
:105AC00019EE100ACAF10001CDF808C000F05EFA24
:105AD0005FED136ADDF808C007EE100AB4EEE67A4F
