:020000040C00EE
:100000000008001001020008B1020008B102000857
:10001000B1020008B1020008B102000800000000AF
:10002000000000000000000000000000B102000815
:10003000B102000800000000B1020008B10200088F
:10004000B1020008B1020008B1020008B1020008C4
:10005000B1020008794B0008B1020008154B0008F6
:10006000A54B000800000000000000000000000098
:10007000B102000800000000B1020008B10200084F
:1000800069500008B1020008B1020008B10200087E
:10009000B1020008B1020008B1020008B102000874
:1000A000B1020008B1020008B1020008B102000864
:1000B000B1020008B1020008B1020008B102000854
:1000C000B1020008B1020008B1020008B102000844
:1000D000B1020008B1020008B1020008B102000834
:1000E000B1020008B1020008B1020008B102000824
:1000F000B1020008B1020008B1020008B102000814
:10010000B1020008B1020008B1020008B102000803
:10011000B1020008B1020008B1020008B1020008F3
:1001200019490008A5500008B1020008DD4A00087E
:10013000B1020008B1020008B1020008B150000885
:10014000B1020008B1020008B1020008B1020008C3
:10015000B1020008B1020008B1020008B1020008B3
:10016000000000000000000000000000000000008F
:10017000BD480008BD470008B1020008B1020008F0
:10018000B1020008B1020008B1020008B102000883
:10019000B1020008B1020008B1020008B102000873
:1001A000B1020008B1020008B1020008B102000863
:1001B000B1020008B1020008B1020008B102000853
:1001C000B1020008B1020008B1020008B102000843
:1001D000B1020008B1020008B102000800000000EE
:1001E000B1020008B1020008B1020008B102000823
:1001F000B102000800000000B10200080000000089
:10020000DFF88CD023488047234C244DAC4209DAD8
:1002100021686268A368043BA2BFC858D050FAE7BF
:100220000C34F3E71E4B1F4CA34208DA19685A68D6
:100230000020043AA4BF8850FBE70833F4E71A48CB
:1002400080471A4880470000648C000C00000020A2
:100250009C0400000091000C000000300000000031
:10026000648C000C480C0010000000001C88000C7E
:1002700000080010480400009C040020BC2F00006F
:100280000000003000000000480C001000000000DA
:1002900000080010B50200084802000878020008B3
:1002A0007802000890020008F9760008D54F00088F
:1002B000FEE7000098B500AF054A4FF00053144622
:1002C0000FCB84E80F0003F087FC03F0EFFC98BD30
:1002D000C4FF002080B584B000AF2F4BDB6803F46F
:1002E0008033002B3ED02D4BDB6803F00103002B45
:1002F00002D02B4BFB6002E003F0CEFCF860274BF2
:100300001B6803F00403002B20D0244B9B6803F0F0
:1003100070631B0E0133BB60204B9B6803F4FE43EC
:100320001B0A01337B601D4B9B6803F4FE031B0C0F
:1003300001333B60BB683A6802FB03F3FA68B2FB27
:10034000F3F37A6802FB03F3FB600DE0134B9B6849
:1003500003F07F0301333B60FA683B68B2FBF3F3C1
:10036000FB6001E00E4BFB600B4BDB68DBB2013343
:10037000FA68B2FBF3F3FB60074B1B6903F0010360
:100380000133FA68B2FBF3F3FB60064AFB681360C3
:100390001037BD4680BD00BF0046005010470050DA
:1003A00000366E01C0FF002080B582B000AF7860DB
:1003B0007B68054A934203D14FF4803000F076F910
:1003C0000837BD4680BD00BF0040044080B485B002
:1003D00000AFF8600B467A60FB72FB7A9B08DBB2D9
:1003E0001846FB7A9B08DBB21A46FB68043253F8C6
:1003F0002220FB7A03F00303DB001946F8238B402D
:10040000DB4302EA0301FB68021D43F82210FB688C
:100410005A6FFB7A5B00194603238B40DB431A407B
:10042000FB685A67FB683A4A934203D0FB68394A33
:1004300093420AD1FB681A6EFB7A012101FA03F399
:10044000DB431A40FB681A6642E07B681B78DBB22C
:100450005BB2002B3CDA7B685A68FB7A9A40FB68F7
:100460005A60FB7ADB08DBB21846FB7ADB08DBB2AA
:100470001A46FB68103253F82220FB7A03F0070378
:100480009B00194607238B40DB4302EA0301FB680C
:1004900000F1100243F82210FB7ADB08DBB21846A9
:1004A000FB7ADB08DBB21A46FB68103253F82220D5
:1004B0007B681B7A1946FB7A03F007039B0001FA5D
:1004C00003F342EA0301FB6800F1100243F8221033
:1004D000FB7A9B08DBB21846FB7A9B08DBB21A4614
:1004E000FB68043253F822207B681B781946FB7A9C
:1004F00003F00303DB0001FA03F342EA0301FB68A4
:10050000021D43F822101437BD465DF8047B704786
:10051000008E0248008F024880B400AF034B1B6876
:100520001846BD465DF8047B704700BFC0FF002041
:1005300080B400AF034BD3F8C4301846BD465DF815
:10054000047B70470040005080B584B000AF7860F5
:10055000FFF7C0FE0B4B1B680B4AA2FB03239A0C50
:100560007B6802FB03F37B600023FB6003E000BFBA
:10057000FB680133FB60FA687B689A42F7D3103757
:10058000BD4680BDC0FF002083DE1B4380B400AFAA
:10059000034B5B681846BD465DF8047B704700BF9F
:1005A0007440005080B483B000AF7860034A7B6829
:1005B000D3600C37BD465DF8047B70477440005033
:1005C000B0B584B002AF7860002000F09BF800F076
:1005D0002DFA7B68DB79002B0AD000F065FA00BFAA
:1005E00000F050FA034683F00103DBB2002BF7D191
:1005F0007B685B7A184600F0FFF800BFFFF798FFB2
:100600000346002BFAD17B681B7A184600F0E8F904
:100610007B681B7C184600F00DF97B685B7C1846F4
:1006200000F030F97B689B7C184600F017F97B6876
:10063000DB7C184600F03AF97B689B79002B0AD0E6
:1006400000F06AFA00BF00F08FFA034683F001035E
:10065000DBB2002BF7D17B68DB78002B02D100F0F6
:10066000A7FA14E000F094FA7B6899887B68DA783E
:100670007B685B781D467B681B781C467B689B7893
:100680000093084611462A46234600F0A1FA7B68EB
:10069000DB68B3F5803F03D14FF4803000F032F8CF
:1006A000FFF718FE0837BD46B0BD00BF80B485B067
:1006B00000AF78607B681B0FFB607B6823F07043A2
:1006C000BB60FA6813465B0013449B001A46044B58
:1006D0001344BA681A601437BD465DF8047B70474E
:1006E0001444005080B500AFFFF716FF0246044BDC
:1006F0005B6903F0010322FA03F3184680BD00BFD3
:100700000046005080B483B000AF78600649064BC5
:10071000DB6823F480327B681343CB600C37BD4623
:100720005DF8047B704700BF0046005080B483B082
:1007300000AF78600649064B9B6923F480327B68E2
:1007400013438B610C37BD465DF8047B704700BFD7
:100750000046005080B483B000AF78600649064B75
:100760005B6A23F440327B6813434B620C37BD460F
:100770005DF8047B704700BF0046005080B483B032
:1007800000AF0346FB80FB88002B08D10A4A0A4BC6
:10079000DB6823F4807323F00103D36007E0064A8B
:1007A000054BDB6843F4807343F00103D3600C37DF
:1007B000BD465DF8047B70471047005080B483B09D
:1007C00000AF0346FB7100BF094BD3F8C43003F000
:1007D0000803002BF8D10749064BDB6823F04002E1
:1007E000FB791343CB600C37BD465DF8047B704743
:1007F000004000500043005080B483B000AF034677
:10080000FB7100BF094BD3F8C43003F00803002B81
:10081000F8D10749064BDB6823F08002FB791343CC
:10082000CB600C37BD465DF8047B7047004000503C
:100830000043005080B483B000AF78600649064B97
:10084000DB6823F0FF027B68013B1343CB600C376E
:10085000BD465DF8047B70470046005080B483B00D
:1008600000AF78600649064B1B6A23F001027B68E3
:10087000013B13430B620C37BD465DF8047B7047A8
:100880000046005080B483B000AF78600649064B44
:100890001B6923F001027B68013B13430B610C379A
:1008A000BD465DF8047B70470046005080B483B0BD
:1008B00000AF78600649064B5B6923F001027B6854
:1008C000013B13434B610C37BD465DF8047B704719
:1008D0000046005080B483B000AF78600649064BF4
:1008E0009B6923F007027B68013B13438B610C3744
:1008F000BD465DF8047B70470046005080B483B06D
:1009000000AF78600649064BDB6923F03F027B6845
:10091000013B1343CB610C37BD465DF8047B704748
:100920000046005080B483B000AF78600649064BA3
:100930005B6A23F0FF027B68013B13434B620C3779
:10094000BD465DF8047B70470046005080B483B01C
:1009500000AF0346FB71044AFB7953600C37BD4678
:100960005DF8047B704700BF0046005080B483B040
:1009700000AF78603960194A184B5B6943F0010396
:100980005361164A154B5B6943F0100353611349D9
:100990003B68013B1A027B68013B1B0613434B611A
:1009A0000E4A0E4B5B6943F0400353610B4A0B4BFD
:1009B0005B6923F010035361084A084B5B6943F4F9
:1009C0008023536100BF054B1B6903F00403002B18
:1009D000F9D00C37BD465DF8047B704710470050D6
:1009E00080B582B000AF0346FB710F4A0E4B5B68C7
:1009F00043F480135360FB79012B0ED10A4A0A4B52
:100A00005B6823F4801353606420FFF79DFD064A62
:100A1000054B5B6843F4002353606420FFF794FDAB
:100A20000837BD4680BD00BF1047005080B400AFFE
:100A3000124B1B6803F00103002B09D10F4B01225D
:100A40005A6000BF0D4B1B6803F00103002BF9D067
:100A50000B4B1B6803F40073002B0AD0084B4FF4B8
:100A600000729A6000BF064B1B6803F40073002BF2
:100A7000F9D1BD465DF8047B704700BF00420050CD
:100A80000044005080B400AF064B1B6803F008031D
:100A9000002B0CBF01230023DBB21846BD465DF8D6
:100AA000047B70470043005080B500AF4FF4000056
:100AB000FFF778FD174A174BDB6923F03003D3614A
:100AC00000BFFFF763FD034603F40003002BF8D0DB
:100AD0004FF40030FFF766FD0E4B08225A6000BF4E
:100AE000FFF754FD034603F40033002BF8D04FF416
:100AF0000020FFF757FD074A064BDB6843F0080369
:100B0000D36000BFFFF742FD034603F40023002B30
:100B1000F8D080BD00430050B0B500AF0F4A0F4B76
:100B20005B6823F4803353600D4D0D4B5B6823F4F9
:100B3000702424F0300403F0AFF80246094BA3FB05
:100B400002231B0D013B1B0423436B60034A034B31
:100B50005B6823F400335360B0BD00BF1047005002
:100B6000004700506BCA5F6B80B400AF074B1B6837
:100B700003F46073B3F5607F0CBF01230023DBB285
:100B80001846BD465DF8047B704700BF1047005013
:100B900080B400AF054A054B5B6823F4803323F033
:100BA00002035360BD465DF8047B70471047005058
:100BB00080B400AF054A054B5B6843F4803343F0D3
:100BC00002035360BD465DF8047B70471047005038
:100BD00080B586B000AFBA607B600346FB810B46F0
:100BE0007B73FB891846FFF7C9FD7B7B012B40F027
:100BF0008480FB89002B09D103F04EF802464B4B51
:100C0000A3FB02239B0C9B057B6102E04FF0C063BA
:100C10007B617B697A6802FB03F2BB68B2FBF3F38A
:100C20007B617B69424AA2FB03231B099B0D3B614D
:100C3000404A404B5B6843F0010353603D4A3D4BE3
:100C40005B6843F0100353603A493A4B9A683A4B59
:100C500013407A68013A12021A433B69013B1B04B4
:100C60001A43BB68013B1B0613438B60314A314B6F
:100C70005B6843F0400353602E4A2E4B5B6823F0C1
:100C8000100353602B4A2B4B5B6843F48023536063
:100C900000BF284B1B6803F00403002BF9D0254A42
:100CA000244B5B6823F00103536000BF214B1B689A
:100CB00003F00103002BF9D17B69204AA2FB032337
:100CC0005B099B0D3B613A6A3B699A4202D23869E3
:100CD00000F038F87B695B08194AA2FB03235B0923
:100CE0009B0D3B613A6A3B699A4202D2386900F037
:100CF00029F8386A00F026F815E00E490D4B9B687C
:100D000023F07F023B6A013B13438B60094A094B86
:100D10005B6843F00103536000BF064B1B6803F0A0
:100D20000103002BF9D01837BD4680BD83DE1B437D
:100D3000ABAAAAAA10470050FF8080F08988888853
:100D4000B7600BB680B582B000AF78600749074B3B
:100D50009B6823F4FE027B68013B1B0413438B60FA
:100D60003220FFF7F1FB0837BD4680BD1047005029
:100D700080B483B000AF78607B68D3F8C43103F4EB
:100D80004073002B0CBF01230023DBB218460C3745
:100D9000BD465DF8047B704780B483B000AF7860D7
:100DA000084611461A460346FB700B46BB701346B5
:100DB0007B70FA78BB781B0403F47F031A437B78BB
:100DC0001B061A437B68C3F8C4210C37BD465DF887
:100DD000047B704780B483B000AF78607B681B6889
:100DE00043F040027B681A600C37BD465DF8047B17
:100DF000704700BF80B483B000AF78607B681B6829
:100E000023F040027B681A600C37BD465DF8047B16
:100E1000704700BF80B483B000AF786039603A6833
:100E20007B68934238BF134618460C37BD465DF8C1
:100E3000047B704780B483B000AF786039603A6853
:100E40007B68934228BF134618460C37BD465DF8B1
:100E5000047B704780B590B000AF786039600C2398
:100E6000FB630C23BB6300237B6301233B630023F1
:100E70007B610023FB6242F21073BB620123FB63C0
:100E800067E03B681A6813469B0013445B001A46F0
:100E9000FB6BB2FBF3F33B613B685B683A69B2FB07
:100EA000F3F37B62796A5B4BA3FB0123DA081346F9
:100EB0009B0013445B00CA1A052A09D97B6A554A6C
:100EC000A2FB0323DB087B627B6A01337B6205E0C4
:100ED0007B6A504AA2FB0323DB087B627B6A002B00
:100EE0000AD07A6A13469B0013445B001A463B699A
:100EF000B3FBF2F33B6207E03B69464AA2FB0323E4
:100F0000DB083B6201237B623B685A683B6A9A427A
:100F100005D83B685B683A6AD31AFB6104E03B681A
:100F20005A683B6AD31AFB617B6A142B0ED8BA6AE3
:100F3000FB699A420AD9FB6B7B637B6AFB62FB69A4
:100F4000BB62FB69B3F57A7F00D205E0FB6B01332E
:100F5000FB63FB6B402B94D942F21073BB624023BE
:100F6000BB632EE0BB6B013342F2107202FB03F253
:100F7000FB6AB2FBF3F3FB603B681B891A46FB6814
:100F80009A4206D83B681B891A46FB689B1ABB61CC
:100F900005E03B681B891A46FB68D31ABB61BA6A35
:100FA000BB699A4203D9BB6B3B63BB69BB623B68BD
:100FB0001B891A46FB689A4200D905E0BB6B013BCE
:100FC000BB63BB6B022BCDD8FA6A3B6BD31A013BD8
:100FD0007B617868FFF7FEFE7B69013B1B0303F42E
:100FE000E0423B685B89013B9B01DBB21A433B6BF0
:100FF000013B1B0203F470631A437B6B013B03F05C
:101000003F031A437B681A617868FFF7F3FE4037A5
:10101000BD4680BDCDCCCCCC80B582B000AF786071
:101020000B46FB701346BB7000BF7868FFF7A0FE4D
:10103000034683F00103DBB2002BF6D1FB780133CA
:10104000DBB2BA7878680221FFF7A6FE0837BD4602
:1010500080BD00BF80B582B000AF78600948FFF75F
:1010600025FB7B681B6823F001027B681A6000BFC8
:101070007B681B6803F00203002BF9D10837BD46DB
:1010800080BD00BF1000001080B483B000AF786056
:101090000B46FB700C37BD465DF8047B704700BF04
:1010A00080B584B000AF7860FFF71CFBF860FB6888
:1010B00018461037BD4680BD80B588B000AFF860D7
:1010C0000B467A60FB72F868FFF7C4FFFB7AF8689A
:1010D0001946FFF7D9FFF868FFF7E2FFF861FA69F0
:1010E0007B68B2FBF3F3C3F5806300201946FFF77A
:1010F00091FE0346184640F2FF31FFF79BFEB861B0
:10110000BB69C3F58063FA69B2FBF3F37B61FB68EB
:10111000DB6823F4434323F0FF03FA68D360FB68E2
:10112000DA68BB69134343F48042FB68DA607B6989
:1011300018462037BD4680BD80B586B000AF7860C8
:101140007B681B6803F13843A3F5A8335B097B6117
:101150007B695B095A037B6903F01F031B0213437E
:101160003B617B681B687A681268926822F47F4250
:101170009A607B681B687A68126891683A690A43CA
:101180009A607B68DB7903F02003DBB2002B07D089
:101190007B68DB7903F02003DBB2002B00D160E039
:1011A0007B681B7E002B04D07B681B7E012B00D04C
:1011B00057E07B681B682022DA617B68DB7903F0EB
:1011C0002003DBB2002B28D17B685B68FB60FB68E7
:1011D00003F06043FB607B685B68C3F31C039B0404
:1011E0001A46FB681343FB607B681B68FA689A61C8
:1011F0007B689B68FB60FB6803F06043FB607B6877
:101200009B68C3F31C039B041A46FB681343FB60F3
:101210007B681B68FA68DA6009E07B681B687A689B
:1012200052689A617B681B687A689268DA607B68AA
:101230001B7E012B0CD1786800F01AF87B681B68C4
:101240004FF00062DA617B681B68074ADA6108E0E8
:101250007B681B684FF40062DA617B681B68034A95
:10126000DA611837BD4680BDC00020064006A000E8
:1012700080B485B000AF78600323FB737B681B7E6E
:10128000012B22D17B681B682022DA617B681B68F6
:101290007A681268126822F070617A68127B12060E
:1012A00002F070620A431A607B681B687A681269F0
:1012B0001A617B681B687A6852695A617B681B688F
:1012C000064ADA610023FB7301E00323FB73FB7B17
:1012D00018461437BD465DF8047B7047400028006F
:1012E00080B487B000AF78600123FB757B681B6812
:1012F000DB6903F020035B093B617B681B68DB69EA
:1013000003F480731B0AFB603B69002B02D10423AA
:10131000FB750CE0FB68012B02D10223FB7506E094
:101320007B681B684FF0E062DA610023FB75FB7D90
:1013300018461C37BD465DF8047B704780B487B003
:1013400000AF78600123FB750023BB7500237B751C
:101350007B681B68DB6903F40063DB0A3B617B6825
:101360001B68DB6903F004039B08FB603B69002BEF
:1013700002D00323FB75A7E0FB68012B02D10223F7
:10138000FB75A1E07B681B680822DA617B681B683B
:101390009B6903F000535B0F002B40D17A68D3792F
:1013A0006FF34513D3717B681B689A694A4B1340EE
:1013B0009B0C23F060417A68536861F31C0353600F
:1013C0007B681B68DB6803F000535B0FDBB203F044
:1013D0000103D9B27A68D37A61F34513D3727B687B
:1013E000DB7A03F02003DBB2002B0DD07B681B6897
:1013F000DA68394B13409B0C23F060417A6893689C
:1014000061F31C03936032E07B681B68DB6823F0A8
:1014100060417A68936861F31C03936027E07A68FF
:10142000D37943F02003D3717B681B689B6923F059
:1014300060417A68536861F31C0353607B681B68E2
:10144000DB6823F060417A68936861F31C03936062
:101450007B681B68DB6803F000535B0FDBB203F0B3
:101460000103D9B27A68D37A61F34513D3727B68EA
:101470001B681B6803F070631B0EDAB27B681A737B
:101480007B681B681A697B681A617B681B685A69EC
:101490007B685A617B681B68DB6903F004039B0867
:1014A000BB757B681B68DB6903F00803DB087B7591
:1014B000BB7D002B03D07B7D002B7FF463AF7B686B
:1014C00000221A760023FB75FB7D18461C37BD46AB
:1014D0005DF8047B704700BF0000FC1F80B483B040
:1014E00000AF786039603B68B3F5800F06D07B6849
:1014F0001A683B681A437B681A6005E07B689A6942
:101500003B681A437B689A610C37BD465DF8047BE3
:10151000704700BF80B483B000AF78607B68DB6841
:1015200043F480727B68DA600C37BD465DF8047B5B
:10153000704700BF80B582B000AF78607B68104A0A
:10154000934203D10420FFF7B1F816E07B680D4AFF
:10155000934203D10820FFF7A9F80EE07B680A4AFE
:10156000934203D11020FFF7A1F806E07B68074AF9
:10157000934202D10648FFF799F80837BD4680BD6F
:1015800000C0004000000140004001400040004811
:101590000100001080B582B000AF78601020FFF726
:1015A000D5F97868FFF7C6FF0837BD4680BD00BF94
:1015B00080B584B000AF78600B46FB707868FFF7A9
:1015C000E9FF7868FFF7A6FF7B681B68FB60FB6894
:1015D00023F44043FB60FB789B03FA681343FB60F2
:1015E0007B68FA681A601037BD4680BD80B483B04E
:1015F00000AF786039603B681A687B685A613B6865
:101600005B79C3F34013DBB21A057B685A603B6811
:101610001B79C3F30303DBB21A467B685A623B684B
:101620005B79C3F30303DBB21A467B681A623B683B
:101630005B79C3F30013DBB21A467B689A613B689F
:101640001B79C3F30313DBB21A467B68DA620C37EB
:10165000BD465DF8047B704780B487B000AF78600A
:101660000B46FB701346BB707B68D3F8A830FB6059
:10167000FB78092B2CD801A252F823F0A5160008FC
:10168000A5160008AF160008AF160008D11600080E
:10169000D1160008D1160008D1160008B9160008A6
:1016A000C516000803233B6100237B6116E00C2371
:1016B0003B6102237B6111E04FF440733B610823DF
:1016C0007B610BE04FF440633B610A237B6105E0E3
:1016D0004FF440533B610C237B6100BF3B69DB430C
:1016E000FA681340FB60BA787B6902FA03F3FA6880
:1016F0001343FB607B68FA68C3F8A8201C37BD461B
:101700005DF8047B704700BF80B483B000AF7860A1
:101710007B68DB6843F480727B68DA600C37BD4617
:101720005DF8047B704700BF80B483B000AF786081
:101730007B6801221A610C37BD465DF8047B704757
:1017400080B582B000AF78607B68094A934203D1CC
:101750008020FEF7ABFF07E07B68064A934203D187
:101760004FF48070FEF7A2FF0837BD4680BD00BF72
:10177000000002400040024080B582B000AF7860B7
:101780001020FFF7E3F87868FFF7DAFF0837BD4667
:1017900080BD00BF80B584B000AF78600B46FB70A1
:1017A0007868FFF7E9FF7868FFF7AEFF7B681B6892
:1017B000FB60FB6823F44043FB60FB789B03FA6803
:1017C0001343FB607B68FA681A601037BD4680BD22
:1017D00080B582B000AF786039607868FFF7A4FF09
:1017E0003B681A687B685A613B685B7BC3F30013F4
:1017F000DBB21A057B685A603B681B7BC3F30303AB
:10180000DBB21A467B685A623B681B7BC3F3031347
:10181000DBB21A467B68DA623B685B7BC3F3030387
:10182000DBB21A467B681A623B685A687B689A6129
:101830003B689B6883F014027B689A640837BD4656
:1018400080BD00BF80B485B000AF78600B46FB70F0
:101850001346BB707B685B68BB60BB6823F0030307
:10186000BB60FB78BA681343BB607B68BA685A6098
:101870007B685B69FB60BB78012B04D1FB6843F498
:101880008063FB6003E0FB6823F48063FB607B689C
:10189000FA685A611437BD465DF8047B704700BF93
:1018A00080B485B000AF78600B46FB701346BB7008
:1018B0007B685B68BB60BB6823F40033BB60BB68BC
:1018C00043F40033BB607B68BA685A607B685B692D
:1018D000FB60BB78002B04D0FB6843F40013FB6073
:1018E00003E0FB6823F40013FB60FB78012B04D1B9
:1018F000FB6843F48003FB6003E0FB6823F4800390
:10190000FB607B68FA685A611437BD465DF8047B5A
:10191000704700BF80B489B000AFF8600B467A60B2
:10192000FB72FB7A013BFB77FB681B68BB61FB7FAB
:101930005B00DBB21033FB75FB7D032202FA03F37D
:10194000DB43BA691340BB617B685B781A46FB7D59
:1019500002FA03F3BA691343BB61FB7F1633FB75CD
:10196000FB7D012202FA03F3DB43BA691340BB613A
:101970007B689B781A46FB7D02FA03F3BA6913432E
:10198000BB61FB7F5B00DBB21933FB75FB7D032280
:1019900002FA03F3DB43BA691340BB617B68DB786F
:1019A0001A46FB7D02FA03F3BA691343BB61FB7F5E
:1019B0009B00FB75FB7D0F2202FA03F3DB43BA6940
:1019C0001340BB617B681B781A46FB7D02FA03F368
:1019D000BA691343BB61FB68BA691A602437BD4614
:1019E0005DF8047B704700BF80B483B000AF7860BF
:1019F0000B467B807A887B685A630C37BD465DF85E
:101A0000047B704780B483B000AF78600B46FB70F6
:101A100013463B80FB78002B03D13A887B68DA635E
:101A200002E03A887B685A640C37BD465DF8047B57
:101A3000704700BF80B483B000AF786039603B6806
:101A40005A687B681A653B689A687B685A653B6888
:101A50001A687B68DA640C37BD465DF8047B704712
:101A600080B483B000AF78600B46FB707B685B6925
:101A700023F0C0427B685A617B685A69FB785B0738
:101A80001A437B685A610C37BD465DF8047B70478A
:101A900080B584B000AFF8600B467A60FB72F868DE
:101AA000FEF782FCFB681A68FB7A9B0019460F233D
:101AB0008B40DB431A407B681B68F97A89008B40B6
:101AC0001A43FB681A60FA7A7B685968FB6804322B
:101AD00043F822101037BD4680BD00BF80B483B0EC
:101AE00000AF78600B46FB701346BB70FA78BB788A
:101AF00003F00303D9B27B68083201F00301090146
:101B000053F8220020F03000014343F822100C3734
:101B1000BD465DF8047B704780B483B000AF786049
:101B20000B46FB701346BB707B685A6FFB785B00FB
:101B3000194603238B40DB431A407B685A677B6856
:101B40005A6FBB78F97849008B401A437B685A6713
:101B50000C37BD465DF8047B704700BF80B582B08E
:101B600000AF78603960786800F046F83B681B7910
:101B7000002B06D13B681B6878681946022200F0EA
:101B800087F87B680E4A5A637B684FF4A2629A63B7
:101B90003B681B79002B07D13B685B7943F00B0353
:101BA000DBB21A467B68DA637B684FF0FF32DA6497
:101BB0003B68DB881A467B681A640837BD4680BDDF
:101BC00002013F0780B485B000AF78607B68D3F82E
:101BD0000C3103F0E063002B03D17B685B6DFB816C
:101BE00003E07B68D3F81C31FB81FB89184614376E
:101BF000BD465DF8047B704780B582B000AF786069
:101C00007B681A4A934203D07B68194A934203D1F6
:101C1000184800F01BF916E07B68174A934203D07E
:101C20007B68164A934203D1154800F00FF90AE089
:101C30007B68144A934203D07B68134A934202D1D3
:101C4000124800F003F97B680322DA6000BF7B686A
:101C5000DB6803F00103002BF9D07B681B6C23F0D9
:101C60000F027B681A640837BD4680BD0000034040
:101C7000000203400800034000000248000202483E
:101C8000080002480040024800420248084002485A
:101C900080B58EB000AFF860B9607A60BB68632B26
:101CA00058D97B68002B55D0FEF71CFD02462E4B01
:101CB000A3FB02235B093B62BB682B4AA2FB032305
:101CC0005B09BB600123FB620123BB6240F2FF336F
:101CD0007B6240F2FF333B6322E03B6A3A6B02FBDC
:101CE00003F2BB68796801FB03F3B2FBF3F3FB611A
:101CF000FB699B0ABB61FB69C3F309037B61BB6999
:101D0000B3F5806F09D27A697B6A9A4205D27B6902
:101D10007B62BB69BB623B6BFB623B6B013B3B6322
:101D20003B6B002BD9D1FB6A43F40042FB681A617C
:101D3000FB685A690D4B13407A68013A92021A43C4
:101D4000BB6A013B1B041A43FB685A61002387F8F6
:101D5000373002E0012387F8373097F837301846DC
:101D60003837BD4680BD00BF1F85EB51EF8000FCBA
:101D700080B485B000AFF860B9603B601346FB717A
:101D8000FB68D3F8083123F0E062FB68C3F8082150
:101D9000FB68D3F80821094B13403A681102BA686E
:101DA0001143FA7912060A431A43FB68C3F8082163
:101DB0001437BD465DF8047B704700BFC0C0FFF814
:101DC00080B485B000AFF860B9603B601346FB712A
:101DD000FB68D3F80C3123F0E062FB68C3F80C21F8
:101DE000FB68D3F80C210A4B13403A681102BA6819
:101DF0001143FA7912060A43134343F08052FB68F9
:101E0000C3F80C211437BD465DF8047B704700BF52
:101E1000C0C0FFEF80B485B000AFF8600B467A60B9
:101E2000FB72FB689A69FB7A072101FA03F3DB4333
:101E30001A40FB7A796801FA03F31A43FB689A6146
:101E40001437BD465DF8047B704700BF80B582B093
:101E500000AF78607B680D4A934204D14FF4006074
:101E6000FEF724FC0EE07B68094A934203D109483F
:101E7000FEF71CFC06E07B68074A934202D1074844
:101E8000FEF714FC0837BD4680BD00BF08000340C4
:101E900008000248800000100840024800010010BD
:101EA00080B485B000AF786039603B78C3F302033B
:101EB000DBB21A46BB78C3F30403DBB21B04134343
:101EC000FB607B68FA68C3F8F021FB78C3F300136A
:101ED000DBB21A07FB78C3F38103DBB29B061A431C
:101EE000FB78C3F34013DBB25B071343FB607B68F3
:101EF000D3F8F021FB68134343F000427B68C3F83A
:101F0000F0211437BD465DF8047B704780B483B080
:101F100000AF78607B68D3F8843043F080627B68E0
:101F2000C3F884200C37BD465DF8047B704700BFC2
:101F300080B483B000AF78607B68D3F8843023F03E
:101F400080627B68C3F884200C37BD465DF8047B53
:101F5000704700BF80B500AF0120FEF7A7FB80BD32
:101F600080B582B000AF78603960FFF7F3FF3B685F
:101F70005A697B681A603B685B6843F400427B687F
:101F8000C3F880203B689A687B68C3F8A0203B6850
:101F9000DA687B68C3F8A4203B681A697B68C3F8D9
:101FA00080223B681A687B68C3F8B8200837BD46B2
:101FB00080BD00BF80B485B000AFF860B9603B6001
:101FC0001346FB71FB79002B09D1BA6840F21F73ED
:101FD0001340FA683968283142F8213007E0BA68BE
:101FE000054B1340FA683968283142F8213014371C
:101FF000BD465DF8047B704700001F0780B485B0C4
:1020000000AF78607B68D3F8803043F000427B6893
:10201000C3F880200023FB7317E0FB7B0F4A52F8C4
:102020002330BB60BB68D3F8803003F44033002B0F
:1020300008D000E000BFBB68D3F8803003F08053C5
:10204000002BF7D1FB7B0133FB73FB7B032BE4D924
:102050001437BD465DF8047B704700BF5877000811
:1020600080B485B000AF78600B46FB70FB78032B23
:1020700003D9FB78043BFB6001E0FB78FB607B68E5
:10208000D3F8403123F00F027B68C3F840217B680E
:10209000D3F84021FB681A437B68C3F8402114370A
:1020A000BD465DF8047B704780B582B000AF7860B4
:1020B00039603B68786859680022002300F028F8EE
:1020C0003B68786859680122002300F021F83B68DA
:1020D000786899680022012300F01AF83B68786854
:1020E00099680122012300F013F83B681A697B68A4
:1020F000C3F880203B68DA687B68C3F8B8203B6887
:1021000078681968FFF7CCFE0837BD4680BD00BF70
:1021100080B48DB000AFF860B9603B601346FB71CE
:10212000FB79002B13D10823FB624FF4E0637B6241
:102130000023BB621F233B623B7AC3F30403DBB281
:10214000FB617B7AC3F30203DBB2FB7613E0182357
:10215000FB624FF0E0637B621023BB624FF4F81325
:102160003B62BB7AC3F30403DBB2FB61FB7AC3F3CC
:102170000203DBB2FB76FB683A68283253F8223060
:102180007B617B6ADB437A6913407B61FA7EFB6A81
:1021900002FA03F37A6913437B613B6ADB437A6992
:1021A00013407B61BB6AFA6902FA03F37A6913434D
:1021B0007B61FB683A682832796943F8221034372A
:1021C000BD465DF8047B704780B485B000AF786091
:1021D0000B46FB707B68D3F88030FB60FB6823F014
:1021E0000303FB60FB78FA681343FB607B68FA68C3
:1021F000C3F880201437BD465DF8047B704700BFEC
:1022000080B586B000AF786039600023FB7509E0C7
:10221000FB7D394A52F823301846FFF789FEFB7DD3
:102220000133FB75FB7D032BF2D900233B613B6837
:102230001B7803F00303DBB2002B02D04FF40063E2
:102240003B610023FB7521E0FB7D2B4A52F82330D4
:10225000D3F88430FB60FB6823F44073FB603B6879
:102260001B78C3F38103DBB21B02FA681343FB60E4
:10227000FA683B691343FB60FB7D1F4A52F8233029
:10228000FA68C3F88420FB7D0133FB75FB7D032BCB
:10229000DAD93B685B6843F4000343F400437A688F
:1022A000C2F800323B689B6843F001027B68C3F8C8
:1022B00004223B681B7803F00303DBB2022B07D137
:1022C0007B68D3F8043243F480327B68C3F804227D
:1022D0000023FB7509E0FB7D074A52F823301846BE
:1022E000FFF714FEFB7D0133FB75FB7D032BF2D959
:1022F0001837BD4680BD00BF5877000880B489B04C
:1023000000AFF860B9607A607B681B7ABB61FB68DC
:10231000D3F888307B61BB68012202FA03F3DB4308
:102320007A6913407B61BB68BA6902FA03F37A6980
:1023300013437B61FB687A69C3F888207B685B7A0A
:102340005BB2002B29DB0023FB61BB68012B0AD1A8
:102350000823FB61FB68D3F8B03023F4F852FB6824
:10236000C3F8B0200CE0BB68002B09D10023FB614F
:10237000FB68D3F8B03023F01F02FB68C3F8B0202D
:10238000FB68D3F8B0307A68527A51B2FA6901FA30
:1023900002F21A43FB68C3F8B020FB68D3F8C820E8
:1023A0007B685B681A43FB68C3F8C8207B681968C0
:1023B000FB68BA68803243F822102437BD465DF8C6
:1023C000047B704780B400AFBD465DF8047B704766
:1023D00080B483B000AF78600B46FB707B68DA682E
:1023E000FB78012101FA03F31A437B68DA600C37AA
:1023F000BD465DF8047B704780B483B000AF786061
:102400007B680122DA600C37BD465DF8047B7047BB
:1024100080B483B000AF78607B6802221A610C3709
:10242000BD465DF8047B704780B483B000AF786030
:102430000B467B807A887B685A630C37BD465DF813
:10244000047B704780B483B000AF78600B467B801C
:102450007A887B68DA630C37BD465DF8047B704789
:1024600080B483B000AF786039607B683A681A61E5
:102470000C37BD465DF8047B704700BF80B483B065
:1024800000AF78600B46FB707B68D3F8A420FB7824
:10249000012101FA03F31A437B68C3F8A4200C3727
:1024A000BD465DF8047B704780B584B000AF7860AE
:1024B0000023FB737B6893F8263083F00103DBB2C3
:1024C000002B09D07B6893F82130002B04D1786869
:1024D00000F008F80346FB73FB7B18461037BD4637
:1024E00080BD00BF80B584B000AF78607B681B6999
:1024F000184601F07FFA0346FB737B681B699A68F4
:102500007B681B7E10461946FFF762FF7B685A699D
:102510007B68DB6910461946FFF768F8786800F0B9
:102520002DF87B6893F82530002B0FD07B685A6913
:102530007B6893F82030104600211A46FFF78CF88C
:102540007B685B6918460021FFF798FF7B685B6931
:102550001846FFF75DFF7B68012283F826207B6821
:1025600093F82430002B04D07B685B691846FFF792
:1025700043FFFB7B18461037BD4680BD80B582B057
:1025800000AF78607B685A697B685B8C104619469F
:10259000FFF74AFF7B685B6918460021FFF752FF8F
:1025A0007B681B699A687B68DB6810461946FFF7F1
:1025B00057FF0837BD4680BD80B485B000AFF860D6
:1025C0000B467A607B817989FB687A68203243F810
:1025D00022101437BD465DF8047B704780B483B089
:1025E00000AF78607B689B6BDBB223F07F03DBB2CC
:1025F00018460C37BD465DF8047B704780B483B045
:1026000000AF78607B681B6D03F4C04318460C373D
:10261000BD465DF8047B704780B485B000AFF860BC
:102620000B467A607B817989FB687A68603243F86F
:1026300022101437BD465DF8047B704780B483B028
:1026400000AF78607B684FF48042C3F818210C37E4
:10265000BD465DF8047B704780B483B000AF7860FE
:102660007B68D3F8143103F00803002B14BF012357
:102670000023DBB218460C37BD465DF8047B70477B
:1026800080B483B000AF786039607B683A68C3F883
:1026900018210C37BD465DF8047B704780B483B0C9
:1026A00000AF78600B46FB707B681B6C23F0C002A8
:1026B000FB789B01DBB21A437B681A640C37BD467A
:1026C0005DF8047B704700BF80B483B000AF7860D2
:1026D00039607B68DA6C3B681A437B68DA640C37D4
:1026E000BD465DF8047B704780B584B000AF78606C
:1026F0007B685B685B6898470346FB73FB7B184607
:102700001037BD4680BD00BF80B586B000AFF86011
:10271000B9607A600123FB75FB685B6893F88530CC
:10272000022B06D1F868B9687A6800F007F803460A
:10273000FB75FB7D18461837BD4680BD80B586B059
:1027400000AFF860B9607A600223FB75FB689B6894
:102750003B61BB68002B33D07B68002B30D03B69DA
:10276000DB7FDBB283F00103DBB2002B27D03B69B8
:1027700093F82030DBB283F00103DBB2002B1ED0D4
:102780003B690122DA773B69BA685A613B69104AB2
:102790009A613B69012283F821203B69002283F87A
:1027A0002220F868796800F015F80346FB753B694C
:1027B000002283F821203B690022DA7702E001E061
:1027C0000323FB75FB7D18461837BD4680BD00BF4F
:1027D0008000002090B587B000AF78603960012399
:1027E0007B617B689B68FB6000237B82FB68002227
:1027F0001A61FB6800229A607B689B681B68082B43
:1028000001D902237B617B69013B1A463B6803FACD
:1028100002F2FB68DA607B681A68FB681B7FDBB238
:1028200010461946FFF73AFF7B685B6893F87D30E6
:10283000002B00F0D6807B681B681846FFF7FEFE71
:102840007B681B68184600F0C5F9FB6893F82130D7
:10285000DBB2002B0BD07B681A68FB681B7FDBB2F6
:1028600010464FF6FF711A46FFF7D6FE1DE07B6952
:10287000022B07D1FB689A69FB689B6813441B888D
:102880007B8206E0FB689A69FB689B6813441B78AF
:102890007B827B681A68FB681B7FDBB21C467B8AE5
:1028A000104619462246FFF7B7FEFB689A687B6917
:1028B0001A44FB689A6061E0FB6893F82130DBB250
:1028C000002B0BD07B681A68FB681B7FDBB21046BD
:1028D0004FF6FF711A46FFF79FFE1DE07B69022B42
:1028E00007D1FB689A69FB689B6813441B887B824D
:1028F00006E0FB689A69FB689B6813441B787B823F
:102900007B681A68FB681B7FDBB21C467B8A10461B
:1029100019462246FFF780FE00BF7B681B681846F9
:10292000FFF79AFE0346002BF7D17B681B68184619
:10293000FFF748F903467B82FB685A69FB681B690D
:1029400013447A8AD2B21A707B69022B0AD1FB68CF
:102950005A69FB681B69013313447A8A120A92B2DE
:10296000D2B21A70FB681A697B691A44FB681A6153
:10297000FB689A687B691A44FB689A60FB689A68EE
:10298000FB68DB689A4297D300BF7B681B681846D8
:10299000FFF762FE0346002BF7D17B681B681846E1
:1029A000FFF710F903467B82FB685A69FB681B69D5
:1029B00013447A8AD2B21A707B69022B0AD1FB685F
:1029C0005A69FB681B69013313447A8A120A92B26E
:1029D000D2B21A707B681B6818460521FFF750FEBB
:1029E000E9E07B681B68184600F0F4F800BF7B68DC
:1029F0001B681846FFF7F2FD0346802BF7D0FB68F3
:102A000093F82130DBB2002B0BD07B681A68FB688F
:102A10001B7FDBB210464FF6FF711A46FFF7CCFD65
:102A20001DE07B69022B07D1FB689A69FB689B68F4
:102A300013441B887B8206E0FB689A69FB689B68ED
:102A400013441B787B827B681A68FB681B7FDBB2B0
:102A50001C467B8A104619462246FFF7ADFDFB68EF
:102A60009A687B691A44FB689A6071E000BF7B68D2
:102A70001B681846FFF7B2FD0346802BF7D0FB68B2
:102A800093F82130DBB2002B0BD07B681A68FB680F
:102A90001B7FDBB210464FF6FF711A46FFF78CFD25
:102AA0001DE07B69022B07D1FB689A69FB689B6874
:102AB00013441B887B8206E0FB689A69FB689B686D
:102AC00013441B787B827B681A68FB681B7FDBB230
:102AD0001C467B8A104619462246FFF76DFD00BF53
:102AE0007B681B681846FFF789FD0346002BF7D06B
:102AF0007B681B681846FFF765F803467B82FB6816
:102B00005A69FB681B6913447A8AD2B21A707B69CE
:102B1000022B0AD1FB685A69FB681B690133134415
:102B20007A8A120A92B2D2B21A70FB681A697B6969
:102B30001A44FB681A61FB689A687B691A44FB684F
:102B40009A607B681B6818464FF44041FFF7BCFD54
:102B5000FB689A68FB68DB689A4287D300BF7B6892
:102B60001B681846FFF74AFD0346002BF7D07B6829
:102B70001B681846FFF726F803467B82FB685A69F4
:102B8000FB681B6913447A8AD2B21A707B69022BE4
:102B90000AD1FB685A69FB681B69013313447A8ABE
:102BA000120A92B2D2B21A707B681B6818464FF4B0
:102BB0004041FFF789FDFB680022DA60FB680022D4
:102BC0001A61FB6800229A60002318461C37BD4634
:102BD00090BD00BF80B582B000AF78607868FEF726
:102BE000F1FF7868FEF7EEFF0837BD4680BD00BFF5
:102BF00080B483B000AF78600B46FB701346BB70A7
:102C0000F878FB787A6806339B0013445B6823F0FE
:102C10000702BB781A437968831D9B000B445A60F6
:102C20000C37BD465DF8047B704700BF80B483B0AD
:102C300000AF78600B46FB707B685B6B23F07062C3
:102C4000FB78013B1B061A437B685A630C37BD4671
:102C50005DF8047B704700BF80B483B000AF78603C
:102C60000B46FB707B685B6B23F47C12FB78013BAB
:102C70001B041A437B685A630C37BD465DF8047B1E
:102C8000704700BF80B485B000AFF860B9607A606B
:102C9000FB685B6923F05042BB681A437B681A43A8
:102CA000FB685A611437BD465DF8047B704700BF6E
:102CB00080B483B000AF78600B46FB707B681B6C00
:102CC00023F00F02FB781A437B681A640C37BD4669
:102CD0005DF8047B704700BF80B582B000AF7860BC
:102CE00078680121FFF7E4FF0837BD4680BD00BFCB
:102CF00080B483B000AF78607B685B6B43F0010207
:102D00007B685A630C37BD465DF8047B704700BF93
:102D100080B483B000AF786039607B685B6923F46E
:102D2000FE423B68013B9B02134343F480727B6885
:102D30005A610C37BD465DF8047B704780B483B0A0
:102D400000AF78607B68DB6B23F008027B68DA6396
:102D50000C37BD465DF8047B704700BF80B584B07A
:102D600000AFF860B9607A60F868B9687A68FFF710
:102D700089FF1037BD4680BD80B582B000AF786056
:102D80000B46FB70FB7878681946FFF74FFF083752
:102D9000BD4680BD80B582B000AF78600B46FB7049
:102DA000FB7878681946FFF757FF0837BD4680BDA6
:102DB00080B582B000AF78600B46FB701346BB70E5
:102DC000F878FB787A6806339B0013445B6823F03D
:102DD000500343F010027968831D9B000B445A6036
:102DE000FA78BB78786811461A46FFF701FF083772
:102DF000BD4680BD80B582B000AF0023FB71244882
:102E00002449FEF7ABFE2248FFF798FF2048FFF762
:102E10006FFF1F480821FFF7AFFF1D481021FFF784
:102E2000B9FF1B4800210022FFF798FF1848142122
:102E3000FFF76EFF18480421184AFDF7C7FA144837
:102E400000210122FFF7B4FF1148FFF745FF1248A8
:102E50000721134AFDF7BAFA0F480121114AFDF77D
:102E6000B5FA0B4810210522FEF7D4FF08481021BF
:102E700004220123FEF77CFF0548002104220F23D2
:102E8000FEF79EFFFB7918460837BD4680BD00BFA0
:102E9000000003409800002000810248AC0400209C
:102EA000840000208077000880B483B000AF786091
:102EB0000B46FB707B68DA68FB78012101FA03F3AB
:102EC0001A437B68DA600C37BD465DF8047B7047B7
:102ED00080B483B000AF786039607B685A693B6822
:102EE0005B041A437B685A610C37BD465DF8047B6E
:102EF000704700BF80B483B000AF786039607B68F2
:102F00003A681A610C37BD465DF8047B704700BF14
:102F100080B483B000AF78600B467B807A887B6892
:102F20001A670C37BD465DF8047B704780B483B0E8
:102F300000AF78600B46FB707B68D3F8A420FB7869
:102F4000012101FA03F31A437B68C3F8A4200C376C
:102F5000BD465DF8047B704780B483B000AF7860F5
:102F60000B46FB707B68D3F8B020FB78012101FA97
:102F700003F31A437B68C3F8B0200C37BD465DF8F5
:102F8000047B704780B483B000AF78600549054B7F
:102F9000DA6C7B681343CB640C37BD465DF8047B69
:102FA000704700BF0040005080B483B000AF78602D
:102FB0000549054BDA6C7B68DB431340CB640C3767
:102FC000BD465DF8047B70470040005080B483B07C
:102FD00000AF78600B46FB70FB7801229A407B685B
:102FE0005A600C37BD465DF8047B704780B483B0EF
:102FF00000AF78600B46FB70FB784FF480329A404C
:103000007B685A600C37BD465DF8047B704700BF93
:1030100080B582B000AF78607B681B6893F844305D
:10302000012B06D17B689B681B6818460021FFF7BF
:103030007DFF7B681B6893F84530012B06D17B68C8
:103040009B681B6818460A21FFF770FF0837BD46CA
:1030500080BD00BF80B582B000AF78607B681B6820
:10306000DB7C012B09D17B689B6D1A687B689B6DAB
:103070001B7910461946FFF7B9FF7B681B68DB7C9C
:10308000022B09D17B689B6D1A687B689B6D1B794D
:1030900010461946FFF79AFF0837BD4680BD00BFAE
:1030A00080B582B000AF78607B681B68DB7C012B49
:1030B00009D17B689B6D1A687B689B6D1B791046F4
:1030C0001946FFF783FF7B681B68DB7C022B09D165
:1030D0007B689B6D1A687B689B6D1B79104619464F
:1030E000FFF784FF0837BD4680BD00BF80B586B0BE
:1030F00000AF786000237B6100233B610023FB73FA
:103100007B681B68BB607B6893F89030002B40F0B5
:1031100033817B689B6E184600F03CFC0346FB73D2
:1031200000233B6116E07B683A69083253F822308D
:1031300018687B683A69083253F8223019797B683D
:103140003A690E3253F822301A46FDF73FF93B69CF
:1031500001333B613B69052BE5D9BB6893F84730E8
:10316000012B1AD17B681B6D19687B681B6D1A795E
:103170007B685B6D084611461A46FDF727F97B68A8
:103180001B6D19687B681B6D1A797B681B689B7CBB
:10319000084611461A46FEF7BFFCBB68DB7C002BD5
:1031A0000CD07B689B6D19687B689B6D1A797B6876
:1031B000DB6D084611461A46FDF708F97868FFF7F7
:1031C00049FF00237B61A4E07B687A69023253F8EF
:1031D00022301A687B689B6910461946FEF7F8FA98
:1031E0007B687A69023253F822301A687B68DB6E9A
:1031F00010461946FEF71EFC7B687A69023253F8C6
:1032000022301A687B685B6E104601211A46FEF771
:1032100081FBBB6893F84730012B21D17B687A6929
:10322000023253F822301A687B681B6E1046032165
:103230001A46FEF76FFB7B687A69023253F8223038
:103240001968BB685A7CBB6893F84830002B14BFE0
:1032500001230023DBB2084611461A46FEF720FB85
:103260007B687A69023253F822301A687B68D3F897
:103270009C309BB210461946FEF7B6FB7B687A6914
:10328000023253F822301B68184600210022FEF754
:10329000B9FB7B687A69023253F822301B68184602
:1032A00001210022FEF7AEFB7B687A69023253F8F7
:1032B000223019687B681A687B69134408331B79CC
:1032C00008461946FEF7CCFB7B687A69023253F850
:1032D00022301B687A687969023152F8212012681D
:1032E000D2F8A810BA6878690A3052F820200A4348
:1032F000C3F8A8207B6859687B687A69023253F862
:1033000022301B7908461946FFF7CEFD7B69013351
:103310007B617B69022B7FF657AF7868FFF778FEF9
:103320007B685A68BB685B6A10461946FFF7E2FD86
:103330007B68DB6E1B791A467B68C3F894207B6838
:10334000DB6E5B791A467B68C3F898207B68DB6E7E
:103350001B78C3F38113DBB21A467B6883F8912094
:10336000FB7B012B06D00023FB737B68012283F8D3
:10337000902001E00123FB73FB7B18461837BD4604
:1033800080BD00BF80B584B000AF78600023FB60D3
:103390007B681B68BB607B6893F89030012B05D07D
:1033A0007B6893F89030032B40F033817B680022D8
:1033B000A3F8AE207B680022A3F8B0207B6800222F
:1033C000A3F8B2207B680022A3F8B4207B68002217
:1033D000A3F8B6207B680022A3F8B8207B680022FF
:1033E000A3F8BA207B680022A3F8BC207B680022E7
:1033F000C3F8A4207B680022A3F8C0207868FFF7F8
:103400004FFE0023FB6026E0BB6893F84730012B9A
:1034100013D17B68FA68023253F822301B681846D1
:103420000A21FFF799FD7B68FA68023253F82230CF
:103430001B6818460B21FFF78FFD7B68FA68023284
:1034400053F822301B68184601210122FEF7FAF9D1
:10345000FB680133FB60FB68022BD5D9BB6893F88E
:103460004730012B29D17B689B681A68BB681B7D9C
:103470001946BB681B7D5B000B4310461946FFF7DE
:1034800027FD7B68DB681A68BB685B7D1946BB68F3
:103490005B7D5B000B4310461946FFF719FD7B6807
:1034A0001B691A68BB689B7D1946BB689B7D5B00E6
:1034B0000B4310461946FFF70BFDBB681B7C002B26
:1034C00075D07B685B691B68184601210122FEF7F5
:1034D000B9F9BB681B7C012B33D17B689B681968E9
:1034E0007B68B3F8C2305B089AB2BB68B3F840306F
:1034F00013449BB208461946FFF70AFD7B68DB6858
:1035000019687B68B3F8C2305B089AB2BB68B3F83D
:10351000403013449BB208461946FFF7F9FC7B681C
:103520001B6919687B68B3F8C2305B089AB2BB6844
:10353000B3F8403013449BB208461946FFF7E8FC45
:1035400035E07B689B6819687B68D3F894309BB240
:10355000DBB29AB2BB68B3F8403013449BB2084662
:103560001946FFF7D5FC7B68DB6819687B68D3F8E0
:1035700094309BB2DBB29AB2BB68B3F840301344CC
:103580009BB208461946FFF7C3FC7B681B691968A4
:103590007B68D3F894309BB2DBB29AB2BB68B3F8C5
:1035A000403013449BB208461946FFF7B1FCBB6894
:1035B0001B6A1846FFF7E6FC7B689B681B68184689
:1035C00000210122FEF73EF97B68DB681B68184684
:1035D00000210122FEF736F97B681B691B6818463B
:1035E00000210122FEF72EF9BB681B7C002B07D0BF
:1035F0007B685B691B68184600210122FEF722F9EF
:10360000BB681B6A1846FFF7CFFC7B68022283F871
:1036100090201037BD4680BD80B400AF044BDB68FE
:1036200003F4E0631B0A1846BD465DF8047B70474F
:1036300000ED00E080B483B000AF0346FB7197F962
:103640000730002B0BDB084997F907305B09FA7943
:1036500002F01F02012000FA02F241F823200C3789
:10366000BD465DF8047B704700E100E080B483B0A4
:1036700000AF0346FB7197F90730002B0CDB0949BB
:1036800097F907305B09FA7902F01F02012000FA6E
:1036900002F2603341F823200C37BD465DF8047B0D
:1036A000704700BF00E100E080B483B000AF034684
:1036B0003960FB7197F90730002B0ADB0D4997F948
:1036C00007303A68D2B29200D2B20B4483F800239A
:1036D0000AE00949FB7903F00F03043B3A68D2B2D0
:1036E0009200D2B20B441A760C37BD465DF8047BCB
:1036F000704700BF00E100E000ED00E080B489B059
:1037000000AFF860B9607A60FB6803F00703FB6103
:10371000FB69C3F10703062B28BF0623BB61FB69C6
:103720000633062B02D9FB69013B00E000237B61D5
:10373000BB69012202FA03F35A1EBB681A407B6977
:103740009A407B69012101FA03F3591E7B680B4003
:10375000134318462437BD465DF8047B704700BF0D
:1037600090B583B000AF78607B6859687B6893F848
:1037700021207B680833084611461A46FCF726FECE
:103780007B6819687B68DA7F7B68143308461146CA
:103790001A46FEF77DF97B681A687B6893F820303B
:1037A000104619460122FEF799F97B681C7FFFF746
:1037B00033FF01467B685B7F1A467B689B7F084628
:1037C00011461A46FFF79AFF024663B218461146A1
:1037D000FFF76AFF7B6893F82230002B0BD07B68E1
:1037E0001B7F5BB21846FFF741FF7B681B7F5BB214
:1037F0001846FFF71FFF002318460C37BD4690BD43
:1038000080B400AF044BDB6803F4E0631B0A184686
:10381000BD465DF8047B704700ED00E080B483B0E6
:1038200000AF0346FB7197F90730002B0BDB08490B
:1038300097F907305B09FA7902F01F02012000FABC
:1038400002F241F823200C37BD465DF8047B704737
:1038500000E100E080B483B000AF03463960FB7143
:1038600097F90730002B0ADB0D4997F907303A68C2
:10387000D2B29200D2B20B4483F800230AE0094985
:10388000FB7903F00F03043B3A68D2B29200D2B244
:103890000B441A760C37BD465DF8047B704700BFB9
:1038A00000E100E000ED00E080B489B000AFF86016
:1038B000B9607A60FB6803F00703FB61FB69C3F141
:1038C0000703062B28BF0623BB61FB690633062BC3
:1038D00002D9FB69013B00E000237B61BB69012247
:1038E00002FA03F35A1EBB681A407B699A407B694F
:1038F000012101FA03F3591E7B680B40134318465C
:103900002437BD465DF8047B704700BF80B582B0A8
:1039100000AF78607B681B785BB21846FFF77EFFCC
:103920000837BD4680BD00BF90B583B000AF78605A
:103930007B681C78FFF764FF01467B685B781A465A
:103940007B689B78084611461A46FFF7ADFF024692
:1039500063B218461146FFF77DFF7B68DB78002BCA
:1039600002D07868FFF7D2FF002318460C37BD4617
:1039700090BD00BF80B483B000AF78607B68DB6827
:1039800043F480727B68DA600C37BD465DF8047BD7
:10399000704700BF80B582B000AF78607B685B7B0A
:1039A00083F00103DBB2002B0FD07B689A687B6841
:1039B0001B7B10461946FDF7EDFE7B689B68184699
:1039C000FFF7D8FF7B6801225A7300231846083797
:1039D000BD4680BD80B483B000AF78607B68DB6893
:1039E00043F480727B68DA600C37BD465DF8047B77
:1039F000704700BF80B582B000AF78607B685B7BAA
:103A000083F00103DBB2002B0FD07B689A687B68E0
:103A10001B7B10461946FDF7CBFD7B689B6818465B
:103A2000FFF7D8FF7B6801225A7300231846083736
:103A3000BD4680BD80B584B000AF78600023FB73C5
:103A40007B685B7A83F00103DBB2002B0DD07B68CF
:103A50005A687B681B68104601211A46FDF72CFB4B
:103A60007B6801225A720023FB73FB7B18461037D8
:103A7000BD4680BD80B483B000AF786039607B689C
:103A8000D3F880203B681033194601238B401A433A
:103A90007B68C3F880200C37BD465DF8047B704717
:103AA00080B584B000AF78607B681B7E022B49D163
:103AB0007B685A697B681B6910461946FEF750FA05
:103AC0000023FB602FE07B68FA6853F82230196806
:103AD0007B68FA6853F822305B6808461946FEF79F
:103AE000E3FA7B68FA6853F822301B681846032112
:103AF000FEF76AFB7B68FA6853F822301B7A83F082
:103B00000103DBB2002B05D07B685B691846F968BE
:103B1000FFF7B0FF7B68FA6853F8223000225A7230
:103B2000FB680133FB60FB68032BCCD97B685B7EB1
:103B3000002B04D07B685B691846FEF75FFA7B6850
:103B400000221A767B681B7E18461037BD4680BD62
:103B500080B582B000AF78607B6819687B681A7C9A
:103B60007B680433084611461A46FCF72FFC7B6835
:103B700019687B681A7C7B685B7C084611461A468C
:103B8000FDF7CAFF002318460837BD4680BD00BFB9
:103B900080B485B000AF78607B6803F00703FB60FA
:103BA0000C4BDB68BB60BA684FF6FF031340BB6089
:103BB000FB681A02BB68134343F0BF6343F400334E
:103BC000BB60044ABB68D3601437BD465DF8047B14
:103BD000704700BF00ED00E080B582B000AF01206B
:103BE000FFF7D6FF72B6214B214A9A60BFF34F8F81
:103BF00062B61E4A1D4BD3F8883043F47003C2F8F6
:103C000088301C4B03F5805314331B687B607B6842
:103C100023F00F037B607B6843F003037B60154B4D
:103C200003F5805314337A681A60104A0F4B5B69AE
:103C300023F0100353610D4A0C4B5B6923F008031A
:103C400053610A4A094B5B6A23F480335362074A83
:103C5000064B5B6A23F400335362044A034B5B6AEE
:103C600023F4802353620837BD4680BD00ED00E099
:103C7000000000080010005880B485B000AF7860E4
:103C80000023FB737B6801221A70FB7B18461437F4
:103C9000BD465DF8047B704780B400AF024B184608
:103CA000BD465DF8047B7047001BB700B0B586B019
:103CB00000AF124B3C1D1D460FCD0FC42B68236077
:103CC0003B1D1846FCF77CFC0020FCF777FD00202C
:103CD000FCF72CFD0420FCF7FDFD01202021FCF762
:103CE00045FE0020FCF736FD0120FCF71BFE0120FD
:103CF000FCF704FE1837BD46B0BD00BFB082000817
:103D000080B485B000AFF8600B467A60FB72FB6848
:103D10009A68FB7A072101FA03F3DB431A40FB7A26
:103D2000796801FA03F31A43FB689A601437BD46B9
:103D30005DF8047B704700BF80B483B000AF78604B
:103D40000B46FB707B68DB6823F00702FB7803F00F
:103D500007031A437B68DA600C37BD465DF8047BC5
:103D6000704700BF80B483B000AF78607B68DB68C9
:103D700043F480727B68DA600C37BD465DF8047BE3
:103D8000704700BF80B483B000AF78607B681B6869
:103D900043F040027B681A600C37BD465DF8047B37
:103DA000704700BF80B483B000AF78607B681B6849
:103DB00023F040027B681A600C37BD465DF8047B37
:103DC000704700BF80B483B000AF78607B681B6829
:103DD00043F001027B681A600C37BD465DF8047B36
:103DE000704700BF80B483B000AF78607B681B6809
:103DF00023F001027B681A600C37BD465DF8047B36
:103E0000704700BF80B485B000AFF8600B467A60A1
:103E1000FB72FB681B68FA6812689168FA7A0720DF
:103E200000FA02F2D2431140FA7A786800FA02F2FC
:103E30000A439A601437BD465DF8047B704700BFA3
:103E400080B483B000AF786039607B681B687A68A3
:103E5000126811683A680A431A600C37BD465DF86B
:103E6000047B704780B582B000AF78607B681B68C8
:103E700018464FF40031FFF7E3FF0837BD4680BD19
:103E800080B582B000AF78607B681B6818464FF43D
:103E90008031FFF7D5FF0837BD4680BD80B584B0BF
:103EA00000AF78600023FB60786800F031F87B6831
:103EB00093F8A430002B03D0FB6843F00203FB60AF
:103EC0007B6893F8A330002B03D0FB6843F0040316
:103ED000FB607B6893F8A530002B03D0FB6843F0B0
:103EE0000803FB607B685B681846F968FDF7F6FA23
:103EF0007B6893F8A630002B06D07B685B68184679
:103F00004FF48001FDF7EAFA1037BD4680BD00BFCF
:103F100080B582B000AF78607B685A687B68D3F860
:103F20008C301B78104600211A46FFF7E9FE7B68AB
:103F30005A687B68D3F88C305B78104604211A46A7
:103F4000FFF7DEFE7B685A687B68D3F88C309B787D
:103F5000104608211A46FFF7D3FE7B685A687B6833
:103F6000D3F88C30DB7810460C211A46FFF7C8FED8
:103F70000837BD4680BD00BF80B582B000AF786015
:103F80007B681B681846FDF7D7F87B68DB79002B48
:103F90000BD07B681A687B685B79104604211A464F
:103FA000FFF730FF7868FFF75DFF7B681B7A002B17
:103FB0000BD07B681A687B689B79104600211A46F3
:103FC000FFF720FF7868FFF75BFF0837BD4680BD2D
:103FD00080B584B000AF78600023FB737B681B68FA
:103FE0001846FDF77DF90346FB73FB7B1846103737
:103FF000BD4680BD80B584B000AF78600023FB7300
:104000007B681B681846FDF799F90346FB73FB7B39
:1040100018461037BD4680BD80B584B000AF7860CB
:1040200039600023FB733B68BB607B681B68BA6820
:1040300012681A617B681B68BA6852685A617B68AB
:104040001B681846FDF714F90346FB73FB7B184603
:104050001037BD4680BD00BF80B586B000AF786028
:104060000023FB757B68D3F89030FB607B681B688E
:104070001846FFF7DFFC0346FB75FB7D002B7BD169
:104080007B685A687B689B6810461946FCF7E2FE1D
:104090007B685B681846FFF775FE7B685B681846AF
:1040A000FFF790FE7B6893F8A730002B05D07B6864
:1040B0005B681846FFF756FE18E07B68D3F8983027
:1040C00019687B68D3F898301A797B68D3F89C30EC
:1040D000084611461A46FCF779F97B685A687B68EE
:1040E00093F8A03010461946FFF726FE7868FFF7D0
:1040F000D5FE00233B6119E07A683B6902339B00DF
:1041000013445B68BB607B681B6859687B6893F8E5
:10411000A120BB681B79084611461A46FCF77CFFB4
:10412000B868FFF729FF3B6901333B617B6893F86F
:10413000A2301A463B699A42DED87B685B68184613
:10414000FFF730FE7B685B681846FFF74BFE7B6825
:1041500093F8A73083F00103DBB2002B0ED0FB688D
:104160001968FB681A797B68D3F8943008461146C1
:104170001A46FCF72BF901E00123FB75FB7D18467D
:104180001837BD4680BD00BF80B485B000AFF86071
:104190000B467A60FB72FB7A7A689A40FB685A6039
:1041A0001437BD465DF8047B704700BF80B584B00E
:1041B00000AF78607B685B7C83F00103DBB2002B8F
:1041C00020D00023FB7315E07B681A68FB7BDB00C3
:1041D000134419687B681A68FB7BDB0013441A7967
:1041E0007B680433084611461A46FCF7EFF8FB7B60
:1041F0000133FB737B681B7CFA7B9A42E4D37B68B8
:1042000001225A74002318461037BD4680BD00BFF6
:1042100080B584B000AF78600B467B807B681B68FC
:10422000BB600023FB7323E0FB7B012202FA03F354
:104230009AB27B8813409BB2002B09D0BB681A68E6
:10424000BB681B79104619460122FFF79DFF09E064
:10425000BB681A68BB681B79104619464FF4803258
:10426000FFF792FFBB680833BB60FB7B0133FB7336
:104270007B681B7CFA7B9A42D6D31037BD4680BD43
:1042800080B400AF044BDB6803F4E0631B0A1846FC
:10429000BD465DF8047B704700ED00E080B483B05C
:1042A00000AF0346FB7197F90730002B0BDB084981
:1042B00097F907305B09FA7902F01F02012000FA32
:1042C00002F241F823200C37BD465DF8047B7047AD
:1042D00000E100E080B483B000AF03463960FB71B9
:1042E00097F90730002B0ADB0D4997F907303A6838
:1042F000D2B29200D2B20B4483F800230AE00949FB
:10430000FB7903F00F03043B3A68D2B29200D2B2B9
:104310000B441A760C37BD465DF8047B704700BF2E
:1043200000E100E000ED00E080B489B000AFF8608B
:10433000B9607A60FB6803F00703FB61FB69C3F1B6
:104340000703062B28BF0623BB61FB690633062B38
:1043500002D9FB69013B00E000237B61BB690122BC
:1043600002FA03F35A1EBB681A407B699A407B69C4
:10437000012101FA03F3591E7B680B4013431846D1
:104380002437BD465DF8047B704700BF80B483B01E
:1043900000AF78607B68D3F8043243F400727B6826
:1043A000C3F804220C37BD465DF8047B704700BF9C
:1043B00080B485B000AFF860B9607A60FB68BA6815
:1043C000603253F822207B68012101FA03F342EAAC
:1043D0000301FB68BA68603243F822101437BD4607
:1043E0005DF8047B704700BF80B485B000AFF86013
:1043F000B9607A607B681968FB68BA68A03243F8D4
:1044000022101437BD465DF8047B704780B483B03A
:1044100000AF786039607B683A68C03253F8223068
:104420009BB218460C37BD465DF8047B704700BF51
:1044300090B585B000AF78607B681B7E022B40F0A2
:1044400099807B68DB681846FFF72AFB0346BB733D
:104450007B68DB685A697B689B6810461968002294
:104460000023FDF7A7FD7B68DB685A697B685B6802
:1044700010461946FDF7C4FE0023FB732EE07B684F
:104480001B68FA7B53F82230BB60BB689A68BB6834
:104490005B7B1946BB681B6810461A46FDF72EFF6A
:1044A000BB689A68BB681B689B78C3F30303DBB2E5
:1044B0001946BB685B6810461A46FFF795FF7B6894
:1044C000DB685A69BB681B7B1946BB685B7B10467F
:1044D0001A46FFF76DFFFB7B0133FB73FB7B002B61
:1044E000CDD07B685B681B7A03F00803DBB2002B3E
:1044F0002CD07B681B69002B28D07B681B691B684C
:10450000DCB2FFF7BDFE01467B681B695A687B6819
:104510001B699B68084611461A46FFF705FF0246CD
:1045200063B218461146FFF7D5FE7B68DB685A690F
:104530007B685B7E10461946FDF792FD7B681B6920
:104540001B68DBB25BB21846FFF7A8FE7B685B69AD
:10455000002B02D07B685B6998477B689B7E002BB1
:1045600005D07B68DB685B691846FFF70FFF7B6847
:10457000BA7B1A767B681B7E18461437BD4690BD01
:1045800080B582B000AF78607B68DB685B691846F5
:10459000FFF7FCFE0837BD4680BD00BF80B584B084
:1045A00000AF78607B689A687B681B689B78C3F370
:1045B0000303DBB210461946FFF728FF0346FB81D1
:1045C000FB8918461037BD4680BD00BF80B582B05C
:1045D00000AF0023FB716148FFF74EFB0346FB7100
:1045E000FB79002B04D15E48FFF7B2FA0346FB715A
:1045F000FB79002B04D15B48FFF7AAFA0346FB7155
:10460000FB79002B04D15848FEF76EF80346FB7186
:10461000FB79002B04D15548FFF7C8FD0346FB7119
:10462000FB79002B04D15248FFF79AF80346FB713F
:10463000FB79002B04D14F48FFF792F80346FB713A
:10464000FB79002B04D14C48FFF78AF80346FB7135
:10465000FB79002B04D14948FEF748FD0346FB7166
:10466000FB79002B04D14648FFF75EF90346FB7146
:10467000FB79002B04D14348FDF716FF0346FB717D
:10468000FB79002B04D14048FFF74EF90346FB713C
:10469000FB79002B04D13D48FFF762F80346FB711C
:1046A000FB79002B04D13A48FFF75AF80346FB7117
:1046B000FB79002B04D13748FFF752F80346FB7112
:1046C000FB79002B04D13448FFF72EF90346FB7128
:1046D000FB79002B04D13148FFF7BEFC0346FB7188
:1046E000FB79002B04D12E48FFF71EF90346FB711E
:1046F000FB79002B04D12B48FDF7D6FE0346FB7156
:10470000FB79002B04D12848FFF70EF90346FB7113
:10471000FB79002B04D12548FDF7C6FE0346FB714B
:10472000FB79002B04D12248FFF7FEF80346FB710A
:10473000FB79002B04D11F48FFF7F6F80346FB7105
:10474000FB79002B04D11C48FFF772FE0346FB7176
:10475000FB7918460837BD4680BD00BFC004002065
:10476000888200089C820008C400002010030020FA
:104770002C8100085081000874810008DC000020B2
:1047800004820008000000200882000898810008C8
:10479000BC810008E08100080C8200084483000806
:1047A0001082000828000020148200085800002011
:1047B000188200081C8200084403002080B584B0E1
:1047C00000AF384B1B691B68BB60364B1B69184632
:1047D000FFF710FC0023FB600CE0BA68FB68134491
:1047E000103319783A46FB6813440A461A70FB687E
:1047F0000133FB60FB68072BEFDD0023FB601AE051
:10480000FB685B00013307F11002134413F8103CFE
:104810001B029AB2FB685B0007F110010B4413F80E
:10482000103C9BB2134399B21F4AFB6822F8131045
:10483000FB680133FB60FB68032BE1DD1A4B1B882F
:104840001BB207EE903AF8EEE77A9FED187AC7EEC2
:10485000877A174BC3ED007A154BD3ED007AB0EE93
:10486000007AF4EEC77AF1EE10FA03DD104B4FF048
:1048700080421A600E4BD3ED007AB8EE007AF4EE67
:10488000C77AF1EE10FA03D5094B4FF040421A6097
:10489000084B01221A70084B00221A701037BD46CF
:1048A00080BD00BF448300081034002000007A441B
:1048B0000C340020C8040020C904002080B584B056
:1048C00000AF124B5B6A1B68BB60104B5B6A1846FB
:1048D000FFF790FB0023FB600CE0BA68FB68134411
:1048E000103319783A1DFB6813440A461A70FB68A6
:1048F0000133FB60FB68032BEFDD3B79012B02D119
:10490000034B00221A601037BD4680BD4483000867
:10491000D80400200000000080B586B000AF00235E
:10492000FB6000233B610023BB814F4BD3ED007A3A
:104930009FED4E7A67EE877AFDEEE77AC7ED017A52
:10494000BB889BB2FB814A4B1B68184602F090FB68
:1049500002460B46104619463FA3D3E9002302F056
:10496000DBFB02460B46104619464FF00002414B56
:1049700002F0FCFC02460B461046194602F066FEA9
:1049800002463D4B1A603C4BD3ED007A9FED3B7ADB
:1049900067EE877AFDEEE77AC7ED017ABB889BB2B6
:1049A0003B82374B1B6807EE903AF8EEE77AB0EEA1
:1049B000007AC7EE877AB2EE067AC7EE877A17EEEC
:1049C000900A02F055FB02460B461046194624A3F6
:1049D000D3E9002302F0A0FB02460B46104619461D
:1049E00002F0E8F902460B46104619461AA3D3E92D
:1049F000002302F091FB02460B461046194602F0D6
:104A000025FE02461F4B1A601E4BD3ED007A9FED28
:104A10001B7A67EE877AFDEEE77AC7ED017ABB88ED
:104A20009BB27B820223FB75FB7D174A02339B00FE
:104A300013445A6807F10C0310461946FFF7ECFAC5
:104A4000FB7D114A02339B0013445B681846FFF755
:104A5000BFFA1837BD4680BD48E17A14AE47B13F72
:104A6000F1D4C853FB210940600300200000C84274
:104A7000D404002000002640CC04002000007A442A
:104A8000D8040020D004002044830008AFF3008045
:104A900080B483B000AF78600B46FB707B685A6AC5
:104AA000FB7822FA03F303F0010318460C37BD46E6
:104AB0005DF8047B704700BF80B582B000AF7860BE
:104AC0007B685A687B6893F8213010461946FFF7D7
:104AD000DFFF034618460837BD4680BD80B400AFEF
:104AE000094B1B680133084A1360084B1B680133EC
:104AF000064A1360064B1B680133054A1360BD4626
:104B00005DF8047B704700BFE0040020E40400204F
:104B1000E804002080B500AF00F0A8F8114B1B6836
:104B2000114A13600F4B00221A60104B41221A7079
:104B30000F4B1B78DBB25BB2012B05D10D4B1B6811
:104B400001330C4A13600BE0094B1B78DBB25BB2FC
:104B5000B3F1FF3F04D1074B1B68013B054A1360CB
:104B600080BD00BFE0040020A40300201834002012
:104B7000DD040020D804002080B500AF00F076F8F6
:104B8000054B1B68054A1360034B00221A60044B57
:104B900042221A7080BD00BFE4040020A40300205C
:104BA0001834002080B500AF00F060F8054B1B689A
:104BB000054A1360034B00221A60044B43221A700B
:104BC00080BD00BFE8040020A403002018340020AA
:104BD00090B583B000AF2148FFF76EFF0346DBB20C
:104BE0005B00DCB21E48FFF767FF0346DBB22343DE
:104BF000DBB25B00DCB21B48FFF75EFF0346DBB2B3
:104C00002343FB71FB79042B03D1174B00221A704D
:104C100021E0FB79062B03D1134B01221A701AE015
:104C2000FB79022B03D1104B02221A7013E0FB799F
:104C3000032B03D10C4B03221A700CE0FB79012BE0
:104C400003D1094B04221A7005E0FB79052B02D130
:104C5000054B05221A700C37BD4690BD988100089F
:104C6000BC810008E0810008DC04002090B583B01E
:104C700000AF2E4B1B889BB2DB009AB22B4B1A80E5
:104C80002B48FFF719FF0346DBB25B00DCB2294873
:104C9000FFF712FF0346DBB22343DBB25B00DCB25B
:104CA0002548FFF709FF0346DBB22343FB71FB797D
:104CB0009AB21E4B1B889BB213439AB21B4B1A80AD
:104CC0001A4B1B889BB203F03F031C4AD25C1C4B5F
:104CD0001A70FB79042B03D11A4B00221A7021E0C1
:104CE000FB79062B03D1174B01221A701AE0FB79CE
:104CF000022B03D1134B02221A7013E0FB79032B12
:104D000003D1104B03221A700CE0FB79012B03D165
:104D10000C4B04221A7005E0FB79052B02D1094BDC
:104D200005221A700C37BD4690BD00BFDE0400207E
:104D300098810008BC810008E0810008640300201D
:104D4000DD040020DC04002080B483B000AF034603
:104D5000FB71FB79062B02D00A2B07D00DE0094B23
:104D6000094A1A60074B094A5A6006E0054B084A8F
:104D70001A60044B074A5A6000BF0C37BD465DF805
:104D8000047B7047E80300207C61923E5DFE033E99
:104D90005530CA3E1DC9253E2DE9B04388B000AF4D
:104DA000F860B9607A6097ED037AD7ED027A77EE12
:104DB000677AC7ED067A7B6893ED007AD7ED067ABD
:104DC00067EE277AC7ED057A786902F051F9044653
:104DD0000D467B685B68184602F04AF902460B46AE
:104DE000104619462EA3D3E9002302F095F9024696
:104DF0000B4690469946B86902F03AF902460B46CE
:104E00004046494602F088F902460B4620462946AC
:104E100001F0D0FF02460B4614461D467B68DB6955
:104E2000184602F025F902460B462046294601F0B5
:104E3000C1FF02460B461046194602F007FC034626
:104E4000FB617B6893ED027AD7ED077AB4EEE77ADF
:104E5000F1EE10FA03D87B689B68FB610CE07B687D
:104E600093ED037AD7ED077AB4EEE77AF1EE10FA14
:104E700002DD7B68DB68FB6197ED077AD7ED057A89
:104E800077EE677A7B68C3ED077A7B68FA691A6107
:104E90007B681B6918462037BD46BDE8B08300BF5C
:104EA0002D431CEBE2362A3F80B586B000AF0346A7
:104EB000FB71FB799BB222481946FFF7A9F907F16C
:104EC0000C03204819460222FDF71EFC1C4807214E
:104ED000FFF79EF93B7B03F01F03DBB23B733B7B89
:104EE0001B029AB27B7B9BB213439BB2FB82FB8A71
:104EF00007EE903AF8EE677A17EE900A02F0B8F8EB
:104F000002460B46104619464FF000020E4B01F0C8
:104F10004FFF02460B46104619464FF000020B4B5E
:104F200002F024FA02460B461046194602F08EFBA8
:104F300003463B613B6918461837BD4680BD00BF3C
:104F400010030020C40000200000B04000006440B6
:104F500080B483B000AF78600B46FB70FB78012211
:104F60009A407B685A600C37BD465DF8047B7047F9
:104F700080B483B000AF78600B46FB70FB784FF4D1
:104F800080329A407B685A600C37BD465DF8047BDE
:104F9000704700BF80B582B000AF78607B681A6848
:104FA0007B681B7C10461946FFF7D2FF0837BD46C9
:104FB00080BD00BF80B582B000AF78607B681A68A2
:104FC0007B681B7C10461946FFF7D2FF0837BD46A9
:104FD00080BD00BF80B584B002AFFFF7F7FA03468B
:104FE000FB71FFF7F5FDFB79002B00D0FEE71548BC
:104FF000FFF732F80346BB710A20FFF7A5FE1248FF
:10500000FEF7C0F9114B1B78DBB2032B18D90F4BFD
:1050100000221A7000F080F80D4B18680D4B1968CB
:105020000D4B1A684FF07E530093142301930B4BE2
:1050300000F0D6FD0A4B00221A700A48FFF7A0FACA
:10504000E0E700BF44830008DC00002018050020D2
:10505000F404002004050020243400200C05002066
:105060001C0500204403002080B582B000AF0A4830
:10507000FFF794FA03467B607B6807EE903AB8EE40
:10508000677A064BD3ED007AC7EE277A044BC3ED5F
:10509000007A0837BD4680BD300300201C04002084
:1050A0006003002080B400AFBD465DF8047B70470C
:1050B00080B582B000AF144B1B78DBB20133DAB29B
:1050C000114B1A70104B1B78DBB2012B18D10F4B10
:1050D000D3ED007AFCEEE77AC7ED017ABB889AB28D
:1050E0000B4BD3ED007AFCEEE77A17EE901A4BF2F9
:1050F0000B6303FB01F3074811461A4602F024FB39
:105100000837BD4680BD00BF18050020543400207C
:1051100044340020DC000020B0B52DED028B84B0BB
:1051200000AFB448FFF736FFB34B1B78DBB2412B1F
:1051300003D1B24B1B68FB6010E0AF4B1B78DBB2B6
:10514000422B03D1AE4B1B68FB6007E0AA4B1B78D8
:10515000DBB2432B02D1AB4B1B68FB60AA4B1B6835
:10516000AA4A1360A94B1B6840F6C412934204D9A3
:10517000A64B40F6C4121A6006E0A44B1B68012B34
:1051800002D8A24B02221A60FB6841F28732934296
:1051900035D89E4B1B6807EE903AF8EE677A17EE0B
:1051A000900A01F065FF02460B464FF00000984957
:1051B00002F0DCF802460B4614461D46F86801F082
:1051C00035FF02460B462046294601F0A5FF024660
:1051D0000B461046194602F039FA02468D4B1A600A
:1051E0008C4BD3ED007A9FED8C7AF4EEC77AF1EE1A
:1051F00010FA00DC06E0874B884A1A6002E0854B13
:10520000874A1A60874B1B78DBB25BB2012B54D103
:10521000854B1B78DBB25BB2184601F017FF0246E4
:105220000B46104619464FF00002804B01F074FF08
:1052300002460B4614461D46764B1B68184601F085
:1052400017FF02460B462046294601F0B3FD0246F1
:105250000B461046194602F0F9F90246744B1A60E3
:10526000734B93ED007A734BD3ED007A77EE277A88
:105270006F4BC3ED007A6E4BD3ED007A9FED6E7AE3
:10528000F4EEC77AF1EE10FA09DD694BD3ED007A3E
:105290009FED697A77EEC77A654BC3ED007A5B4B79
:1052A0001B6807EE903AF8EE677A9FED647AC7EED6
:1052B000277A634BC3ED007A6FE05B4B1B78DBB260
:1052C0005BB2184601F0C2FE02460B461046194674
:1052D0004FF00002554B01F01FFF02460B461446EB
:1052E0001D464C4B1B68184601F0C2FE02460B4699
:1052F0002046294601F05CFD02460B461046194641
:1053000002F0A4F902464A4B1A60494BD3ED007AE9
:105310009FED417A77EE877A454BC3ED007A444B97
:10532000D3ED007AF5EEC07AF1EE10FA09D5404BD4
:10533000D3ED007A9FED407A77EE877A3C4BC3ED50
:10534000007A3B4B93ED007A3E4BD3ED007A77EE3B
:10535000277A374BC3ED007A354BD3ED007A9FEDBA
:10536000367AF4EEC77AF1EE10FA09DD304BD3ED60
:10537000007A9FED317A77EEC77A2D4BC3ED007A34
:10538000224B1B6807EE903AF8EE677A9FED2E7A73
:10539000C7EE277A2A4BC3ED007A2C4B00221A70F5
:1053A000274BD3ED007A9FED2A7AF4EEC77AF1EE1F
:1053B00010FA10D5224BD3ED007A9FED267AF4EE49
:1053C000C77AF1EE10FA06DD1D4B1B68224A136006
:1053D0001E4B01221A70FB6841F2883293423FD97A
:1053E0001E4B4FF000021A601B4B4FF000021A6078
:1053F0005AE000BF9C82000818340020E00400201E
:10540000E4040020E8040020A40300200C04002091
:1054100000806640100400200000704200007042CE
:105420000000F041DD040020DC04002000004E40BC
:10543000F0040020140400200000B4430000E14305
:10544000F8040020180400200000E1C31905002022
:1054500000004843000048C3F4040020D4040020A6
:10546000C34BD3ED007A77EEA77A17EE900A01F0DE
:10547000FFFD02460B4610461946B1A3D3E90023AF
:1054800001F04AFE02460B46104619464FF0000254
:10549000B84B01F041FE02460B461046194602F099
:1054A000D5F80246B44B1A600620FFF7FDFC024611
:1054B000B24B1A600520FFF7F7FC0246B04B1A60AA
:1054C0000320FFF7F1FC0246AE4B1A60AE4B1B689F
:1054D000184601F0CDFD02460B46104619469AA328
:1054E000D3E9002301F018FE02460B461046194688
:1054F00002F0ACF80346BB60B86800F0DBFC7860F3
:10550000B86800F021FD38609C4B93ED007AD7ED30
:10551000017A27EE278AB86801F0AAFD02460B46F9
:10552000104619468AA3D3E9002301F041FC024644
:105530000B461046194602F089F80346184600F05B
:10554000B9FC07EE100A8E4BD3ED007A67EE277A8E
:1055500038EE278AB86801F08BFD02460B461046EC
:1055600019467DA3D3E9002301F022FC02460B4635
:105570001046194602F06AF80346184600F09AFCF5
:1055800007EE100A7F4BD3ED007A67EE277A78EEAC
:10559000277A17EE900A01F06BFD02460B46104683
:1055A00019466FA3D3E9002301F0B6FD02460B466E
:1055B0001046194602F04AF80246744B1A60D7EDBD
:1055C000007AB1EE677A6D4BD3ED007A27EE278A29
:1055D000B86801F04DFD02460B46104619465CA323
:1055E000D3E9002301F0E4FB02460B4610461946BE
:1055F00002F02CF80346184600F0A6FC07EE100A4D
:105600005F4BD3ED007A67EE277A38EE678AB86889
:1056100001F02EFD02460B46104619464EA3D3E973
:10562000002301F0C5FB02460B461046194602F066
:105630000DF80346184600F087FC07EE100A514BA0
:10564000D3ED007A67EE277A78EE677A17EE900A44
:1056500001F00EFD02460B461046194640A3D3E961
:10566000002301F059FD02460B461046194601F091
:10567000EDFF0246464B1A60464B1B78012B1CD1AE
:10568000454B1B78012B07D1444B1B68444A1360E0
:10569000414B00221A7005E0424B1B780133DAB20D
:1056A000404B1A703F4B1B78FA2B06D93D4BFA2220
:1056B0001A703B4B4FF000021A60394BD3ED007A61
:1056C000B2EE067A67EE877A17EE900A01F0D0FC08
:1056D00002460B461046194623A3D3E9002301F0E6
:1056E00045FE02460B461046194601F0AFFF024642
:1056F0002D4B1A602D4B1B78012B5DD12C4BD3ED1C
:10570000007AF5EE407AF1EE10FA55D1184BD3ED50
:10571000007AB8EE007AF4EEC77AF1EE10FA4BDDBB
:10572000134BD3ED007AB0EE007AF4EEC77AF1EEC7
:1057300010FA41D51F4B4FF000021A60CFE000BFB6
:10574000F1D4C853FB2109404DC9077746DF913F8B
:10575000A038DB3752C10040A038DB3752C11040BF
:1057600093761F575555E53F48E17A14AE47B13F50
:10577000F404002000002640D40400204834002017
:105780002C3400204C340020F0040020343400205D
:1057900024340020EC040020C80400200C34002035
:1057A000FC040020C904002000050020090400209A
:1057B0000C05002008050020A74B1A68A74B1B68A2
:1057C00010461946A64AFFF7E7FA0246A54B1A60AB
:1057D000A54B1B78012B40F082809F4BD3ED007AC4
:1057E000F5EE407AF1EE10FA2DD09B4B1B6818466F
:1057F00001F03EFC02460B464FF000009B4900F0D2
:1058000073FA04460D46954B1B68184601F030FCB0
:1058100002460B464FF00000944900F065FA02463C
:105820000B462046294601F0DFFE0346002B07D039
:105830008A4BD3ED007AF5EE407AF1EE10FA02D100
:105840008B4B01221A708A4B1B78002B47D0894B57
:1058500001221A70864B1B78013BDAB2844B1A7016
:105860007D4BD3ED007AF5EEC07AF1EE10FA17DD3C
:105870007C4B1B68184601F0FBFB02460B461046AA
:1058800019466FA3D3E9002301F094FA02460B46B0
:105890001046194601F0DAFE0246724B1A601EE00D
:1058A0006D4BD3ED007AF5EEC07AF1EE10FA16D515
:1058B0006C4B1B68184601F0DBFB02460B4610469A
:1058C00019465FA3D3E9002301F072FA02460B46A2
:1058D0001046194601F0BAFE0246624B1A60664B4A
:1058E0001B78012B16D15F4B1B68184601F0C0FBDB
:1058F00002460B461046194653A3D3E9002301F094
:1059000035FD02460B461046194601F09FFE024641
:105910005A4B1A60594BD3ED007AB9EE047AF4EE83
:10592000C77AF1EE10FA02D5544B554A1A60534B20
:10593000D3ED007AB1EE047AF4EEC77AF1EE10FA04
:1059400002DD4E4B4F4A1A604F4B1B78012B16D18C
:105950004E4B1B684FF0000019464D4AFFF71CFAEA
:1059600002464C4B1A60454B1A684B4B1B6810465D
:1059700019464A4AFFF710FA0246494B1A60454B4E
:1059800093ED007AD7ED017A27EE277A444BD3EDD9
:10599000006AD7ED007A66EEA77A77EE677A414B18
:1059A000C3ED007A3B4B93ED007AD7ED007A27EEFA
:1059B000277A3B4BD3ED006AD7ED017A66EEA77AE2
:1059C00077EE277A384BC3ED007A374B93ED007AA8
:1059D000344BD3ED007AC7EE277A17EE900A00F029
:1059E0008BF90246314B1A60304B1B68184601F0A8
:1059F0003FFB02460B461046194615A3D3E9002388
:105A000001F0B4FC02460B461046194601F01EFE9A
:105A10000246274B1A60234BD3ED007AF5EEC07A8D
:105A2000F1EE10FA48D5224BD3ED007A9FED217AA2
:105A300077EE877A1E4BC3ED007A4FE0AFF300801C
:105A40009A9999999999B93FE17A14AE47E1CA3F79
:105A50004DC9077746DF913F0C050020F404002074
:105A6000E8030020080500201B0500200000F03F8F
:105A70001A0500201C050020090400200405002050
:105A80000000A0C00000A040080400203434002022
:105A9000C80300201005002024340020A8030020A3
:105AA0001405002050340020403400201C34002015
:105AB00044340020000034433D4BD3ED007AF5EE32
:105AC000C07AF1EE10FA09D53A4BD3ED007A9FED8A
:105AD0003A7A77EE877A374BC3ED007A374B93EDFE
