:020000041000EA
:10100000500500201D100010000000009D10001071
:101010000018040000010000000000801149124A7D
:10102000124B00F018F8124880471249124A134B2D
:1010300000F011F81249134A134B00F00CF8134951
:10104000134A0020521A02DD043A8850FCDC114891
:101050008047114880479B1A03DD043BC858D05095
:10106000FBDC70476CD100100C0000205001002008
:10107000A1100010B0D2001050050020CC080020B4
:101080002CD60010CC080020CC080020CC08002072
:10109000040B00202DCA001055670010FEE7000069
:1010A00080B500AF02F092F902F0DEF9BD4680BDD6
:1010B00080B500AF2A4B1A68FF231B0213401A0A9F
:1010C000284B1A60274B1B68002B37D0244B1B681A
:1010D000FF221A40244B1A60214BDB690322134084
:1010E0001A02214B1B681A431F4B1A601C4BDA690A
:1010F00080239B0013400ED11A4B1B689A021A4B97
:101100001B68D3181948191C01F086FA031C1A0130
:10111000174B1A6021E000F02FF8031C9901114BC6
:101120001B689A02104B1B68D318081C191C01F08D
:1011300073FA031C1A010E4B1A600EE0084BDA69B1
:1011400080239B00134003D1094B0A4A1A6004E034
:1011500000F012F8021C064B1A60BD4680BDC04666
:1011600000030140CC080020D008002000001BB77D
:10117000FC3F0020006CDC0280B500AF014B181C66
:10118000BD4680BD002D310180B582B000AF7860D2
:10119000BD4602B080BDC04690B585B000AFF860D6
:1011A0007A600B23FB180A1C1A700B23FB181B78A0
:1011B0009B08DBB2181C0B23FB181B789B08DBB2C7
:1011C0001A1CFB6804329200D3580B22BA1812780A
:1011D00003210A40D200111CFC228A40D2431A404B
:1011E000111CFB68021D9200D150FB685B6F0B2243
:1011F000BA1812785200111C03228A40D2431A40B6
:10120000FB685A670B23FB181B78DB08DBB2181C42
:101210000B23FB181B78DB08DBB21A1CFB681032AF
:101220009200D3580B22BA18127807210A40920074
:10123000111C04228A40D2431A40111CFB68021C74
:1012400010329200D1500B23FB181B78DB08DBB265
:10125000181C0B23FB181B78DB08DBB21A1CFB687D
:1012600010329200D2587B685B781C1C0B23FB1851
:101270001B7807210B409B009C40231C1A43111C28
:10128000FB68021C10329200D150FB68204A934246
:101290000BD1FB681B6E0B22BA181278012191400A
:1012A0000A1CD2431A40FB681A667B681B78DBB2C3
:1012B0005BB2002B07DA7B685A680B23FB181B789C
:1012C0009A40FB685A600B23FB181B789B08DBB223
:1012D000181C0B23FB181B789B08DBB21A1CFB683D
:1012E00004329200D2587B681B781C1C0B23FB181D
:1012F0001B7803210B40DB009C40231C1A43111C6C
:10130000FB68021D9200D150BD4605B090BDC0469D
:1013100000020440B0B582B000AF38607960094B7C
:10132000084A51683A680A435A60064B054A526AAD
:1013300079680C0000210D1C211C0A435A62BD462D
:1013400002B0B0BD38000140B0B582B000AF0E4B66
:101350001B683B6000237B600B4B1B6A1C1C00233B
:101360001D1C22000023191C0B1C141C3A681A4374
:101370003A607A682243131C7B603B687C68181CC7
:10138000211CBD4602B0B0BD38000140B0B582B0EE
:1013900000AF38607960094B084A91683A680A439F
:1013A0009A60064B054A926A79680C0000210D1C70
:1013B000211C0A439A62BD4602B0B0BD380001400C
:1013C00080B500AF024BC3225A62BD4680BDC04605
:1013D0000000014080B500AF054BC0225A62C046F4
:1013E000034B5B6A04221340FAD1BD4680BDC04660
:1013F0000000014080B586B000AF7860FFF7EAFFDB
:101400007B689B79302B53D0FFF7B6FE021E494B09
:101410009A4209D9484A48499023CB5A9BB2402165
:101420000B4399B29023D152434A43499023CB5A5C
:101430009BB29BB2191C322399430B1C99B27B6857
:101440009B799BB20B439BB299B29023D1523B4BF9
:1014500002229A623A4B3A4A52693A490A405A6120
:10146000394B7B6100E0C0467B69013B7B617B6956
:10147000002BF8D1324B324A5269C02189040A4309
:101480005A61C0462E4B5A6980235B041340F9D140
:101490002E4B3B6100E0C0463B69013B3B613B6931
:1014A000002BF8D1254B1B6A02221340CFD109E053
:1014B000214A21499023CB5A9BB230210B4399B248
:1014C0009023D1521C4A7B68DB7999B28C23D1528C
:1014D0007B68DB79002B09D11D4BFB6000E0C04627
:1014E000FB68013BFB60FB68002BF8D1144B144AEE
:1014F000D26918490A40796889880A43DA61104A32
:101500000F4B1B68144919407B68DB6819437B68E3
:101510009B680B431360FFF753FF7B689B781A1C93
:101520007B681B88101C191C00F032F8BD4606B001
:1015300080BDC046002D310100100140380001403F
:1015400000030140FFFFFFFD1A0200007D0A0000BA
:10155000A02E6300FFFDFFFFFFFFF0FF80B582B00C
:1015600000AF7860FFF736FF084B084A11697A68C8
:101570000A431A61C046054B1A688023DB051340F5
:10158000F9D1FFF71DFFBD4602B080BD0003014049
:1015900080B584B000AF78603960FFF71BFF274B40
:1015A0001A68FF231B0213401B0AFB60234B234ACC
:1015B000D26903218A43111C3A68120A0A43DA618C
:1015C0001E4B1E4A12681E4911403A68FF20024015
:1015D0000A431C490A431A60C046184B1A68802304
:1015E000DB051340F9D1FA687B689A4206D8FA689D
:1015F0007B68101C191C00F053F805E0FA687B6842
:10160000101C191C00F022F80C4B0C4A12680E49F1
:1016100011407A6812020A430A490A431A60C04616
:10162000064B1A688023DB051340F9D1FFF7C8FE8B
:10163000FFF73EFDBD4604B080BDC046000301403B
:1016400000FF0FC00000F03FFF000FC080B582B068
:1016500000AF7860396014E07B689B087B600D4BBD
:101660000C4A12680C4911407A6812020A430B496D
:101670000A431A60C046074B1A688023DB051340F3
:10168000F9D13B689A007B689A42E5D3BD4602B027
:1016900080BDC04600030140FF000FC00000F03FC6
:1016A00080B582B000AF7860396019E07B68002BAC
:1016B00001D101237B607B689B007B600C4B0C4A53
:1016C00012680C4911407A6812020A430A490A4317
:1016D0001A60C046064B1A688023DB051340F9D117
:1016E0007B689A003B689A42E0D3BD4602B080BD59
:1016F00000030140FF000FC00000F03F80B500AFC5
:10170000024B1B68181CBD4680BDC046FC3F002034
:10171000F0B587B000AFB860F9607A6000227A61F6
:1017200002E07A6901327A617A69111C2039002954
:1017300003DBF868C840031C08E02021891AF86818
:101740008840011CB868D040031C0B43F968D140A5
:101750000C1C01221A40151C00222240161C2A1CB7
:10176000324302D17A693F2ADBD97B69402B04D10D
:101770001323FB1801221A7008E0084B7A699200C3
:101780007968D1501323FB1800221A701323FB1819
:101790001B78181CBD4607B0F0BDC046D408002019
:1017A000F0B58FB000AFF86100237B63FFF7CCFD8D
:1017B000384AFB69DB00D3181A685B68161C0640C0
:1017C000BE620B40FB62BA6AFB6A101C191CFFF771
:1017D000DDFD55E07B6B1A1C203A002A03DBF96A19
:1017E000D1400C1C08E02022D21AF96A91400A1C50
:1017F000B96AD9400C1C1443FA6ADA40151C01235B
:101800002340BB6000232B40FB60B968FA680B1CC7
:10181000134332D07B6B1A1C203A002A03DB0121D0
:10182000914079610AE02022D21A0121D1400A1C9C
:1018300000219940796179691143796101229A40C7
:101840003A6139697A690B1CDB433B60131CDB434B
:101850007B60BB6A38687968021C1340BB62FB6A14
:101860000A1C1340FB620C4B7A6B9200D3587B62CC
:101870007B6A002B01D07B6A98477B6B01337B63CB
:10188000BB6AFA6A134302D07B6B3F2BA2D9BD46D9
:101890000FB0F0BD50050020D408002080B582B004
:1018A00000AF021CFB1D1A703B1D0A1C1A803B1D59
:1018B0003A1D128803210A401A80FB1D1B780F2B4A
:1018C00013D8184B174AD26EF91D09784900081C25
:1018D00003218140C9430A40391D0988F81D007859
:1018E000400081400A43DA6618E0FB1DFA1D1278B9
:1018F0000F210A401A700B4B0A4A126FF91D097822
:101900004900081C03218140C9430A40391D098848
:10191000F81D0078400081400A431A67BD4602B0B6
:1019200080BDC0460000014080B582B000AF786045
:101930007A68E2235B00D258C0239B0013405A42CE
:101940005341DBB2181CBD4602B080BD90B583B0D8
:1019500000AF78600C1C101C191CFB1C221C1A7098
:10196000BB1C021C1A707B1C0A1C1A70FB1C1A7808
:10197000BB1C1B781904FF231B040B401A437B1C60
:101980001B781B061A43111C7A68E2235B00D150B6
:10199000BD4603B090BDC04680B582B000AF786050
:1019A0007B681B6840221A437B681A60BD4602B000
:1019B00080BDC04680B582B000AF78607B681B6890
:1019C000402293431A1C7B681A60BD4602B080BD5A
:1019D00080B582B000AF786039607A683B68934226
:1019E00000D2131C181CBD4602B080BD80B582B069
:1019F00000AF786039607A683B68934200D9131C65
:101A0000181CBD4602B080BD80B588B000AF7860BC
:101A100039603B681A683B685B68101C191C00F051
:101A20004BFE0B1E00D096E00023FB610023BB6140
:101A30003B681A683B685B68101C191C00F0ECFDE1
:101A4000031CBB6019237B6100233B610023FB6007
:101A500049E0BB68181C796900F02EFE0B1E3FD1CF
:101A60000023BB61B868796900F0D6FD031CFB61F7
:101A7000FB69002B34D0FA6980239B009A422FD84F
:101A8000FB693F2B09D9FB690722134003D07B690F
:101A9000013B7B6127E00123BB617B69013B3A6825
:101AA00012895343181C2E4900F0B6FD031C3B61FC
:101AB0007A693B69D31A013BFB603B69022B0FD962
:101AC0003B690F2B0CD8FB68012B09D9FB68062B4F
:101AD00006D83B685B891A1EFB689A4200D805E06D
:101AE0007B69013B7B617B69072BB2D87B69072B44
:101AF00031D97B68181CFFF74FFFFB68013B1A03C5
:101B0000E023DB011A403B685B89013B9B01FF211D
:101B10000B401A433B69013B1902F0231B010B40A8
:101B20001A43111CBA69131C5B009B181A1CFB6931
:101B3000D340013B3F2213400A1C1A43BB69DB031D
:101B40001B041B0C1A437B681A617B68181CFFF787
:101B500031FF002300E00123181CBD4608B080BD02
:101B60001027000090B583B000AF7860081C111CEE
:101B7000FB1C021C1A70BB1C0A1C1A70C0467B6836
:101B8000181CFFF7D1FE031C1A1C01235340DBB2C3
:101B9000002BF4D1FB1C1B780133DCB27A68BB1C30
:101BA0001B78101C02211A1C231CFFF7CFFEBD4618
:101BB00003B090BD80B582B000AF786080239B03F6
:101BC000181CFFF7CBFC7B681B68012293431A1C8F
:101BD0007B681A60C0467B681B6802221340FAD1FA
:101BE000BD4602B080BDC04680B582B000AF78600F
:101BF0000A1CFB1C1A707A68E4235B00D3580F227E
:101C000093431A1CFB1C1B781A43111C7A68E423AB
:101C10005B00D150BD4602B080BDC04680B582B0E9
:101C200000AF78607A68E4235B00D358DBB20F2200
:101C30001340DBB2181CBD4602B080BD80B584B035
:101C400000AF78600023FB607B68181CFFF7E6FF9D
:101C5000031E012B02D0022B05D009E0FFF74EFD39
:101C6000031CFB6004E0FFF787FA031CFB60C0461F
:101C7000FB68181CBD4604B080BDC04680B588B066
:101C800000AFF8607A600B23FB180A1C1A70FB681F
:101C9000181CFFF78FFFFA680B23FB181B78101C2A
:101CA000191CFFF7A1FFFB68181CFFF7C7FF031CF7
:101CB000FB61F869796800F0AFFC031C1A1C8023F3
:101CC000DB009B1A0020191CFFF782FE021C124B3E
:101CD000101C191CFFF78AFE031CBB61BB69802224
:101CE000D200D31AF869191C00F096FC031C7B6122
:101CF000FB68DB68094A1A40FB68DA60FB68DA684F
:101D0000BB6913438022D2011A43FB68DA607B6906
:101D1000181CBD4608B080BDFF030000003CFFFF5B
:101D200080B586B000AF78607B681B68484A9446EF
:101D300063445B097B617B695B095A037B691F21F3
:101D40000B401B0213433B617B681B687A68126877
:101D5000926840490A409A607B681B687A681268FA
:101D600091683A690A439A607B68DB7920221340C4
:101D7000DBB2002B07D07B68DB7920221340DBB27B
:101D8000002B00D161E07B681B7E002B04D07B68B8
:101D90001B7E012B00D058E07B681B682022DA6193
:101DA0007B68DB7920221340DBB2002B28D17B68D3
:101DB0005B68FB60FB685B0F5B07FB607B685B68D5
:101DC000DB00DB089B041A1CFB681343FB607B6889
:101DD0001B68FA689A617B689B68FB60FB685B0F15
:101DE0005B07FB607B689B68DB00DB089B041A1CBD
:101DF000FB681343FB607B681B68FA68DA6009E0E4
:101E00007B681B687A6852689A617B681B687A688D
:101E10009268DA607B681B7E012B0DD17B68181CF1
:101E200000F01EF87B681B6880221205DA617B686F
:101E30001B68094ADA6108E07B681B68802212018E
:101E4000DA617B681B68054ADA61BD4606B080BD71
:101E500000F0FBAFFF00FFFFC00020064006A0001F
:101E600080B584B000AF78600F23FB1803221A708E
:101E70007B681B7E012B25D17B681B682022DA61E1
:101E80007B681B687A6812681268144911407A6886
:101E9000127B1006F022120502400A431A607B688A
:101EA0001B687A6812691A617B681B687A685269D4
:101EB0005A617B681B680A4ADA610F23FB1800220B
:101EC0001A7003E00F23FB1803221A700F23FB186C
:101ED0001B78181CBD4604B080BDC046FFFFFFF054
:101EE0004000280080B586B000AF78601723FB184B
:101EF00001221A707B681B68DB69202213405B0992
:101F00003B617B681B68DA6980235B0013401B0A16
:101F1000FB603B69002B04D11723FB1804221A70C5
:101F200010E0FB68012B04D11723FB1802221A7062
:101F300008E07B681B68E022D204DA611723FB18F3
:101F400000221A701723FB181B78181CBD4606B018
:101F500080BDC04680B586B000AF78601723FB18FF
:101F600001221A701623FB1800221A701523FB1881
:101F700000221A707B681B68DA6980231B011340FA
:101F8000DB0A3B617B681B68DB69042213409B080A
:101F9000FB603B69002B04D01723FB1803221A7047
:101FA000D3E0FB68012B04D11723FB1802221A701F
:101FB000CBE07B681B680822DA617B681B689A6942
:101FC00080239B0513405B0F51D17B68DA79202178
:101FD0008A43DA717B681B689B695F4A13409B0CDC
:101FE000DB00DA087B68D200D2085968490F49073C
:101FF0000A435A607B681B68DA6880239B0513409C
:102000005B0FDBB21A1C01231340DAB27B6801219B
:102010000A405001DA7A20218A43111C021C0A432B
:10202000DA727B68DB7A20221340DBB2002B10D0FF
:102030007B681B68DB68484A13409B0CDB00DA08AE
:102040007B68D200D2089968490F49070A439A6011
:1020500043E07B681B68DB68DB00DA087B68D20042
:10206000D2089968490F49070A439A6035E07B68AE
:10207000DA7920210A43DA717B681B689B69DB00EF
:10208000DA087B68D200D2085968490F49070A4329
:102090005A607B681B68DB68DB00DA087B68D2006B
:1020A000D2089968490F49070A439A607B681B6800
:1020B000DA6880239B0513405B0FDBB21A1C0123F7
:1020C0001340DAB27B6801210A405001DA7A2021FC
:1020D0008A43111C021C0A43DA727B681B681A6867
:1020E000F0231B0513401B0EDAB27B681A737B6862
:1020F0001B681A697B681A617B681B685A697B6870
:102100005A617B681B68DB69042213409A08162316
:10211000FB181A707B681B68DB6908221340DA0819
:102120001523FB181A701623FB181B78002B05D0FB
:102130001523FB181B78002B00D03AE77B680022A0
:102140001A761723FB1800221A701723FB181B7826
:10215000181CBD4606B080BD0000FC1F80B582B0D3
:1021600000AF786039603A688023DB039A4206D07A
:102170007B681A683B681A437B681A6005E07B68D5
:102180009A693B681A437B689A61BD4602B080BD7C
:1021900080B582B000AF78607B6880225200DA6040
:1021A000BD4602B080BDC04680B582B000AF786049
:1021B0007B68094A934203D10420FFF7CFF908E076
:1021C0007B68064A934204D180239B02181CFFF7C8
:1021D000C5F9BD4602B080BD000004480040044877
:1021E00080B582B000AF78607B68181CFFF7DCFF19
:1021F000BD4602B080BDC04680B584B000AF7860F7
:102200000A1CFB1C1A707B68181CFFF7E9FF7B682F
:10221000181CFFF7BDFF7B681B68FB60FB68074A63
:102220001340FB60FB1C1B789B03FA681343FB60A5
:102230007B68FA681A60BD4604B080BDFF3FFFFFAF
:1022400080B582B000AF786039603B681A687B68FF
:102250005A613B685B799B06DB0FDBB21A057B6832
:102260005A603B681B791B071B0FDBB21A1C7B688B
:102270005A623B685B791B071B0FDBB21A1C7B6839
:102280001A623B685B79DB06DB0FDBB21A1C7B68EA
:102290009A613B681B791B061B0FDBB21A1C7B681B
:1022A000DA62BD4602B080BD80B582B000AF786012
:1022B00039603B681A687B685A613B685B79DB0769
:1022C000DB0FDBB21A057B685A603B681B791B0782
:1022D0001B0FDBB21A1C7B685A623B681B791B061A
:1022E0001B0FDBB21A1C7B68DA62BD4602B080BDF0
:1022F00080B584B000AF78600A1CFB1C1A707B6844
:102300005B68FB60FB6830229343FB60FB1C1B781F
:102310001B01FA681343FB607B68FA685A60BD468C
:1023200004B080BD80B584B000AF78600A1CFB1C8F
:102330001A707B685B68FB60FB68C0229343FB609C
:10234000FB1C1B789B01FA681343FB607B68FA68EF
:102350005A60BD4604B080BD80B588B000AFF8605B
:102360007A600B23FB180A1C1A701F23FB180B2220
:10237000BA181278013A1A70FB681B68BB61172300
:10238000FB181F22BA18127892001A701723FB1834
:102390001B7803229A40131CDA43BB691340BB61CC
:1023A0007B685B781A1C1723FB181B789A40131C58
:1023B000BA691343BB611F23FB181B789B00DAB279
:1023C0001723FB1802321A701723FB181B780122FF
:1023D0009A40131CDA43BB691340BB617B689B784E
:1023E0001A1C1723FB181B789A40131CBA69134355
:1023F000BB611F23FB181B789B00DAB21723FB1865
:1024000010321A701723FB181B7803229A40131CF2
:10241000DA43BB691340BB617B68DB781A1C172366
:10242000FB181B789A40131CBA691343BB61FB6805
:10243000BA691A60FB68D8229B58BB611723FB1846
:102440001F22BA181278D2001A701723FB181B78B3
:102450003F229A40131CDA43BB691340BB617B687F
:102460001B781A1C1723FB181B789A40131CBA6997
:102470001343BB61FB68D821BA695A50BD4608B006
:1024800080BDC04680B586B000AF7860081C111CC6
:10249000FB1C021C1A70BB1C0A1C1A70FB1C1B784C
:1024A0000B2B20D89A00204BD3181B689F46032380
:1024B0003B6100237B611BE00C233B6102237B61BA
:1024C00016E0C0239B003B6108237B6110E0C02322
:1024D0001B013B610A237B610AE0C0239B013B6136
:1024E0000C237B6104E000233B6100237B61C04639
:1024F0003B69002B14D07B68A8229B58FB603B698A
:10250000DA43FB681340FB60BB1C1A787B699A4076
:10251000131CFA681343FB607B68A821FA685A50C1
:10252000BD4606B080BDC0468CCA001080B584B0E0
:1025300000AFF8607A600B23FB180A1C1A70FB6866
:10254000181CFEF721FEFB681B680B22BA181278D4
:102550009200111C0F228A40D2431A407B681B68EC
:102560000B217918097889008B401A43FB681A609F
:102570000B23FB181A787B685968FB6804329200B9
:10258000D150BD4604B080BD90B583B000AF786037
:10259000081C111CFB1C021C1A70BB1C0A1C1A70A4
:1025A000FB1C1A78BB1C1B7803210B40D9B27B683B
:1025B00008329200032001400901D0583024A04382
:1025C0000143D150BD4603B090BDC04680B582B036
:1025D00000AF7860081C111CFB1C021C1A70BB1C8D
:1025E0000A1C1A707B685B6FFA1C12785200111C6F
:1025F00003228A40D2431A407B685A677B685A6F2D
:10260000BB1C1B78F91C097849008B401A437B6876
:102610005A67BD4602B080BD80B588B000AF786013
:102620003960EFF310837B617B693B6172B63B6974
:10263000FB610C4B04225A630A4B7A681A62094BFD
:102640003A685A62074B9B6ABB61FB69FB60FB6897
:10265000BB60BB6883F31088BB69181CBD4608B01B
:1026600080BDC0460000034080B588B000AF7860F0
:102670003960EFF310837B617B693B6172B63B6924
:10268000FB610C4B00225A630A4B7A681A62094BB1
:102690003A685A62074B9B6ABB61FB69FB60FB6847
:1026A000BB60BB6883F31088BB69181CBD4608B0CB
:1026B00080BDC04600000340F0B58DB000AF78602B
:1026C0003960EFF310827A617A693A6172B63A69D9
:1026D000FA62154A04215163134A79681162124A59
:1026E00039685162104AD26A3A6200227A620E4A0E
:1026F000926ABA610022FA61FA6AFA60FA68BA600C
:10270000BA6882F310883A6A14000022131CBA696E
:102710001A43151CFA692243161C2B1C341C181C66
:10272000211CBD460DB0F0BD0000034080B500AFD8
:1027300080239B00181CFEF711FFBD4680BDC046DC
:1027400080B582B000AF7860FFF7F0FF074A7B6882
:102750009B685360054A7B685B681361034A7B682A
:102760001B685361BD4602B080BDC04600000240F8
:1027700080B500AFBD4680BD90B585B000AF786034
:102780000F23FB1800221A707B681B7B0122534029
:10279000DBB2002B14D00F23FC187B68181C00F050
:1027A00017F8031C23700F23FB181B78012B07D08D
:1027B0007B681B68181CFFF7C3FF7B6801221A7334
:1027C0000F23FB181B78181CBD4605B090BDC046F2
:1027D00090B585B000AF78600F23FB1800221A7007
:1027E0007B685B680F22BC18181C00F0EFFC031C10
:1027F00023707B689B68002B14D00F23FB181B7879
:10280000012B0FD001200021FEF784FD7B689B681F
:102810000F22BC18012000211A1C00F04BFD031CE4
:10282000237003E00F23FB1801221A700F23FB18FB
:102830001B78181CBD4605B090BDC04680B582B05F
:1028400000AF78600A1CFB1C1A70FB1C1B7801226D
:102850009A407B68DA60BD4602B080BD80B582B028
:1028600000AF78607B680122DA60BD4602B080BDAF
:1028700080B582B000AF78607B6802221A61BD46E5
:1028800002B080BD80B582B000AF78600A1CBB1C6E
:102890001A80BB1C1A887B685A63BD4602B080BD93
:1028A00080B582B000AF78600A1CBB1C1A80BB1CCC
:1028B0001A887B68DA63BD4602B080BD80B582B0FD
:1028C00000AF786039607B683A681A61BD4602B033
:1028D00080BDC04680B582B000AF78600A1CFB1C8A
:1028E0001A707B68A4229A58FB1C1B78012199401E
:1028F0000B1C1A437B68A4215A50BD4602B080BD10
:1029000090B585B000AF78600F23FB1800221A70D5
:102910007B6826229B5C01225340DBB2002B0CD04B
:102920007B6821229B5C002B07D10F23FC187B685E
:10293000181C00F009F8031C23700F23FB181B78E8
:10294000181CBD4605B090BD90B585B000AF78604D
:102950007B681B690F22BC18181C00F0CFFC031CFD
:1029600023707B681B699A687B681B7E101C191C8E
:10297000FFF764FF7B685A697B68DB69101C191CD0
:10298000FFF75EFC7B68181C00F030F87B6825229E
:102990009B5C002B0FD07B6859697B6820229B5C75
:1029A000081C00211A1CFFF76DFD7B685B69181C71
:1029B0000021FFF78FFF7B685B69181CFFF758FF4A
:1029C0007B682622012199547B6824229B5C002B82
:1029D00004D07B685B69181CFFF740FF0F23FB18CE
:1029E0001B78181CBD4605B090BDC04680B582B0AE
:1029F00000AF78607B685A697B685B8C101C191C7F
:102A0000FFF740FF7B685B69181C0021FFF748FF58
:102A10007B681B699A687B68DB68101C191CFFF7D0
:102A20004DFFBD4602B080BD80B582B000AF78607A
:102A30000A1CFB1C1A70FB1C1B7801229A407B6845
:102A4000DA60BD4602B080BD80B582B000AF78606C
:102A50007B680122DA60BD4602B080BD80B582B0DD
:102A600000AF78600A1CBB1C1A80BB1C1A887B68EC
:102A70005A63BD4602B080BD80B582B000AF7860B9
:102A80000A1CBB1C1A80BB1C1A887B68DA63BD4613
:102A900002B080BD80B582B000AF786039607B68DD
:102AA0003A681A61BD4602B080BDC04680B582B0AA
:102AB00000AF78600A1CFB1C1A707B68A4229A582D
:102AC000FB1C1B78012199400B1C1A437B68A42135
:102AD0005A50BD4602B080BD90B585B000AF786059
:102AE0000F23FB1801221A707B6829229B5C022BA2
:102AF00055D17B681B680F22BC18181C00F0FEFB28
:102B0000031C23700F23FB181B78002B43D17B6819
:102B10009A687B68DB68101C191CFFF791FB7B68C7
:102B20009A687B68DB699BB2101C191CFFF796FF43
:102B30007B689A687B689B699BB2101C191CFFF725
:102B40009BFF7B685A687B685B6A101C191CFFF747
:102B5000A1FF7B68181C00F029F87B6819697B6865
:102B60002C229A5C7B685B69081C111C1A1CFEF7FE
:102B700013FB7B682922002199547B682F229B5CE0
:102B8000002B03D07B68181C00F0C6F80F23FB183D
:102B900000221A7003E07B682922022199540F2336
:102BA000FB181B78181CBD4605B090BD80B582B0DF
:102BB00000AF78607B6830229B5C002B0FD07B6875
:102BC0009B68181C0021FFF771FF7B6899687B6880
:102BD0002A229B5C081C00211A1CFFF753FC7B680F
:102BE00031229B5C002B0FD07B689B68181C022154
:102BF000FFF75CFF7B6899687B682B229B5C081C55
:102C000002211A1CFFF73EFCBD4602B080BDC04643
:102C100080B582B000AF78607B6829229B5C002B76
:102C200004D07B6829229B5C042B11D17B685968F6
:102C30007B682E229B5C081C191CFFF7F5FE7B6845
:102C40009B68181CFFF700FF7B6829220321995419
:102C5000BD4602B080BDC04680B586B000AF78608A
:102C600039601723FB1801221A707B6829229B5CAC
:102C7000022B2CD03B68194A934228D87B68DB6929
:102C800001333B613B68154AD31A3A695343181C18
:102C90001249FFF7C1FC031CFB607B68FA689A616C
:102CA0007B683A681A627B689A68FB689BB2101C62
:102CB000191CFFF7E1FE7B685A687B685B6A101C91
:102CC000191CFFF7E7FE1723FB1800221A701723C1
:102CD000FB181B78181CBD4606B080BD10270000ED
:102CE00090B585B000AF78600F23FB1801221A70F1
:102CF0007B6828229B5C002B07D10F23FC187B6884
:102D0000181CFFF7E9FE031C23700F23FB181B7828
:102D1000181CBD4605B090BD80B582B000AF78608C
:102D20007B6828229B5C002B03D17B68181CFFF773
:102D30006FFFBD4602B080BD90B585B000AF786032
:102D400039600F23FB1801221A707B6828229B5CD4
:102D5000002B09D10F23FC187A683B68101C191C42
:102D6000FFF77AFF031C23700F23FB181B78181C36
:102D7000BD4605B090BDC04680B582B000AF021C14
:102D8000FB1D1A70FB1D1B787F2B09D8064BFA1D03
:102D90001278111C1F220A40012191400A1C1A605E
:102DA000BD4602B080BDC04600E100E080B582B003
:102DB00000AF021CFB1D1A70FB1D1B787F2B0AD86D
:102DC0000649FB1D1B781A1C1F23134001229A4041
:102DD000C0235B00CA50BD4602B080BD00E100E0E8
:102DE000B0B582B000AF021C3960FB1D1A70FB1D2C
:102DF0001B787F2B27D82D4CFB1D1B785BB29B08C3
:102E00002A49FA1D127852B29208C03292005258E2
:102E1000F91D0978081C03210140C900081CFF2185
:102E20008140C94311403A689201FF200240F81DD9
:102E30000078051C03202840C00082400A43C033AC
:102E40009B001A512EE01A4CFB1D1B781A1C0F23F5
:102E50001340083B9908164AFB1D1B78181C0F23CA
:102E60000340083B9B0806339B00D3185B68FA1DA0
:102E70001278101C03220240D200101CFF22824054
:102E8000D2431A403B689B01FF200340F81D0078A5
:102E9000051C03202840C00083401A438B1D9B0063
:102EA000E3185A60BD4602B0B0BDC04600E100E084
:102EB00000ED00E080B582B000AF78607B685968B3
:102EC0007B689A7F7B680833081C111C1A1CFEF76C
:102ED00063F97B6819687B681A7F7B681033081C6C
:102EE000111C1A1CFFF722FB7B681A687B685B7F4A
:102EF000101C191C0122FFF747FB7B689A7E7B6838
:102F0000DB7E191C53B2181CFFF76AFF7B689B7E9F
:102F1000DAB27B681B8B101C191CFEF7BFFC7B68A8
:102F2000DB7F002B0BD07B689B7E5BB2181CFFF70E
:102F30003DFF7B689B7E5BB2181CFFF71DFF0023E3
:102F4000181CBD4602B080BD80B582B000AF021C27
:102F5000FB1D1A70FB1D1B787F2B09D8064BFA1D31
:102F60001278111C1F220A40012191400A1C1A608C
:102F7000BD4602B080BDC04600E100E0B0B582B001
:102F800000AF021C3960FB1D1A70FB1D1B787F2BE4
:102F900027D82D4CFB1D1B785BB29B082A49FA1DD4
:102FA000127852B29208C03292005258F91D097834
:102FB000081C03210140C900081CFF218140C943AE
:102FC00011403A689201FF200240F81D0078051C6C
:102FD00003202840C00082400A43C0339B001A519E
:102FE0002EE01A4CFB1D1B781A1C0F231340083BC4
:102FF0009908164AFB1D1B78181C0F230340083B39
:103000009B0806339B00D3185B68FA1D1278101CCE
:1030100003220240D200101CFF228240D2431A40F9
:103020003B689B01FF200340F81D0078051C03202E
:103030002840C00083401A438B1D9B00E3185A6050
:10304000BD4602B0B0BDC04600E100E000ED00E0CA
:1030500080B582B000AF78607B689B785BB2181C4B
:10306000FFF772FFBD4602B080BDC04680B582B09A
:1030700000AF78607B689A787B68DB78191C53B264
:10308000181CFFF77BFF7B689B78DAB27B689B7824
:103090005BB21B0299B27B681B889BB20B439BB24D
:1030A0009BB2101C191CFEF7F9FB7B681B79002BE7
:1030B00003D07B68181CFFF7CBFF0023181CBD460C
:1030C00002B080BD80B582B000AF021CFB1D1A703B
:1030D000FB1D1B787F2B09D8064BFA1D1278111C9B
:1030E0001F220A40012191400A1C1A60BD4602B00D
:1030F00080BDC04600E100E0B0B582B000AF021C68
:103100003960FB1D1A70FB1D1B787F2B27D82D4CB7
:10311000FB1D1B785BB29B082A49FA1D127852B23C
:103120009208C03292005258F91D0978081C0321F8
:103130000140C900081CFF218140C94311403A6881
:103140009201FF200240F81D0078051C0320284052
:10315000C00082400A43C0339B001A512EE01A4C33
:10316000FB1D1B781A1C0F231340083B9908164AB5
:10317000FB1D1B78181C0F230340083B9B080633DC
:103180009B00D3185B68FA1D1278101C03220240C2
:10319000D200101CFF228240D2431A403B689B01A0
:1031A000FF200340F81D0078051C03202840C000C4
:1031B00083401A438B1D9B00E3185A60BD4602B042
:1031C000B0BDC04600E100E000ED00E080B584B095
:1031D00000AF78607B681B7901225340DBB2002B83
:1031E00044D07B681B681B780020191CFFF784FF04
:1031F0007B681B685B780120191CFFF77DFF7B68EB
:103200001B689B780220191CFFF776FF7B681B6800
:10321000DB78002B06D000200021FEF73FFB0020CA
:10322000FFF750FF7B681B681B79002B08D08023B9
:103230005B000120191CFEF731FB0120FFF742FF64
:103240007B681B685B79002B08D080239B000220E1
:10325000191CFEF723FB0220FFF734FF7B680122D5
:103260001A710F23FB1800221A7003E00F23FB18BA
:1032700001221A700F23FB181B78181CBD4604B0DE
:1032800080BDC04680B500AF0020FEF789FABD467C
:1032900080BDC04680B500AF0120FEF781FABD4673
:1032A00080BDC04680B500AF0220FEF779FABD466A
:1032B00080BDC046B0B586B000AFB860F9607A6036
:1032C0001723FD18BB68FC687A68181C211CFEF7E0
:1032D0001FFA031C2B701723FB181B78181CBD4604
:1032E00006B0B0BD80B582B000AF78607B68802248
:1032F0005200DA60BD4602B080BDC04680B582B0E3
:1033000000AF78607B685B7B01225340DBB2002B0F
:103310000FD07B689A687B681B7B101C191CFEF71A
:103320006BFF7B689B68181CFFF7DCFF7B68012242
:103330005A730023181CBD4602B080BD80B584B00E
:1033400000AF78600F23FB1800221A707B685B7A4D
:1033500001225340DBB2002B11D07B6859687B6897
:103360001A7A7B681B68081C111C1A1CFEF786FC65
:103370007B6801225A720F23FB1800221A700F2358
:10338000FB181B78181CBD4604B080BD80B582B008
:1033900000AF78607B6819687B681A7B7B680433B0
:1033A000081C111C1A1CFDF7F7FE7B6819687B6866
:1033B0001A7B7B685B7B081C111C1A1CFFF706F943
:1033C0000023181CBD4602B080BDC04680B500AFCA
:1033D000034B034A926E01218A439A66BD4680BD23
:1033E0000000014080B584B000AF78600F23FB1867
:1033F00000221A700E23FB1800221A700D23FB18EE
:1034000000221A700C23FB1800221A700B23FB18E1
:1034100000221A707B681B7801225340DBB2002B1C
:103420001BD00E23FA180D23FB1812781B781343B8
:10343000DAB20C23FB181B781343D9B20F23FB1805
:103440000B22BA1812780A431A700F23FB181B7844
:10345000002B02D17B6801221A700F23FB181B7806
:10346000181CBD4604B080BD90B585B000AF3B1CB4
:10347000054A13CA13C312681A603B1C181CFDF7D7
:10348000B9FFBD4605B090BD04CC001080B582B038
:1034900000AF78600A1CFB1C1A70FB1C1B78012211
:1034A0009A407B68DA60BD4602B080BD80B582B0CC
:1034B00000AF78607B680122DA60BD4602B080BD53
:1034C00080B582B000AF78607B6802221A61BD4689
:1034D00002B080BD80B582B000AF78600A1CBB1C12
:1034E0001A80BB1C1A887B685A63BD4602B080BD37
:1034F00080B582B000AF78600A1CBB1C1A80BB1C70
:103500001A887B68DA63BD4602B080BD80B582B0A0
:1035100000AF786039607B683A681A61BD4602B0D6
:1035200080BDC04690B585B000AF78600F23FB1812
:1035300000221A707B6831229B5C01225340DBB26F
:10354000002B38D07B682D229B5C002B11D17B682F
:103550005B690F22BC18181CFFF7D0FE031C2370F8
:103560000F23FB181B78002B03D17B68181C00F07D
:10357000FBF87B685B6A002B0CD07B685B6A196880
:103580007B685B6A1A797B689B6A081C111C1A1C91
:10359000FDF702FE7B683122012199547B682F22BE
:1035A0009B5C002B07D00F23FC187B68181C00F0D5
:1035B00009F8031C23700F23FB181B78181CBD4649
:1035C00005B090BD80B584B000AF78607B683122D3
:1035D0009B5C002B20D07B682D229B5C002B16D19E
:1035E0007B689B695B6F7B689B699B6F7B689B6952
:1035F000DB6F7B689B6980229B587B689B69181CEA
:10360000FFF75EFF7B689B69181CFFF74FFF0F23D6
:10361000FB1800221A7003E00F23FB1801221A7016
:103620000F23FB181B78181CBD4604B080BDC04694
:1036300090B587B000AF786039601723FB1800227F
:103640001A701623FB1800221A707B6831229B5CCB
:10365000002B00D17CE07B682D229B5C002B00D0EE
:103660007AE07B682E229B5C002B04D07B682E22A4
:103670009B5C032B4DD100233B610023FB607B68E7
:103680009A691723FC181023FB18101C00211A1C20
:1036900000F09AF9031C23707B689A691623FC18C2
:1036A0000C23FB18101C01211A1C00F08DF9031CBF
:1036B00023707A681023FB18101C191C012200F0DB
:1036C000AFF83B697A68101C191C00F011F9031C53
:1036D0003B617A680C23FB18101C191C002200F0B7
:1036E0009FF8FB687A68101C191C00F001F9031C94
:1036F000FB603A69FB68D2183B681A601623FB1816
:103700001B78022B04D11723FB1802221A701EE02B
:103710001DE07B689A691723FC183B68101C012187
:103720001A1C00F051F9031C23707A683B68101CC6
:10373000191C012200F074F83B681B687A68101CA1
:10374000191C00F0D5F8021C3B681A6004E003E085
:103750001723FB1801221A701723FB181B78181C5B
:10376000BD4607B090BDC04680B582B000AF78605E
:103770007B689A697B68DB69101C191CFEF794FD55
:103780007B68181C00F02CF87B689A697B68DB6802
:10379000101C01211A1CFEF7DFFD7B689A697B680B
:1037A0001B69101C02211A1CFEF7D6FD7B689B6961
:1037B000181C0121FEF79CFD7B689B69181C0221E7
:1037C000FEF7B0FD7B685B6999687B682C229B5C87
:1037D000081C191CFFF75AFEBD4602B080BDC0464A
:1037E00080B582B000AF78607B689B690B4A181C7B
:1037F000111CFFF76FFE7B689B69181C0021FFF707
:1038000077FE7B685B699A687B689B68101C191C53
:10381000FFF77CFEBD4602B080BDC046FFFF000042
:1038200080B58CB000AFF860B960FB1D1A70002342
:10383000FB622B23FB1800221A70BB681B681B0459
:103840001B0C7B62BB681B681B0C0F221340BB6107
:10385000FB1D1B78002B02D07B6A01337B62FB6867
:103860002D229B5C002B12D1FB68DB691B791B07A7
:103870001B0FDBB2FB62FB68DB699B780122134004
:10388000DBB2002B03D02B23FB1801221A702B2351
:10389000FB181B78002B23D000233B620023FB6125
:1038A000BA69FB6AD31A7B617B693B620AE0FB69F8
:1038B0005B00FB61FB690D4A94466344FB613B6A14
:1038C000013B3B623B6A002BF1DC7B697A6A9A40E0
:1038D000131CFA69D318FB61BB68FA691A6002E02D
:1038E000BB687A6A1A60BD460CB080BDFFFF00005D
:1038F000B0B58EB000AFF860B96001237B630023E0
:10390000FB62FB682D229B5C002B0DD1FB68DB6901
:103910001B791B071B0FDBB2FB62FB685B691A6834
:10392000FB6ADA40131C7B63BB687B617B69002BFD
:1039300001D1202304E0786906F082F8031CDBB291
:10394000BB627B6B3B613B69002B01D1202304E010
:10395000386906F075F8031CDBB27B62BA6A7B6AD1
:103960009A4202D97B6A3B6301E0BB6A3B633B6BD3
:10397000BA689A40131CBB603B6B7A6B9A40131C6D
:103980007B63BB683B6000237B60386879680D4AC5
:10399000002306F093F8021C0B1C111C1A1C7B6BF5
:1039A0001C1C00231D1C081C111C221C2B1C06F0B7
:1039B00065F8031C0C1CBB61FC61BB69181CBD468F
:1039C0000EB0B0BD00CA9A3B80B588B000AFF860B9
:1039D0007A600B23FB180A1C1A701F23FB180222A3
:1039E0001A700B23FB181B78012B20D1FB68802257
:1039F0009A587B681A607B681A6880235B031340BF
:103A000004D01F23FB1800221A702EE0FB68DB6F26
:103A1000BB61BA6980235B03134007D01F23FB18E7
:103A200000221A70BA697B681A601EE01DE0FB680C
:103A30009A6F7B681A607B681A6880235B03134067
:103A400004D01F23FB1800221A700EE0FB685B6F86
:103A50007B617A6980235B03134006D01F23FB1828
:103A600000221A707A697B681A601F23FB181B7882
:103A7000181CBD4608B080BD80B584B000AFF860AA
:103A80007A600B23FB180A1C1A70FB689B680B22D8
:103A9000BA181278072191400A1CD2431A400B230E
:103AA000FB181B78796899400B1C1A43FB689A60D5
:103AB000BD4604B080BDC04680B582B000AF78601E
:103AC0000A1CFB1C1A707B68DB68072293431A1CD4
:103AD000FB1C1B7807210B401A437B68DA60BD464C
:103AE00002B080BD80B582B000AF78607B68DB68D3
:103AF000802252001A437B68DA60BD4602B080BD66
:103B000080B582B000AF78607B681B6840221A43A2
:103B10007B681A60BD4602B080BDC04680B582B0E9
:103B200000AF78607B681B68402293431A1C7B6857
:103B30001A60BD4602B080BD80B582B000AF78602B
:103B40007B681B6801221A437B681A60BD4602B07D
:103B500080BDC04680B582B000AF78607B681B68CE
:103B6000012293431A1C7B681A60BD4602B080BDD7
:103B700080B582B000AF78607B681B688022934379
:103B80001A1C7B681A60BD4602B080BD80B584B047
:103B900000AFF8607A600B23FB180A1C1A70FB68F0
:103BA0001B68FA68126892680B2179180978072057
:103BB0008840011CC94311400B22BA18127878685A
:103BC0009040021C0A439A60BD4604B080BDC046C6
:103BD00080B582B000AF786039607B681B687A6816
:103BE000126811683A680A431A60BD4602B080BD87
:103BF00080B582B000AF78607B681A6880239B0232
:103C0000101C191CFFF7E4FFBD4602B080BDC04682
:103C100080B582B000AF78607B681A6880235B0251
:103C2000101C191CFFF7D4FFBD4602B080BDC04672
:103C300080B584B000AF78600023FB607B68181CFF
:103C400000F032F87B68A4229B5C002B03D0FB6859
:103C500002221343FB607B68A3229B5C002B03D0F2
:103C6000FB6804221343FB607B68A5229B5C002B4E
:103C700003D0FB6808221343FB607B685A68FB682B
:103C8000101C191CFEF76AFA7B68A6229B5C002BAD
:103C900007D07B685A688023DB03101C191CFEF7D1
:103CA0005DFABD4604B080BD80B582B000AF7860DB
:103CB0007B6859687B688C229B581B78081C002104
:103CC0001A1CFFF7D9FE7B6859687B688C229B58C9
:103CD0005B78081C04211A1CFFF7CEFE7B6859682C
:103CE0007B688C229B589B78081C08211A1CFFF7C4
:103CF000C3FE7B6859687B688C229B58DB78081C64
:103D00000C211A1CFFF7B8FEBD4602B080BDC046AC
:103D100080B582B000AF78607B681B68181CFDF727
:103D2000FFFF7B68DB79002B0CD07B681A687B680F
:103D30005B79101C04211A1CFFF728FF7B68181CF4
:103D4000FFF756FF7B681B7A002B0CD07B681A6844
:103D50007B689B79101C00211A1CFFF717FF7B68FA
:103D6000181CFFF755FFBD4602B080BD90B585B069
:103D700000AF78600F23FB1800221A707B681B6865
:103D80000F22BC18181CFEF7ADF8031C23700F237C
:103D9000FB181B78181CBD4605B090BD90B585B0CA
:103DA00000AF78600F23FB1800221A707B681B6835
:103DB0000F22BC18181CFEF7CDF8031C23700F232C
:103DC000FB181B78181CBD4605B090BD90B585B09A
:103DD00000AF786039600F23FB1800221A703B682F
:103DE000BB607B681B68BA6812681A617B681B68D5
:103DF000BA6852685A617B681B680F22BC18181C8D
:103E0000FEF72EF8031C23700F23FB181B78181CD9
:103E1000BD4605B090BDC04690B587B000AF786094
:103E20001723FB1800221A707B6890229B58FB60B6
:103E30007B681B681722BC18181CFFF77FFA031C4D
:103E400023701723FB181B78002B00D085E07B68BC
:103E50005A687B689B68101C191CFDF7D5FD031E72
:103E600076D17B685B68181CFFF74AFE7B685B684D
:103E7000181CFFF761FE7B685B68181CFFF778FE73
:103E80007B68A7229B5C002B05D07B685B68181CB5
:103E9000FFF728FE16E07B6898229B5818687B681D
:103EA00098229B5819797B689C229B581A1CFDF715
:103EB00073F97B6859687B68A0229B5C081C191CFD
:103EC000FFF7FAFD7B68181CFFF7B2FE00233B6189
:103ED0001AE07A683B6902339B00D3185B68BB60C9
:103EE0007B681B6859687B68A1229A5CBB681B7958
:103EF000081C111C1A1CFDF735FEBB68181CFFF7C7
:103F000007FF3B6901333B617B68A2229B5C1A1E61
:103F10003B699A42DDD87B685B68181CFFF7FEFDA1
:103F20007B685B68181CFFF715FE7B68A7229B5C0B
:103F300001225340DBB2002B13D0FB681868FB68EA
:103F400019797B6894229B581A1CFDF725F908E023
:103F50001723FB1801221A7003E01723FB18012214
:103F60001A701723FB181B78181CBD4607B090BDAC
:103F700090B583B000AFFB1D00221A70FC1D954B5D
:103F8000181CFFF72FFA031C2370FB1D1B78002B56
:103F900006D1FC1D904B181CFFF73EFF031C23703D
:103FA000FB1D1B78002B06D1FC1D8C4B181CFFF74A
:103FB0005DF8031C2370FB1D1B78002B06D1FC1D34
:103FC000874B181CFEF78CFE031C2370FB1D1B780F
:103FD000002B06D1FC1D834B181CFEF781FE031C31
:103FE0002370FB1D1B78002B06D1FC1D7E4B181C7B
:103FF000FEF776FE031C2370FB1D1B78002B06D1F9
:10400000FC1D7A4B181CFEF76BFE031C2370FB1D76
:104010001B78002B06D1FC1D754B181CFEF770FC9D
:10402000031C2370FB1D1B78002B06D1FC1D714B5C
:10403000181CFFF71BF8031C2370FB1D1B78002BBB
:1040400006D1FC1D6C4B181CFFF76CFA031C237087
:10405000FB1D1B78002B06D1FC1D684B181CFFF7BD
:1040600061FA031C2370FB1D1B78002B06D1FC1D7D
:10407000634B181CFFF78AF9031C2370FB1D1B7888
:10408000002B06D1FC1D5F4B181CFEF739FC031CEE
:104090002370FB1D1B78002B06D1FC1D5A4B181CEE
:1040A000FEF7E4FF031C2370FB1D1B78002B06D1D9
:1040B000FC1D564B181CFEF7FDFE031C2370FB1D58
:1040C0001B78002B06D1FC1D514B181CFFF75EF925
:1040D000031C2370FB1D1B78002B06D1FC1D4D4BD0
:1040E000181CFFF753F9031C2370FB1D1B78002BD2
:1040F00006D1FC1D484B181CFFF748F9031C237020
:10410000FB1D1B78002B06D1FC1D444B181CFFF730
:104110003DF9031C2370FB1D1B78002B06D1FC1DF1
:104120003F4B181CFEF728FB031C2370FB1D1B785C
:10413000002B06D1FC1D3B4B181CFFF727F9031C75
:104140002370FB1D1B78002B06D1FC1D364B181C61
:10415000FEF78CFF031C2370FB1D1B78002B06D180
:10416000FC1D324B181CFEF7A5FE031C2370FB1D23
:104170001B78002B06D1FC1D2D4B181CFFF706F9F0
:10418000031C2370FB1D1B78002B06D1FC1D294B43
:10419000181CFFF7FBF8031C2370FB1D1B78002B7A
:1041A00006D1FC1D244B181CFFF7F0F8031C2370EC
:1041B000FB1D1B78002B06D1FC1D204B181CFFF7A4
:1041C000E5F8031C2370FB1D1B78181CBD4603B0CB
:1041D00090BDC046DC090020D8CC00103CCB0010BC
:1041E000DC05002010060020440600207806002090
:1041F0008405002044CB0010E006002014070020B6
:1042000064CB0010B40500204CCB0010FCCA001099
:1042100074CB001084CB001094CB0010A4CB001002
:1042200074050020B4CB001054CB00101CCB001040
:10423000C4CB0010D4CB0010E4CB0010F4CB0010A2
:1042400080B582B000AF78600A1CFB1C1A70FB1CA2
:104250001B7801229A407B685A60BD4602B080BD3F
:1042600080B582B000AF78600A1CFB1C1A70FB1C82
:104270001B78802252029A407B685A60BD4602B089
:1042800080BDC04680B582B000AF78607B681A6898
:104290007B681B7B101C191CFFF7D2FFBD4602B0C8
:1042A00080BDC04680B582B000AF78607B681A6878
:1042B0007B681B7B101C191CFFF7D2FFBD4602B0A8
:1042C00080BDC04680B500AF024B034A9A60BD4630
:1042D00080BDC04600000240FECAADAB80B500AF55
:1042E000FFF7F0FFBD4680BD80B586B000AF7860B7
:1042F0000C23FB1800221A6000225A601723FB18B7
:1043000000221A7012E01723FB181B781722BA1824
:10431000127879688A1811780C22BA18D1541723A8
:10432000FB181A781723FB1801321A701723FB1891
:104330001B78032BE7D9084B1A690C23FB18101CB8
:10434000191CFFF743FD044B1B69181CFFF70EFDFA
:10435000BD4606B080BDC046D8CC001080B584B044
:1043600000AF78607B681B68181C264905F08CFF3D
:10437000031C181C06F038FA031C9AB20823FB1819
:104380001A807B6804331B68181C1E4905F07CFFEB
:10439000031C181C06F028FA031C9AB20823FB1809
:1043A0005A807B6808331B68181C164905F06CFF9F
:1043B000031C181C06F018FA031C9AB20823FB18F9
:1043C0009A807B680C331B68181C0E4905F05CFF53
:1043D000031C181C06F008FA031C9AB20823FB18E9
:1043E000DA80094BDA680823FB18101C191CFFF748
:1043F000EDFC054BDB68181CFFF7B8FCBD4604B0AC
:1044000080BDC04600007A44D8CC001080B500AF13
:10441000FFF764FF094B181CFFF744FF084B1B789C
:10442000DBB20133DAB2064B1A70054B1B78DBB2F4
:10443000042B01D100F006F8BD4680BDB4CB0010BE
:10444000E409002090B589B000AF1F23FB180022BB
:104450001A7003E11F23FB181B780233844A0233CE
:104460009B00D3185B681B68BB611F23FB181B787C
:1044700002337F4A02339B00D3185B68181CFFF796
:104480008DFC1E23FB1800221A7012E01E23FB185D
:104490001B781E22BA181278B9698A18117C0C226E
:1044A000BA18D1541E23FB181A781E23FB180132A8
:1044B0001A701E23FB181B78072BE7D90C23FB1857
:1044C0005B781B02DAB20C23FB181B78DBB21343B8
:1044D000DAB21723FB181A701723FA181F23FB18D8
:1044E00012781B789A4200D0ADE0624B181CFFF79F
:1044F000D9FE3B1D00221A6000229A801D23FB1862
:1045000001221A706BE01D23FB181B78012B1CD1B4
:104510001D23FB181B785A1E1D23FB181B785B00FC
:1045200001330C217918CB5C1B0298B21D23FB18B8
:104530001B785B000C217918CB5C9BB2011C0B43F0
:1045400099B23B1D5200D15242E01D23FB181B784B
:10455000022B1CD11D23FB181B785A1E1D23FB1890
:104560001B785B0001330C217918CB5C1B0298B2DD
:104570001D23FB181B785B000C217918CB5C9BB2C8
:10458000011C0B4399B23B1D5200D15220E01D2368
:10459000FB181B78032B1BD11D23FB181B785A1EFD
:1045A0001D23FB181B785B0001330C217918CB5CB1
:1045B0001B0298B21D23FB181B785B000C21791895
:1045C000CB5C9BB2011C0B4399B23B1D5200D152F4
:1045D0001D23FB181A781D23FB1801321A701D23A6
:1045E000FB181B78032B8ED91F23FB181B783A1D51
:1045F0001288D1B2204AD1541F23FB181C783B1DCE
:104600005B881BB2181C06F00FF9031C181C1B4911
:1046100005F048FC031C191C194BA200D1501F23A4
:10462000FB181C783B1D9B881BB2181C06F0FCF87D
:10463000031C181C114905F035FC031C191C114BF7
:10464000A200D15003E00B4B181CFFF71BFE1F23E9
:10465000FB181A781F23FB1801321A701F23FB184E
:104660001B78032B00D8F5E6BD4609B090BDC046C7
:10467000D8CC0010C4CB0010E009002000007A4420
:10468000580A0020680A002080B584B000AF3A4B79
:104690005B6A1B68BB60384B5B6A181CFFF77EFBCC
:1046A0000F23FB1800221A7011E00F23FB181B7850
:1046B0000F22BA181278B9688A18117C3A1CD154A2
:1046C0000F23FB181A780F23FB1801321A700F23DF
:1046D000FB181B78072BE8D93B1C5B781B02DAB26E
:1046E0003B1C1B78DBB21343DBB2DAB2234B1A70EC
:1046F0003B1CDB781B029AB23B1C9B789BB213439A
:104700009BB29AB21E4B1A803B1C5B791B029AB279
:104710003B1C1B799BB213439BB29AB2194B1A8074
:104720003B1CDB791B029AB23B1C9B799BB2134367
:104730009BB29AB2144B1A80114B1B889BB298B251
:10474000104B1B889BB299B20F4B1B889BB29AB23D
:104750000E4B1B6800B209B212B201F02DFC0C4BDB
:1047600000221A70FFF7BAFD0A4B181CFFF79AFDDA
:10477000BD4604B080BDC046D8CC0010E50900207D
:10478000E6090020E8090020EA0900202C080020A2
:1047900028080020B4CB001080B582B000AF78604C
:1047A0000A1CFB1C1A70FB1C1B7801229A407B68B8
:1047B0005A60BD4602B080BD80B582B000AF78605F
:1047C0000A1CFB1C1A70FB1C1B78802252029A40A8
:1047D0007B685A60BD4602B080BDC04680B582B0DD
:1047E00000AF78607B681A687B681B7B101C191C03
:1047F000FFF7D2FFBD4602B080BDC04680B582B093
:1048000000AF78607B681A687B681B7B101C191CE2
:10481000FFF7D2FFBD4602B080BDC046F0B585B0FF
:1048200000AFF860B960FB1D1A70CE4B00221A7001
:10483000CD4B00221A60CD4B00221A60B868FE21D1
:10484000890505F0E9F8031E02D0FE239B05BB6035
:10485000B868C74905F0CCF8031E01D0C44BBB6053
:1048600001231C1CB868002105F0D6F8031E01D1F5
:1048700000231C1CE4B2B86807F03CFE0A1C011CB3
:1048800001231D1C081C111CBA4ABB4B05F076F80D
:10489000031E01D100231D1CEBB22340DBB2002B11
:1048A00001D00023BB6001231C1CB868002105F067
:1048B0009FF8031E01D100231C1CE4B2B86807F066
:1048C00019FE0A1C011C01231D1C081C111CA94AED
:1048D000AA4B05F067F8031E01D100231D1CEBB2A3
:1048E0002340DBB2002B01D00023BB60FB1D1B78F3
:1048F000052B01D900F080FE9A00A14BD3181B684C
:104900009F46F8689F4905F087F8031E01D09D4B2C
:10491000FB60F8689C4905F06BF8031E01D09A4BC8
:10492000FB60FB6899499A4A181C01F0D9FF031CE7
:104930001A1C01235340DBB2002B00D1BFE1F86801
:1049400007F0D8FD031C0C1C181C211C914A924B2B
:1049500006F0DAFA031C0C1C181C211C02F0B6FA33
:10496000031C0C1C8D488E491A1C231C06F0CCFA23
:10497000031C0C1C181C211C07F010FE021C7A4B97
:104980001A60794B1B685B005B08181C07F0B2FDCE
:10499000031C0C1C181C211C824A834B05F08CFF45
:1049A000031C0C1C181C211C1A1C231C05F084FF62
:1049B000031C0C1C181C211C7C4A7D4B06F0E2FEDB
:1049C000031C0C1C1D1C261C674B1B685B005B0832
:1049D000181C07F08FFD031C0C1C181C211C1A1C32
:1049E000231C05F069FF031C0C1C181C211C6F4ABA
:1049F0006F4B06F0C7FE031C0C1C281C311C1A1C34
:104A0000231C06F081FA031C0C1C181C211C07F047
:104A1000C5FD021C554B1A60534B1B68181C07F050
:104A200069FD031C0C1C181C211C524A524B04F03B
:104A3000B9FF031E00D17CE04B4B1B68181C5D497D
:104A400004F0D6FF031E74D0474B1B68181C07F0F8
:104A500051FD031C0C1C181C211C524A524B05F022
:104A60002BFF031C0C1C4D484D491A1C231C06F03F
:104A70004BFA031C0C1C181C211C01F0DFFF031C4B
:104A80000C1C181C211C434A434B06F07BFE031CE4
:104A90000C1C181C211C07F081FD021C464B1A60DF
:104AA000314B1B68181C07F025FD031C0C1C181C3F
:104AB000211C3C4A3C4B07F0FFF8031C0C1C3748F8
:104AC00037491A1C231C06F01FFA031C0C1C181C67
:104AD000211C01F0B3FF031C0C1C181C211C2D4AC7
:104AE0002D4B06F04FFE031C0C1C181C211C07F05C
:104AF00055FD021C314B1A601C4B1B68B868191C11
:104B000005F0D0F9031C1A1C2D4B1A60174B1B68BB
:104B1000181CB96805F0B8FB031C1A1C294B1A6055
:104B2000274B1A68284B1A60264B1A68274B1A60C5
:104B3000D7E00D4B1B68181C07F0DCFC031C0C1C99
:104B4000181C211C0B4A0D4B04F018FF031E00D14A
:104B5000C7E0054B1B68181C1D4904F05DFF031ED0
:104B600038D1BEE0780A0020EC090020F0090020CE
:104B7000000080BF9A9999999999A93F9999A9BFDD
:104B800080CD001000004842000048C20000A0C0D4
:104B90000000A040C7F484251EA64C4079E92631C8
:104BA00008ACDC3F77BE9F1A2FDDC43F182D44545C
:104BB000FB2109400000A041040A0020080A00204F
:104BC000F4090020F8090020FC090020000A002058
:104BD0000000A0C1DF4B1B68181C07F08BFC031CF6
:104BE0000C1C181C211CDC4ADC4B05F065FE031C68
:104BF0000C1CDB48DB491A1C231C06F085F9031C3E
:104C00000C1C181C211C01F019FF031C0C1C181C87
:104C1000211CD54AD54B06F0B5FD031C0C1C181CF5
:104C2000211C07F0BBFC021CD14B1A60C94B1B684E
:104C3000181C07F05FFC031C0C1C181C211CC64A26
:104C4000C64B07F039F8031C0C1CC548C5491A1C93
:104C5000231C06F059F9031C0C1C181C211C01F024
:104C6000EDFE031C0C1C181C211CBF4ABF4B06F098
:104C700089FD031C0C1C181C211C07F08FFC021C56
:104C8000BC4B1A60BC4B1B68181CB96805F0FCFAD9
:104C9000031C1A1CB94B1A60B74B1B68B868191C67
:104CA00005F000F9031C1A1CB54B1A60B34B1A68C7
:104CB000B44B1A60B24B1A68B34B1A6011E0AC4B9C
:104CC00000221A60AB4B00221A60AC4BBA681A6023
:104CD000AB4BBA681A60AB4BBA681A60AA4BBA6899
:104CE0001A60AA4B00221A60A94B00221A6000F039
:104CF0009BFCF868A74904F08FFE031E01D0A54B6A
:104D0000FB60F868A44904F073FE031E01D0A24BB7
:104D1000FB60FB68A149A24A181C01F0E1FD031CDD
:104D20001A1C01235340DBB2002B00D1BFE1F8680D
:104D300007F0E0FB031C0C1C181C211C8A4A8B4B3F
:104D400006F0E2F8031C0C1C181C211C02F0BEF833
:104D5000031C0C1C824883491A1C231C06F0D4F83F
:104D6000031C0C1C181C211C07F018FC021C794B9E
:104D70001A60784B1B685B005B08181C07F0BAFBD5
:104D8000031C0C1C181C211C734A744B05F094FD69
:104D9000031C0C1C181C211C1A1C231C05F08CFD68
:104DA000031C0C1C181C211C7E4A7F4B06F0EAFCDD
:104DB000031C0C1C1D1C261C664B1B685B005B083F
:104DC000181C07F097FB031C0C1C181C211C1A1C38
:104DD000231C05F071FD031C0C1C181C211C714ABE
:104DE000714B06F0CFFC031C0C1C281C311C1A1C38
:104DF000231C06F089F8031C0C1C181C211C07F04E
:104E0000CDFB021C5C4B1A60524B1B68181C07F050
:104E100071FB031C0C1C181C211C644A644B04F01D
:104E2000C1FD031E00D17CE04A4B1B68181C614980
:104E300004F0DEFD031E74D0464B1B68181C07F0FF
:104E400059FB031C0C1C181C211C434A434B05F046
:104E500033FD031C0C1C424842491A1C231C06F05B
:104E600053F8031C0C1C181C211C01F0E7FD031C4B
:104E70000C1C181C211C3C4A4F4B06F083FC031CE5
:104E80000C1C181C211C07F089FB021C3F4B1A60EC
:104E9000304B1B68181C07F02DFB031C0C1C181C46
:104EA000211C2D4A2D4B06F007FF031C0C1C2C481F
:104EB0002C491A1C231C06F027F8031C0C1C181C78
:104EC000211C01F0BBFD031C0C1C181C211C264AD4
:104ED000394B06F057FC031C0C1C181C211C07F056
:104EE0005DFB021C2A4B1A60234B1B68B868191C17
:104EF00004F0D8FF031C1A1C204B1A601E4B1B68C1
:104F0000181CB96805F0C0F9031C1A1C1C4B1A6068
:104F10001A4B1A681B4B1A60194B1A681A4B1A6005
:104F2000D7E00C4B1B68181C07F0E4FA031C0C1CA0
:104F3000181C211C1D4A214B04F020FD031E00D12A
:104F4000C7E0044B1B68181C1D4904F065FD031ED7
:104F500038D1BEE0EC09002077BE9F1A2FDDC43F98
:104F600079E9263108ACDC3FC7F484251EA64C4005
:104F7000040A0020080A0020F0090020F40900209B
:104F8000F8090020FC090020000A00200C0A00207B
:104F9000100A002000004842000048C20000A0C0E3
:104FA0000000A040182D4454FB2109409A9999997A
:104FB0009999A93F0000A0411EA64CC09999A9BF8C
:104FC0000000A0C1E64B1B68181C07F093FA031CF5
:104FD0000C1C181C211CE34AE34B05F06DFC031C60
:104FE0000C1CE248E2491A1C231C05F08DFF031C2F
:104FF0000C1C181C211C01F021FD031C0C1C181C8E
:10500000211CDC4ADC4B06F0BDFB031C0C1C181CED
:10501000211C07F0C3FA021CD84B1A60D04B1B6846
:10502000181C07F067FA031C0C1C181C211CCD4A25
:10503000CD4B06F041FE031C0C1CCC48CC491A1C7D
:10504000231C05F061FF031C0C1C181C211C01F023
:10505000F5FC031C0C1C181C211CC64AC64B06F090
:1050600091FB031C0C1C181C211C07F097FA021C56
:10507000C34B1A60C34B1B68181CB96805F004F9D0
:10508000031C1A1CC04B1A60BE4B1B68B868191C65
:1050900004F008FF031C1A1CBC4B1A60BA4B1A68B8
:1050A000BB4B1A60B94B1A68BA4B1A6011E0B34B8C
:1050B00000221A60B24B00221A60B34BBA681A6021
:1050C000B24BBA681A60B24BBA681A60B14BBA6890
:1050D0001A60B14B00221A60B04B00221A60A3E2A2
:1050E000F868AF4904F098FC031E01D0AC4BFB609C
:1050F000F868AC4904F07CFC031E01D0A94BFB60AE
:10510000FB68A949A94A181C01F0EAFB031C1A1CF8
:1051100001235340DBB2002B00D1E0E1F86807F037
:10512000E9F9031C0C1C181C211C924AA04B05F029
:10513000EBFE031C0C1C181C211C01F0C7FE031CF9
:105140000C1C9C489C491A1C231C05F0DDFE031C0A
:105150000C1C181C211C07F021FA021C804B1A6041
:105160007F4B1B685B005B08181C07F0C3F9031C2E
:105170000C1C181C211C7B4A7B4B05F09DFB031C5F
:105180000C1C181C211C1A1C231C05F095FB031C6D
:105190000C1C181C211C894A894B06F0F3FA031CCD
:1051A0000C1C1D1C261C6E4B1B685B005B08181C2E
:1051B00007F0A0F9031C0C1C181C211C1A1C231C32
:1051C00005F07AFB031C0C1C181C211C7B4A7C4B31
:1051D00006F0D8FA031C0C1C281C311C1A1C231CBA
:1051E00005F092FE031C0C1C181C211C07F0D6F9BC
:1051F000021C644B1A605A4B1B68181C07F07AF9A2
:10520000031C0C1C181C211C6E4A6F4B04F0CAFBBB
:10521000031E00D18BE0524B1B68181C6B4904F035
:10522000E7FB031E00D182E04D4B1B68181C07F002
:1052300061F9031C0C1C181C211C4A4A4A4B05F03E
:105240003BFB031C0C1C494849491A1C231C05F054
:105250005BFE031C0C1C181C211C01F0EFFB031C43
:105260000C1C181C211C434A514B06F08BFA031CE2
:105270000C1C181C211C07F091F9021C464B1A60EB
:10528000374B1B68181C07F035F9031C0C1C181C45
:10529000211C344A344B06F00FFD031C0C1C334810
:1052A00033491A1C231C05F02FFE031C0C1C181C70
:1052B000211C01F0C3FB031C0C1C181C211C2D4AD3
:1052C0003B4B06F05FFA031C0C1C181C211C07F05A
:1052D00065F9021C314B1A602F4B1B6880221206A5
:1052E0005A40264B1A602D4B1B68802212065A40EA
:1052F000234B1A60234B1B68B868191C04F0D2FDBD
:10530000031C1A1C204B1A601E4B1B68181CB96822
:1053100004F0BAFF031C1A1C1C4B1A601A4B1A68C3
:105320001B4B1A60194B1A681A4B1A60F0E00C4BB1
:105330001B68181C07F0DEF8031C0C1C181C211C31
:10534000204A234B04F01AFB031E00D1E0E0044B7B
:105350001B68181C1F4904F05FFB031E3CD1D7E0FB
:10536000EC09002077BE9F1A2FDDC43F79E9263172
:1053700008ACDC3FC7F484251EA64CC00C0A0020F4
:10538000100A0020F0090020F4090020F80900208C
:10539000FC090020000A0020040A0020080A00205E
:1053A0000000F0410000F0C10000A0C00000A040DB
:1053B0001EA64C40295C8FC2F528CC3F182D4454C2
:1053C000FB2109409A9999999999A93F0000A04118
:1053D0009999A9BF0000A0C1A54B1B68181C07F034
:1053E00089F8031C0C1C181C211CA24AA24B05F0B6
:1053F00063FA031C0C1CA148A1491A1C231C05F0CC
:1054000083FD031C0C1C181C211C01F017FB031C42
:105410000C1C181C211C9B4A9B4B06F0B3F9031C67
:105420000C1C181C211C07F0B9F8021C974B1A60C1
:105430008F4B1B68181C07F05DF8031C0C1C181C14
:10544000211C8C4A8C4B06F037FC031C0C1C8B482F
:105450008B491A1C231C05F057FD031C0C1C181C3F
:10546000211C01F0EBFA031C0C1C181C211C854AA2
:10547000854B06F087F9031C0C1C181C211C07F037
:105480008DF8021C824B1A60804B1B68802212062A
:105490005A40804B1A607E4B1B68802212065A408D
:1054A0007D4B1A607D4B1B68181CB96804F0ECFE3C
:1054B000031C1A1C7A4B1A60784B1B68B868191CBD
:1054C00004F0F0FC031C1A1C764B1A60744B1A682B
:1054D000754B1A60734B1A68744B1A6018E06B4B6B
:1054E00000221A606A4B00221A606A4B00221A607E
:1054F000694B00221A606A4BBA681A60694BBA6835
:105500001A60694BBA681A60684BBA681A608BE017
:105510008AE0F868664904F0B7FE031CFB60F8688F
:10552000644904F079FA031E01D0624BFB60F8680D
:10553000614904F05DFA031E01D05F4BFB60534BE1
:10554000FA681A60524BFA681A60524BFA681A608D
:10555000514BFA681A60524BBA681A60514BBA68DC
:105560001A60514BBA681A60504BBA681A605BE017
:10557000464B524A1A60464B514A1A60454B504AB4
:105580001A60454B4D4A1A60F8684E4904F044FAD7
:10559000031E0ED0424BFA2292051A60414B4A4A32
:1055A0001A60414BFA2292051A60404B464A1A6033
:1055B00021E0F868454904F01BFA031E0ED0384B71
:1055C000414A1A60374BFA2292051A60364B3E4A1E
:1055D0001A60364BFA2292051A600CE0304B00221A
:1055E0001A60304B00221A602F4B00221A602F4B9A
:1055F00000221A6018E017E0244B00221A60244BA6
:1056000000221A60234B00221A60234B00221A60EA
:10561000234B00221A60234B00221A60224B0022E7
:105620001A60224B00221A60184B1A68284B1A6025
:10563000174B1A68264B5A60164B1A68244B9A600F
:10564000154B1A68224BDA60154B1A68214B1A6009
:10565000144B1A681F4B5A60134B1A681D4B9A6003
:10566000124B1A681B4BDA60BD4605B0F0BDC04650
:10567000EC09002077BE9F1A2FDDC43F79E926315F
:1056800008ACDC3FC7F484251EA64C40040A002069
:10569000080A00200C0A0020100A0020F00900204F
:1056A000F4090020F8090020FC090020000A00206D
:1056B0000000204000003E4300003EC30AD76BC2FA
:1056C0000AD7434200002041000080BE000020C1F4
:1056D000480A0020280A0020F8B500AF4F4B181CDC
:1056E000042101F081F9021C4D4B1A604D4B1B78CF
:1056F000DBB2052B5BD89A004B4BD3181B689F4637
:10570000474B1B68181C06F0F5FE051C0E1C474B8A
:105710001B68181C06F0EEFE031C0C1C181C211C38
:10572000434A444B05F0F0FB031C0C1C181C211CC5
:1057300001F02AFB031C0C1C281C311C1A1C231C06
:1057400006F020F8031C0C1C181C211C06F026FF78
:10575000021C394B1A60324B1B68181C06F0CAFE3B
:10576000051C0E1C314B1B68181C06F0C3FE031CE5
:105770000C1C181C211C2E4A2E4B05F0C5FB031CCB
:105780000C1C181C211C01F051FB031C0C1C281CB8
:10579000311C1A1C231C05F0F5FF031C0C1C181CE3
:1057A000211C06F0FBFE021C244B1A6007E0224B72
:1057B00000221A60214B00221A6000E0C0461E4BF6
:1057C0001A681F4B1A601D4B1A681D4B5A601B4B01
:1057D0001B68181C06F08EFE051C0E1C164B1B6861
:1057E000181C06F087FE031C0C1C281C311C1A1CFC
:1057F000231C01F097FB031C0C1C181C211C0C4AD9
:105800000C4B05F0BFFF031C0C1C181C211C06F0E0
:10581000C5FE021C0B4B1A60BD46F8BD280A0020CD
:105820001C0A00202A08002098CD0010480A0020F9
:10583000C7F484251EA64C40140A0020180A002034
:10584000840A00208C0A002080B582B000AF021CC0
:10585000FB1D1A70FB1D1B780122134004D0174B4F
:10586000181CFEF7CBFF03E0144B181CFEF7B6FF25
:10587000FB1D1B785B08DBB21A1C0123134004D00C
:105880000F4B181CFEF7BAFF03E00D4B181CFEF778
:10589000A5FFFB1D1B789B08DBB21A1C01231340DC
:1058A00004D0084B181CFEF7A9FF03E0054B181C99
:1058B000FEF794FFBD4602B080BDC04684CB001009
:1058C00094CB0010A4CB001080B582B000AF7860FC
:1058D0000A1CFB1C1A70FB1C1B7801229A407B6877
:1058E0005A60BD4602B080BD80B582B000AF78601E
:1058F0000A1CFB1C1A70FB1C1B78802252029A4067
:105900007B685A60BD4602B080BDC04680B582B09B
:1059100000AF78600A1CFB1C1A707B685A6AFB1C7B
:105920001B78DA40131C01221340181CBD4602B03C
:1059300080BDC04680B582B000AF78607B681A68D1
:105940007B681B7B101C191CFFF7BEFFBD4602B015
:1059500080BDC04680B582B000AF78607B681A68B1
:105960007B681B7B101C191CFFF7BEFFBD4602B0F5
:1059700080BDC04680B582B000AF78607B685A6851
:105980007B689B7F101C191CFFF7C0FF031C181CB1
:10599000BD4602B080BDC04680B500AF0A4B1B7843
:1059A000DBB2012B04D1094B1B685A1C074B1A6050
:1059B000074B1B78DBB2012B04D1064B1B685A1C2A
:1059C000044B1A60BD4680BD38080020A40A0020A0
:1059D00039080020A80A0020F8B500AF7A4B181C3F
:1059E000FDF7F0FD794B181CFDF7ECFD764A784B7E
:1059F000101C191CFDF71CFE744A764B101C191C58
:105A0000FDF716FE744B1B78012B5CD1714B1B68A4
:105A1000724A934250D96F4B1B68714A93424BD8DC
:105A20006C4B1B68181C06F033FD031C0C1C181C67
:105A3000211C00226B4B06F03FF9031C0C1C1D1CA3
:105A4000261C694B1B68181C06F054FD031C0C1C1B
:105A5000281C311C1A1C231C05F094FE031C0C1C72
:105A6000181C211C06F09AFD021C604B1A605F4B4B
:105A70001B68181C06F03EFD031C0C1C181C211C86
:105A80005B4A5C4B03F07AFF031E11D0574B1B6837
:105A9000181C06F02FFD031C0C1C181C211C544A5A
:105AA000554B03F07FFF031E02D0504B00221A60BB
:105AB000524B00221A7009E0504B1B780133DAB2C6
:105AC0004E4B1A7002E0494B00221A60404B1B6893
:105AD000424A934247D93E4B1B68414A934242D8BF
:105AE0003B4B1B68181C06F0D3FC031C0C1C181C39
:105AF000211C0022424B06F0DFF8031C0C1C1D1C6D
:105B0000261C404B1B68181C06F0F4FC031C0C1CE4
:105B1000281C311C1A1C231C05F034FE031C0C1C11
:105B2000181C211C06F03AFD021C80231B065A405B
:105B3000354B1A60344B1B68181C8021C90503F0D3
:105B400057FF031E0BD0304B1B68181CC0210906E1
:105B500003F062FF031E02D02B4B00221A602B4B76
:105B600000221A7005E0294B1B780133DAB2274B6B
:105B70001A70224B1B78142B03D8244B1B78142B40
:105B800010D9234B181CFFF7E5FE1C4B14221A708A
:105B90001E4B14221A701F4B00221A601E4B00224B
:105BA0001A600BE01A4B181CFFF7C4FE0F4B1A6863
:105BB000184B1A60144B1A68174B1A60174B0122C6
:105BC0001A70BD46F8BDC046E0060020140700204C
:105BD000900A0020940A00203D0800203F420F0058
:105BE00080841E0060E33641300800209C0A0020BB
:105BF0009A9999999999B93F9999B9BF980A0020AA
:105C0000C0CD374134080020A00A0020990A0020A6
:105C100064CB0010240A0020200A0020780A00200B
:105C200080B582B000AF314B1B78DBB2012B59D16C
:105C30002F4B181CFFF79EFE031CDAB22D4B1A7077
:105C40002C4B1B78DBB2002B4CD1FFF7C5FE2A4B47
:105C50001B687B60284B00221A607B68502B06D99A
:105C60007B68952B03D8254B00221A700CE07B68CB
:105C7000962B06D97B68D12B03D8204B01221A70B2
:105C800002E01E4B02221A701D4B1B78DBB2002B68
:105C90001CD11A4B1B78DBB2002B1ED1194B1B7881
:105CA000DBB2012B19D1184B1B78DBB20133DAB20E
:105CB000154B1A70144B1B78DBB2052B02D9124B13
:105CC00000221A700E4B0A221A7006E00C4B1B7849
:105CD000DBB2013BDAB20A4B1A70084B1B78DAB21E
:105CE000084B1A70BD4602B080BDC046290800208E
:105CF000FCCA001038080020A40A00203A0800203E
:105D00002B0800203B0800202A08002080B582B024
:105D100000AF1F4B1B78DBB2012B35D11D4B181C7C
:105D2000FFF728FE031CDAB21B4B1A701A4B1B78C4
:105D3000DBB2002B28D1194B1B687B60174B00226C
:105D40001A607B68502B06D97B68952B03D8144BBF
:105D500000221A700CE07B68962B06D97B68D12B49
:105D600003D80F4B01221A7002E00D4B02221A7069
:105D70000B4B1B78DBB2012B03D10A4B01221A70AB
:105D800002E0084B00221A70BD4602B080BDC0463A
:105D9000290800201CCB001039080020A80A002088
:105DA0003C0800203D080020B0B584B000AF78600A
:105DB000464BBB600F23FB1800221A7052E00F23E2
:105DC000FB181C780F23FB181B789B007A68D318EC
:105DD0001B68802212065340181CB96804F054FA5C
:105DE000031C1D1C0F23FB181A78394B5200D35A81
:105DF000181C04F019FD031C281C191C03F0D6FE06
:105E0000031C191C334BA200D1500F23FB181A7826
:105E1000304B9200D358181C2F4903F0FDFD031E90
:105E200006D00F23FB181A782A4B92002A49D1502A
:105E30000F23FB181A78274B9200D358181C2749B8
:105E400003F0D6FD031E06D00F23FB181A78214B52
:105E500092002249D1500F23FB181A780F23FB1808
:105E600001321A700F23FB181B78032BA7D9194B8B
:105E70001B68181C03F04CFE021C194B181C111C4B
:105E8000FCF75AFF134B5B68181C03F041FE021C21
:105E9000144B181C111CFCF74FFF0E4B9B68181C71
:105EA00003F036FE021C104B181C111CFCF744FFBB
:105EB000084BDB68181C03F02BFE021C0B4B181C54
:105EC000111CFCF739FFBD4604B0B0BDB81E253F1C
:105ED00040080020AC0A002000806D440080094486
:105EE000DC05002010060020440600207806002073
:105EF00080B582B000AF78600A1CFB1C1A70FB1CD6
:105F00001B7801229A407B685A60BD4602B080BD72
:105F100080B582B000AF78600A1CFB1C1A70FB1CB5
:105F20001B78802252029A407B685A60BD4602B0BC
:105F300080BDC04680B582B000AF78600A1CFB1CF3
:105F40001A70FB1C1B78034A9A407B685A60BD4656
:105F500002B080BD0100010080B582B000AF786062
:105F60007B681A687B681B7B101C191CFFF7C0FF3D
:105F7000BD4602B080BDC04680B582B000AF78603B
:105F80007B681A687B681B7B101C191CFFF7C0FF1D
:105F9000BD4602B080BDC04680B582B000AF78601B
:105FA0007B681A687B681B7B101C191CFFF7C2FFFB
:105FB000BD4602B080BDC04690B587B000AF041C9E
:105FC000081C111C7B600E23FB18221C1A800C235A
:105FD000FB18021C1A800A23FB180A1C1A800E23C5
:105FE000FB1800229B5E002B1CD0754B00221A7000
:105FF0000E23FB1800229B5E181C04F015FC031CEA
:10600000181C704903F04EFF031C191C6E4B1A68D4
:106010007B68081C111C1A1C00F0C6FC021C6A4B91
:106020001A6005E0664B1B780133DAB2644B1A70D4
:106030000C23FB1800229B5E002B2CD0634B1B68AB
:10604000802212065340181C00F0D0F8031C1A1CC2
:106050005F4B1A705E4B1B78002B22D1584B0022ED
:106060005A700C23FB1800229B5E181C04F0DCFB0A
:10607000031C181C534903F015FF031C191C554B36
:106080001A687B68081C111C1A1C00F08DFC021C8D
:10609000504B1A6005E04A4B5B780133DAB2484B4B
:1060A0005A700A23FB1800229B5E002B29D0474B15
:1060B0005B68181C00F09AF8031C1A1C464B1A70F7
:1060C000454B1B78002B22D13D4B00229A700A23AE
:1060D000FB1800229B5E181C04F0A6FB031C181C76
:1060E000384903F0DFFE031C191C3C4B1A687B681F
:1060F000081C111C1A1C00F057FC021C374B1A60BC
:1061000005E02F4B9B780133DAB22D4B9A701723A1
:10611000FB1800221A7013E01723FB181B78284A7B
:10612000D35C142B05D91723FB181B78244A1421A0
:10613000D1541723FB181A781723FB1801321A7051
:106140001723FB181B78022BE6D91D4B1B78132B4A
:106150000AD8234B00229A601B4B1A68204B5A60C6
:106160001F4B01221A7002E01D4B00221A70144BC3
:106170005B78132B0BD8154B1A681A4B9A60154B8A
:106180001A68184B5A60174B01221A7002E0154B1F
:1061900000221A700A4B9B78132B0BD80B4B5A68B2
:1061A000114B9A600D4B1A680F4B5A600E4B01222F
:1061B0001A7002E00C4B00221A70BD4607B090BD69
:1061C000540800200000C84248080020480A002067
:1061D000BC0A00204C080020BD0A00205008002006
:1061E000F40A0020DC0A0020E80A002080B582B012
:1061F00000AF78607868002103F00EFC031E09D020
:106200007B680F490F4A181C00F06AFB031E01D07F
:10621000012310E07868002103F0EAFB031E09D097
:106220007B680949094A181C00F05AFB031E01D07B
:10623000012300E00023181CBD4602B080BDC0460B
:106240000000524300004842000016C300009BC3F8
:1062500090B583B000AF4F4B1B78002B0BD14E4B4A
:1062600000225A704D4B01225A704D4B02225A7037
:10627000484B01221A704B4B1B78DBB20133DAB268
:10628000484B1A70474B1B78DBB2C82B03D9454BE0
:10629000C8221A707BE0444BFE2292051A60434BE1
:1062A000434A1A60434BFE2292051A603A4B186823
:1062B00059689A6800F090F83B4B1B68181C002145
:1062C00003F090FB031E03D03B4B3C4A1A6012E0E4
:1062D000394B1B68181C002103F09EFB031E0AD0DB
:1062E000354B1B68181CFE21890504F0FFF8031CC0
:1062F0001A1C314B1A602D4B1B68181CFE21890596
:1063000003F076FB031E13D02D4B1B68181C0021D5
:1063100003F068FB031E0BD1244B1A68284B1B6843
:10632000101C191C03F0BEFD031C1A1C1E4B1A6026
:10633000FB1D00221A7016E0FB1D1C78FB1D1A784D
:106340001F4B9200D258184B1B68101C191C03F0ED
:106350009BFF031C191C1B4BA200D150FB1D1A787C
:10636000FB1D01321A70FB1D1B78032BE4D9154B62
:106370001A68154B1A60134B5A68144B1A60114B6C
:106380009A68134B1A600F4BDA68124B1A60BD46BD
:1063900003B090BDD40A0020F40A0020DC0A0020DB
:1063A000E80A002028080020580800205C08002087
:1063B000AE47813F60080020C00A0020CDCC4C3D94
:1063C000280A0020380A0020C40A0020C80A002039
:1063D000CC0A0020D00A0020F0B587B000AF3B1DEA
:1063E000186059609A603B1D1B78002B00D1A4E017
:1063F0003B1D5B68181CFE21890503F0F9FA031E9A
:1064000000D19AE03B1D9C68504B1B68181C5049FA
:1064100003F0CCFB031C1D1C4C4B1B68181C4C4987
:1064200004F064F8031C201C291C1A1C00F058FA04
:10643000031E00D181E0474B181C00F075FA031CC5
:106440007B61786906F056F8031C0C1C181C211C93
:10645000414A424B03F0A6FA031E6ED03B1D5B6817
:10646000181C06F047F8051C0E1C3D4B1B68181C39
:1064700006F040F8031C0C1C181C211C394A3A4B2E
:1064800004F01AFA031C0C1C281C311C1A1C231CB7
:1064900003F074FA031E09D0344B00221A603B1D2E
:1064A0005B78181C012100F067F84CE0786906F071
:1064B00021F8051C0E1C3B1D5B68181C06F01AF821
:1064C000031C0C1C181C211C264A274B05F0F4FB4E
:1064D000031C0C1C281C311C1A1C231C03F062FA20
:1064E000031E2AD03B1D5B68181C06F003F8031C32
:1064F0000C1C181C211C1B4A1B4B05F0DDFB031C4C
:106500000C1C181C211C06F049F8021C184B1A60C0
:10651000184B1A68164B1B68101C191C03F07CFAE8
:10652000031E0AD0124B1A68124B1A603B1D5B788F
:10653000181C022100F020F805E03B1D5B78181CB8
:10654000002100F019F8BD4607B0F0BD8C0A00200C
:1065500000007041840A00207B14AE47E17A843F3A
:10656000C00A00209A9999999999C93F5808002022
:10657000600800205C08002080B582B000AF021CDB
:10658000FB1D1A70BB1D0A1C1A70FB1D1B78002B0B
:106590001ED1BB1D1B78002B04D1384B181CFFF7F4
:1065A000EBFC5AE0BB1D1B78012B04D1334B181CAC
:1065B000FFF7D2FC51E0BB1D1B78022B4DD1304BB5
:1065C0001B78002B49D12D4B181CFFF7E5FC44E04C
:1065D000FB1D1B78012B1ED1BB1D1B78002B04D18A
:1065E000284B181CFFF7C8FC37E0BB1D1B78012B9C
:1065F00004D1244B181CFFF7AFFC2EE0BB1D1B7809
:10660000022B2AD11E4B1B78002B26D11D4B181CA8
:10661000FFF7C2FC21E0FB1D1B78022B1DD1BB1D27
:106620001B78002B04D1184B181CFFF7A5FC14E0B5
:10663000BB1D1B78012B04D1134B181CFFF78CFCDE
:106640000BE0BB1D1B78022B07D10D4B1B78002BD9
:1066500003D10D4B181CFFF79FFC094B1B7801332E
:10666000DAB2074B1A70064B1B78082B02D9044B81
:1066700000221A70BD4602B080BDC046D4CB0010C7
:10668000D50A0020E4CB0010F4CB001080B582B016
:1066900000AF78600A1CFB1C1A70FB1C1B780122DF
:1066A0009A407B685A60BD4602B080BD80B582B01A
:1066B00000AF78600A1CFB1C1A70FB1C1B78802240
:1066C00052029A407B685A60BD4602B080BDC04607
:1066D00080B582B000AF78607B681A687B681B7BEE
:1066E000101C191CFFF7D2FFBD4602B080BDC0468A
:1066F00080B582B000AF78607B681A687B681B7BCE
:10670000101C191CFFF7D2FFBD4602B080BDC04669
:1067100080B500AF034B034A526801210A435A6017
:10672000BD4680BD0000024080B500AF024B012293
:10673000DA61BD4680BDC0460000024080B500AFB2
:10674000FFF7E6FFBD4680BD80B500AFFFF7ECFF69
:10675000BD4680BD90B583B000AFFC1DFDF708FCC1
:10676000031C2370FB1D1B78002B00D0FEE7094B98
:10677000181CFDF751FB031C1A1C074B1A70064B23
:106780001B78002B02D1054B01221A60FFF7D6FFC0
:10679000FEE7C046D8CC0010000B0020D80A00202D
:1067A00080B500AFFFF7D0FF024B181CFFF790FF3A
:1067B000BD4680BDB4CB001080B582B000AF3C4B6D
:1067C000181CFFF785FF3B4B1B78DBB2181CFFF74B
:1067D0003BF8394B1B78DBB2012B07D1374B1B68D9
:1067E000092B03D9364B181CFFF782FF354B1B785A
:1067F000DBB2012B0FD1344B1968344B1A682D4B87
:106800001B78DBB2081C111C1A1CFEF707F82B4B77
:1068100000221A6023E0294B1B685A1C274B1A6080
:10682000264B1B680A2B1AD9244B0A221A60284BC4
:1068300000221A60264B00225A60254B00229A60E3
:10684000234B0022DA60234B00221A60214B0022E6
:106850005A60204B00229A601E4B0022DA601C4BCB
:10686000181CFFF7A1FAFEF737FFFFF7F1FC194BF1
:10687000181CFDF773FD184B1B78DBB2012B10D1F0
:10688000154B00221A703A1D144B111C1A1C0423BC
:10689000081C111C1A1C06F0EFF83B1D181CFDF714
:1068A00023FD034B181CFFF723FFBD4602B080BD3C
:1068B00074CB00102A080020290800207C0A002040
:1068C00064CB0010780A0020200A0020240A00204F
:1068D000480A0020280A0020800A0020B0CD0010BD
:1068E00090B585B000AFF860B9607A60F8687968F3
:1068F00003F0FCFD031C1C1CF868B96803F0F6FDEE
:10690000031C201C191C03F0BFFC031C181C0021D5
:1069100003F078F8031E01D0012300E00023181CC7
:10692000BD4605B090BDC046F0B583B000AF7860FD
:106930007B681B68181C05F0DDFD0A1C011C002388
:106940008024E405081C111C1A1C231C00F0EEFA1C
:10695000051C0E1C7B6804331B68181C05F0CAFD5F
:106960000A1C011C00238024E405081C111C1A1CAD
:10697000231C00F0DBFA031C0C1C281C311C1A1C05
:10698000231C03F099FF031C0C1C181C211C00F095
:106990007BFC031C0C1C181C211C05F0FFFD031CB8
:1069A000181CBD4603B0F0BD90B585B000AFF860CF
:1069B000B9607A60F868796803F066FC031C1C1CF7
:1069C000FE208005796803F091FD031C181CB9684E
:1069D00003F05AFC031C201C191C03F0E7F8031CED
:1069E000181CBD4605B090BD80B584B000AF78607E
:1069F00039600023FB600023BB600DE0BB689B0097
:106A00007A68D3181B68F868191C03F0CFF8031CC8
:106A1000FB60BB680133BB60BA683B689A42EDDB40
:106A2000386803F001FF031CF868191C03F03AFAF8
:106A3000031C181CBD4604B080BDC046F8B55646C0
:106A40004D4644465F46A54BF0B44E00804689460D
:106A50008A4676089E420CDDA14B9E4200DDA0E0F6
:106A600000D19BE05346002B00DCDEE09D4B9E4AAC
:106A70009FE09E4B9E4200DDB1E09D4B9E4200DCBC
:106A80009FE001235B429B4642464B4640464946B7
:106A900004F078FE061C0F1C321C3B1C04F072FE36
:106AA000041C0D1C934A944B04F06CFE934A944BC7
:106AB00003F002FF221C2B1C04F064FE914A924B4F
:106AC00003F0FAFE221C2B1C04F05CFE8F4A904B54
:106AD00003F0F2FE221C2B1C04F054FE8D4A8E4B58
