:020000041000EA
:10100000500500201D100010000000009D10001071
:101010000018040000010000000000801149124A7D
:10102000124B00F018F8124880471249124A134B2D
:1010300000F011F81249134A134B00F00CF8134951
:10104000134A0020521A02DD043A8850FCDC114891
:101050008047114880479B1A03DD043BC858D05095
:10106000FBDC704768B700100C0000205001002026
:10107000A1100010ACB80010500500207808002026
:10108000D4BB0010780800207808002078080020E1
:10109000900A0020A1B0001045430010FEE70000B8
:1010A00080B500AF02F092F902F0DEF9BD4680BDD6
:1010B00080B500AF2A4B1A68FF231B0213401A0A9F
:1010C000284B1A60274B1B68002B37D0244B1B681A
:1010D000FF221A40244B1A60214BDB690322134084
:1010E0001A02214B1B681A431F4B1A601C4BDA690A
:1010F00080239B0013400ED11A4B1B689A021A4B97
:101100001B68D3181948191C01F086FA031C1A0130
:10111000174B1A6021E000F02FF8031C9901114BC6
:101120001B689A02104B1B68D318081C191C01F08D
:1011300073FA031C1A010E4B1A600EE0084BDA69B1
:1011400080239B00134003D1094B0A4A1A6004E034
:1011500000F012F8021C064B1A60BD4680BDC04666
:1011600000030140780800207C08002000001BB725
:10117000FC3F0020006CDC0280B500AF014B181C66
:10118000BD4680BD002D310180B582B000AF7860D2
:10119000BD4602B080BDC04690B585B000AFF860D6
:1011A0007A600B23FB180A1C1A700B23FB181B78A0
:1011B0009B08DBB2181C0B23FB181B789B08DBB2C7
:1011C0001A1CFB6804329200D3580B22BA1812780A
:1011D00003210A40D200111CFC228A40D2431A404B
:1011E000111CFB68021D9200D150FB685B6F0B2243
:1011F000BA1812785200111C03228A40D2431A40B6
:10120000FB685A670B23FB181B78DB08DBB2181C42
:101210000B23FB181B78DB08DBB21A1CFB681032AF
:101220009200D3580B22BA18127807210A40920074
:10123000111C04228A40D2431A40111CFB68021C74
:1012400010329200D1500B23FB181B78DB08DBB265
:10125000181C0B23FB181B78DB08DBB21A1CFB687D
:1012600010329200D2587B685B781C1C0B23FB1851
:101270001B7807210B409B009C40231C1A43111C28
:10128000FB68021C10329200D150FB68204A934246
:101290000BD1FB681B6E0B22BA181278012191400A
:1012A0000A1CD2431A40FB681A667B681B78DBB2C3
:1012B0005BB2002B07DA7B685A680B23FB181B789C
:1012C0009A40FB685A600B23FB181B789B08DBB223
:1012D000181C0B23FB181B789B08DBB21A1CFB683D
:1012E00004329200D2587B681B781C1C0B23FB181D
:1012F0001B7803210B40DB009C40231C1A43111C6C
:10130000FB68021D9200D150BD4605B090BDC0469D
:1013100000020440B0B582B000AF38607960094B7C
:10132000084A51683A680A435A60064B054A526AAD
:1013300079680C0000210D1C211C0A435A62BD462D
:1013400002B0B0BD38000140B0B582B000AF0E4B66
:101350001B683B6000237B600B4B1B6A1C1C00233B
:101360001D1C22000023191C0B1C141C3A681A4374
:101370003A607A682243131C7B603B687C68181CC7
:10138000211CBD4602B0B0BD38000140B0B582B0EE
:1013900000AF38607960094B084A91683A680A439F
:1013A0009A60064B054A926A79680C0000210D1C70
:1013B000211C0A439A62BD4602B0B0BD380001400C
:1013C00080B500AF024BC3225A62BD4680BDC04605
:1013D0000000014080B500AF054BC0225A62C046F4
:1013E000034B5B6A04221340FAD1BD4680BDC04660
:1013F0000000014080B586B000AF7860FFF7EAFFDB
:101400007B689B79302B53D0FFF7B6FE021E494B09
:101410009A4209D9484A48499023CB5A9BB2402165
:101420000B4399B29023D152434A43499023CB5A5C
:101430009BB29BB2191C322399430B1C99B27B6857
:101440009B799BB20B439BB299B29023D1523B4BF9
:1014500002229A623A4B3A4A52693A490A405A6120
:10146000394B7B6100E0C0467B69013B7B617B6956
:10147000002BF8D1324B324A5269C02189040A4309
:101480005A61C0462E4B5A6980235B041340F9D140
:101490002E4B3B6100E0C0463B69013B3B613B6931
:1014A000002BF8D1254B1B6A02221340CFD109E053
:1014B000214A21499023CB5A9BB230210B4399B248
:1014C0009023D1521C4A7B68DB7999B28C23D1528C
:1014D0007B68DB79002B09D11D4BFB6000E0C04627
:1014E000FB68013BFB60FB68002BF8D1144B144AEE
:1014F000D26918490A40796889880A43DA61104A32
:101500000F4B1B68144919407B68DB6819437B68E3
:101510009B680B431360FFF753FF7B689B781A1C93
:101520007B681B88101C191C00F032F8BD4606B001
:1015300080BDC046002D310100100140380001403F
:1015400000030140FFFFFFFD1A0200007D0A0000BA
:10155000A02E6300FFFDFFFFFFFFF0FF80B582B00C
:1015600000AF7860FFF736FF084B084A11697A68C8
:101570000A431A61C046054B1A688023DB051340F5
:10158000F9D1FFF71DFFBD4602B080BD0003014049
:1015900080B584B000AF78603960FFF71BFF274B40
:1015A0001A68FF231B0213401B0AFB60234B234ACC
:1015B000D26903218A43111C3A68120A0A43DA618C
:1015C0001E4B1E4A12681E4911403A68FF20024015
:1015D0000A431C490A431A60C046184B1A68802304
:1015E000DB051340F9D1FA687B689A4206D8FA689D
:1015F0007B68101C191C00F053F805E0FA687B6842
:10160000101C191C00F022F80C4B0C4A12680E49F1
:1016100011407A6812020A430A490A431A60C04616
:10162000064B1A688023DB051340F9D1FFF7C8FE8B
:10163000FFF73EFDBD4604B080BDC046000301403B
:1016400000FF0FC00000F03FFF000FC080B582B068
:1016500000AF7860396014E07B689B087B600D4BBD
:101660000C4A12680C4911407A6812020A430B496D
:101670000A431A60C046074B1A688023DB051340F3
:10168000F9D13B689A007B689A42E5D3BD4602B027
:1016900080BDC04600030140FF000FC00000F03FC6
:1016A00080B582B000AF7860396019E07B68002BAC
:1016B00001D101237B607B689B007B600C4B0C4A53
:1016C00012680C4911407A6812020A430A490A4317
:1016D0001A60C046064B1A688023DB051340F9D117
:1016E0007B689A003B689A42E0D3BD4602B080BD59
:1016F00000030140FF000FC00000F03F80B500AFC5
:10170000024B1B68181CBD4680BDC046FC3F002034
:10171000F0B587B000AFB860F9607A6000227A61F6
:1017200002E07A6901327A617A69111C2039002954
:1017300003DBF868C840031C08E02021891AF86818
:101740008840011CB868D040031C0B43F968D140A5
:101750000C1C01221A40151C00222240161C2A1CB7
:10176000324302D17A693F2ADBD97B69402B04D10D
:101770001323FB1801221A7008E0084B7A699200C3
:101780007968D1501323FB1800221A701323FB1819
:101790001B78181CBD4607B0F0BDC046800800206D
:1017A000F0B58FB000AFF86100237B63FFF7CCFD8D
:1017B000384AFB69DB00D3181A685B68161C0640C0
:1017C000BE620B40FB62BA6AFB6A101C191CFFF771
:1017D000DDFD55E07B6B1A1C203A002A03DBF96A19
:1017E000D1400C1C08E02022D21AF96A91400A1C50
:1017F000B96AD9400C1C1443FA6ADA40151C01235B
:101800002340BB6000232B40FB60B968FA680B1CC7
:10181000134332D07B6B1A1C203A002A03DB0121D0
:10182000914079610AE02022D21A0121D1400A1C9C
:1018300000219940796179691143796101229A40C7
:101840003A6139697A690B1CDB433B60131CDB434B
:101850007B60BB6A38687968021C1340BB62FB6A14
:101860000A1C1340FB620C4B7A6B9200D3587B62CC
:101870007B6A002B01D07B6A98477B6B01337B63CB
:10188000BB6AFA6A134302D07B6B3F2BA2D9BD46D9
:101890000FB0F0BD500500208008002080B582B058
:1018A00000AF021CFB1D1A703B1D0A1C1A803B1D59
:1018B0003A1D128803210A401A80FB1D1B780F2B4A
:1018C00013D8184B174AD26EF91D09784900081C25
:1018D00003218140C9430A40391D0988F81D007859
:1018E000400081400A43DA6618E0FB1DFA1D1278B9
:1018F0000F210A401A700B4B0A4A126FF91D097822
:101900004900081C03218140C9430A40391D098848
:10191000F81D0078400081400A431A67BD4602B0B6
:1019200080BDC0460000014080B582B000AF786045
:101930007A68E2235B00D258C0239B0013405A42CE
:101940005341DBB2181CBD4602B080BD90B583B0D8
:1019500000AF78600C1C101C191CFB1C221C1A7098
:10196000BB1C021C1A707B1C0A1C1A70FB1C1A7808
:10197000BB1C1B781904FF231B040B401A437B1C60
:101980001B781B061A43111C7A68E2235B00D150B6
:10199000BD4603B090BDC04680B582B000AF786050
:1019A0007B681B6840221A437B681A60BD4602B000
:1019B00080BDC04680B582B000AF78607B681B6890
:1019C000402293431A1C7B681A60BD4602B080BD5A
:1019D00080B582B000AF786039607A683B68934226
:1019E00000D2131C181CBD4602B080BD80B582B069
:1019F00000AF786039607A683B68934200D9131C65
:101A0000181CBD4602B080BD80B588B000AF7860BC
:101A100039603B681A683B685B68101C191C00F051
:101A20004BFE0B1E00D096E00023FB610023BB6140
:101A30003B681A683B685B68101C191C00F0ECFDE1
:101A4000031CBB6019237B6100233B610023FB6007
:101A500049E0BB68181C796900F02EFE0B1E3FD1CF
:101A60000023BB61B868796900F0D6FD031CFB61F7
:101A7000FB69002B34D0FA6980239B009A422FD84F
:101A8000FB693F2B09D9FB690722134003D07B690F
:101A9000013B7B6127E00123BB617B69013B3A6825
:101AA00012895343181C2E4900F0B6FD031C3B61FC
:101AB0007A693B69D31A013BFB603B69022B0FD962
:101AC0003B690F2B0CD8FB68012B09D9FB68062B4F
:101AD00006D83B685B891A1EFB689A4200D805E06D
:101AE0007B69013B7B617B69072BB2D87B69072B44
:101AF00031D97B68181CFFF74FFFFB68013B1A03C5
:101B0000E023DB011A403B685B89013B9B01FF211D
:101B10000B401A433B69013B1902F0231B010B40A8
:101B20001A43111CBA69131C5B009B181A1CFB6931
:101B3000D340013B3F2213400A1C1A43BB69DB031D
:101B40001B041B0C1A437B681A617B68181CFFF787
:101B500031FF002300E00123181CBD4608B080BD02
:101B60001027000090B583B000AF7860081C111CEE
:101B7000FB1C021C1A70BB1C0A1C1A70C0467B6836
:101B8000181CFFF7D1FE031C1A1C01235340DBB2C3
:101B9000002BF4D1FB1C1B780133DCB27A68BB1C30
:101BA0001B78101C02211A1C231CFFF7CFFEBD4618
:101BB00003B090BD80B582B000AF786080239B03F6
:101BC000181CFFF7CBFC7B681B68012293431A1C8F
:101BD0007B681A60C0467B681B6802221340FAD1FA
:101BE000BD4602B080BDC04680B582B000AF78600F
:101BF0000A1CFB1C1A707A68E4235B00D3580F227E
:101C000093431A1CFB1C1B781A43111C7A68E423AB
:101C10005B00D150BD4602B080BDC04680B582B0E9
:101C200000AF78607A68E4235B00D358DBB20F2200
:101C30001340DBB2181CBD4602B080BD80B584B035
:101C400000AF78600023FB607B68181CFFF7E6FF9D
:101C5000031E012B02D0022B05D009E0FFF74EFD39
:101C6000031CFB6004E0FFF787FA031CFB60C0461F
:101C7000FB68181CBD4604B080BDC04680B588B066
:101C800000AFF8607A600B23FB180A1C1A70FB681F
:101C9000181CFFF78FFFFA680B23FB181B78101C2A
:101CA000191CFFF7A1FFFB68181CFFF7C7FF031CF7
:101CB000FB61F869796800F0AFFC031C1A1C8023F3
:101CC000DB009B1A0020191CFFF782FE021C124B3E
:101CD000101C191CFFF78AFE031CBB61BB69802224
:101CE000D200D31AF869191C00F096FC031C7B6122
:101CF000FB68DB68094A1A40FB68DA60FB68DA684F
:101D0000BB6913438022D2011A43FB68DA607B6906
:101D1000181CBD4608B080BDFF030000003CFFFF5B
:101D200080B586B000AF78607B681B68484A9446EF
:101D300063445B097B617B695B095A037B691F21F3
:101D40000B401B0213433B617B681B687A68126877
:101D5000926840490A409A607B681B687A681268FA
:101D600091683A690A439A607B68DB7920221340C4
:101D7000DBB2002B07D07B68DB7920221340DBB27B
:101D8000002B00D161E07B681B7E002B04D07B68B8
:101D90001B7E012B00D058E07B681B682022DA6193
:101DA0007B68DB7920221340DBB2002B28D17B68D3
:101DB0005B68FB60FB685B0F5B07FB607B685B68D5
:101DC000DB00DB089B041A1CFB681343FB607B6889
:101DD0001B68FA689A617B689B68FB60FB685B0F15
:101DE0005B07FB607B689B68DB00DB089B041A1CBD
:101DF000FB681343FB607B681B68FA68DA6009E0E4
:101E00007B681B687A6852689A617B681B687A688D
:101E10009268DA607B681B7E012B0DD17B68181CF1
:101E200000F01EF87B681B6880221205DA617B686F
:101E30001B68094ADA6108E07B681B68802212018E
:101E4000DA617B681B68054ADA61BD4606B080BD71
:101E500000F0FBAFFF00FFFFC00020064006A0001F
:101E600080B584B000AF78600F23FB1803221A708E
:101E70007B681B7E012B25D17B681B682022DA61E1
:101E80007B681B687A6812681268144911407A6886
:101E9000127B1006F022120502400A431A607B688A
:101EA0001B687A6812691A617B681B687A685269D4
:101EB0005A617B681B680A4ADA610F23FB1800220B
:101EC0001A7003E00F23FB1803221A700F23FB186C
:101ED0001B78181CBD4604B080BDC046FFFFFFF054
:101EE0004000280080B586B000AF78601723FB184B
:101EF00001221A707B681B68DB69202213405B0992
:101F00003B617B681B68DA6980235B0013401B0A16
:101F1000FB603B69002B04D11723FB1804221A70C5
:101F200010E0FB68012B04D11723FB1802221A7062
:101F300008E07B681B68E022D204DA611723FB18F3
:101F400000221A701723FB181B78181CBD4606B018
:101F500080BDC04680B586B000AF78601723FB18FF
:101F600001221A701623FB1800221A701523FB1881
:101F700000221A707B681B68DA6980231B011340FA
:101F8000DB0A3B617B681B68DB69042213409B080A
:101F9000FB603B69002B04D01723FB1803221A7047
:101FA000D3E0FB68012B04D11723FB1802221A701F
:101FB000CBE07B681B680822DA617B681B689A6942
:101FC00080239B0513405B0F51D17B68DA79202178
:101FD0008A43DA717B681B689B695F4A13409B0CDC
:101FE000DB00DA087B68D200D2085968490F49073C
:101FF0000A435A607B681B68DA6880239B0513409C
:102000005B0FDBB21A1C01231340DAB27B6801219B
:102010000A405001DA7A20218A43111C021C0A432B
:10202000DA727B68DB7A20221340DBB2002B10D0FF
:102030007B681B68DB68484A13409B0CDB00DA08AE
:102040007B68D200D2089968490F49070A439A6011
:1020500043E07B681B68DB68DB00DA087B68D20042
:10206000D2089968490F49070A439A6035E07B68AE
:10207000DA7920210A43DA717B681B689B69DB00EF
:10208000DA087B68D200D2085968490F49070A4329
:102090005A607B681B68DB68DB00DA087B68D2006B
:1020A000D2089968490F49070A439A607B681B6800
:1020B000DA6880239B0513405B0FDBB21A1C0123F7
:1020C0001340DAB27B6801210A405001DA7A2021FC
:1020D0008A43111C021C0A43DA727B681B681A6867
:1020E000F0231B0513401B0EDAB27B681A737B6862
:1020F0001B681A697B681A617B681B685A697B6870
:102100005A617B681B68DB69042213409A08162316
:10211000FB181A707B681B68DB6908221340DA0819
:102120001523FB181A701623FB181B78002B05D0FB
:102130001523FB181B78002B00D03AE77B680022A0
:102140001A761723FB1800221A701723FB181B7826
:10215000181CBD4606B080BD0000FC1F80B582B0D3
:1021600000AF786039603A688023DB039A4206D07A
:102170007B681A683B681A437B681A6005E07B68D5
:102180009A693B681A437B689A61BD4602B080BD7C
:1021900080B582B000AF78607B6880225200DA6040
:1021A000BD4602B080BDC04680B582B000AF786049
:1021B0007B68094A934203D10420FFF7CFF908E076
:1021C0007B68064A934204D180239B02181CFFF7C8
:1021D000C5F9BD4602B080BD000004480040044877
:1021E00080B582B000AF78607B68181CFFF7DCFF19
:1021F000BD4602B080BDC04680B584B000AF7860F7
:102200000A1CFB1C1A707B68181CFFF7E9FF7B682F
:10221000181CFFF7BDFF7B681B68FB60FB68074A63
:102220001340FB60FB1C1B789B03FA681343FB60A5
:102230007B68FA681A60BD4604B080BDFF3FFFFFAF
:1022400080B582B000AF786039603B681A687B68FF
:102250005A613B685B799B06DB0FDBB21A057B6832
:102260005A603B681B791B071B0FDBB21A1C7B688B
:102270005A623B685B791B071B0FDBB21A1C7B6839
:102280001A623B685B79DB06DB0FDBB21A1C7B68EA
:102290009A613B681B791B061B0FDBB21A1C7B681B
:1022A000DA62BD4602B080BD80B582B000AF786012
:1022B00039603B681A687B685A613B685B79DB0769
:1022C000DB0FDBB21A057B685A603B681B791B0782
:1022D0001B0FDBB21A1C7B685A623B681B791B061A
:1022E0001B0FDBB21A1C7B68DA62BD4602B080BDF0
:1022F00080B584B000AF78600A1CFB1C1A707B6844
:102300005B68FB60FB6830229343FB60FB1C1B781F
:102310001B01FA681343FB607B68FA685A60BD468C
:1023200004B080BD80B584B000AF78600A1CFB1C8F
:102330001A707B685B68FB60FB68C0229343FB609C
:10234000FB1C1B789B01FA681343FB607B68FA68EF
:102350005A60BD4604B080BD80B588B000AFF8605B
:102360007A600B23FB180A1C1A701F23FB180B2220
:10237000BA181278013A1A70FB681B68BB61172300
:10238000FB181F22BA18127892001A701723FB1834
:102390001B7803229A40131CDA43BB691340BB61CC
:1023A0007B685B781A1C1723FB181B789A40131C58
:1023B000BA691343BB611F23FB181B789B00DAB279
:1023C0001723FB1802321A701723FB181B780122FF
:1023D0009A40131CDA43BB691340BB617B689B784E
:1023E0001A1C1723FB181B789A40131CBA69134355
:1023F000BB611F23FB181B789B00DAB21723FB1865
:1024000010321A701723FB181B7803229A40131CF2
:10241000DA43BB691340BB617B68DB781A1C172366
:10242000FB181B789A40131CBA691343BB61FB6805
:10243000BA691A60FB68D8229B58BB611723FB1846
:102440001F22BA181278D2001A701723FB181B78B3
:102450003F229A40131CDA43BB691340BB617B687F
:102460001B781A1C1723FB181B789A40131CBA6997
:102470001343BB61FB68D821BA695A50BD4608B006
:1024800080BDC04680B586B000AF7860081C111CC6
:10249000FB1C021C1A70BB1C0A1C1A70FB1C1B784C
:1024A0000B2B20D89A00204BD3181B689F46032380
:1024B0003B6100237B611BE00C233B6102237B61BA
:1024C00016E0C0239B003B6108237B6110E0C02322
:1024D0001B013B610A237B610AE0C0239B013B6136
:1024E0000C237B6104E000233B6100237B61C04639
:1024F0003B69002B14D07B68A8229B58FB603B698A
:10250000DA43FB681340FB60BB1C1A787B699A4076
:10251000131CFA681343FB607B68A821FA685A50C1
:10252000BD4606B080BDC04600B1001080B584B085
:1025300000AFF8607A600B23FB180A1C1A70FB6866
:10254000181CFEF721FEFB681B680B22BA181278D4
:102550009200111C0F228A40D2431A407B681B68EC
:102560000B217918097889008B401A43FB681A609F
:102570000B23FB181A787B685968FB6804329200B9
:10258000D150BD4604B080BD90B583B000AF786037
:10259000081C111CFB1C021C1A70BB1C0A1C1A70A4
:1025A000FB1C1A78BB1C1B7803210B40D9B27B683B
:1025B00008329200032001400901D0583024A04382
:1025C0000143D150BD4603B090BDC04680B582B036
:1025D00000AF7860081C111CFB1C021C1A70BB1C8D
:1025E0000A1C1A707B685B6FFA1C12785200111C6F
:1025F00003228A40D2431A407B685A677B685A6F2D
:10260000BB1C1B78F91C097849008B401A437B6876
:102610005A67BD4602B080BD80B588B000AF786013
:102620003960EFF310837B617B693B6172B63B6974
:10263000FB610C4B04225A630A4B7A681A62094BFD
:102640003A685A62074B9B6ABB61FB69FB60FB6897
:10265000BB60BB6883F31088BB69181CBD4608B01B
:1026600080BDC0460000034080B588B000AF7860F0
:102670003960EFF310837B617B693B6172B63B6924
:10268000FB610C4B00225A630A4B7A681A62094BB1
:102690003A685A62074B9B6ABB61FB69FB60FB6847
:1026A000BB60BB6883F31088BB69181CBD4608B0CB
:1026B00080BDC04600000340F0B58DB000AF78602B
:1026C0003960EFF310827A617A693A6172B63A69D9
:1026D000FA62154A04215163134A79681162124A59
:1026E00039685162104AD26A3A6200227A620E4A0E
:1026F000926ABA610022FA61FA6AFA60FA68BA600C
:10270000BA6882F310883A6A14000022131CBA696E
:102710001A43151CFA692243161C2B1C341C181C66
:10272000211CBD460DB0F0BD0000034080B500AFD8
:1027300080239B00181CFEF711FFBD4680BDC046DC
:1027400080B582B000AF7860FFF7F0FF074A7B6882
:102750009B685360054A7B685B681361034A7B682A
:102760001B685361BD4602B080BDC04600000240F8
:1027700080B500AFBD4680BD90B585B000AF786034
:102780000F23FB1800221A707B681B7B0122534029
:10279000DBB2002B14D00F23FC187B68181C00F050
:1027A00017F8031C23700F23FB181B78012B07D08D
:1027B0007B681B68181CFFF7C3FF7B6801221A7334
:1027C0000F23FB181B78181CBD4605B090BDC046F2
:1027D00090B585B000AF78600F23FB1800221A7007
:1027E0007B685B680F22BC18181C00F0EFFC031C10
:1027F00023707B689B68002B14D00F23FB181B7879
:10280000012B0FD001200021FEF784FD7B689B681F
:102810000F22BC18012000211A1C00F04BFD031CE4
:10282000237003E00F23FB1801221A700F23FB18FB
:102830001B78181CBD4605B090BDC04680B582B05F
:1028400000AF78600A1CFB1C1A70FB1C1B7801226D
:102850009A407B68DA60BD4602B080BD80B582B028
:1028600000AF78607B680122DA60BD4602B080BDAF
:1028700080B582B000AF78607B6802221A61BD46E5
:1028800002B080BD80B582B000AF78600A1CBB1C6E
:102890001A80BB1C1A887B685A63BD4602B080BD93
:1028A00080B582B000AF78600A1CBB1C1A80BB1CCC
:1028B0001A887B68DA63BD4602B080BD80B582B0FD
:1028C00000AF786039607B683A681A61BD4602B033
:1028D00080BDC04680B582B000AF78600A1CFB1C8A
:1028E0001A707B68A4229A58FB1C1B78012199401E
:1028F0000B1C1A437B68A4215A50BD4602B080BD10
:1029000090B585B000AF78600F23FB1800221A70D5
:102910007B6826229B5C01225340DBB2002B0CD04B
:102920007B6821229B5C002B07D10F23FC187B685E
:10293000181C00F009F8031C23700F23FB181B78E8
:10294000181CBD4605B090BD90B585B000AF78604D
:102950007B681B690F22BC18181C00F0CFFC031CFD
:1029600023707B681B699A687B681B7E101C191C8E
:10297000FFF764FF7B685A697B68DB69101C191CD0
:10298000FFF75EFC7B68181C00F030F87B6825229E
:102990009B5C002B0FD07B6859697B6820229B5C75
:1029A000081C00211A1CFFF76DFD7B685B69181C71
:1029B0000021FFF78FFF7B685B69181CFFF758FF4A
:1029C0007B682622012199547B6824229B5C002B82
:1029D00004D07B685B69181CFFF740FF0F23FB18CE
:1029E0001B78181CBD4605B090BDC04680B582B0AE
:1029F00000AF78607B685A697B685B8C101C191C7F
:102A0000FFF740FF7B685B69181C0021FFF748FF58
:102A10007B681B699A687B68DB68101C191CFFF7D0
:102A20004DFFBD4602B080BD80B582B000AF78607A
:102A30000A1CFB1C1A70FB1C1B7801229A407B6845
:102A4000DA60BD4602B080BD80B582B000AF78606C
:102A50007B680122DA60BD4602B080BD80B582B0DD
:102A600000AF78600A1CBB1C1A80BB1C1A887B68EC
:102A70005A63BD4602B080BD80B582B000AF7860B9
:102A80000A1CBB1C1A80BB1C1A887B68DA63BD4613
:102A900002B080BD80B582B000AF786039607B68DD
:102AA0003A681A61BD4602B080BDC04680B582B0AA
:102AB00000AF78600A1CFB1C1A707B68A4229A582D
:102AC000FB1C1B78012199400B1C1A437B68A42135
:102AD0005A50BD4602B080BD90B585B000AF786059
:102AE0000F23FB1801221A707B6829229B5C022BA2
:102AF00055D17B681B680F22BC18181C00F0FEFB28
:102B0000031C23700F23FB181B78002B43D17B6819
:102B10009A687B68DB68101C191CFFF791FB7B68C7
:102B20009A687B68DB699BB2101C191CFFF796FF43
:102B30007B689A687B689B699BB2101C191CFFF725
:102B40009BFF7B685A687B685B6A101C191CFFF747
:102B5000A1FF7B68181C00F029F87B6819697B6865
:102B60002C229A5C7B685B69081C111C1A1CFEF7FE
:102B700013FB7B682922002199547B682F229B5CE0
:102B8000002B03D07B68181C00F0C6F80F23FB183D
:102B900000221A7003E07B682922022199540F2336
:102BA000FB181B78181CBD4605B090BD80B582B0DF
:102BB00000AF78607B6830229B5C002B0FD07B6875
:102BC0009B68181C0021FFF771FF7B6899687B6880
:102BD0002A229B5C081C00211A1CFFF753FC7B680F
:102BE00031229B5C002B0FD07B689B68181C022154
:102BF000FFF75CFF7B6899687B682B229B5C081C55
:102C000002211A1CFFF73EFCBD4602B080BDC04643
:102C100080B582B000AF78607B6829229B5C002B76
:102C200004D07B6829229B5C042B11D17B685968F6
:102C30007B682E229B5C081C191CFFF7F5FE7B6845
:102C40009B68181CFFF700FF7B6829220321995419
:102C5000BD4602B080BDC04680B586B000AF78608A
:102C600039601723FB1801221A707B6829229B5CAC
:102C7000022B2CD03B68194A934228D87B68DB6929
:102C800001333B613B68154AD31A3A695343181C18
:102C90001249FFF7C1FC031CFB607B68FA689A616C
:102CA0007B683A681A627B689A68FB689BB2101C62
:102CB000191CFFF7E1FE7B685A687B685B6A101C91
:102CC000191CFFF7E7FE1723FB1800221A701723C1
:102CD000FB181B78181CBD4606B080BD10270000ED
:102CE00090B585B000AF78600F23FB1801221A70F1
:102CF0007B6828229B5C002B07D10F23FC187B6884
:102D0000181CFFF7E9FE031C23700F23FB181B7828
:102D1000181CBD4605B090BD80B582B000AF78608C
:102D20007B6828229B5C002B03D17B68181CFFF773
:102D30006FFFBD4602B080BD90B585B000AF786032
:102D400039600F23FB1801221A707B6828229B5CD4
:102D5000002B09D10F23FC187A683B68101C191C42
:102D6000FFF77AFF031C23700F23FB181B78181C36
:102D7000BD4605B090BDC04680B582B000AF021C14
:102D8000FB1D1A70FB1D1B787F2B09D8064BFA1D03
:102D90001278111C1F220A40012191400A1C1A605E
:102DA000BD4602B080BDC04600E100E080B582B003
:102DB00000AF021CFB1D1A70FB1D1B787F2B0AD86D
:102DC0000649FB1D1B781A1C1F23134001229A4041
:102DD000C0235B00CA50BD4602B080BD00E100E0E8
:102DE000B0B582B000AF021C3960FB1D1A70FB1D2C
:102DF0001B787F2B27D82D4CFB1D1B785BB29B08C3
:102E00002A49FA1D127852B29208C03292005258E2
:102E1000F91D0978081C03210140C900081CFF2185
:102E20008140C94311403A689201FF200240F81DD9
:102E30000078051C03202840C00082400A43C033AC
:102E40009B001A512EE01A4CFB1D1B781A1C0F23F5
:102E50001340083B9908164AFB1D1B78181C0F23CA
:102E60000340083B9B0806339B00D3185B68FA1DA0
:102E70001278101C03220240D200101CFF22824054
:102E8000D2431A403B689B01FF200340F81D0078A5
:102E9000051C03202840C00083401A438B1D9B0063
:102EA000E3185A60BD4602B0B0BDC04600E100E084
:102EB00000ED00E080B582B000AF78607B685968B3
:102EC0007B689A7F7B680833081C111C1A1CFEF76C
:102ED00063F97B6819687B681A7F7B681033081C6C
:102EE000111C1A1CFFF722FB7B681A687B685B7F4A
:102EF000101C191C0122FFF747FB7B689A7E7B6838
:102F0000DB7E191C53B2181CFFF76AFF7B689B7E9F
:102F1000DAB27B681B8B101C191CFEF7BFFC7B68A8
:102F2000DB7F002B0BD07B689B7E5BB2181CFFF70E
:102F30003DFF7B689B7E5BB2181CFFF71DFF0023E3
:102F4000181CBD4602B080BD80B582B000AF021C27
:102F5000FB1D1A70FB1D1B787F2B09D8064BFA1D31
:102F60001278111C1F220A40012191400A1C1A608C
:102F7000BD4602B080BDC04600E100E0B0B582B001
:102F800000AF021C3960FB1D1A70FB1D1B787F2BE4
:102F900027D82D4CFB1D1B785BB29B082A49FA1DD4
:102FA000127852B29208C03292005258F91D097834
:102FB000081C03210140C900081CFF218140C943AE
:102FC00011403A689201FF200240F81D0078051C6C
:102FD00003202840C00082400A43C0339B001A519E
:102FE0002EE01A4CFB1D1B781A1C0F231340083BC4
:102FF0009908164AFB1D1B78181C0F230340083B39
:103000009B0806339B00D3185B68FA1D1278101CCE
:1030100003220240D200101CFF228240D2431A40F9
:103020003B689B01FF200340F81D0078051C03202E
:103030002840C00083401A438B1D9B00E3185A6050
:10304000BD4602B0B0BDC04600E100E000ED00E0CA
:1030500080B582B000AF78607B689B785BB2181C4B
:10306000FFF772FFBD4602B080BDC04680B582B09A
:1030700000AF78607B689A787B68DB78191C53B264
:10308000181CFFF77BFF7B689B78DAB27B689B7824
:103090005BB21B0299B27B681B889BB20B439BB24D
:1030A0009BB2101C191CFEF7F9FB7B681B79002BE7
:1030B00003D07B68181CFFF7CBFF0023181CBD460C
:1030C00002B080BD80B582B000AF021CFB1D1A703B
:1030D000FB1D1B787F2B09D8064BFA1D1278111C9B
:1030E0001F220A40012191400A1C1A60BD4602B00D
:1030F00080BDC04600E100E0B0B582B000AF021C68
:103100003960FB1D1A70FB1D1B787F2B27D82D4CB7
:10311000FB1D1B785BB29B082A49FA1D127852B23C
:103120009208C03292005258F91D0978081C0321F8
:103130000140C900081CFF218140C94311403A6881
:103140009201FF200240F81D0078051C0320284052
:10315000C00082400A43C0339B001A512EE01A4C33
:10316000FB1D1B781A1C0F231340083B9908164AB5
:10317000FB1D1B78181C0F230340083B9B080633DC
:103180009B00D3185B68FA1D1278101C03220240C2
:10319000D200101CFF228240D2431A403B689B01A0
:1031A000FF200340F81D0078051C03202840C000C4
:1031B00083401A438B1D9B00E3185A60BD4602B042
:1031C000B0BDC04600E100E000ED00E080B584B095
:1031D00000AF78607B681B7901225340DBB2002B83
:1031E00044D07B681B681B780020191CFFF784FF04
:1031F0007B681B685B780120191CFFF77DFF7B68EB
:103200001B689B780220191CFFF776FF7B681B6800
:10321000DB78002B06D000200021FEF73FFB0020CA
:10322000FFF750FF7B681B681B79002B08D08023B9
:103230005B000120191CFEF731FB0120FFF742FF64
:103240007B681B685B79002B08D080239B000220E1
:10325000191CFEF723FB0220FFF734FF7B680122D5
:103260001A710F23FB1800221A7003E00F23FB18BA
:1032700001221A700F23FB181B78181CBD4604B0DE
:1032800080BDC04680B500AF0020FEF789FABD467C
:1032900080BDC04680B500AF0120FEF781FABD4673
:1032A00080BDC04680B500AF0220FEF779FABD466A
:1032B00080BDC046B0B586B000AFB860F9607A6036
:1032C0001723FD18BB68FC687A68181C211CFEF7E0
:1032D0001FFA031C2B701723FB181B78181CBD4604
:1032E00006B0B0BD80B582B000AF78607B68802248
:1032F0005200DA60BD4602B080BDC04680B582B0E3
:1033000000AF78607B685B7B01225340DBB2002B0F
:103310000FD07B689A687B681B7B101C191CFEF71A
:103320006BFF7B689B68181CFFF7DCFF7B68012242
:103330005A730023181CBD4602B080BD80B584B00E
:1033400000AF78600F23FB1800221A707B685B7A4D
:1033500001225340DBB2002B11D07B6859687B6897
:103360001A7A7B681B68081C111C1A1CFEF786FC65
:103370007B6801225A720F23FB1800221A700F2358
:10338000FB181B78181CBD4604B080BD80B582B008
:1033900000AF78607B6819687B681A7B7B680433B0
:1033A000081C111C1A1CFDF7F7FE7B6819687B6866
:1033B0001A7B7B685B7B081C111C1A1CFFF706F943
:1033C0000023181CBD4602B080BDC04680B500AFCA
:1033D000034B034A926E01218A439A66BD4680BD23
:1033E0000000014080B584B000AF78600F23FB1867
:1033F00000221A700E23FB1800221A700D23FB18EE
:1034000000221A700C23FB1800221A700B23FB18E1
:1034100000221A707B681B7801225340DBB2002B1C
:103420001BD00E23FA180D23FB1812781B781343B8
:10343000DAB20C23FB181B781343D9B20F23FB1805
:103440000B22BA1812780A431A700F23FB181B7844
:10345000002B02D17B6801221A700F23FB181B7806
:10346000181CBD4604B080BD90B585B000AF3B1CB4
:10347000054A13CA13C312681A603B1C181CFDF7D7
:10348000B9FFBD4605B090BD58B2001080B582B0FE
:1034900000AF78600A1CFB1C1A70FB1C1B78012211
:1034A0009A407B68DA60BD4602B080BD80B582B0CC
:1034B00000AF78607B680122DA60BD4602B080BD53
:1034C00080B582B000AF78607B6802221A61BD4689
:1034D00002B080BD80B582B000AF78600A1CBB1C12
:1034E0001A80BB1C1A887B685A63BD4602B080BD37
:1034F00080B582B000AF78600A1CBB1C1A80BB1C70
:103500001A887B68DA63BD4602B080BD80B582B0A0
:1035100000AF786039607B683A681A61BD4602B0D6
:1035200080BDC04690B585B000AF78600F23FB1812
:1035300000221A707B6831229B5C01225340DBB26F
:10354000002B38D07B682D229B5C002B11D17B682F
:103550005B690F22BC18181CFFF7D0FE031C2370F8
:103560000F23FB181B78002B03D17B68181C00F07D
:10357000FBF87B685B6A002B0CD07B685B6A196880
:103580007B685B6A1A797B689B6A081C111C1A1C91
:10359000FDF702FE7B683122012199547B682F22BE
:1035A0009B5C002B07D00F23FC187B68181C00F0D5
:1035B00009F8031C23700F23FB181B78181CBD4649
:1035C00005B090BD80B584B000AF78607B683122D3
:1035D0009B5C002B20D07B682D229B5C002B16D19E
:1035E0007B689B695B6F7B689B699B6F7B689B6952
:1035F000DB6F7B689B6980229B587B689B69181CEA
:10360000FFF75EFF7B689B69181CFFF74FFF0F23D6
:10361000FB1800221A7003E00F23FB1801221A7016
:103620000F23FB181B78181CBD4604B080BDC04694
:1036300090B587B000AF786039601723FB1800227F
:103640001A701623FB1800221A707B6831229B5CCB
:10365000002B00D17CE07B682D229B5C002B00D0EE
:103660007AE07B682E229B5C002B04D07B682E22A4
:103670009B5C032B4DD100233B610023FB607B68E7
:103680009A691723FC181023FB18101C00211A1C20
:1036900000F09AF9031C23707B689A691623FC18C2
:1036A0000C23FB18101C01211A1C00F08DF9031CBF
:1036B00023707A681023FB18101C191C012200F0DB
:1036C000AFF83B697A68101C191C00F011F9031C53
:1036D0003B617A680C23FB18101C191C002200F0B7
:1036E0009FF8FB687A68101C191C00F001F9031C94
:1036F000FB603A69FB68D2183B681A601623FB1816
:103700001B78022B04D11723FB1802221A701EE02B
:103710001DE07B689A691723FC183B68101C012187
:103720001A1C00F051F9031C23707A683B68101CC6
:10373000191C012200F074F83B681B687A68101CA1
:10374000191C00F0D5F8021C3B681A6004E003E085
:103750001723FB1801221A701723FB181B78181C5B
:10376000BD4607B090BDC04680B582B000AF78605E
:103770007B689A697B68DB69101C191CFEF794FD55
:103780007B68181C00F02CF87B689A697B68DB6802
:10379000101C01211A1CFEF7DFFD7B689A697B680B
:1037A0001B69101C02211A1CFEF7D6FD7B689B6961
:1037B000181C0121FEF79CFD7B689B69181C0221E7
:1037C000FEF7B0FD7B685B6999687B682C229B5C87
:1037D000081C191CFFF75AFEBD4602B080BDC0464A
:1037E00080B582B000AF78607B689B690B4A181C7B
:1037F000111CFFF76FFE7B689B69181C0021FFF707
:1038000077FE7B685B699A687B689B68101C191C53
:10381000FFF77CFEBD4602B080BDC046FFFF000042
:1038200080B58CB000AFF860B960FB1D1A70002342
:10383000FB622B23FB1800221A70BB681B681B0459
:103840001B0C7B62BB681B681B0C0F221340BB6107
:10385000FB1D1B78002B02D07B6A01337B62FB6867
:103860002D229B5C002B12D1FB68DB691B791B07A7
:103870001B0FDBB2FB62FB68DB699B780122134004
:10388000DBB2002B03D02B23FB1801221A702B2351
:10389000FB181B78002B23D000233B620023FB6125
:1038A000BA69FB6AD31A7B617B693B620AE0FB69F8
:1038B0005B00FB61FB690D4A94466344FB613B6A14
:1038C000013B3B623B6A002BF1DC7B697A6A9A40E0
:1038D000131CFA69D318FB61BB68FA691A6002E02D
:1038E000BB687A6A1A60BD460CB080BDFFFF00005D
:1038F000B0B58EB000AFF860B96001237B630023E0
:10390000FB62FB682D229B5C002B0DD1FB68DB6901
:103910001B791B071B0FDBB2FB62FB685B691A6834
:10392000FB6ADA40131C7B63BB687B617B69002BFD
:1039300001D1202304E0786904F0C2FB031CDBB250
:10394000BB627B6B3B613B69002B01D1202304E010
:10395000386904F0B5FB031CDBB27B62BA6A7B6A90
:103960009A4202D97B6A3B6301E0BB6A3B633B6BD3
:10397000BA689A40131CBB603B6B7A6B9A40131C6D
:103980007B63BB683B6000237B60386879680D4AC5
:10399000002304F0D3FB021C0B1C111C1A1C7B6BB4
:1039A0001C1C00231D1C081C111C221C2B1C04F0B9
:1039B000A5FB031C0C1CBB61FC61BB69181CBD464C
:1039C0000EB0B0BD00CA9A3B80B588B000AFF860B9
:1039D0007A600B23FB180A1C1A701F23FB180222A3
:1039E0001A700B23FB181B78012B20D1FB68802257
:1039F0009A587B681A607B681A6880235B031340BF
:103A000004D01F23FB1800221A702EE0FB68DB6F26
:103A1000BB61BA6980235B03134007D01F23FB18E7
:103A200000221A70BA697B681A601EE01DE0FB680C
:103A30009A6F7B681A607B681A6880235B03134067
:103A400004D01F23FB1800221A700EE0FB685B6F86
:103A50007B617A6980235B03134006D01F23FB1828
:103A600000221A707A697B681A601F23FB181B7882
:103A7000181CBD4608B080BD80B584B000AFF860AA
:103A80007A600B23FB180A1C1A70FB689B680B22D8
:103A9000BA181278072191400A1CD2431A400B230E
:103AA000FB181B78796899400B1C1A43FB689A60D5
:103AB000BD4604B080BDC04680B582B000AF78601E
:103AC0000A1CFB1C1A707B68DB68072293431A1CD4
:103AD000FB1C1B7807210B401A437B68DA60BD464C
:103AE00002B080BD80B582B000AF78607B68DB68D3
:103AF000802252001A437B68DA60BD4602B080BD66
:103B000080B582B000AF78607B681B6840221A43A2
:103B10007B681A60BD4602B080BDC04680B582B0E9
:103B200000AF78607B681B68402293431A1C7B6857
:103B30001A60BD4602B080BD80B582B000AF78602B
:103B40007B681B6801221A437B681A60BD4602B07D
:103B500080BDC04680B582B000AF78607B681B68CE
:103B6000012293431A1C7B681A60BD4602B080BDD7
:103B700080B582B000AF78607B681B688022934379
:103B80001A1C7B681A60BD4602B080BD80B584B047
:103B900000AFF8607A600B23FB180A1C1A70FB68F0
:103BA0001B68FA68126892680B2179180978072057
:103BB0008840011CC94311400B22BA18127878685A
:103BC0009040021C0A439A60BD4604B080BDC046C6
:103BD00080B582B000AF786039607B681B687A6816
:103BE000126811683A680A431A60BD4602B080BD87
:103BF00080B582B000AF78607B681A6880239B0232
:103C0000101C191CFFF7E4FFBD4602B080BDC04682
:103C100080B582B000AF78607B681A6880235B0251
:103C2000101C191CFFF7D4FFBD4602B080BDC04672
:103C300080B584B000AF78600023FB607B68181CFF
:103C400000F032F87B68A4229B5C002B03D0FB6859
:103C500002221343FB607B68A3229B5C002B03D0F2
:103C6000FB6804221343FB607B68A5229B5C002B4E
:103C700003D0FB6808221343FB607B685A68FB682B
:103C8000101C191CFEF76AFA7B68A6229B5C002BAD
:103C900007D07B685A688023DB03101C191CFEF7D1
:103CA0005DFABD4604B080BD80B582B000AF7860DB
:103CB0007B6859687B688C229B581B78081C002104
:103CC0001A1CFFF7D9FE7B6859687B688C229B58C9
:103CD0005B78081C04211A1CFFF7CEFE7B6859682C
:103CE0007B688C229B589B78081C08211A1CFFF7C4
:103CF000C3FE7B6859687B688C229B58DB78081C64
:103D00000C211A1CFFF7B8FEBD4602B080BDC046AC
:103D100080B582B000AF78607B681B68181CFDF727
:103D2000FFFF7B68DB79002B0CD07B681A687B680F
:103D30005B79101C04211A1CFFF728FF7B68181CF4
:103D4000FFF756FF7B681B7A002B0CD07B681A6844
:103D50007B689B79101C00211A1CFFF717FF7B68FA
:103D6000181CFFF755FFBD4602B080BD90B585B069
:103D700000AF78600F23FB1800221A707B681B6865
:103D80000F22BC18181CFEF7ADF8031C23700F237C
:103D9000FB181B78181CBD4605B090BD90B585B0CA
:103DA00000AF78600F23FB1800221A707B681B6835
:103DB0000F22BC18181CFEF7CDF8031C23700F232C
:103DC000FB181B78181CBD4605B090BD90B585B09A
:103DD00000AF786039600F23FB1800221A703B682F
:103DE000BB607B681B68BA6812681A617B681B68D5
:103DF000BA6852685A617B681B680F22BC18181C8D
:103E0000FEF72EF8031C23700F23FB181B78181CD9
:103E1000BD4605B090BDC04690B587B000AF786094
:103E20001723FB1800221A707B6890229B58FB60B6
:103E30007B681B681722BC18181CFFF77FFA031C4D
:103E400023701723FB181B78002B00D085E07B68BC
:103E50005A687B689B68101C191CFDF7D5FD031E72
:103E600076D17B685B68181CFFF74AFE7B685B684D
:103E7000181CFFF761FE7B685B68181CFFF778FE73
:103E80007B68A7229B5C002B05D07B685B68181CB5
:103E9000FFF728FE16E07B6898229B5818687B681D
:103EA00098229B5819797B689C229B581A1CFDF715
:103EB00073F97B6859687B68A0229B5C081C191CFD
:103EC000FFF7FAFD7B68181CFFF7B2FE00233B6189
:103ED0001AE07A683B6902339B00D3185B68BB60C9
:103EE0007B681B6859687B68A1229A5CBB681B7958
:103EF000081C111C1A1CFDF735FEBB68181CFFF7C7
:103F000007FF3B6901333B617B68A2229B5C1A1E61
:103F10003B699A42DDD87B685B68181CFFF7FEFDA1
:103F20007B685B68181CFFF715FE7B68A7229B5C0B
:103F300001225340DBB2002B13D0FB681868FB68EA
:103F400019797B6894229B581A1CFDF725F908E023
:103F50001723FB1801221A7003E01723FB18012214
:103F60001A701723FB181B78181CBD4607B090BDAC
:103F700090B583B000AFFB1D00221A70FC1D8A4B68
:103F8000181CFFF72FFA031C2370FB1D1B78002B56
:103F900006D1FC1D854B181CFFF73EFF031C237048
:103FA000FB1D1B78002B06D1FC1D814B181CFFF755
:103FB0005DF8031C2370FB1D1B78002B06D1FC1D34
:103FC0007C4B181CFEF78CFE031C2370FB1D1B781A
:103FD000002B06D1FC1D784B181CFEF781FE031C3C
:103FE0002370FB1D1B78002B06D1FC1D734B181C86
:103FF000FEF776FE031C2370FB1D1B78002B06D1F9
:10400000FC1D6F4B181CFEF76BFE031C2370FB1D81
:104010001B78002B06D1FC1D6A4B181CFEF770FCA8
:10402000031C2370FB1D1B78002B06D1FC1D664B67
:10403000181CFFF71BF8031C2370FB1D1B78002BBB
:1040400006D1FC1D614B181CFFF76CFA031C237092
:10405000FB1D1B78002B06D1FC1D5D4B181CFFF7C8
:1040600061FA031C2370FB1D1B78002B06D1FC1D7D
:10407000584B181CFFF78AF9031C2370FB1D1B7893
:10408000002B06D1FC1D544B181CFEF739FC031CF9
:104090002370FB1D1B78002B06D1FC1D4F4B181CF9
:1040A000FEF7E4FF031C2370FB1D1B78002B06D1D9
:1040B000FC1D4B4B181CFEF7FDFE031C2370FB1D63
:1040C0001B78002B06D1FC1D464B181CFFF75EF930
:1040D000031C2370FB1D1B78002B06D1FC1D424BDB
:1040E000181CFFF753F9031C2370FB1D1B78002BD2
:1040F00006D1FC1D3D4B181CFFF748F9031C23702B
:10410000FB1D1B78002B06D1FC1D394B181CFFF73B
:104110003DF9031C2370FB1D1B78002B06D1FC1DF1
:10412000344B181CFEF728FB031C2370FB1D1B7867
:10413000002B06D1FC1D304B181CFFF727F9031C80
:104140002370FB1D1B78002B06D1FC1D2B4B181C6C
:10415000FEF78CFF031C2370FB1D1B78002B06D180
:10416000FC1D274B181CFEF7A5FE031C2370FB1D2E
:104170001B78002B06D1FC1D224B181CFFF706F9FB
:10418000031C2370FB1D1B78002B06D1FC1D1E4B4E
:10419000181CFFF7FBF8031C2370FB1D1B78181C71
:1041A000BD4603B090BDC046880900202CB3001066
:1041B000B0B10010DC0500201006002044060020ED
:1041C0007806002084050020B8B10010E006002029
:1041D00014070020D8B10010B4050020C0B10010B1
:1041E00070B10010E8B10010F8B1001008B2001072
:1041F00018B200107405002028B20010C8B10010D9
:1042000090B1001038B2001048B2001080B582B0F2
:1042100000AF78600A1CFB1C1A70FB1C1B78012283
:104220009A407B685A60BD4602B080BD80B582B0BE
:1042300000AF78600A1CFB1C1A70FB1C1B788022E4
:1042400052029A407B685A60BD4602B080BDC046AB
:1042500080B582B000AF78600A1CFB1C1A707B68C6
:104260005A6AFB1C1B78DA40131C01221340181CED
:10427000BD4602B080BDC04680B582B000AF786058
:104280007B681A687B681B7B101C191CFFF7BEFF3C
:10429000BD4602B080BDC04680B582B000AF786038
:1042A0007B681A687B681B7B101C191CFFF7BEFF1C
:1042B000BD4602B080BDC04680B582B000AF786018
:1042C0007B685A687B689B7F101C191CFFF7C0FF36
:1042D000031C181CBD4602B080BDC04680B500AFAF
:1042E000034B034A526801210A435A60BD4680BD10
:1042F0000000024080B500AF024B034A9A60BD4601
:1043000080BDC04600000240FECAADAB80B500AF24
:10431000024B0122DA61BD4680BDC046000002406A
:1043200080B500AFFFF7DAFFBD4680BD80B500AFB6
:10433000FFF7E0FFBD4680BD80B500AFFFF7E6FFA9
:10434000BD4680BD90B583B000AFFC1DFFF710FEE9
:10435000031C2370FB1D1B78002B00D0FEE7094BCC
:10436000181CFFF759FD031C1A1C074B1A70064B4B
:104370001B78002B02D1054B01221A60FFF7D0FFFA
:10438000FEE7C0462CB30010880A002094090020E4
:10439000F0B585B000AFF860B960FB1D1A70B84B7E
:1043A00000221A70B868FE21890503F075FE031E0D
:1043B00002D0FE239B05BB60B868B24903F058FEEB
:1043C000031E01D0AF4BBB6001231C1CB868002149
:1043D00003F062FE031E01D100231C1CE4B2B86886
:1043E00006F0C8FB0A1C011C01231D1C081C111C23
:1043F000A54AA64B03F002FE031E01D100231D1C9B
:10440000EBB22340DBB2002B01D00023BB600123C1
:104410001C1CB868002103F02BFE031E01D10023F1
:104420001C1CE4B2B86806F0A5FB0A1C011C0123A1
:104430001D1C081C111C944A954B03F0F3FD031E30
:1044400001D100231D1CEBB22340DBB2002B01D0B5
:104450000023BB60FB1D1B78052B01D900F04AFE31
:104460009A008C4BD3181B689F46F8688A4903F062
:1044700013FE031E01D0884BFB60F868874903F0E8
:10448000F7FD031E01D0854BFB60F86806F072FB58
:10449000031C0C1C181C211C814A824B05F074F86B
:1044A000031C0C1C181C211C02F048FA031C0C1CD9
:1044B0007D487E491A1C231C05F066F8031C0C1C61
:1044C000181C211C06F0AAFB021C794B1A60784BC1
:1044D0001B685B005B08181C06F04CFB031C0C1CE3
:1044E000181C211C734A744B04F026FD031C0C1C81
:1044F000181C211C1A1C231C04F01EFD031C0C1C80
:10450000181C211C6D4A6E4B05F07CFC031C0C1C16
:104510001D1C261C664B1B685B005B08181C06F004
:1045200029FB031C0C1C181C211C1A1C231C04F046
:1045300003FD031C0C1C181C211C604A604B05F079
:1045400061FC031C0C1C281C311C1A1C231C05F0CC
:104550001BF8031C0C1C181C211C06F05FFB021C22
:10456000584B1A60524B1B68181C06F003FB031CC7
:104570000C1C181C211C444A444B03F053FD031E21
:1045800000D1AFE04A4B1B68181C4F4903F070FD87
:10459000031E00D1A6E0464B1B68181C06F0EAFA81
:1045A000031C0C1C181C211C424A434B04F0C4FC85
:1045B000031C0C1C3C483D491A1C231C04F0E4FF5E
:1045C000031C0C1C181C211C01F078FF031C0C1C84
:1045D000181C211C324A334B05F014FC031C0C1C24
:1045E000181C211C06F01AFB021C384B1A60304BB9
:1045F0001B68181C06F0BEFA031C0C1C181C211C9E
:104600002C4A2D4B05F098FE031C0C1C264827490C
:104610001A1C231C04F0B8FF031C0C1C181C211CC2
:1046200001F04CFF031C0C1C181C211C1C4A1D4BC8
:1046300005F0E8FB031C0C1C181C211C06F0EEFA0C
:10464000021C234B1A601F4B1B68181CB96804F02E
:104650005BF9031C1A1C1F4B1A601A4B1B68B868C5
:10466000191C03F05FFF031C1A1C1B4B1A60194B2B
:104670001A681A4B1A60184B1A68194B1A60D0E066
:104680008C090020000080BF9A9999999999A93FB7
:104690009999A9BFD4B3001000004842000048C255
:1046A000D9CEF753E3A54C4079E9263108ACDC3F7D
:1046B000840A002077BE9F1A2FDDC43F182D445472
:1046C000FB2109408C0A00200000A041200A0020A4
:1046D000240A0020100A0020140A0020180A0020D2
:1046E0001C0A0020D84B1B68181C06F043FA031C58
:1046F0000C1C181C211CD54AD54B03F07FFC031E53
:1047000000D17CE0D04B1B68181CD24903F0C4FCDC
:10471000031E74D0CC4B1B68181C06F02BFA031C2C
:104720000C1C181C211CCC4ACC4B04F005FC031CAF
:104730000C1CCB48CB491A1C231C04F025FF031C7E
:104740000C1C181C211C01F0B9FE031C0C1C181CAD
:10475000211CC54AC54B05F055FB031C0C1C181C3D
:10476000211C06F05BFA021CC14B1A60B64B1B6899
:10477000181C06F0FFF9031C0C1C181C211CB64A5F
:10478000B64B05F0D9FD031C0C1CB548B5491A1CE5
:10479000231C04F0F9FE031C0C1C181C211C01F046
:1047A0008DFE031C0C1C181C211CAF4AAF4B05F0DE
:1047B00029FB031C0C1C181C211C06F02FFA021CE0
:1047C000AC4B1A60AC4B1B68B868191C03F0AAFE0E
:1047D000031C1A1CA94B1A60A74B1B68181CB9684C
:1047E00004F092F8031C1A1CA54B1A60A34B1A681C
:1047F000A44B1A60A24B1A68A34B1A6011E09C4BA1
:1048000000221A609B4B00221A609C4BBA681A6007
:104810009B4BBA681A609B4BBA681A609A4BBA688D
:104820001A609A4B00221A60994B00221A6000F01D
:1048300079FCF868974903F02FFC031E01D0954BD3
:10484000FB60F868944903F013FC031E01D0924BFF
:10485000FB60F86806F08EF9031C0C1C181C211C68
:10486000814A824B04F090FE031C0C1C181C211C76
:1048700002F064F8031C0C1C79487A491A1C231CAA
:1048800004F082FE031C0C1C181C211C06F0C6F947
:10489000021C6D4B1A606C4B1B685B005B08181C9C
:1048A00006F068F9031C0C1C181C211C6A4A6B4B8F
:1048B00004F042FB031C0C1C181C211C1A1C231C9A
:1048C00004F03AFB031C0C1C181C211C734A744B8B
:1048D00005F098FA031C0C1C1D1C261C5A4B1B6867
:1048E0005B005B08181C06F045F9031C0C1C181C27
:1048F000211C1A1C231C04F01FFB031C0C1C181C7D
:10490000211C664A664B05F07DFA031C0C1C281C12
:10491000311C1A1C231C04F037FE031C0C1C181C31
:10492000211C06F07BF9021C534B1A60464B1B6896
:10493000181C06F01FF9031C0C1C181C211C434AF0
:10494000584B03F06FFB031E00D1B1E03E4B1B68D8
:10495000181C554903F08CFB031E00D1A8E03A4B0C
:104960001B68181C06F006F9031C0C1C181C211CE3
:10497000394A3A4B04F0E0FA031C0C1C3848394918
:104980001A1C231C04F000FE031C0C1C181C211C08
:1049900001F094FD031C0C1C181C211C324A434BD3
:1049A00005F030FA031C0C1C181C211C06F036F90B
:1049B000021C364B1A60244B1B68181C06F0DAF8F0
:1049C000031C0C1C181C211C234A244B05F0B4FCAE
:1049D000031C0C1C224823491A1C231C04F0D4FD80
:1049E000031C0C1C181C211C01F068FD031C0C1C72
:1049F000181C211C1C4A2D4B05F004FA031C0C1C2E
:104A0000181C211C06F00AF9021C214B1A601A4BD3
:104A10001B68181CB96803F077FF031C1A1C174B9E
:104A20001A60154B1B68B868191C03F07BFD031C4A
:104A30001A1C134B1A60114B1A68124B1A60104B58
:104A40001A68114B1A60D2E0840A00209A99999949
:104A50009999A9BF0000A0C177BE9F1A2FDDC43F5E
:104A600079E9263108ACDC3FD9CEF753E3A54C40B9
:104A7000200A0020240A00208C0A0020100A0020AE
:104A8000140A0020180A00201C0A0020280A00200E
:104A90002C0A002000004842000048C2182D44544F
:104AA000FB2109409999A93F0000A041E3A54CC012
:104AB000DF4B1B68181C06F05DF8031C0C1C181C4F
:104AC000211CDC4ADC4B03F099FA031E00D17CE088
:104AD000D74B1B68181CD94903F0DEFA031E74D0AB
:104AE000D34B1B68181C06F045F8031C0C1C181C43
:104AF000211CD34AD34B04F01FFA031C0C1CD248D0
:104B0000D2491A1C231C04F03FFD031C0C1C181C6A
:104B1000211C01F0D3FC031C0C1C181C211CCC4ACA
:104B2000CC4B05F06FF9031C0C1C181C211C06F063
:104B300075F8021CC84B1A60BD4B1B68181C06F0A8
:104B400019F8031C0C1C181C211CBD4ABD4B05F098
:104B5000F3FB031C0C1CBC48BC491A1C231C04F0AE
:104B600013FD031C0C1C181C211C01F0A7FC031CCA
:104B70000C1C181C211CB64AB64B05F043F9031C4B
:104B80000C1C181C211C06F049F8021CB34B1A60BF
:104B9000B34B1B68B868191C03F0C4FC031C1A1C37
:104BA000B04B1A60AE4B1B68181CB96803F0ACFE22
:104BB000031C1A1CAC4B1A60AA4B1A68AB4B1A6048
:104BC000A94B1A68AA4B1A6011E0A34B00221A6085
:104BD000A24B00221A60A34BBA681A60A24BBA68B3
:104BE0001A60A24BBA681A60A14BBA681A60A14B4E
:104BF00000221A60A04B00221A6093E2F8689F49D5
:104C000003F04AFA031E01D09C4BFB60F8689C49F4
:104C100003F02EFA031E01D0994BFB60F86805F0F3
:104C2000A9FF031C0C1C181C211C894A954B04F07D
:104C3000ABFC031C0C1C181C211C01F07FFE031C88
:104C40000C1C914891491A1C231C04F09DFC031C68
:104C50000C1C181C211C05F0E1FF021C744B1A608F
:104C6000734B1B685B005B08181C05F083FF031C7B
:104C70000C1C181C211C724A724B04F05DF9031CB9
:104C80000C1C181C211C1A1C231C04F055F9031CB5
:104C90000C1C181C211C7E4A7E4B05F0B3F8031C2B
:104CA0000C1C1D1C261C624B1B685B005B08181C3F
:104CB00005F060FF031C0C1C181C211C1A1C231C73
:104CC00004F03AF9031C0C1C181C211C704A714B8F
:104CD00005F098F8031C0C1C281C311C1A1C231C02
:104CE00004F052FC031C0C1C181C211C05F096FF40
:104CF000021C5B4B1A604E4B1B68181C05F03AFFF8
:104D0000031C0C1C181C211C4A4A634B03F08AF933
:104D1000031E00D1C4E0464B1B68181C5F4903F01A
:104D2000A7F9031E00D1BBE0414B1B68181C05F01E
:104D300021FF031C0C1C181C211C414A414B04F090
:104D4000FBF8031C0C1C404840491A1C231C04F0AF
:104D50001BFC031C0C1C181C211C01F0AFFB031CCA
:104D60000C1C181C211C3A4A464B05F04BF8031C3E
:104D70000C1C181C211C05F051FF021C3D4B1A6035
:104D80002B4B1B68181C05F0F5FE031C0C1C181C93
:104D9000211C2B4A2B4B05F0CFFA031C0C1C2A4874
:104DA0002A491A1C231C04F0EFFB031C0C1C181CC2
:104DB000211C01F083FB031C0C1C181C211C244A21
:104DC000304B05F01FF8031C0C1C181C211C05F0AF
:104DD00025FF021C284B1A60264B1B6880221206F6
:104DE0005A401D4B1A60244B1B68802212065A4001
:104DF0001A4B1A601A4B1B68181CB96803F084FD23
:104E0000031C1A1C174B1A60154B1B68B868191C39
:104E100003F088FB031C1A1C134B1A60114B1A6811
:104E2000124B1A60104B1A68114B1A60EDE0C04625
:104E3000840A00209A9999999999A9BF0000A0C164
:104E400077BE9F1A2FDDC43F79E9263108ACDC3FDD
:104E5000D9CEF753E3A54CC0280A00202C0A002025
:104E60008C0A0020100A0020140A0020180A0020D2
:104E70001C0A0020200A0020240A00200000F04123
:104E80000000F0C1E3A54C40295C8FC2F528CC3F5F
:104E9000182D4454FB2109409999A93F0000A041D5
:104EA000B24B1B68181C05F065FE031C0C1C181C7B
:104EB000211CAF4AAF4B03F0A1F8031E00D18BE0D9
:104EC000AA4B1B68181CAC4903F0E6F8031E00D17E
:104ED00082E0A64B1B68181C05F04CFE031C0C1C42
:104EE000181C211CA54AA64B04F026F8031C0C1C18
:104EF000A448A5491A1C231C04F046FB031C0C1CE7
:104F0000181C211C01F0DAFA031C0C1C181C211CB3
:104F10009E4A9F4B04F076FF031C0C1C181C211C9E
:104F200005F07CFE021C9B4B1A60904B1B68181C02
:104F300005F020FE031C0C1C181C211C8F4A904BF2
:104F400005F0FAF9031C0C1C8E488F491A1C231C0F
:104F500004F01AFB031C0C1C181C211C01F0AEFAF7
:104F6000031C0C1C181C211C884A894B04F04AFFA6
:104F7000031C0C1C181C211C05F050FE021C864B47
:104F80001A60844B1B68802212065A40834B1A60B9
:104F9000814B1B68802212065A40814B1A60814B5C
:104FA0001B68B868191C03F0BDFA031C1A1C7E4B61
:104FB0001A607C4B1B68181CB96803F0A5FC031C25
:104FC0001A1C7A4B1A60784B1A68794B1A60774B27
:104FD0001A68784B1A6018E06E4B00221A606E4B0C
:104FE00000221A606D4B00221A606D4B00221A607D
:104FF0006D4BBA681A606D4BBA681A606C4BBA6830
:105000001A606C4BBA681A608CE08BE0F8688121FA
:10501000C90503F079FC031CFB60F868664903F0DE
:105020003BF8031E01D0644BFB60F868634903F052
:105030001FF8031E01D0614BFB60564BFA681A60E3
:10504000554BFA681A60554BFA681A60544BFA6867
:105050001A60554BBA681A60544BBA681A60544BC0
:10506000BA681A60534BBA681A605BE0494B544AFD
:105070001A60494B534A1A60484B524A1A60484BCF
:105080004F4A1A60F868504903F006F8031E0ED024
:10509000454BFA2292051A60444B4C4A1A60444B25
:1050A000FA2292051A60434B484A1A6021E0F868D8
:1050B000474902F0DDFF031E0ED03B4B434A1A6006
:1050C0003A4BFA2292051A60394B404A1A60394B22
:1050D000FA2292051A600CE0334B00221A60334B1F
:1050E00000221A60324B00221A60324B00221A60F2
:1050F00018E017E0274B00221A60274B00221A60A5
:10510000264B00221A60264B00221A60264B0022F2
:105110001A60264B00221A60254B00221A60254B8C
:1051200000221A601B4B1A682A4B1A601A4B1A6825
:10513000284B5A60194B1A68264B9A60184B1A680C
:10514000244BDA60184B1A68234B1A60174B1A6805
:10515000214B5A60164B1A681F4B9A60154B1A6800
:105160001D4BDA60BD4605B0F0BDC046840A002084
:105170009A9999999999A9BF0000A0C177BE9F1AE1
:105180002FDDC43F79E9263108ACDC3FD9CEF75397
:10519000E3A54C40200A0020240A0020280A002011
:1051A0002C0A00208C0A0020100A0020140A00207B
:1051B000180A00201C0A002000003E4300003EC3E5
:1051C0000AD76B420AD743C200002041000080BECC
:1051D000000020C1400A0020300A002090B587B0AE
:1051E00002AF374B5B6A1B68BB60354B5B6A181CB0
:1051F000FEF7D4FD0F23FB1800221A7011E00F23D5
:10520000FB181B780F22BA181278B9688A18117C1B
:105210003A1CD1540F23FB181A780F23FB180132C4
:105220001A700F23FB181B78072BE8D93B1C5B78FF
:105230001B02DAB23B1C1B78DBB21343DBB2DAB2DF
:10524000204B1A703B1CDB781B029AB23B1C9B78EC
:105250009BB213439BB29AB21B4B1A803B1C5B79E7
:105260001B029AB23B1C1B799BB213439BB29AB2AE
:10527000164B1A803B1CDB791B029AB23B1C9B79B4
:105280009BB213439BB29AB2114B1A800E4B1B88F0
:105290009BB298B20D4B1B889BB299B20C4B1B88EA
:1052A0009BB29AB20B4B1B6800B209B212B20A4C05
:1052B0000093231C00F012F8BD4605B090BDC04617
:1052C0002CB30010BD090020BE090020C009002039
:1052D000C20900203C080020400A0020F0B587B039
:1052E00000AF041C081C111C7B600E23FB18221C41
:1052F0001A800C23FB18021C1A800A23FB180A1CB4
:105300001A800E23FB1800229B5E002B1CD0C84B7A
:1053100000221A700E23FB1800229B5E181C03F05B
:10532000C3FD031C181CC34903F0FCF8031C191C23
:10533000C14B1A683B6B081C111C1A1C00F022FAA6
:10534000021CBD4B1A6005E0B94B1B780133DAB281
:10535000B74B1A700C23FB1800229B5E002B20D049
:105360007B681B68181C00F089F9031C1A1CB34BDE
:105370001A70B24B1B78002B19D1AD4B00225A701A
:105380000C23FB1800229B5E181C03F08DFD031CF0
:10539000181CA84903F0C6F8031C1A1CA84B1A6075
:1053A00005E0A34B5B780133DAB2A14B5A700A23B4
:1053B000FB1800229B5E002B2DD07B6804331B68FA
:1053C000802212065340181C00F058F9031C1A1CC6
:1053D0009C4B1A709B4B1B78002B22D10A23FB1885
:1053E00000229B5E181C03F05FFD011C964B1A689F
:1053F0003B6B081C111C1A1C00F0C4F9031C181C80
:105400008C4903F08FF8031C1A1C8F4B1A60884BD1
:1054100001229A7005E0864B9B780133DAB2844B07
:105420009A701723FB1800221A7013E01723FB1839
:105430001B787F4AD35C282B05D91723FB181B78D0
:105440007B4A2821D1541723FB181A781723FB18FD
:1054500001321A701723FB181B78022BE6D9744B04
:105460001B78272B07D8744B1A68784B1A60784B37
:1054700001221A7002E0764B00221A706C4B5B78A6
:10548000272B59D86E4B1B68181C05F073FB051CA5
:105490000E1C704B1B68181C05F06CFB031C0C1CCD
:1054A000181C211C6C4A6D4B04F06EF8031C0C1C7C
:1054B000181C211C01F0A0F9031C0C1C281C311C19
:1054C0001A1C231C04F09EFC031C0C1C181C211C21
:1054D00005F0A4FB021C624B1A60594B1B68181C98
:1054E00005F048FB051C0E1C5A4B1B68181C05F0E8
:1054F00041FB031C0C1C181C211C574A574B04F081
:1055000043F8031C0C1C181C211C01F0C7F9031CD8
:105510000C1C281C311C1A1C231C04F073FC031CDB
:105520000C1C181C211C05F079FB021C4C4B5A600A
:10553000474B01225A7002E0454B00225A703C4B07
:105540009B78272B59D8404B1B68181C05F012FB81
:10555000051C0E1C3F4B5B68181C05F00BFB031C65
:105560000C1C181C211C3C4A3C4B04F00DF8031C7D
:105570000C1C181C211C01F03FF9031C0C1C281CDE
:10558000311C1A1C231C04F03DFC031C0C1C181CB1
:10559000211C05F043FB021C324B1A602A4B1B688E
:1055A000181C05F0E7FA051C0E1C2A4B5B68181C3A
:1055B00005F0E0FA031C0C1C181C211C264A274B82
:1055C00003F0E2FF031C0C1C181C211C01F066F9FF
:1055D000031C0C1C281C311C1A1C231C04F012FC7C
:1055E000031C0C1C181C211C05F018FB021C1D4B75
:1055F0005A60174B01229A7002E0154B00229A70F4
:10560000124B1A68184B1A60154B1A68174B1A6020
:10561000134B5A68164B1A60124B1A68154B1A60D6
:10562000104B5A68144B1A60BD4607B0F0BDC04617
:105630004C0800200000C84240080020C409002097
:1056400044080020C5090020480800205008002018
:10565000DC090020400A0020D9CEF753E3A54C40D6
:105660005808002060080020C8090020CC0900204C
:10567000D0090020D4090020D809002090B585B0B9
:1056800000AF78600F23FB1800221A706DE0786875
:10569000002102F001FD031E2DD00F23FB181B7803
:1056A000B422520053433233181C03F0FDFB031C99
:1056B0007868191C03F05AFA031C1C1C0F23FB18F2
:1056C0001B78B42252005343D233181C03F0ECFB76
:1056D000031C7868191C03F049FA031C201C191CD0
:1056E00003F012F9031C181C002102F0CBFC031E6E
:1056F00001D001233FE07868002102F0B9FC031ECD
:105700002CD00F23FB181B781D4A5343963B181CC3
:1057100003F0CAFB031C7868191C03F027FA031C6A
:105720001C1C0F23FB181B78154A5343373BFF3BC8
:10573000181C03F0B9FB031C7868191C03F016FA57
:10574000031C201C191C03F0DFF8031C181C00218B
:1057500002F098FC031E01D001230CE00F23FB187C
:105760001A780F23FB1801321A700F23FB181B78CD
:10577000022B8CD90023181CBD4605B090BDC04635
:1057800098FEFFFF90B585B000AFF860B9607A6011
:10579000F868796803F0B8F8031C1C1CFE2080052B
:1057A000796803F0E3F9031C181CB96803F0ACF83E
:1057B000031C201C191C02F039FD031C181CBD46DB
:1057C00005B090BD80B500AFFEF7B0FD094B181CC9
:1057D000FEF762FD084B1B78DBB20133DAB2064BF1
:1057E0001A70054B1B78DBB2042B01D100F006F8D0
:1057F000BD4680BD28B20010BC09002090B589B01C
:1058000000AF1F23FB1800221A7003E11F23FB18AF
:105810001B780233944A02339B00D3185B681B68E1
:10582000BB611F23FB181B7802338F4A02339B0096
:10583000D3185B68181CFEF7B1FA1E23FB18002270
:105840001A7012E01E23FB181B781E22BA18127859
:10585000B9698A18117C0C22BA18D1541E23FB187E
:105860001A781E23FB1801321A701E23FB181B78AE
:10587000072BE7D90C23FB185B781B02DAB20C2349
:10588000FB181B78DBB21343DAB21723FB181A702C
:105890001723FA181F23FB1812781B789A4200D09E
:1058A000ADE0724B181CFEF7F7FC3B1D00221A609E
:1058B00000229A801D23FB1801221A706BE01D2321
:1058C000FB181B78012B1CD11D23FB181B785A1EBB
:1058D0001D23FB181B785B0001330C217918CB5C6E
:1058E0001B0298B21D23FB181B785B000C21791852
:1058F000CB5C9BB2011C0B4399B23B1D5200D152B1
:1059000042E01D23FB181B78022B1CD11D23FB1822
:105910001B785A1E1D23FB181B785B0001330C21DA
:105920007918CB5C1B0298B21D23FB181B785B0017
:105930000C217918CB5C9BB2011C0B4399B23B1D27
:105940005200D15220E01D23FB181B78032B1BD1E2
:105950001D23FB181B785A1E1D23FB181B785B00A8
:1059600001330C217918CB5C1B0298B21D23FB1864
:105970001B785B000C217918CB5C9BB2011C0B439C
:1059800099B23B1D5200D1521D23FB181A781D23DA
:10599000FB1801321A701D23FB181B78032B8ED9BC
:1059A0001F23FB181B783A1D1288D1B2304AD154FC
:1059B0001F23FB181C783B1D5B881BB2181C03F0CF
:1059C00073FA031C181C2B4902F0ACFD031C191CB4
:1059D000294BA200D1501F23FB181C783B1D9B882C
:1059E0001BB2181C03F060FA031C181C214902F0BA
:1059F00099FD031C191C214BA200D15003E01B4B45
:105A0000181CFEF739FC1F23FB181A781F23FB18FC
:105A100001321A701F23FB181B78032B00D8F5E600
:105A2000154B1A68164B1A60134B5A68154B1A60BF
:105A3000114B9A68144B1A600F4BDA68134B1A60BB
:105A40000E4B1A68124B1A600C4B5A68114B1A60B5
:105A50000A4B9A68104B1A60084BDA680F4B1A60B1
:105A6000BD4609B090BDC0462CB3001038B200103E
:105A7000600A002000007A44640A0020740A0020B2
:105A80009C090020A0090020A4090020A8090020EA
:105A9000AC090020B0090020B4090020B80900209A
:105AA00080B500AFFEF748FC024B181CFEF7E4FB84
:105AB000BD4680BD28B2001080B586B000AF7860CA
:105AC0000C23FB1800221A6000225A601723FB18CF
:105AD00000221A7012E01723FB181B781722BA183D
:105AE000127879688A1811780C22BA18D1541723C1
:105AF000FB181A781723FB1801321A701723FB18AA
:105B00001B78032BE7D9084B1A690C23FB18101CD0
:105B1000191CFEF75BF9044B1B69181CFEF726F9EC
:105B2000BD4606B080BDC0462CB3001080B584B021
:105B300000AF78607B681B68181C264902F0E4FE01
:105B4000031C181C03F090F9031C9AB20823FB18DD
:105B50001A807B6804331B68181C1E4902F0D4FEAF
:105B6000031C181C03F080F9031C9AB20823FB18CD
:105B70005A807B6808331B68181C164902F0C4FE63
:105B8000031C181C03F070F9031C9AB20823FB18BD
:105B90009A807B680C331B68181C0E4902F0B4FE17
:105BA000031C181C03F060F9031C9AB20823FB18AD
:105BB000DA80094BDA680823FB18101C191CFEF761
:105BC00005F9054BDB68181CFEF7D0F8BD4604B09C
:105BD00080BDC04600007A442CB3001080B500AFF1
:105BE0000A4B1B78DBB2012B04D1094B1B685A1CF2
:105BF000074B1A60074B1B78DBB2012B04D1064B15
:105C00001B685A1C044B1A60BD4680BD70080020FA
:105C1000000A002071080020040A002090B585B019
:105C200000AF78603E4BBB600023FB601FE0FB6869
:105C30009B007A68D3181B68181CB96802F064FED0
:105C4000031C1C1C374BFA689200D358181C03F035
:105C50002BF9031C201C191C02F0E8FA031C191C68
:105C6000314BFA689200D150FB680133FB60FB684E
:105C7000032BDCDD0023FB6020E02B4BFA68920055
:105C8000D358181C294902F007FA031E04D0264BEA
:105C9000FA6892002549D150234BFA689200D358F4
:105CA000181C234902F0E4F9031E04D01E4BFA68C5
:105CB00092001F49D150FB680133FB60FB68032B46
:105CC000DBDD194B1B68181C02F062FA021C194B31
:105CD000181C111CFDF730F8134B5B68181C02F000
:105CE00057FA021C144B181C111CFDF725F80E4B1B
:105CF0009B68181C02F04CFA021C104B181C111C5B
:105D0000FDF71AF8084BDB68181C02F041FA021C78
:105D10000B4B181C111CFDF70FF8BD4605B090BDCC
:105D2000B81E253F28080020500A002000806D443E
:105D300000800944DC0500201006002044060020F5
:105D400078060020F8B500AF784B181CFDF73AFC38
:105D5000774B181CFDF736FC744A764B101C191C47
:105D6000FDF766FC724A744B101C191CFDF760FCB1
:105D7000724B1B78012B5CD16F4B1B68704A9342AE
:105D800050D96D4B1B686F4A93424BD86A4B1B68C6
:105D9000181C04F0BDFE031C0C1C181C211C002246
:105DA000694B04F0C9FA031C0C1C1D1C261C674B14
:105DB0001B68181C04F0DEFE031C0C1C281C311C84
:105DC0001A1C231C04F01EF8031C0C1C181C211C9C
:105DD00004F024FF021C5E4B1A605D4B1B68181C0C
:105DE00004F0C8FE031C0C1C181C211C594A5A4BF9
:105DF00002F004F9031E11D0554B1B68181C04F067
:105E0000B9FE031C0C1C181C211C524A534B02F0F7
:105E100009F9031E02D04E4B00221A60504B00229B
:105E20001A7009E04E4B1B780133DAB24C4B1A70F2
:105E300002E0474B00221A603E4B1B68404A9342E7
:105E400044D93C4B1B683F4A93423FD8394B1B68AF
:105E5000181C04F05DFE031C0C1C181C211C0022E5
:105E6000404B04F069FA031C0C1C1D1C261C3E4B05
:105E70001B68181C04F07EFE031C0C1C281C311C23
:105E80001A1C231C03F0BEFF031C0C1C181C211C35
:105E900004F0C4FE021C354B1A60344B1B68181CFE
:105EA0008021C90502F0E4F8031E0BD02F4B1B68BC
:105EB000181CC021090602F0EFF8031E02D02B4B7C
:105EC00000221A602A4B00221A7005E0284B1B782A
:105ED0000133DAB2264B1A70214B1B78142B03D8EE
:105EE000234B1B78142B10D9224B181CFEF7D4F926
:105EF0001B4B14221A701E4B14221A701E4B0022C8
:105F00001A601E4B00221A600BE01A4B181CFEF799
:105F1000B3F90F4B1A68184B1A60144B1A68174BD9
:105F20001A60174B01221A70BD46F8BDE00600202A
:105F300014070020EC090020F0090020750800205B
:105F40003F420F0080841E0060E336416808002055
:105F5000F80900209A9999999999B93F9999B9BFE7
:105F6000F4090020A07F37416C080020FC090020C4
:105F7000F5090020D8B100100C0A0020080A002002
:105F80008C09002080B582B000AF294B1B78DBB2B2
:105F9000012B49D1274B181CFEF78EF9031CDAB2EE
:105FA000254B1A70244B1B78DBB2002B3CD1FFF73A
:105FB000C9FE224B1B687B60204B00221A607B6865
:105FC000502B06D97B68952B03D81D4B00221A70E5
:105FD0000CE07B68962B06D97B68D12B03D8184B35
:105FE00001221A7002E0164B02221A70144B1B7821
:105FF000DBB2012B13D1134B1B78DBB2002B0ED17C
:10600000114B1B78DBB20133DAB20F4B1A700E4B17
:106010001B78DBB2052B02D90B4B00221A70084B00
:106020001B78DAB2074B1A70BD4602B080BDC0467D
:106030003808002070B1001070080020000A00200D
:1060400072080020730800203908002080B582B053
:1060500000AF1F4B1B78DBB2012B35D11D4B181C39
:10606000FEF72AF9031CDAB21B4B1A701A4B1B7885
:10607000DBB2002B28D1194B1B687B60174B002229
:106080001A607B68502B06D97B68952B03D8144B7C
:1060900000221A700CE07B68962B06D97B68D12B06
:1060A00003D80F4B01221A7002E00D4B02221A7026
:1060B0000B4B1B78DBB2012B03D10A4B01221A7068
:1060C00002E0084B00221A70BD4602B080BDC046F7
:1060D0003808002090B1001071080020040A002048
:1060E000740800207508002080B582B000AF394BDD
:1060F000181CFEF7C1F8384B1B78DBB2181C00F0F7
:106100009DF9364B1B78DBB2012B07D1344B1B6852
:10611000092B03D9334B181CFEF7BEF8324B1B7802
:10612000DBB2012B0FD1314B1968314B1A682A4B66
:106130001B78DBB2081C111C1A1CFEF729F9284B2E
:1061400000221A6023E0264B1B685A1C244B1A605D
:10615000234B1B680A2B1AD9214B0A221A60254BA4
:1061600000221A60234B00225A60224B00229A60C0
:10617000204B0022DA60204B00221A601E4B0022C6
:106180005A601D4B00229A601B4B0022DA60194BAB
:10619000181CFFF743FD00F035F8184B1B78DBB2F5
:1061A000012B10D1154B00221A703A1D144B111CF3
:1061B0001A1C0423081C111C1A1C04F097FF3B1D19
:1061C000181CFFF779FC034B181CFEF765F8BD4659
:1061D00002B080BDE8B10010390800203808002066
:1061E00090090020D8B100108C090020080A002076
:1061F0000C0A0020400A0020300A002098090020E4
:10620000ECB30010F0B583B000AF684B181CFEF77C
:1062100043F8674B181C042100F0E6F8021C654B9C
:106220001A60654B1B78DBB2052B4BD89A00634B89
:10623000D3181B689F465F4B1B68181C04F09AFC20
:10624000051C0E1C5E4B1B68181C04F093FC031C01
:106250000C1C181C211C00F0CFFA031C0C1C281C61
:10626000311C1A1C231C03F0CDFD031C0C1C181C34
:10627000211C04F0D3FC021C524B1A604D4B1B68CE
:10628000181C04F077FC051C0E1C4D4B1B68181CD9
:1062900004F070FC031C0C1C181C211C00F0FEFAFE
:1062A000031C0C1C281C311C1A1C231C03F0AAFD07
:1062B000031C0C1C181C211C04F0B0FC021C424BDB
:1062C0001A6007E03F4B00221A603F4B00221A6021
:1062D00000E0C0463D4B1B68181CFC21890501F0FD
:1062E000C7FE031E4AD0394B1A68364B1B68101C78
:1062F000191C01F0BDFE031E40D02C4B181CFDF7ED
:10630000BBFFFB1D00221A7034E0304B1B68181CC9
:1063100004F030FC031C0C1C181C211C2C4A2D4BB7
:1063200001F06CFE031E06D0FB1D1A78204B920074
:106330000021D15019E0FB1D1C78FB1D1A781C4B65
:106340009200D358181C191C01F070FF031C1A1C72
:106350001E4B1B685B005B08101C191C02F0D4FA72
:10636000031C191C124BA200D150FB1D1A78FB1DF7
:1063700001321A70FB1D1B78032BC6D90C4B1A680F
:10638000154B1A600A4B5A68144B1A60084B9A68EE
:10639000134B1A60064BDA68124B1A60044B181C38
:1063A000FFF7C4FBBD4603B0F0BDC04648B20010C5
:1063B000300A0020E009002039080020F0B3001066
:1063C000400A0020E4090020E809002050080020CD
:1063D0007B14AE47E17A943F100A0020140A002093
:1063E000180A00201C0A002080B584B000AF786035
:1063F00039600023FB600023BB600DE0BB689B009D
:106400007A68D3181B68F868191C01F00FFF031C89
:10641000FB60BB680133BB60BA683B689A42EDDB46
:10642000386802F041FD031CF868191C02F07AF884
:10643000031C181CBD4604B080BDC04680B582B0A8
:1064400000AF021CFB1D1A70FB1D1B7801221340BC
:1064500004D0174B181CFDF71FFF03E0144B181C4A
:10646000FDF70AFFFB1D1B785B08DBB21A1C01233A
:10647000134004D00F4B181CFDF70EFF03E00D4B2B
:10648000181CFDF7F9FEFB1D1B789B08DBB21A1CDC
:106490000123134004D0084B181CFDF7FDFE03E058
:1064A000054B181CFDF7E8FEBD4602B080BDC04696
:1064B000F8B1001008B2001018B20010F8B5564636
:1064C0004D4644465F46A54BF0B44E008046894693
:1064D0008A4676089E420CDDA14B9E4200DDA0E07C
:1064E00000D19BE05346002B00DCDEE09D4B9E4A32
:1064F0009FE09E4B9E4200DDB1E09D4B9E4200DC42
:106500009FE001235B429B4642464B46404649463C
:1065100003F078FC061C0F1C321C3B1C03F072FCC1
:10652000041C0D1C934A944B03F06CFC934A944B4F
:1065300002F002FD221C2B1C03F064FC914A924BDA
:1065400002F0FAFC221C2B1C03F05CFC8F4A904BDF
:1065500002F0F2FC221C2B1C03F054FC8D4A8E4BE3
:1065600002F0EAFC221C2B1C03F04CFC8B4A8C4BE7
:1065700002F0E2FC321C3B1C03F044FC894A8A4BCB
:10658000061C0F1C201C291C03F03CFC874A884B6E
:1065900003F0D2FE221C2B1C03F034FC854A864BF0
:1065A00003F0CAFE221C2B1C03F02CFC834A844BF4
:1065B00003F0C2FE221C2B1C03F024FC814A824BF8
:1065C00003F0BAFE221C2B1C03F01CFC0B1C5946CA
:1065D000021C013100D170E05946301CCC00391C3E
:1065E00002F0AAFC42464B4603F00CFC774D784B78
:1065F0002D191C192268636803F09EFE42464B4623
:1066000003F09AFE021C0B1C2868696803F094FED4
:1066100053460A1C002B4BDB031C0AE0002800D168
:1066200060E742464B464046494602F085FC031C63
:106630000A1C181C111C3CBC90469946A246AB464D
:10664000F8BD644A644B02F077FC0022634B01F012
:10665000E9FC002800D154E743464A46E9E700F048
:1066600019F95F4B041C0D1C9E4237DC5D4B9E42AA
:106670005DDC221C2B1C02F05FFC0022574B03F058
:106680005BFE8023061C0F1C0022DB05201C291C3E
:1066900002F052FC0B1C021C391C301C02F074FF6F
:1066A0000023804689469B462EE72E4B4E4AC0E784
:1066B00080221206031C8A18BBE7301C391C02F02A
:1066C0003BFC42464B4603F09DFB021C0B1C404624
:1066D000494603F031FE031C0A1CAAE7434B9E42C5
:1066E0001ADC0022424B03F027FE0022061C0F1C7E
:1066F0003F4B201C291C03F085FB0022374B02F086
:106700001BFC0B1C021C391C301C02F03DFF022339
:10671000804689469B46F7E62B1C00203549221C03
:1067200002F032FF0323804689469B46ECE60022B6
:106730002A4B03F001FE0022061C0F1C274B201CD5
:10674000291C02F0F9FB0B1C021C391C301C02F046
:106750001BFF0123804689469B46D5E6FFFF0F4479
:106760000000F07F182D4454FB21F93FFFFFDB3F71
:10677000FFFF1F3E11DA22E33AAD903FEB0D762486
:106780004B7BA93F513DD0A0660DB13F6E204CC55B
:10679000CD45B73FFF8300922449C23F0D55555563
:1067A0005555D53F2F6C6A2C44B4A2BF9AFDDE52DA
:1067B0002DDEAD3F6D9A74AFF2B0B33F711623FE7C
:1067C000C671BC3FC4EB98999999C93F28B4001091
:1067D00008B400109C7500883CE4377E0000F03F50
:1067E000FFFFF23FFFFFE53FFB21F9BFFF7F0340C3
:1067F0000000F83F0000F0BF30B5244A4B0087B0DE
:10680000051C0C1C5B0893421CDD214A934205DDEC
:106810002A1C231C03F090FD07B030BD02AA00F033
:10682000B9F80323184001281CD002280FD00028F3
:1068300024D002980399049A059B0124009401F046
:1068400023F8E9E70022002300F0BCFAE4E7049A09
:10685000059B0298039900F0B5FA80231B069C461D
:106860006144D9E7049A059B00900298039901F0CE
:106870000BF880231B069C466144CDE702980399E0
:10688000049A059B00F09EFAC6E7C046FB21E93F4B
:10689000FFFFEF7F49004B08191C704730B5254AB0
:1068A0004B0087B0051C0C1C5B0893421EDD224A7E
:1068B000934205DD2A1C231C03F03EFD07B030BDCA
:1068C00002AA00F067F803231840012822D002280A
:1068D00013D0002825D0049A059B0298039900F054
:1068E00071FA80231B069C466144E7E700230022DF
:1068F0000093002300F0C8FFE0E70124049A059B01
:1069000002980399009400F0BFFF80231B069C4669
:106910006144D3E7049A059B0298039900F052FA68
:10692000CCE7012402980399049A059B009400F097
:10693000ABFFC3E7FB21E93FFFFFEF7F30B5134A11
:106940004B0087B0051C0C1C5B08934217DD104AF6
:10695000934205DD2A1C231C03F0EEFC07B030BD7A
:1069600002AA00F017F8049A059B01210840400094
:10697000081A00900298039901F036F8EEE7012317
:1069800000220093002301F02FF8E7E7FB21E93F05
:10699000FFFFEF7FF0B556465F464D46E0B44B0033
:1069A0005E08D44B90B08A469E4200DC89E0D24B10
:1069B00091460C1C051C9E4222DCD04A002C00DCB7
:1069C000BEE1CF4B03F0B8FCCD4B041C0D1C9E4226
:1069D00000D190E0CB4ACC4B03F0AEFC021C0B1C68
:1069E0004946201C0A604B60291C03F0A5FCC64BDD
:1069F000C44A03F0A1FC4B469860D960012069E0CD
:106A0000C24B9E4200DC93E0C14B9E4268DCC14910
:106A100032158B4693445B461B05F51A291C041C52
:106A200004F004F804F038F8021C0B1C201C291C8C
:106A30000A920B9303F080FC0022B74B03F0E2F9BB
:106A40000F1C061C03F0F2FF04F026F8041C0D1CBA
:106A5000221C2B1C301C391C0C940D9503F06CFC73
:106A60000022AD4B03F0CEF9002200230E900F91CF
:106A700001F0BEFA002800D181E100230022201C91
:106A8000291C01F0B5FA0222431E9841131A022272
:106A90000092A24A0AA8019249465A4600F0ACFA6E
:106AA0005346002B16DA80224B46120694464A467D
:106AB0005B68404263445360D3684A466344D36092
:106AC00008E0041C0D1C002000219060D160002013
:106AD0001460556010B01CBC91469A46A346F0BDA8
