:020000041000EA
:10100000500500201D100010000000009D10001071
:101010000018040000010000000000801149124A7D
:10102000124B00F018F8124880471249124A134B2D
:1010300000F011F81249134A134B00F00CF8134951
:10104000134A0020521A02DD043A8850FCDC114891
:101050008047114880479B1A03DD043BC858D05095
:10106000FBDC7047D4D400100C000020500100209D
:10107000A110001018D6001050050020CC08002048
:1010800094D90010CC080020CC080020CC08002007
:10109000300B002095CD0010BD690010FEE7000068
:1010A00080B500AF02F092F902F0DEF9BD4680BDD6
:1010B00080B500AF2A4B1A68FF231B0213401A0A9F
:1010C000284B1A60274B1B68002B37D0244B1B681A
:1010D000FF221A40244B1A60214BDB690322134084
:1010E0001A02214B1B681A431F4B1A601C4BDA690A
:1010F00080239B0013400ED11A4B1B689A021A4B97
:101100001B68D3181948191C01F086FA031C1A0130
:10111000174B1A6021E000F02FF8031C9901114BC6
:101120001B689A02104B1B68D318081C191C01F08D
:1011300073FA031C1A010E4B1A600EE0084BDA69B1
:1011400080239B00134003D1094B0A4A1A6004E034
:1011500000F012F8021C064B1A60BD4680BDC04666
:1011600000030140CC080020D008002000001BB77D
:10117000FC3F0020006CDC0280B500AF014B181C66
:10118000BD4680BD002D310180B582B000AF7860D2
:10119000BD4602B080BDC04690B585B000AFF860D6
:1011A0007A600B23FB180A1C1A700B23FB181B78A0
:1011B0009B08DBB2181C0B23FB181B789B08DBB2C7
:1011C0001A1CFB6804329200D3580B22BA1812780A
:1011D00003210A40D200111CFC228A40D2431A404B
:1011E000111CFB68021D9200D150FB685B6F0B2243
:1011F000BA1812785200111C03228A40D2431A40B6
:10120000FB685A670B23FB181B78DB08DBB2181C42
:101210000B23FB181B78DB08DBB21A1CFB681032AF
:101220009200D3580B22BA18127807210A40920074
:10123000111C04228A40D2431A40111CFB68021C74
:1012400010329200D1500B23FB181B78DB08DBB265
:10125000181C0B23FB181B78DB08DBB21A1CFB687D
:1012600010329200D2587B685B781C1C0B23FB1851
:101270001B7807210B409B009C40231C1A43111C28
:10128000FB68021C10329200D150FB68204A934246
:101290000BD1FB681B6E0B22BA181278012191400A
:1012A0000A1CD2431A40FB681A667B681B78DBB2C3
:1012B0005BB2002B07DA7B685A680B23FB181B789C
:1012C0009A40FB685A600B23FB181B789B08DBB223
:1012D000181C0B23FB181B789B08DBB21A1CFB683D
:1012E00004329200D2587B681B781C1C0B23FB181D
:1012F0001B7803210B40DB009C40231C1A43111C6C
:10130000FB68021D9200D150BD4605B090BDC0469D
:1013100000020440B0B582B000AF38607960094B7C
:10132000084A51683A680A435A60064B054A526AAD
:1013300079680C0000210D1C211C0A435A62BD462D
:1013400002B0B0BD38000140B0B582B000AF0E4B66
:101350001B683B6000237B600B4B1B6A1C1C00233B
:101360001D1C22000023191C0B1C141C3A681A4374
:101370003A607A682243131C7B603B687C68181CC7
:10138000211CBD4602B0B0BD38000140B0B582B0EE
:1013900000AF38607960094B084A91683A680A439F
:1013A0009A60064B054A926A79680C0000210D1C70
:1013B000211C0A439A62BD4602B0B0BD380001400C
:1013C00080B500AF024BC3225A62BD4680BDC04605
:1013D0000000014080B500AF054BC0225A62C046F4
:1013E000034B5B6A04221340FAD1BD4680BDC04660
:1013F0000000014080B586B000AF7860FFF7EAFFDB
:101400007B689B79302B53D0FFF7B6FE021E494B09
:101410009A4209D9484A48499023CB5A9BB2402165
:101420000B4399B29023D152434A43499023CB5A5C
:101430009BB29BB2191C322399430B1C99B27B6857
:101440009B799BB20B439BB299B29023D1523B4BF9
:1014500002229A623A4B3A4A52693A490A405A6120
:10146000394B7B6100E0C0467B69013B7B617B6956
:10147000002BF8D1324B324A5269C02189040A4309
:101480005A61C0462E4B5A6980235B041340F9D140
:101490002E4B3B6100E0C0463B69013B3B613B6931
:1014A000002BF8D1254B1B6A02221340CFD109E053
:1014B000214A21499023CB5A9BB230210B4399B248
:1014C0009023D1521C4A7B68DB7999B28C23D1528C
:1014D0007B68DB79002B09D11D4BFB6000E0C04627
:1014E000FB68013BFB60FB68002BF8D1144B144AEE
:1014F000D26918490A40796889880A43DA61104A32
:101500000F4B1B68144919407B68DB6819437B68E3
:101510009B680B431360FFF753FF7B689B781A1C93
:101520007B681B88101C191C00F032F8BD4606B001
:1015300080BDC046002D310100100140380001403F
:1015400000030140FFFFFFFD1A0200007D0A0000BA
:10155000A02E6300FFFDFFFFFFFFF0FF80B582B00C
:1015600000AF7860FFF736FF084B084A11697A68C8
:101570000A431A61C046054B1A688023DB051340F5
:10158000F9D1FFF71DFFBD4602B080BD0003014049
:1015900080B584B000AF78603960FFF71BFF274B40
:1015A0001A68FF231B0213401B0AFB60234B234ACC
:1015B000D26903218A43111C3A68120A0A43DA618C
:1015C0001E4B1E4A12681E4911403A68FF20024015
:1015D0000A431C490A431A60C046184B1A68802304
:1015E000DB051340F9D1FA687B689A4206D8FA689D
:1015F0007B68101C191C00F053F805E0FA687B6842
:10160000101C191C00F022F80C4B0C4A12680E49F1
:1016100011407A6812020A430A490A431A60C04616
:10162000064B1A688023DB051340F9D1FFF7C8FE8B
:10163000FFF73EFDBD4604B080BDC046000301403B
:1016400000FF0FC00000F03FFF000FC080B582B068
:1016500000AF7860396014E07B689B087B600D4BBD
:101660000C4A12680C4911407A6812020A430B496D
:101670000A431A60C046074B1A688023DB051340F3
:10168000F9D13B689A007B689A42E5D3BD4602B027
:1016900080BDC04600030140FF000FC00000F03FC6
:1016A00080B582B000AF7860396019E07B68002BAC
:1016B00001D101237B607B689B007B600C4B0C4A53
:1016C00012680C4911407A6812020A430A490A4317
:1016D0001A60C046064B1A688023DB051340F9D117
:1016E0007B689A003B689A42E0D3BD4602B080BD59
:1016F00000030140FF000FC00000F03F80B500AFC5
:10170000024B1B68181CBD4680BDC046FC3F002034
:10171000F0B587B000AFB860F9607A6000227A61F6
:1017200002E07A6901327A617A69111C2039002954
:1017300003DBF868C840031C08E02021891AF86818
:101740008840011CB868D040031C0B43F968D140A5
:101750000C1C01221A40151C00222240161C2A1CB7
:10176000324302D17A693F2ADBD97B69402B04D10D
:101770001323FB1801221A7008E0084B7A699200C3
:101780007968D1501323FB1800221A701323FB1819
:101790001B78181CBD4607B0F0BDC046D408002019
:1017A000F0B58FB000AFF86100237B63FFF7CCFD8D
:1017B000384AFB69DB00D3181A685B68161C0640C0
:1017C000BE620B40FB62BA6AFB6A101C191CFFF771
:1017D000DDFD55E07B6B1A1C203A002A03DBF96A19
:1017E000D1400C1C08E02022D21AF96A91400A1C50
:1017F000B96AD9400C1C1443FA6ADA40151C01235B
:101800002340BB6000232B40FB60B968FA680B1CC7
:10181000134332D07B6B1A1C203A002A03DB0121D0
:10182000914079610AE02022D21A0121D1400A1C9C
:1018300000219940796179691143796101229A40C7
:101840003A6139697A690B1CDB433B60131CDB434B
:101850007B60BB6A38687968021C1340BB62FB6A14
:101860000A1C1340FB620C4B7A6B9200D3587B62CC
:101870007B6A002B01D07B6A98477B6B01337B63CB
:10188000BB6AFA6A134302D07B6B3F2BA2D9BD46D9
:101890000FB0F0BD50050020D408002080B582B004
:1018A00000AF021CFB1D1A703B1D0A1C1A803B1D59
:1018B0003A1D128803210A401A80FB1D1B780F2B4A
:1018C00013D8184B174AD26EF91D09784900081C25
:1018D00003218140C9430A40391D0988F81D007859
:1018E000400081400A43DA6618E0FB1DFA1D1278B9
:1018F0000F210A401A700B4B0A4A126FF91D097822
:101900004900081C03218140C9430A40391D098848
:10191000F81D0078400081400A431A67BD4602B0B6
:1019200080BDC0460000014080B582B000AF786045
:101930007A68E2235B00D258C0239B0013405A42CE
:101940005341DBB2181CBD4602B080BD90B583B0D8
:1019500000AF78600C1C101C191CFB1C221C1A7098
:10196000BB1C021C1A707B1C0A1C1A70FB1C1A7808
:10197000BB1C1B781904FF231B040B401A437B1C60
:101980001B781B061A43111C7A68E2235B00D150B6
:10199000BD4603B090BDC04680B582B000AF786050
:1019A0007B681B6840221A437B681A60BD4602B000
:1019B00080BDC04680B582B000AF78607B681B6890
:1019C000402293431A1C7B681A60BD4602B080BD5A
:1019D00080B582B000AF786039607A683B68934226
:1019E00000D2131C181CBD4602B080BD80B582B069
:1019F00000AF786039607A683B68934200D9131C65
:101A0000181CBD4602B080BD80B588B000AF7860BC
:101A100039603B681A683B685B68101C191C00F051
:101A20004BFE0B1E00D096E00023FB610023BB6140
:101A30003B681A683B685B68101C191C00F0ECFDE1
:101A4000031CBB6019237B6100233B610023FB6007
:101A500049E0BB68181C796900F02EFE0B1E3FD1CF
:101A60000023BB61B868796900F0D6FD031CFB61F7
:101A7000FB69002B34D0FA6980239B009A422FD84F
:101A8000FB693F2B09D9FB690722134003D07B690F
:101A9000013B7B6127E00123BB617B69013B3A6825
:101AA00012895343181C2E4900F0B6FD031C3B61FC
:101AB0007A693B69D31A013BFB603B69022B0FD962
:101AC0003B690F2B0CD8FB68012B09D9FB68062B4F
:101AD00006D83B685B891A1EFB689A4200D805E06D
:101AE0007B69013B7B617B69072BB2D87B69072B44
:101AF00031D97B68181CFFF74FFFFB68013B1A03C5
:101B0000E023DB011A403B685B89013B9B01FF211D
:101B10000B401A433B69013B1902F0231B010B40A8
:101B20001A43111CBA69131C5B009B181A1CFB6931
:101B3000D340013B3F2213400A1C1A43BB69DB031D
:101B40001B041B0C1A437B681A617B68181CFFF787
:101B500031FF002300E00123181CBD4608B080BD02
:101B60001027000090B583B000AF7860081C111CEE
:101B7000FB1C021C1A70BB1C0A1C1A70C0467B6836
:101B8000181CFFF7D1FE031C1A1C01235340DBB2C3
:101B9000002BF4D1FB1C1B780133DCB27A68BB1C30
:101BA0001B78101C02211A1C231CFFF7CFFEBD4618
:101BB00003B090BD80B582B000AF786080239B03F6
:101BC000181CFFF7CBFC7B681B68012293431A1C8F
:101BD0007B681A60C0467B681B6802221340FAD1FA
:101BE000BD4602B080BDC04680B582B000AF78600F
:101BF0000A1CFB1C1A707A68E4235B00D3580F227E
:101C000093431A1CFB1C1B781A43111C7A68E423AB
:101C10005B00D150BD4602B080BDC04680B582B0E9
:101C200000AF78607A68E4235B00D358DBB20F2200
:101C30001340DBB2181CBD4602B080BD80B584B035
:101C400000AF78600023FB607B68181CFFF7E6FF9D
:101C5000031E012B02D0022B05D009E0FFF74EFD39
:101C6000031CFB6004E0FFF787FA031CFB60C0461F
:101C7000FB68181CBD4604B080BDC04680B588B066
:101C800000AFF8607A600B23FB180A1C1A70FB681F
:101C9000181CFFF78FFFFA680B23FB181B78101C2A
:101CA000191CFFF7A1FFFB68181CFFF7C7FF031CF7
:101CB000FB61F869796800F0AFFC031C1A1C8023F3
:101CC000DB009B1A0020191CFFF782FE021C124B3E
:101CD000101C191CFFF78AFE031CBB61BB69802224
:101CE000D200D31AF869191C00F096FC031C7B6122
:101CF000FB68DB68094A1A40FB68DA60FB68DA684F
:101D0000BB6913438022D2011A43FB68DA607B6906
:101D1000181CBD4608B080BDFF030000003CFFFF5B
:101D200080B586B000AF78607B681B68484A9446EF
:101D300063445B097B617B695B095A037B691F21F3
:101D40000B401B0213433B617B681B687A68126877
:101D5000926840490A409A607B681B687A681268FA
:101D600091683A690A439A607B68DB7920221340C4
:101D7000DBB2002B07D07B68DB7920221340DBB27B
:101D8000002B00D161E07B681B7E002B04D07B68B8
:101D90001B7E012B00D058E07B681B682022DA6193
:101DA0007B68DB7920221340DBB2002B28D17B68D3
:101DB0005B68FB60FB685B0F5B07FB607B685B68D5
:101DC000DB00DB089B041A1CFB681343FB607B6889
:101DD0001B68FA689A617B689B68FB60FB685B0F15
:101DE0005B07FB607B689B68DB00DB089B041A1CBD
:101DF000FB681343FB607B681B68FA68DA6009E0E4
:101E00007B681B687A6852689A617B681B687A688D
:101E10009268DA607B681B7E012B0DD17B68181CF1
:101E200000F01EF87B681B6880221205DA617B686F
:101E30001B68094ADA6108E07B681B68802212018E
:101E4000DA617B681B68054ADA61BD4606B080BD71
:101E500000F0FBAFFF00FFFFC00020064006A0001F
:101E600080B584B000AF78600F23FB1803221A708E
:101E70007B681B7E012B25D17B681B682022DA61E1
:101E80007B681B687A6812681268144911407A6886
:101E9000127B1006F022120502400A431A607B688A
:101EA0001B687A6812691A617B681B687A685269D4
:101EB0005A617B681B680A4ADA610F23FB1800220B
:101EC0001A7003E00F23FB1803221A700F23FB186C
:101ED0001B78181CBD4604B080BDC046FFFFFFF054
:101EE0004000280080B586B000AF78601723FB184B
:101EF00001221A707B681B68DB69202213405B0992
:101F00003B617B681B68DA6980235B0013401B0A16
:101F1000FB603B69002B04D11723FB1804221A70C5
:101F200010E0FB68012B04D11723FB1802221A7062
:101F300008E07B681B68E022D204DA611723FB18F3
:101F400000221A701723FB181B78181CBD4606B018
:101F500080BDC04680B586B000AF78601723FB18FF
:101F600001221A701623FB1800221A701523FB1881
:101F700000221A707B681B68DA6980231B011340FA
:101F8000DB0A3B617B681B68DB69042213409B080A
:101F9000FB603B69002B04D01723FB1803221A7047
:101FA000D3E0FB68012B04D11723FB1802221A701F
:101FB000CBE07B681B680822DA617B681B689A6942
:101FC00080239B0513405B0F51D17B68DA79202178
:101FD0008A43DA717B681B689B695F4A13409B0CDC
:101FE000DB00DA087B68D200D2085968490F49073C
:101FF0000A435A607B681B68DA6880239B0513409C
:102000005B0FDBB21A1C01231340DAB27B6801219B
:102010000A405001DA7A20218A43111C021C0A432B
:10202000DA727B68DB7A20221340DBB2002B10D0FF
:102030007B681B68DB68484A13409B0CDB00DA08AE
:102040007B68D200D2089968490F49070A439A6011
:1020500043E07B681B68DB68DB00DA087B68D20042
:10206000D2089968490F49070A439A6035E07B68AE
:10207000DA7920210A43DA717B681B689B69DB00EF
:10208000DA087B68D200D2085968490F49070A4329
:102090005A607B681B68DB68DB00DA087B68D2006B
:1020A000D2089968490F49070A439A607B681B6800
:1020B000DA6880239B0513405B0FDBB21A1C0123F7
:1020C0001340DAB27B6801210A405001DA7A2021FC
:1020D0008A43111C021C0A43DA727B681B681A6867
:1020E000F0231B0513401B0EDAB27B681A737B6862
:1020F0001B681A697B681A617B681B685A697B6870
:102100005A617B681B68DB69042213409A08162316
:10211000FB181A707B681B68DB6908221340DA0819
:102120001523FB181A701623FB181B78002B05D0FB
:102130001523FB181B78002B00D03AE77B680022A0
:102140001A761723FB1800221A701723FB181B7826
:10215000181CBD4606B080BD0000FC1F80B582B0D3
:1021600000AF786039603A688023DB039A4206D07A
:102170007B681A683B681A437B681A6005E07B68D5
:102180009A693B681A437B689A61BD4602B080BD7C
:1021900080B582B000AF78607B6880225200DA6040
:1021A000BD4602B080BDC04680B582B000AF786049
:1021B0007B68094A934203D10420FFF7CFF908E076
:1021C0007B68064A934204D180239B02181CFFF7C8
:1021D000C5F9BD4602B080BD000004480040044877
:1021E00080B582B000AF78607B68181CFFF7DCFF19
:1021F000BD4602B080BDC04680B584B000AF7860F7
:102200000A1CFB1C1A707B68181CFFF7E9FF7B682F
:10221000181CFFF7BDFF7B681B68FB60FB68074A63
:102220001340FB60FB1C1B789B03FA681343FB60A5
:102230007B68FA681A60BD4604B080BDFF3FFFFFAF
:1022400080B582B000AF786039603B681A687B68FF
:102250005A613B685B799B06DB0FDBB21A057B6832
:102260005A603B681B791B071B0FDBB21A1C7B688B
:102270005A623B685B791B071B0FDBB21A1C7B6839
:102280001A623B685B79DB06DB0FDBB21A1C7B68EA
:102290009A613B681B791B061B0FDBB21A1C7B681B
:1022A000DA62BD4602B080BD80B582B000AF786012
:1022B00039603B681A687B685A613B685B79DB0769
:1022C000DB0FDBB21A057B685A603B681B791B0782
:1022D0001B0FDBB21A1C7B685A623B681B791B061A
:1022E0001B0FDBB21A1C7B68DA62BD4602B080BDF0
:1022F00080B584B000AF78600A1CFB1C1A707B6844
:102300005B68FB60FB6830229343FB60FB1C1B781F
:102310001B01FA681343FB607B68FA685A60BD468C
:1023200004B080BD80B584B000AF78600A1CFB1C8F
:102330001A707B685B68FB60FB68C0229343FB609C
:10234000FB1C1B789B01FA681343FB607B68FA68EF
:102350005A60BD4604B080BD80B588B000AFF8605B
:102360007A600B23FB180A1C1A701F23FB180B2220
:10237000BA181278013A1A70FB681B68BB61172300
:10238000FB181F22BA18127892001A701723FB1834
:102390001B7803229A40131CDA43BB691340BB61CC
:1023A0007B685B781A1C1723FB181B789A40131C58
:1023B000BA691343BB611F23FB181B789B00DAB279
:1023C0001723FB1802321A701723FB181B780122FF
:1023D0009A40131CDA43BB691340BB617B689B784E
:1023E0001A1C1723FB181B789A40131CBA69134355
:1023F000BB611F23FB181B789B00DAB21723FB1865
:1024000010321A701723FB181B7803229A40131CF2
:10241000DA43BB691340BB617B68DB781A1C172366
:10242000FB181B789A40131CBA691343BB61FB6805
:10243000BA691A60FB68D8229B58BB611723FB1846
:102440001F22BA181278D2001A701723FB181B78B3
:102450003F229A40131CDA43BB691340BB617B687F
:102460001B781A1C1723FB181B789A40131CBA6997
:102470001343BB61FB68D821BA695A50BD4608B006
:1024800080BDC04680B586B000AF7860081C111CC6
:10249000FB1C021C1A70BB1C0A1C1A70FB1C1B784C
:1024A0000B2B20D89A00204BD3181B689F46032380
:1024B0003B6100237B611BE00C233B6102237B61BA
:1024C00016E0C0239B003B6108237B6110E0C02322
:1024D0001B013B610A237B610AE0C0239B013B6136
:1024E0000C237B6104E000233B6100237B61C04639
:1024F0003B69002B14D07B68A8229B58FB603B698A
:10250000DA43FB681340FB60BB1C1A787B699A4076
:10251000131CFA681343FB607B68A821FA685A50C1
:10252000BD4606B080BDC046F4CD001080B584B075
:1025300000AFF8607A600B23FB180A1C1A70FB6866
:10254000181CFEF721FEFB681B680B22BA181278D4
:102550009200111C0F228A40D2431A407B681B68EC
:102560000B217918097889008B401A43FB681A609F
:102570000B23FB181A787B685968FB6804329200B9
:10258000D150BD4604B080BD90B583B000AF786037
:10259000081C111CFB1C021C1A70BB1C0A1C1A70A4
:1025A000FB1C1A78BB1C1B7803210B40D9B27B683B
:1025B00008329200032001400901D0583024A04382
:1025C0000143D150BD4603B090BDC04680B582B036
:1025D00000AF7860081C111CFB1C021C1A70BB1C8D
:1025E0000A1C1A707B685B6FFA1C12785200111C6F
:1025F00003228A40D2431A407B685A677B685A6F2D
:10260000BB1C1B78F91C097849008B401A437B6876
:102610005A67BD4602B080BD80B588B000AF786013
:102620003960EFF310837B617B693B6172B63B6974
:10263000FB610C4B04225A630A4B7A681A62094BFD
:102640003A685A62074B9B6ABB61FB69FB60FB6897
:10265000BB60BB6883F31088BB69181CBD4608B01B
:1026600080BDC0460000034080B588B000AF7860F0
:102670003960EFF310837B617B693B6172B63B6924
:10268000FB610C4B00225A630A4B7A681A62094BB1
:102690003A685A62074B9B6ABB61FB69FB60FB6847
:1026A000BB60BB6883F31088BB69181CBD4608B0CB
:1026B00080BDC04600000340F0B58DB000AF78602B
:1026C0003960EFF310827A617A693A6172B63A69D9
:1026D000FA62154A04215163134A79681162124A59
:1026E00039685162104AD26A3A6200227A620E4A0E
:1026F000926ABA610022FA61FA6AFA60FA68BA600C
:10270000BA6882F310883A6A14000022131CBA696E
:102710001A43151CFA692243161C2B1C341C181C66
:10272000211CBD460DB0F0BD0000034080B500AFD8
:1027300080239B00181CFEF711FFBD4680BDC046DC
:1027400080B582B000AF7860FFF7F0FF074A7B6882
:102750009B685360054A7B685B681361034A7B682A
:102760001B685361BD4602B080BDC04600000240F8
:1027700080B500AFBD4680BD90B585B000AF786034
:102780000F23FB1800221A707B681B7B0122534029
:10279000DBB2002B14D00F23FC187B68181C00F050
:1027A00017F8031C23700F23FB181B78012B07D08D
:1027B0007B681B68181CFFF7C3FF7B6801221A7334
:1027C0000F23FB181B78181CBD4605B090BDC046F2
:1027D00090B585B000AF78600F23FB1800221A7007
:1027E0007B685B680F22BC18181C00F0EFFC031C10
:1027F00023707B689B68002B14D00F23FB181B7879
:10280000012B0FD001200021FEF784FD7B689B681F
:102810000F22BC18012000211A1C00F04BFD031CE4
:10282000237003E00F23FB1801221A700F23FB18FB
:102830001B78181CBD4605B090BDC04680B582B05F
:1028400000AF78600A1CFB1C1A70FB1C1B7801226D
:102850009A407B68DA60BD4602B080BD80B582B028
:1028600000AF78607B680122DA60BD4602B080BDAF
:1028700080B582B000AF78607B6802221A61BD46E5
:1028800002B080BD80B582B000AF78600A1CBB1C6E
:102890001A80BB1C1A887B685A63BD4602B080BD93
:1028A00080B582B000AF78600A1CBB1C1A80BB1CCC
:1028B0001A887B68DA63BD4602B080BD80B582B0FD
:1028C00000AF786039607B683A681A61BD4602B033
:1028D00080BDC04680B582B000AF78600A1CFB1C8A
:1028E0001A707B68A4229A58FB1C1B78012199401E
:1028F0000B1C1A437B68A4215A50BD4602B080BD10
:1029000090B585B000AF78600F23FB1800221A70D5
:102910007B6826229B5C01225340DBB2002B0CD04B
:102920007B6821229B5C002B07D10F23FC187B685E
:10293000181C00F009F8031C23700F23FB181B78E8
:10294000181CBD4605B090BD90B585B000AF78604D
:102950007B681B690F22BC18181C00F0CFFC031CFD
:1029600023707B681B699A687B681B7E101C191C8E
:10297000FFF764FF7B685A697B68DB69101C191CD0
:10298000FFF75EFC7B68181C00F030F87B6825229E
:102990009B5C002B0FD07B6859697B6820229B5C75
:1029A000081C00211A1CFFF76DFD7B685B69181C71
:1029B0000021FFF78FFF7B685B69181CFFF758FF4A
:1029C0007B682622012199547B6824229B5C002B82
:1029D00004D07B685B69181CFFF740FF0F23FB18CE
:1029E0001B78181CBD4605B090BDC04680B582B0AE
:1029F00000AF78607B685A697B685B8C101C191C7F
:102A0000FFF740FF7B685B69181C0021FFF748FF58
:102A10007B681B699A687B68DB68101C191CFFF7D0
:102A20004DFFBD4602B080BD80B582B000AF78607A
:102A30000A1CFB1C1A70FB1C1B7801229A407B6845
:102A4000DA60BD4602B080BD80B582B000AF78606C
:102A50007B680122DA60BD4602B080BD80B582B0DD
:102A600000AF78600A1CBB1C1A80BB1C1A887B68EC
:102A70005A63BD4602B080BD80B582B000AF7860B9
:102A80000A1CBB1C1A80BB1C1A887B68DA63BD4613
:102A900002B080BD80B582B000AF786039607B68DD
:102AA0003A681A61BD4602B080BDC04680B582B0AA
:102AB00000AF78600A1CFB1C1A707B68A4229A582D
:102AC000FB1C1B78012199400B1C1A437B68A42135
:102AD0005A50BD4602B080BD90B585B000AF786059
:102AE0000F23FB1801221A707B6829229B5C022BA2
:102AF00055D17B681B680F22BC18181C00F0FEFB28
:102B0000031C23700F23FB181B78002B43D17B6819
:102B10009A687B68DB68101C191CFFF791FB7B68C7
:102B20009A687B68DB699BB2101C191CFFF796FF43
:102B30007B689A687B689B699BB2101C191CFFF725
:102B40009BFF7B685A687B685B6A101C191CFFF747
:102B5000A1FF7B68181C00F029F87B6819697B6865
:102B60002C229A5C7B685B69081C111C1A1CFEF7FE
:102B700013FB7B682922002199547B682F229B5CE0
:102B8000002B03D07B68181C00F0C6F80F23FB183D
:102B900000221A7003E07B682922022199540F2336
:102BA000FB181B78181CBD4605B090BD80B582B0DF
:102BB00000AF78607B6830229B5C002B0FD07B6875
:102BC0009B68181C0021FFF771FF7B6899687B6880
:102BD0002A229B5C081C00211A1CFFF753FC7B680F
:102BE00031229B5C002B0FD07B689B68181C022154
:102BF000FFF75CFF7B6899687B682B229B5C081C55
:102C000002211A1CFFF73EFCBD4602B080BDC04643
:102C100080B582B000AF78607B6829229B5C002B76
:102C200004D07B6829229B5C042B11D17B685968F6
:102C30007B682E229B5C081C191CFFF7F5FE7B6845
:102C40009B68181CFFF700FF7B6829220321995419
:102C5000BD4602B080BDC04680B586B000AF78608A
:102C600039601723FB1801221A707B6829229B5CAC
:102C7000022B2CD03B68194A934228D87B68DB6929
:102C800001333B613B68154AD31A3A695343181C18
:102C90001249FFF7C1FC031CFB607B68FA689A616C
:102CA0007B683A681A627B689A68FB689BB2101C62
:102CB000191CFFF7E1FE7B685A687B685B6A101C91
:102CC000191CFFF7E7FE1723FB1800221A701723C1
:102CD000FB181B78181CBD4606B080BD10270000ED
:102CE00090B585B000AF78600F23FB1801221A70F1
:102CF0007B6828229B5C002B07D10F23FC187B6884
:102D0000181CFFF7E9FE031C23700F23FB181B7828
:102D1000181CBD4605B090BD80B582B000AF78608C
:102D20007B6828229B5C002B03D17B68181CFFF773
:102D30006FFFBD4602B080BD90B585B000AF786032
:102D400039600F23FB1801221A707B6828229B5CD4
:102D5000002B09D10F23FC187A683B68101C191C42
:102D6000FFF77AFF031C23700F23FB181B78181C36
:102D7000BD4605B090BDC04680B582B000AF021C14
:102D8000FB1D1A70FB1D1B787F2B09D8064BFA1D03
:102D90001278111C1F220A40012191400A1C1A605E
:102DA000BD4602B080BDC04600E100E080B582B003
:102DB00000AF021CFB1D1A70FB1D1B787F2B0AD86D
:102DC0000649FB1D1B781A1C1F23134001229A4041
:102DD000C0235B00CA50BD4602B080BD00E100E0E8
:102DE000B0B582B000AF021C3960FB1D1A70FB1D2C
:102DF0001B787F2B27D82D4CFB1D1B785BB29B08C3
:102E00002A49FA1D127852B29208C03292005258E2
:102E1000F91D0978081C03210140C900081CFF2185
:102E20008140C94311403A689201FF200240F81DD9
:102E30000078051C03202840C00082400A43C033AC
:102E40009B001A512EE01A4CFB1D1B781A1C0F23F5
:102E50001340083B9908164AFB1D1B78181C0F23CA
:102E60000340083B9B0806339B00D3185B68FA1DA0
:102E70001278101C03220240D200101CFF22824054
:102E8000D2431A403B689B01FF200340F81D0078A5
:102E9000051C03202840C00083401A438B1D9B0063
:102EA000E3185A60BD4602B0B0BDC04600E100E084
:102EB00000ED00E080B582B000AF78607B685968B3
:102EC0007B689A7F7B680833081C111C1A1CFEF76C
:102ED00063F97B6819687B681A7F7B681033081C6C
:102EE000111C1A1CFFF722FB7B681A687B685B7F4A
:102EF000101C191C0122FFF747FB7B689A7E7B6838
:102F0000DB7E191C53B2181CFFF76AFF7B689B7E9F
:102F1000DAB27B681B8B101C191CFEF7BFFC7B68A8
:102F2000DB7F002B0BD07B689B7E5BB2181CFFF70E
:102F30003DFF7B689B7E5BB2181CFFF71DFF0023E3
:102F4000181CBD4602B080BD80B582B000AF021C27
:102F5000FB1D1A70FB1D1B787F2B09D8064BFA1D31
:102F60001278111C1F220A40012191400A1C1A608C
:102F7000BD4602B080BDC04600E100E0B0B582B001
:102F800000AF021C3960FB1D1A70FB1D1B787F2BE4
:102F900027D82D4CFB1D1B785BB29B082A49FA1DD4
:102FA000127852B29208C03292005258F91D097834
:102FB000081C03210140C900081CFF218140C943AE
:102FC00011403A689201FF200240F81D0078051C6C
:102FD00003202840C00082400A43C0339B001A519E
:102FE0002EE01A4CFB1D1B781A1C0F231340083BC4
:102FF0009908164AFB1D1B78181C0F230340083B39
:103000009B0806339B00D3185B68FA1D1278101CCE
:1030100003220240D200101CFF228240D2431A40F9
:103020003B689B01FF200340F81D0078051C03202E
:103030002840C00083401A438B1D9B00E3185A6050
:10304000BD4602B0B0BDC04600E100E000ED00E0CA
:1030500080B582B000AF78607B689B785BB2181C4B
:10306000FFF772FFBD4602B080BDC04680B582B09A
:1030700000AF78607B689A787B68DB78191C53B264
:10308000181CFFF77BFF7B689B78DAB27B689B7824
:103090005BB21B0299B27B681B889BB20B439BB24D
:1030A0009BB2101C191CFEF7F9FB7B681B79002BE7
:1030B00003D07B68181CFFF7CBFF0023181CBD460C
:1030C00002B080BD80B582B000AF021CFB1D1A703B
:1030D000FB1D1B787F2B09D8064BFA1D1278111C9B
:1030E0001F220A40012191400A1C1A60BD4602B00D
:1030F00080BDC04600E100E0B0B582B000AF021C68
:103100003960FB1D1A70FB1D1B787F2B27D82D4CB7
:10311000FB1D1B785BB29B082A49FA1D127852B23C
:103120009208C03292005258F91D0978081C0321F8
:103130000140C900081CFF218140C94311403A6881
:103140009201FF200240F81D0078051C0320284052
:10315000C00082400A43C0339B001A512EE01A4C33
:10316000FB1D1B781A1C0F231340083B9908164AB5
:10317000FB1D1B78181C0F230340083B9B080633DC
:103180009B00D3185B68FA1D1278101C03220240C2
:10319000D200101CFF228240D2431A403B689B01A0
:1031A000FF200340F81D0078051C03202840C000C4
:1031B00083401A438B1D9B00E3185A60BD4602B042
:1031C000B0BDC04600E100E000ED00E080B584B095
:1031D00000AF78607B681B7901225340DBB2002B83
:1031E00044D07B681B681B780020191CFFF784FF04
:1031F0007B681B685B780120191CFFF77DFF7B68EB
:103200001B689B780220191CFFF776FF7B681B6800
:10321000DB78002B06D000200021FEF73FFB0020CA
:10322000FFF750FF7B681B681B79002B08D08023B9
:103230005B000120191CFEF731FB0120FFF742FF64
:103240007B681B685B79002B08D080239B000220E1
:10325000191CFEF723FB0220FFF734FF7B680122D5
:103260001A710F23FB1800221A7003E00F23FB18BA
:1032700001221A700F23FB181B78181CBD4604B0DE
:1032800080BDC04680B500AF0020FEF789FABD467C
:1032900080BDC04680B500AF0120FEF781FABD4673
:1032A00080BDC04680B500AF0220FEF779FABD466A
:1032B00080BDC046B0B586B000AFB860F9607A6036
:1032C0001723FD18BB68FC687A68181C211CFEF7E0
:1032D0001FFA031C2B701723FB181B78181CBD4604
:1032E00006B0B0BD80B582B000AF78607B68802248
:1032F0005200DA60BD4602B080BDC04680B582B0E3
:1033000000AF78607B685B7B01225340DBB2002B0F
:103310000FD07B689A687B681B7B101C191CFEF71A
:103320006BFF7B689B68181CFFF7DCFF7B68012242
:103330005A730023181CBD4602B080BD80B584B00E
:1033400000AF78600F23FB1800221A707B685B7A4D
:1033500001225340DBB2002B11D07B6859687B6897
:103360001A7A7B681B68081C111C1A1CFEF786FC65
:103370007B6801225A720F23FB1800221A700F2358
:10338000FB181B78181CBD4604B080BD80B582B008
:1033900000AF78607B6819687B681A7B7B680433B0
:1033A000081C111C1A1CFDF7F7FE7B6819687B6866
:1033B0001A7B7B685B7B081C111C1A1CFFF706F943
:1033C0000023181CBD4602B080BDC04680B500AFCA
:1033D000034B034A926E01218A439A66BD4680BD23
:1033E0000000014080B584B000AF78600F23FB1867
:1033F00000221A700E23FB1800221A700D23FB18EE
:1034000000221A700C23FB1800221A700B23FB18E1
:1034100000221A707B681B7801225340DBB2002B1C
:103420001BD00E23FA180D23FB1812781B781343B8
:10343000DAB20C23FB181B781343D9B20F23FB1805
:103440000B22BA1812780A431A700F23FB181B7844
:10345000002B02D17B6801221A700F23FB181B7806
:10346000181CBD4604B080BD90B585B000AF3B1CB4
:10347000054A13CA13C312681A603B1C181CFDF7D7
:10348000B9FFBD4605B090BD6CCF001080B582B0CD
:1034900000AF78600A1CFB1C1A70FB1C1B78012211
:1034A0009A407B68DA60BD4602B080BD80B582B0CC
:1034B00000AF78607B680122DA60BD4602B080BD53
:1034C00080B582B000AF78607B6802221A61BD4689
:1034D00002B080BD80B582B000AF78600A1CBB1C12
:1034E0001A80BB1C1A887B685A63BD4602B080BD37
:1034F00080B582B000AF78600A1CBB1C1A80BB1C70
:103500001A887B68DA63BD4602B080BD80B582B0A0
:1035100000AF786039607B683A681A61BD4602B0D6
:1035200080BDC04690B585B000AF78600F23FB1812
:1035300000221A707B6831229B5C01225340DBB26F
:10354000002B38D07B682D229B5C002B11D17B682F
:103550005B690F22BC18181CFFF7D0FE031C2370F8
:103560000F23FB181B78002B03D17B68181C00F07D
:10357000FBF87B685B6A002B0CD07B685B6A196880
:103580007B685B6A1A797B689B6A081C111C1A1C91
:10359000FDF702FE7B683122012199547B682F22BE
:1035A0009B5C002B07D00F23FC187B68181C00F0D5
:1035B00009F8031C23700F23FB181B78181CBD4649
:1035C00005B090BD80B584B000AF78607B683122D3
:1035D0009B5C002B20D07B682D229B5C002B16D19E
:1035E0007B689B695B6F7B689B699B6F7B689B6952
:1035F000DB6F7B689B6980229B587B689B69181CEA
:10360000FFF75EFF7B689B69181CFFF74FFF0F23D6
:10361000FB1800221A7003E00F23FB1801221A7016
:103620000F23FB181B78181CBD4604B080BDC04694
:1036300090B587B000AF786039601723FB1800227F
:103640001A701623FB1800221A707B6831229B5CCB
:10365000002B00D17CE07B682D229B5C002B00D0EE
:103660007AE07B682E229B5C002B04D07B682E22A4
:103670009B5C032B4DD100233B610023FB607B68E7
:103680009A691723FC181023FB18101C00211A1C20
:1036900000F09AF9031C23707B689A691623FC18C2
:1036A0000C23FB18101C01211A1C00F08DF9031CBF
:1036B00023707A681023FB18101C191C012200F0DB
:1036C000AFF83B697A68101C191C00F011F9031C53
:1036D0003B617A680C23FB18101C191C002200F0B7
:1036E0009FF8FB687A68101C191C00F001F9031C94
:1036F000FB603A69FB68D2183B681A601623FB1816
:103700001B78022B04D11723FB1802221A701EE02B
:103710001DE07B689A691723FC183B68101C012187
:103720001A1C00F051F9031C23707A683B68101CC6
:10373000191C012200F074F83B681B687A68101CA1
:10374000191C00F0D5F8021C3B681A6004E003E085
:103750001723FB1801221A701723FB181B78181C5B
:10376000BD4607B090BDC04680B582B000AF78605E
:103770007B689A697B68DB69101C191CFEF794FD55
:103780007B68181C00F02CF87B689A697B68DB6802
:10379000101C01211A1CFEF7DFFD7B689A697B680B
:1037A0001B69101C02211A1CFEF7D6FD7B689B6961
:1037B000181C0121FEF79CFD7B689B69181C0221E7
:1037C000FEF7B0FD7B685B6999687B682C229B5C87
:1037D000081C191CFFF75AFEBD4602B080BDC0464A
:1037E00080B582B000AF78607B689B690B4A181C7B
:1037F000111CFFF76FFE7B689B69181C0021FFF707
:1038000077FE7B685B699A687B689B68101C191C53
:10381000FFF77CFEBD4602B080BDC046FFFF000042
:1038200080B58CB000AFF860B960FB1D1A70002342
:10383000FB622B23FB1800221A70BB681B681B0459
:103840001B0C7B62BB681B681B0C0F221340BB6107
:10385000FB1D1B78002B02D07B6A01337B62FB6867
:103860002D229B5C002B12D1FB68DB691B791B07A7
:103870001B0FDBB2FB62FB68DB699B780122134004
:10388000DBB2002B03D02B23FB1801221A702B2351
:10389000FB181B78002B23D000233B620023FB6125
:1038A000BA69FB6AD31A7B617B693B620AE0FB69F8
:1038B0005B00FB61FB690D4A94466344FB613B6A14
:1038C000013B3B623B6A002BF1DC7B697A6A9A40E0
:1038D000131CFA69D318FB61BB68FA691A6002E02D
:1038E000BB687A6A1A60BD460CB080BDFFFF00005D
:1038F000B0B58EB000AFF860B96001237B630023E0
:10390000FB62FB682D229B5C002B0DD1FB68DB6901
:103910001B791B071B0FDBB2FB62FB685B691A6834
:10392000FB6ADA40131C7B63BB687B617B69002BFD
:1039300001D1202304E0786906F036FA031CDBB2DB
:10394000BB627B6B3B613B69002B01D1202304E010
:10395000386906F029FA031CDBB27B62BA6A7B6A1B
:103960009A4202D97B6A3B6301E0BB6A3B633B6BD3
:10397000BA689A40131CBB603B6B7A6B9A40131C6D
:103980007B63BB683B6000237B60386879680D4AC5
:10399000002306F047FA021C0B1C111C1A1C7B6B3F
:1039A0001C1C00231D1C081C111C221C2B1C06F0B7
:1039B00019FA031C0C1CBB61FC61BB69181CBD46D9
:1039C0000EB0B0BD00CA9A3B80B588B000AFF860B9
:1039D0007A600B23FB180A1C1A701F23FB180222A3
:1039E0001A700B23FB181B78012B20D1FB68802257
:1039F0009A587B681A607B681A6880235B031340BF
:103A000004D01F23FB1800221A702EE0FB68DB6F26
:103A1000BB61BA6980235B03134007D01F23FB18E7
:103A200000221A70BA697B681A601EE01DE0FB680C
:103A30009A6F7B681A607B681A6880235B03134067
:103A400004D01F23FB1800221A700EE0FB685B6F86
:103A50007B617A6980235B03134006D01F23FB1828
:103A600000221A707A697B681A601F23FB181B7882
:103A7000181CBD4608B080BD80B584B000AFF860AA
:103A80007A600B23FB180A1C1A70FB689B680B22D8
:103A9000BA181278072191400A1CD2431A400B230E
:103AA000FB181B78796899400B1C1A43FB689A60D5
:103AB000BD4604B080BDC04680B582B000AF78601E
:103AC0000A1CFB1C1A707B68DB68072293431A1CD4
:103AD000FB1C1B7807210B401A437B68DA60BD464C
:103AE00002B080BD80B582B000AF78607B68DB68D3
:103AF000802252001A437B68DA60BD4602B080BD66
:103B000080B582B000AF78607B681B6840221A43A2
:103B10007B681A60BD4602B080BDC04680B582B0E9
:103B200000AF78607B681B68402293431A1C7B6857
:103B30001A60BD4602B080BD80B582B000AF78602B
:103B40007B681B6801221A437B681A60BD4602B07D
:103B500080BDC04680B582B000AF78607B681B68CE
:103B6000012293431A1C7B681A60BD4602B080BDD7
:103B700080B582B000AF78607B681B688022934379
:103B80001A1C7B681A60BD4602B080BD80B584B047
:103B900000AFF8607A600B23FB180A1C1A70FB68F0
:103BA0001B68FA68126892680B2179180978072057
:103BB0008840011CC94311400B22BA18127878685A
:103BC0009040021C0A439A60BD4604B080BDC046C6
:103BD00080B582B000AF786039607B681B687A6816
:103BE000126811683A680A431A60BD4602B080BD87
:103BF00080B582B000AF78607B681A6880239B0232
:103C0000101C191CFFF7E4FFBD4602B080BDC04682
:103C100080B582B000AF78607B681A6880235B0251
:103C2000101C191CFFF7D4FFBD4602B080BDC04672
:103C300080B584B000AF78600023FB607B68181CFF
:103C400000F032F87B68A4229B5C002B03D0FB6859
:103C500002221343FB607B68A3229B5C002B03D0F2
:103C6000FB6804221343FB607B68A5229B5C002B4E
:103C700003D0FB6808221343FB607B685A68FB682B
:103C8000101C191CFEF76AFA7B68A6229B5C002BAD
:103C900007D07B685A688023DB03101C191CFEF7D1
:103CA0005DFABD4604B080BD80B582B000AF7860DB
:103CB0007B6859687B688C229B581B78081C002104
:103CC0001A1CFFF7D9FE7B6859687B688C229B58C9
:103CD0005B78081C04211A1CFFF7CEFE7B6859682C
:103CE0007B688C229B589B78081C08211A1CFFF7C4
:103CF000C3FE7B6859687B688C229B58DB78081C64
:103D00000C211A1CFFF7B8FEBD4602B080BDC046AC
:103D100080B582B000AF78607B681B68181CFDF727
:103D2000FFFF7B68DB79002B0CD07B681A687B680F
:103D30005B79101C04211A1CFFF728FF7B68181CF4
:103D4000FFF756FF7B681B7A002B0CD07B681A6844
:103D50007B689B79101C00211A1CFFF717FF7B68FA
:103D6000181CFFF755FFBD4602B080BD90B585B069
:103D700000AF78600F23FB1800221A707B681B6865
:103D80000F22BC18181CFEF7ADF8031C23700F237C
:103D9000FB181B78181CBD4605B090BD90B585B0CA
:103DA00000AF78600F23FB1800221A707B681B6835
:103DB0000F22BC18181CFEF7CDF8031C23700F232C
:103DC000FB181B78181CBD4605B090BD90B585B09A
:103DD00000AF786039600F23FB1800221A703B682F
:103DE000BB607B681B68BA6812681A617B681B68D5
:103DF000BA6852685A617B681B680F22BC18181C8D
:103E0000FEF72EF8031C23700F23FB181B78181CD9
:103E1000BD4605B090BDC04690B587B000AF786094
:103E20001723FB1800221A707B6890229B58FB60B6
:103E30007B681B681722BC18181CFFF77FFA031C4D
:103E400023701723FB181B78002B00D085E07B68BC
:103E50005A687B689B68101C191CFDF7D5FD031E72
:103E600076D17B685B68181CFFF74AFE7B685B684D
:103E7000181CFFF761FE7B685B68181CFFF778FE73
:103E80007B68A7229B5C002B05D07B685B68181CB5
:103E9000FFF728FE16E07B6898229B5818687B681D
:103EA00098229B5819797B689C229B581A1CFDF715
:103EB00073F97B6859687B68A0229B5C081C191CFD
:103EC000FFF7FAFD7B68181CFFF7B2FE00233B6189
:103ED0001AE07A683B6902339B00D3185B68BB60C9
:103EE0007B681B6859687B68A1229A5CBB681B7958
:103EF000081C111C1A1CFDF735FEBB68181CFFF7C7
:103F000007FF3B6901333B617B68A2229B5C1A1E61
:103F10003B699A42DDD87B685B68181CFFF7FEFDA1
:103F20007B685B68181CFFF715FE7B68A7229B5C0B
:103F300001225340DBB2002B13D0FB681868FB68EA
:103F400019797B6894229B581A1CFDF725F908E023
:103F50001723FB1801221A7003E01723FB18012214
:103F60001A701723FB181B78181CBD4607B090BDAC
:103F700090B583B000AFFB1D00221A70FC1D954B5D
:103F8000181CFFF72FFA031C2370FB1D1B78002B56
:103F900006D1FC1D904B181CFFF73EFF031C23703D
:103FA000FB1D1B78002B06D1FC1D8C4B181CFFF74A
:103FB0005DF8031C2370FB1D1B78002B06D1FC1D34
:103FC000874B181CFEF78CFE031C2370FB1D1B780F
:103FD000002B06D1FC1D834B181CFEF781FE031C31
:103FE0002370FB1D1B78002B06D1FC1D7E4B181C7B
:103FF000FEF776FE031C2370FB1D1B78002B06D1F9
:10400000FC1D7A4B181CFEF76BFE031C2370FB1D76
:104010001B78002B06D1FC1D754B181CFEF770FC9D
:10402000031C2370FB1D1B78002B06D1FC1D714B5C
:10403000181CFFF71BF8031C2370FB1D1B78002BBB
:1040400006D1FC1D6C4B181CFFF76CFA031C237087
:10405000FB1D1B78002B06D1FC1D684B181CFFF7BD
:1040600061FA031C2370FB1D1B78002B06D1FC1D7D
:10407000634B181CFFF78AF9031C2370FB1D1B7888
:10408000002B06D1FC1D5F4B181CFEF739FC031CEE
:104090002370FB1D1B78002B06D1FC1D5A4B181CEE
:1040A000FEF7E4FF031C2370FB1D1B78002B06D1D9
:1040B000FC1D564B181CFEF7FDFE031C2370FB1D58
:1040C0001B78002B06D1FC1D514B181CFFF75EF925
:1040D000031C2370FB1D1B78002B06D1FC1D4D4BD0
:1040E000181CFFF753F9031C2370FB1D1B78002BD2
:1040F00006D1FC1D484B181CFFF748F9031C237020
:10410000FB1D1B78002B06D1FC1D444B181CFFF730
:104110003DF9031C2370FB1D1B78002B06D1FC1DF1
:104120003F4B181CFEF728FB031C2370FB1D1B785C
:10413000002B06D1FC1D3B4B181CFFF727F9031C75
:104140002370FB1D1B78002B06D1FC1D364B181C61
:10415000FEF78CFF031C2370FB1D1B78002B06D180
:10416000FC1D324B181CFEF7A5FE031C2370FB1D23
:104170001B78002B06D1FC1D2D4B181CFFF706F9F0
:10418000031C2370FB1D1B78002B06D1FC1D294B43
:10419000181CFFF7FBF8031C2370FB1D1B78002B7A
:1041A00006D1FC1D244B181CFFF7F0F8031C2370EC
:1041B000FB1D1B78002B06D1FC1D204B181CFFF7A4
:1041C000E5F8031C2370FB1D1B78181CBD4603B0CB
:1041D00090BDC046DC09002040D00010A4CE0010E5
:1041E000DC05002010060020440600207806002090
:1041F00084050020ACCE0010E0060020140700204B
:10420000CCCE0010B4050020B4CE001064CE001057
:10421000DCCE0010ECCE0010FCCE00100CCF001055
:10422000740500201CCF0010BCCE001084CE0010FE
:104230002CCF00103CCF00104CCF00105CCF0010F2
:1042400080B582B000AF78600A1CFB1C1A70FB1CA2
:104250001B7801229A407B685A60BD4602B080BD3F
:1042600080B582B000AF78600A1CFB1C1A70FB1C82
:104270001B78802252029A407B685A60BD4602B089
:1042800080BDC04680B582B000AF78607B681A6898
:104290007B681B7B101C191CFFF7D2FFBD4602B0C8
:1042A00080BDC04680B582B000AF78607B681A6878
:1042B0007B681B7B101C191CFFF7D2FFBD4602B0A8
:1042C00080BDC04680B500AF024B034A9A60BD4630
:1042D00080BDC04600000240FECAADAB80B500AF55
:1042E000FFF7F0FFBD4680BD80B586B000AF7860B7
:1042F0000C23FB1800221A6000225A601723FB18B7
:1043000000221A7012E01723FB181B781722BA1824
:10431000127879688A1811780C22BA18D1541723A8
:10432000FB181A781723FB1801321A701723FB1891
:104330001B78032BE7D9084B1A690C23FB18101CB8
:10434000191CFFF743FD044B1B69181CFFF70EFDFA
:10435000BD4606B080BDC04640D0001080B584B0D8
:1043600000AF78607B681B68181C264906F040F98E
:10437000031C181C06F0ECFB031C9AB20823FB1864
:104380001A807B6804331B68181C1E4906F030F93C
:10439000031C181C06F0DCFB031C9AB20823FB1854
:1043A0005A807B6808331B68181C164906F020F9F0
:1043B000031C181C06F0CCFB031C9AB20823FB1844
:1043C0009A807B680C331B68181C0E4906F010F9A4
:1043D000031C181C06F0BCFB031C9AB20823FB1834
:1043E000DA80094BDA680823FB18101C191CFFF748
:1043F000EDFC054BDB68181CFFF7B8FCBD4604B0AC
:1044000080BDC04600007A4440D0001080B500AFA7
:10441000FFF764FF094B181CFFF744FF084B1B789C
:10442000DBB20133DAB2064B1A70054B1B78DBB2F4
:10443000042B01D100F006F8BD4680BD1CCF001052
:10444000F409002090B589B000AF1F23FB180022AB
:104450001A7003E11F23FB181B7802338C4A0233C6
:104460009B00D3185B681B68BB611F23FB181B787C
:104470000233874A02339B00D3185B68181CFFF78E
:104480008DFC1E23FB1800221A7012E01E23FB185D
:104490001B781E22BA181278B9698A18117C0C226E
:1044A000BA18D1541E23FB181A781E23FB180132A8
:1044B0001A701E23FB181B78072BE7D90C23FB1857
:1044C0005B781B02DAB20C23FB181B78DBB21343B8
:1044D000DAB21723FB181A701723FA181F23FB18D8
:1044E00012781B789A4200D0ADE06A4B181CFFF797
:1044F000D9FE3B1D00221A6000229A801D23FB1862
:1045000001221A706BE01D23FB181B78012B1CD1B4
:104510001D23FB181B785A1E1D23FB181B785B00FC
:1045200001330C217918CB5C1B0298B21D23FB18B8
:104530001B785B000C217918CB5C9BB2011C0B43F0
:1045400099B23B1D5200D15242E01D23FB181B784B
:10455000022B1CD11D23FB181B785A1E1D23FB1890
:104560001B785B0001330C217918CB5C1B0298B2DD
:104570001D23FB181B785B000C217918CB5C9BB2C8
:10458000011C0B4399B23B1D5200D15220E01D2368
:10459000FB181B78032B1BD11D23FB181B785A1EFD
:1045A0001D23FB181B785B0001330C217918CB5CB1
:1045B0001B0298B21D23FB181B785B000C21791895
:1045C000CB5C9BB2011C0B4399B23B1D5200D152F4
:1045D0001D23FB181A781D23FB1801321A701D23A6
:1045E000FB181B78032B8ED91F23FB181B783A1D51
:1045F0001288D1B2284AD1541F23FB181C783B1DC6
:104600005B881BB2181C06F0C3FA031C181C234954
:1046100005F0FCFD031C191C214BA200D1501F23E7
:10462000FB181C783B1D9B881BB2181C06F0B0FAC7
:10463000031C181C194905F0E9FD031C191C194B32
:10464000A200D15003E0134B181CFFF71BFE1F23E1
:10465000FB181A781F23FB1801321A701F23FB184E
:104660001B78032B00D8F5E60D4B1A680E4B1A6029
:104670000B4B5A680D4B1A60094B9A680C4B1A6029
:10468000074BDA680B4B1A60BD4609B090BDC046B7
:1046900040D000102CCF0010F009002000007A4418
:1046A0006C0A00207C0A0020E0090020E4090020B8
:1046B000E8090020EC09002080B584B000AF3A4B37
:1046C0005B6A1B68BB60384B5B6A181CFFF766FBB4
:1046D0000F23FB1800221A7011E00F23FB181B7820
:1046E0000F22BA181278B9688A18117C3A1CD15472
:1046F0000F23FB181A780F23FB1801321A700F23AF
:10470000FB181B78072BE8D93B1C5B781B02DAB23D
:104710003B1C1B78DBB21343DBB2DAB2234B1A70BB
:104720003B1CDB781B029AB23B1C9B789BB2134369
:104730009BB29AB21E4B1A803B1C5B791B029AB249
:104740003B1C1B799BB213439BB29AB2194B1A8044
:104750003B1CDB791B029AB23B1C9B799BB2134337
:104760009BB29AB2144B1A80114B1B889BB298B221
:10477000104B1B889BB299B20F4B1B889BB29AB20D
:104780000E4B1B6800B209B212B201F095FC0C4B43
:1047900000221A70FFF7A2FD0A4B181CFFF782FDDA
:1047A000BD4604B080BDC04640D00010F5090020D1
:1047B000F6090020F8090020FA0900202C08002042
:1047C000280800201CCF001080B582B000AF7860B0
:1047D0000A1CFB1C1A70FB1C1B7801229A407B6888
:1047E0005A60BD4602B080BD80B582B000AF78602F
:1047F0000A1CFB1C1A70FB1C1B78802252029A4078
:104800007B685A60BD4602B080BDC04680B582B0AC
:1048100000AF78607B681A687B681B7B101C191CD2
:10482000FFF7D2FFBD4602B080BDC04680B582B062
:1048300000AF78607B681A687B681B7B101C191CB2
:10484000FFF7D2FFBD4602B080BDC046F0B587B0CD
:1048500000AFF860B960FB1D1A70CE4B00221A70D1
:10486000CD4B00221A60CD4B00221A60B868FF21A0
:10487000890505F085FA031E02D0FF239B05BB6066
:10488000B868C74905F068FA031E01D0C44BBB6085
:1048900001231C1CB868002105F072FA031E01D127
:1048A00000231C1CE4B2B86807F0D8FF0A1C011CE6
:1048B00001231D1C081C111CBA4ABB4B05F012FA3F
:1048C000031E01D100231D1CEBB22340DBB2002BE1
:1048D00001D00023BB6001231C1CB868002105F037
:1048E0003BFA031E01D100231C1CE4B2B86807F098
:1048F000B5FF0A1C011C01231D1C081C111CA94A20
:10490000AA4B05F003FA031E01D100231D1CEBB2D4
:104910002340DBB2002B01D00023BB60FB1D1B78C2
:10492000052B01D900F07CFE9A00A14BD3181B681F
:104930009F46F8689F4905F023FA031E01D09D4B5E
:10494000FB60F8689C4905F007FA031E01D09A4BFA
:10495000FB60FB6899499A4A181C02F011F9031C84
:104960001A1C01235340DBB2002B00D1BFE1F868D1
:1049700007F074FF031C0C1C181C211C914A924B5D
:1049800006F076FC031C0C1C181C211C02F04AFCCF
:10499000031C0C1C8D488E491A1C231C06F068FC55
:1049A000031C0C1C181C211C07F0ACFF021C7A4BCA
:1049B0001A60794B1B685B005B08181C07F04EFF00
:1049C000031C0C1C181C211C824A834B06F028F97E
:1049D000031C0C1C181C211C1A1C231C06F020F99B
:1049E000031C0C1C181C211C7C4A7D4B07F07EF814
:1049F000031C0C1C1D1C261C674B1B685B005B0802
:104A0000181C07F02BFF031C0C1C181C211C1A1C63
:104A1000231C06F005F9031C0C1C181C211C6F4AF2
:104A20006F4B07F063F8031C0C1C281C311C1A1C6C
:104A3000231C06F01DFC031C0C1C181C211C07F079
:104A400061FF021C554B1A60534B1B68181C07F082
:104A500005FF031C0C1C181C211C524A524B05F06C
:104A600055F9031E00D17CE04B4B1B68181C5D49B7
:104A700005F072F9031E74D0474B1B68181C07F031
:104A8000EDFE031C0C1C181C211C524A524B07F053
:104A9000C7FA031C0C1C4D484D491A1C231C06F078
:104AA000E7FB031C0C1C181C211C02F07BF9031CE7
:104AB0000C1C181C211C434A434B07F017F8031C1D
:104AC0000C1C181C211C07F01DFF021C464B1A6011
:104AD000314B1B68181C07F0C1FE031C0C1C181C72
:104AE000211C3C4A3C4B06F09BF8031C0C1C37482D
:104AF00037491A1C231C06F0BBFB031C0C1C181C9A
:104B0000211C02F04FF9031C0C1C181C211C2D4AFF
:104B10002D4B06F0EBFF031C0C1C181C211C07F08E
:104B2000F1FE021C314B1A601C4B1B68B868191C43
:104B300005F06CFB031C1A1C2D4B1A60174B1B68ED
:104B4000181CB96805F054FD031C1A1C294B1A6087
:104B5000274B1A68284B1A60264B1A68274B1A6095
:104B6000D7E00D4B1B68181C07F078FE031C0C1CCB
:104B7000181C211C0B4A0D4B05F0B4F8031E00D184
:104B8000C7E0054B1B68181C1D4905F0F9F8031E0A
:104B900038D1BEE08C0A0020FC090020000A002069
:104BA0000000C0BF9A9999999999A93F9999A9BF6D
:104BB000E8D0001000004842000048C20000A0C039
:104BC0000000A040C7F484251EA64C4079E9263198
:104BD00008ACDC3F77BE9F1A2FDDC43F182D44542C
:104BE000FB2109400000A041140A0020180A0020FF
:104BF000040A0020080A00200C0A0020100A0020E5
:104C00000000A0C1DF4B1B68181C07F027FE031C27
:104C10000C1C181C211CDC4ADC4B07F001FA031C9D
:104C20000C1CDB48DB491A1C231C06F021FB031C6F
:104C30000C1C181C211C02F0B5F8031C0C1C181CC1
:104C4000211CD54AD54B06F051FF031C0C1C181C27
:104C5000211C07F057FE021CD14B1A60C94B1B6880
:104C6000181C07F0FBFD031C0C1C181C211CC64A59
:104C7000C64B05F0D5FF031C0C1CC548C5491A1CC2
:104C8000231C06F0F5FA031C0C1C181C211C02F056
:104C900089F8031C0C1C181C211CBF4ABF4B06F0D2
:104CA00025FF031C0C1C181C211C07F02BFE021CEA
:104CB000BC4B1A60BC4B1B68181CB96805F098FC0B
:104CC000031C1A1CB94B1A60B74B1B68B868191C37
:104CD00005F09CFA031C1A1CB54B1A60B34B1A68FA
:104CE000B44B1A60B24B1A68B34B1A6011E0AC4B6C
:104CF00000221A60AB4B00221A60AC4BBA681A60F3
:104D0000AB4BBA681A60AB4BBA681A60AA4BBA6868
:104D10001A60AA4B00221A60A94B00221A6000F008
:104D200001FDF868A74905F02BF8031E01D0A54B3B
:104D3000FB60F868A44905F00FF8031E01D0A24BF0
:104D4000FB60FB68A149A24A181C01F019FF031C73
:104D50001A1C01235340DBB2002B00D1BFE1F868DD
:104D600007F07CFD031C0C1C181C211C8A4A8B4B71
:104D700006F07EFA031C0C1C181C211C02F052FACF
:104D8000031C0C1C824883491A1C231C06F070FA71
:104D9000031C0C1C181C211C07F0B4FD021C794BD1
:104DA0001A60784B1B685B005B08181C07F056FD07
:104DB000031C0C1C181C211C734A744B05F030FF9B
:104DC000031C0C1C181C211C1A1C231C05F028FF9A
:104DD000031C0C1C181C211C7E4A7F4B06F086FE0F
:104DE000031C0C1C1D1C261C664B1B685B005B080F
:104DF000181C07F033FD031C0C1C181C211C1A1C6A
:104E0000231C05F00DFF031C0C1C181C211C714AEF
:104E1000714B06F06BFE031C0C1C281C311C1A1C69
:104E2000231C06F025FA031C0C1C181C211C07F07F
:104E300069FD021C5C4B1A60524B1B68181C07F082
:104E40000DFD031C0C1C181C211C644A644B04F04F
:104E50005DFF031E00D17CE04A4B1B68181C6149B2
:104E600004F07AFF031E74D0464B1B68181C07F031
:104E7000F5FC031C0C1C181C211C434A434B07F077
:104E8000CFF8031C0C1C424842491A1C231C06F094
:104E9000EFF9031C0C1C181C211C01F083FF031CE0
:104EA0000C1C181C211C3C4A4F4B06F01FFE031C17
:104EB0000C1C181C211C07F025FD021C3F4B1A601E
:104EC000304B1B68181C07F0C9FC031C0C1C181C79
:104ED000211C2D4A2D4B05F0A3FE031C0C1C2C4855
:104EE0002C491A1C231C06F0C3F9031C0C1C181CAB
:104EF000211C01F057FF031C0C1C181C211C264A06
:104F0000394B06F0F3FD031C0C1C181C211C07F088
:104F1000F9FC021C2A4B1A60234B1B68B868191C49
:104F200005F074F9031C1A1C204B1A601E4B1B68F9
:104F3000181CB96805F05CFB031C1A1C1C4B1A609A
:104F40001A4B1A681B4B1A60194B1A681A4B1A60D5
:104F5000D7E00C4B1B68181C07F080FC031C0C1CD2
:104F6000181C211C1D4A214B04F0BCFE031E00D15D
:104F7000C7E0044B1B68181C1D4904F001FF031E09
:104F800038D1BEE0FC09002077BE9F1A2FDDC43F58
:104F900079E9263108ACDC3FC7F484251EA64C40D5
:104FA000140A0020180A0020000A0020040A002029
:104FB000080A00200C0A0020100A00201C0A002009
:104FC000200A002000004842000048C20000A0C0A3
:104FD0000000A040182D4454FB2109409A9999994A
:104FE0009999A93F0000A0411EA64CC09999A9BF5C
:104FF0000000A0C1E64B1B68181C07F02FFC031C27
:105000000C1C181C211CE34AE34B07F009F8031C95
:105010000C1CE248E2491A1C231C06F029F9031C67
:105020000C1C181C211C01F0BDFE031C0C1C181CC0
:10503000211CDC4ADC4B06F059FD031C0C1C181C1F
:10504000211C07F05FFC021CD84B1A60D04B1B6878
:10505000181C07F003FC031C0C1C181C211CCD4A57
:10506000CD4B05F0DDFD031C0C1CCC48CC491A1CB3
:10507000231C06F0FDF8031C0C1C181C211C01F05D
:1050800091FE031C0C1C181C211CC64AC64B06F0C2
:105090002DFD031C0C1C181C211C07F033FC021CEA
:1050A000C34B1A60C34B1B68181CB96805F0A0FA03
:1050B000031C1A1CC04B1A60BE4B1B68B868191C35
:1050C00005F0A4F8031C1A1CBC4B1A60BA4B1A68F2
:1050D000BB4B1A60B94B1A68BA4B1A6011E0B34B5C
:1050E00000221A60B24B00221A60B34BBA681A60F1
:1050F000B24BBA681A60B24BBA681A60B14BBA6860
:105100001A60B14B00221A60B04B00221A6009E30A
:10511000F868AF4904F034FE031E01D0AC4BFB60CD
:10512000F868AC4904F018FE031E01D0A94BFB60DF
:10513000FB68A949A94A181C01F022FD031C1A1C8E
:1051400001235340DBB2002B00D1E0E1F86807F007
:1051500085FB031C0C1C181C211C924AA04B06F05A
:1051600087F8031C0C1C181C211C02F05BF8031CA4
:105170000C1C9C489C491A1C231C06F079F8031C43
:105180000C1C181C211C07F0BDFB021C804B1A6074
:105190007F4B1B685B005B08181C07F05FFB031C60
:1051A0000C1C181C211C7B4A7B4B05F039FD031C91
:1051B0000C1C181C211C1A1C231C05F031FD031C9F
:1051C0000C1C181C211C894A894B06F08FFC031CFF
:1051D0000C1C1D1C261C6E4B1B685B005B08181CFE
:1051E00007F03CFB031C0C1C181C211C1A1C231C64
:1051F00005F016FD031C0C1C181C211C7B4A7C4B63
:1052000006F074FC031C0C1C281C311C1A1C231CEB
:1052100006F02EF8031C0C1C181C211C07F072FB56
:10522000021C644B1A605A4B1B68181C07F016FBD3
:10523000031C0C1C181C211C6E4A6F4B04F066FDED
:10524000031E00D18BE0524B1B68181C6B4904F005
:1052500083FD031E00D182E04D4B1B68181C07F034
:10526000FDFA031C0C1C181C211C4A4A4A4B06F070
:10527000D7FE031C0C1C494849491A1C231C05F085
:10528000F7FF031C0C1C181C211C01F08BFD031CD8
:105290000C1C181C211C434A514B06F027FC031C14
:1052A0000C1C181C211C07F02DFB021C464B1A601D
:1052B000374B1B68181C07F0D1FA031C0C1C181C78
:1052C000211C344A344B05F0ABFC031C0C1C334846
:1052D00033491A1C231C05F0CBFF031C0C1C181CA3
:1052E000211C01F05FFD031C0C1C181C211C2D4A05
:1052F0003B4B06F0FBFB031C0C1C181C211C07F08D
:1053000001FB021C314B1A602F4B1B6880221206D6
:105310005A40264B1A602D4B1B68802212065A40B9
:10532000234B1A60234B1B68B868191C04F06EFFEE
:10533000031C1A1C204B1A601E4B1B68181CB968F2
:1053400005F056F9031C1A1C1C4B1A601A4B1A68FC
:105350001B4B1A60194B1A681A4B1A60F0E00C4B81
:105360001B68181C07F07AFA031C0C1C181C211C63
:10537000204A234B04F0B6FC031E00D1E0E0044BAE
:105380001B68181C1F4904F0FBFC031E3CD1D7E02E
:10539000FC09002077BE9F1A2FDDC43F79E9263132
:1053A00008ACDC3FC7F484251EA64CC01C0A0020B4
:1053B000200A0020000A0020040A0020080A002019
:1053C0000C0A0020100A0020140A0020180A0020ED
:1053D0000000F0410000F0C10000A0C00000A040AB
:1053E0001EA64C40295C8FC2F528CC3F182D445492
:1053F000FB2109409A9999999999A93F0000A041E8
:105400009999A9BF0000A0C1D84B1B68181C07F0D0
:1054100025FA031C0C1C181C211CD54AD54B06F080
:10542000FFFD031C0C1CD448D4491A1C231C05F096
:105430001FFF031C0C1C181C211C01F0B3FC031CD7
:105440000C1C181C211CCE4ACE4B06F04FFB031C33
:105450000C1C181C211C07F055FA021CCA4B1A60C0
:10546000C24B1B68181C07F0F9F9031C0C1C181C14
:10547000211CBF4ABF4B05F0D3FB031C0C1CBE48CC
:10548000BE491A1C231C05F0F3FE031C0C1C181C3F
:10549000211C01F087FC031C0C1C181C211CB84AA1
:1054A000B84B06F023FB031C0C1C181C211C07F036
:1054B00029FA021CB54B1A60B34B1B6880221206F6
:1054C0005A40B34B1A60B14B1B68802212065A40F7
:1054D000B04B1A60B04B1B68181CB96805F088F80F
:1054E000031C1A1CAD4B1A60AB4B1B68B868191C27
:1054F00004F08CFE031C1A1CA94B1A60A74B1A68F7
:10550000A84B1A60A64B1A68A74B1A6018E09E4B6E
:1055100000221A609D4B00221A609D4B00221A60E7
:105520009C4B00221A609D4BBA681A609C4BBA686B
:105530001A609C4BBA681A609B4BBA681A60F1E01B
:10554000F0E0F868994905F053F8031CFB60F8682F
:10555000974904F015FC031E01D0954BFB60F868D9
:10556000944904F0F9FB031E01D0924BFB60864B7B
:10557000FA681A60854BFA681A60854BFA681A60F7
:10558000844BFA681A60854BBA681A60844BBA6813
:105590001A60844BBA681A60834BBA681A60C1E01B
:1055A000794B854A1A60794B844A1A60784B834A52
:1055B0001A60784B804A1A60F868814904F0E0FB71
:1055C000031E0CD0754B7F4A1A60754B7E4A1A60D9
:1055D000744B7C4A1A60744B7B4A1A601FE0F8686F
:1055E0007A4904F0B9FB031E0CD06C4B764A1A6062
:1055F0006B4B744A1A606B4B734A1A606A4B714A60
:105600001A600CE0654B00221A60654B00221A609C
:10561000644B00221A60644B00221A6082E081E031
:10562000594B00221A60594B00221A60584B002235
:105630001A60584B00221A60584B00221A60584BCF
:1056400000221A60574B00221A60574B00221A6042
:105650005F4B1B78042B5FD15D4B00221A70172320
:10566000FB1800221A705B4B1B78DBB2012B03D1B5
:105670001723FB1802221A70574B1B68574A934294
:105680000CD91723FB181B78554A59008A5A92B235
:10569000013291B2524A5B00995210E04E4B1B68A6
:1056A000504A93420BD81723FB181B784C4A5900D9
:1056B0008A5A92B2013A91B2494A5B0099524A4BD6
:1056C0001B68181C494904F05BFB031E0DD017230F
:1056D000FB181B780133424A59008A5A92B20132B0
:1056E00091B23F4A5B0099521CE03F4B1B68181C6B
:1056F0003F4904F031FB031E00D113E01723FB18D0
:105700001B780133364A59008A5A92B2013A91B253
:10571000334A5B00995205E02D4B1B780133DAB216
:105720002B4B1A70184B1A68324B1A60174B1A68B9
:10573000304B5A60164B1A682E4B9A60154B1A68FC
:105740002C4BDA60154B1A682B4B1A60144B1A68F5
:10575000294B5A60134B1A68274B9A60124B1A68F0
:10576000254BDA60BD4607B0F0BDC046FC090020FD
:1057700077BE9F1A2FDDC43F79E9263108ACDC3FA4
:10578000C7F484251EA64C40140A0020180A0020E5
:105790001C0A0020200A0020000A0020040A002021
:1057A000080A00200C0A0020100A002000002040F7
:1057B00000003E4300003EC385EB93C285EB93425D
:1057C00000002041CDCCCCBECDCCCC3E000020C1D1
:1057D000300A00203C080020A80A0020A0F0190090
:1057E000400800207F4F1200B40A00200000F04162
:1057F0000000F0C15C0A00203C0A0020F8B500AFB0
:105800004F4B181C042101F03FFA021C4D4B1A604B
:105810004D4B1B78DBB2052B5BD89A004B4BD31852
:105820001B689F46474B1B68181C07F017F8051CA0
:105830000E1C474B1B68181C07F010F8031C0C1CAF
:10584000181C211C434A444B05F012FD031C0C1C80
:10585000181C211C01F044FC031C0C1C281C311CCE
:105860001A1C231C06F042F9031C0C1C181C211CDA
:1058700007F048F8021C394B1A60324B1B68181CA1
:1058800006F0ECFF051C0E1C314B1B68181C06F0C3
:10589000E5FF031C0C1C181C211C2E4A2E4B05F086
:1058A000E7FC031C0C1C181C211C01F06BFC031CE6
:1058B0000C1C281C311C1A1C231C06F017F9031C95
:1058C0000C1C181C211C07F01DF8021C244B1A602C
:1058D00007E0224B00221A60214B00221A6000E0F0
:1058E000C0461E4B1A681F4B1A601D4B1A681D4B91
:1058F0005A601B4B1B68181C06F0B0FF051C0E1CE1
:10590000164B1B68181C06F0A9FF031C0C1C281C56
:10591000311C1A1C231C01F0B1FC031C0C1C181CAC
:10592000211C0C4A0C4B06F0E1F8031C0C1C181C43
:10593000211C06F0E7FF021C0B4B1A60BD46F8BDA8
:105940003C0A00202C0A00202A08002000D1001068
:105950005C0A0020C7F484251EA64C40240A0020BF
:10596000280A0020980A0020A00A002080B582B0F2
:1059700000AF021CFB1D1A70FB1D1B780122134097
:1059800004D0174B181CFEF751FF03E0144B181CF2
:10599000FEF73CFFFB1D1B785B08DBB21A1C0123E2
:1059A000134004D00F4B181CFEF740FF03E00D4BD3
:1059B000181CFEF72BFFFB1D1B789B08DBB21A1C83
:1059C0000123134004D0084B181CFEF72FFF03E0FF
:1059D000054B181CFEF71AFFBD4602B080BDC0463D
:1059E000ECCE0010FCCE00100CCF001080B582B0C1
:1059F00000AF78600A1CFB1C1A70FB1C1B7801228C
:105A00009A407B685A60BD4602B080BD80B582B0C6
:105A100000AF78600A1CFB1C1A70FB1C1B788022EC
:105A200052029A407B685A60BD4602B080BDC046B3
:105A300080B582B000AF78600A1CFB1C1A707B68CE
:105A40005A6AFB1C1B78DA40131C01221340181CF5
:105A5000BD4602B080BDC04680B582B000AF786060
:105A60007B681A687B681B7B101C191CFFF7BEFF44
:105A7000BD4602B080BDC04680B582B000AF786040
:105A80007B681A687B681B7B101C191CFFF7BEFF24
:105A9000BD4602B080BDC04680B582B000AF786020
:105AA0007B685A687B689B7F101C191CFFF7C0FF3E
:105AB000031C181CBD4602B080BDC04680B500AFB7
:105AC0000A4B1B78DBB2012B04D1094B1B685A1C13
:105AD000074B1A60074B1B78DBB2012B04D1064B36
:105AE0001B685A1C044B1A60BD4680BD3808002054
:105AF000B80A002039080020BC0A0020F8B500AF21
:105B0000664B181CFDF75EFD654B181CFDF75AFD32
:105B1000624A644B101C191CFDF78AFD604A624BF7
:105B2000101C191CFDF784FD604B1B78DBB2092BA0
:105B30003BD85D4B1B685E4A93422FD95A4B1B687A
:105B40005C4A93422AD8584B1B68181C06F054FE36
:105B5000031C0C1C181C211C0022574B06F060FA79
:105B6000031C0C1C1D1C261C544B1B68181C06F027
:105B700075FE031C0C1C281C311C1A1C231C05F070
:105B8000B5FF031C0C1C181C211C06F0BBFE021CDC
:105B90004B4B1A604B4B00221A7009E0494B1B78A3
:105BA0000133DAB2474B1A7002E0454B00221A600B
:105BB0003C4B1B683E4A934240D93A4B1B683D4AD6
:105BC00093423BD8374B1B68181C06F015FE031C8C
:105BD0000C1C181C211C0022374B06F021FA031C58
:105BE0000C1C1D1C261C384B1B68181C06F036FEAE
:105BF000031C0C1C281C311C1A1C231C05F076FFEE
:105C0000031C0C1C181C211C06F07CFE021C8023AB
:105C10001B065A402D4B1A602C4B1B688021C9056E
:105C2000C0221206181C00F0ABFF031E02D0274B47
:105C300000221A60264B00221A7005E0244B1B78C4
:105C40000133DAB2224B1A701E4B1B78142B03D887
:105C50001F4B1B78142B10D91E4B181CFFF70CFF81
:105C6000184B14221A701A4B14221A701A4B002265
:105C70001A601A4B00221A600BE0164B181CFFF733
:105C8000EBFE0F4B1A68144B1A60104B1A68134B3B
:105C90001A60134B01221A70BD46F8BDE0060020C1
:105CA00014070020A40A0020A80A00203D080020B4
:105CB0003F420F0080841E0060E336413008002020
:105CC000B00A0020AC0A002034080020B40A0020EA
:105CD000AD0A0020CCCE0010380A0020340A002083
:105CE0008C0A002080B582B000AF314B1B78DBB24C
:105CF000012B59D12F4B181CFFF7CEFE031CDAB233
:105D00002D4B1A702C4B1B78DBB2002B4CD1FFF7BC
:105D1000F5FE2A4B1B687B60284B00221A607B68CB
:105D2000502B06D97B68952B03D8254B00221A707F
:105D30000CE07B68962B06D97B68D12B03D8204BCF
:105D400001221A7002E01E4B02221A701D4B1B78B2
:105D5000DBB2002B1CD11A4B1B78DBB2002B1ED1FF
:105D6000194B1B78DBB2012B19D1184B1B78DBB216
:105D70000133DAB2154B1A70144B1B78DBB2042BCB
:105D800002D9124B00221A700E4B0A221A7006E03A
:105D90000C4B1B78DBB2013BDAB20A4B1A70084B92
:105DA0001B78DAB2084B1A70BD4602B080BDC046FF
:105DB0002908002064CE001038080020B80A00200E
:105DC0003A0800202B0800203B0800202A08002069
:105DD00080B582B000AF254B1B78DBB2012B41D1DF
:105DE000234B181CFFF758FE031CDAB2214B1A7024
:105DF000204B1B78DBB2002B34D11F4B1B687B6020
:105E00001D4B00221A607B68502B06D97B68952BAE
:105E100003D81A4B00221A700CE07B68952B06D928
:105E20007B68D12B03D8154B01221A7002E0134B6B
:105E300002221A70114B1B78DBB2012B03D1104BDD
:105E400000221A7006E00E4B1B78DBB20133DAB287
:105E50000B4B1A700A4B1B78DBB20A2B02D9084B8A
:105E60000A221A70BD4602B080BDC0462908002033
:105E700084CE001039080020BC0A00203C08002015
:105E80003D080020F0B585B000AF78600F23FB1807
:105E900000221A7063E00F23FB181C780F23FB18F5
:105EA0001B789B007A68D3181B6880221206534027
:105EB000181C06F0D3FC021C0B1C101C191C424AB7
:105EC000424B05F013FE021C0B1C151C1E1C0F235D
:105ED000FB181A783E4B5200D35A9BB2181C06F09E
:105EE0004FFC021C0B1C281C311C04F099FE021CE8
:105EF0000B1C101C191C06F005FD011C354BA200E3
:105F0000D1500F23FB181A78324B9200D358181C2B
:105F1000314903F035FF031E07D00F23FB181A7811
:105F20002C4B92002C49D15012E00F23FB181A7809
:105F3000284B9200D358181C284903F00DFF031E6C
:105F400006D00F23FB181A78224B92002349D15018
:105F50000F23FB181A780F23FB1801321A700F2336
:105F6000FB181B78032B96D91A4B1B68181C03F0DF
:105F700083FF021C1A4B181C111CFCF7DDFE154B8D
:105F80005B68181C03F078FF021C164B181C111CD0
:105F9000FCF7D2FE0F4B9B68181C03F06DFF021C30
:105FA000114B181C111CFCF7C7FE0A4BDB68181CB0
:105FB00003F062FF021C0D4B181C111CFCF7BCFE09
:105FC000BD4605B0F0BDC046A4703D0AD7A3E43F6E
:105FD00040080020C00A002000806D440080094471
:105FE000DC05002010060020440600207806002072
:105FF00080B582B000AF78600A1CFB1C1A70FB1CD5
:106000001B7801229A407B685A60BD4602B080BD71
:1060100080B582B000AF78600A1CFB1C1A70FB1CB4
:106020001B78802252029A407B685A60BD4602B0BB
:1060300080BDC04680B582B000AF78600A1CFB1CF2
:106040001A70FB1C1B78034A9A407B685A60BD4655
:1060500002B080BD0100010080B582B000AF786061
:106060007B681A687B681B7B101C191CFFF7C0FF3C
:10607000BD4602B080BDC04680B582B000AF78603A
:106080007B681A687B681B7B101C191CFFF7C0FF1C
:10609000BD4602B080BDC04680B582B000AF78601A
:1060A0007B681A687B681B7B101C191CFFF7C2FFFA
:1060B000BD4602B080BDC046F0B587B000AF041C3D
:1060C000081C111C7B600E23FB18221C1A800C2359
:1060D000FB18021C1A800A23FB180A1C1A800E23C4
:1060E000FB1800229B5E002B1CD0CF4B00221A70A5
:1060F0000E23FB1800229B5E181C04F049FD031CB4
:10610000181CCA4904F082F8031C191CC84B1A68F1
:106110007B68081C111C1A1C00F096FD021CC44B65
:106120001A6005E0C04B1B780133DAB2BE4B1A701F
:106130000C23FB1800229B5E002B2CD0BD4B1B6850
:10614000802212065340181C00F088F9031C1A1C08
:10615000B94B1A70B84B1B78002B22D1B24B0022DE
:106160005A700C23FB1800229B5E181C04F010FDD3
:10617000031C181CAD4904F049F8031C191CAF4B53
:106180001A687B68081C111C1A1C00F05DFD021CBB
:10619000AA4B1A6005E0A44B5B780133DAB2A24B3C
:1061A0005A700A23FB1800229B5E002B29D0A14BBA
:1061B0005B68181C00F052F9031C1A1CA04B1A70E3
:1061C0009F4B1B78002B22D1974B00229A700A23F9
:1061D000FB1800229B5E181C04F0DAFC031C181C40
:1061E000924904F013F8031C191C964B1A687B683B
:1061F000081C111C1A1C00F027FD021C914B1A6090
:1062000005E0894B9B780133DAB2874B9A701723EC
:10621000FB1800221A7013E01723FB181B78824A20
:10622000D35C142B05D91723FB181B787E4A142145
:10623000D1541723FB181A781723FB1801321A7050
:106240001723FB181B78022BE6D9774B1B78132BEF
:1062500011D87D4B00229A60754B1A687A4B5A60B0
:10626000794B01221A70784B5A68774BDA60764B7B
:1062700000221A6102E0744B00221A706A4B5B78AC
:10628000132B61D86B4B1A68704B9A606B4B1A6872
:106290006E4B5A606D4B01221A706C4B5B68181C78
:1062A00006F0DCFA051C0E1C684B9B68181C06F0F7
:1062B000D5FA031C0C1C181C211C654A654B04F004
:1062C000D7FF031C0C1C181C211C00F009FF031C29
:1062D0000C1C281C311C1A1C231C05F007FC031C79
:1062E0000C1C181C211C06F00DFB021C574BDA601D
:1062F000564B5B68181C06F0B1FA051C0E1C534B7C
:106300009B68181C06F0AAFA031C0C1C181C211C04
:106310004F4A504B04F0ACFF031C0C1C181C211CF2
:1063200000F030FF031C0C1C281C311C1A1C231C01
:1063300005F0DCFB031C0C1C181C211C06F0E2FA07
:10634000021C424B1A6102E0404B00221A70364B8D
:106350009B78132B61D8374B5A683F4B9A60394B67
:106360001A683D4B5A603C4B01221A703A4B5B68ED
:10637000181C06F073FA051C0E1C374B9B68181C82
:1063800006F06CFA031C0C1C181C211C304A314B03
:1063900004F06EFF031C0C1C181C211C00F0A0FE56
:1063A000031C0C1C281C311C1A1C231C05F09EFB12
:1063B000031C0C1C181C211C06F0A4FA021C264B02
:1063C000DA60254B5B68181C06F048FA051C0E1CA9
:1063D000214B9B68181C06F041FA031C0C1C181C6E
:1063E000211C1B4A1B4B04F043FF031C0C1C181CF4
:1063F000211C00F0C7FE031C0C1C281C311C1A1C9D
:10640000231C05F073FB031C0C1C181C211C06F03C
:1064100079FA021C104B1A6102E00F4B00221A702D
:10642000BD4607B0F0BDC046540800200000C84279
:10643000480800205C0A0020D00A00204C080020F8
:10644000D10A002050080020180B0020F00A00207C
:10645000C7F484251EA64C40040B002080B582B0F2
:1064600000AF78607868002103F08AFC031E09D031
:106470007B680F490F4A181C00F082FB031E01D0F5
:10648000012310E07868002103F066FC031E09D0A8
:106490007B680949094A181C00F072FB031E01D0F1
:1064A000012300E00023181CBD4602B080BDC04699
:1064B0000000524300004842000016C300009BC386
:1064C00090B585B002AF514B1B78002B0BD1504BD0
:1064D00000225A704F4B01225A704F4B02225A70C1
:1064E0004A4B01221A704D4B1B78DBB20133DAB2F2
:1064F0004A4B1A70494B1B78DBB2C82B03D9474B68
:10650000C8221A707FE0464BFE2292051A60454B66
:10651000454A1A60454BFF2292051A603C4B6A4679
:1065200019691160186859689A68DB6800F090F87A
:106530003B4B1B68181C002103F008FC031E03D012
:106540003B4B3C4A1A6012E0394B1B68181C002177
:1065500003F016FC031E0AD0354B1B68181CFE21E5
:10656000890504F077F9031C1A1C314B1A602D4B76
:106570001B68181CFF21890503F0EEFB031E13D0D6
:106580002D4B1B68181C002103F0E0FB031E0BD1F0
:10659000244B1A68284B1B68101C191C03F036FE8C
:1065A000031C1A1C1E4B1A60FB1D00221A7016E0F9
:1065B000FB1D1C78FB1D1A781F4B9200D258184BFC
:1065C0001B68101C191C04F013F8031C191C1B4B2E
:1065D000A200D150FB1D1A78FB1D01321A70FB1D61
:1065E0001B78032BE4D9154B1A68154B1A60134B13
:1065F0005A68144B1A60114B9A68134B1A600F4B70
:10660000DA68124B1A60BD4603B090BDE80A00205C
:10661000180B0020F00A0020040B0020280800209E
:10662000580800205C080020AE47C13F60080020E9
:10663000D40A0020CDCC4C3D3C0A00204C0A00205E
:10664000D80A0020DC0A0020E00A0020E40A00202A
:1066500084B0F0B583B000AF20243C1920606160A5
:10666000A260E3602023FB185B78181C002100F077
:10667000B7F82023FB181B7801225340DBB2002B14
:1066800000D096E02023FB185B68181CFE218905CA
:1066900003F076FB031E00D08BE0494A2023FB1851
:1066A0000C33101C191C00F019FB031C7B6078686C
:1066B00006F0D4F8031C0C1C181C211C414A424B48
:1066C00003F010FB031E00D073E02023FB185B686F
:1066D000181C06F0C3F8051C0E1C3C4B1B68181C4C
:1066E00006F0BCF8031C0C1C181C211C354A384B46
:1066F00004F096FA031C0C1C281C311C1A1C231CC9
:1067000003F0F0FA031E0AD0324B00221A60202355
:10671000FB185B78181C012100F062F849E07868EA
:1067200006F09CF8051C0E1C2023FB185B68181C47
:1067300006F094F8031C0C1C181C211C214A244B45
:1067400005F06EFC031C0C1C281C311C1A1C231C9D
:1067500003F0DCFA031E2CD02023FB185B68181C06
:1067600006F07CF8031C0C1C181C211C154A184B45
:1067700005F056FC031C0C1C181C211C06F0C2F86A
:10678000021C154B1A60154B1A68134B1B68101C22
:10679000191C03F0F5FA031E0BD00F4B1A680F4BB0
:1067A0001A602023FB185B78181C022100F018F8EF
:1067B000C046BD4603B0F0BC08BC04B01847C04694
:1067C000980A00209A9999999999A93FD40A00208A
:1067D0009999C93F58080020600800205C080020F3
:1067E00080B582B000AF021CFB1D1A70BB1D0A1CD5
:1067F0001A70FB1D1B78002B1ED1BB1D1B78002BB4
:1068000004D1384B181CFFF737FC5AE0BB1D1B782E
:10681000012B04D1334B181CFFF71EFC51E0BB1DAC
:106820001B78022B4DD1304B1B78002B49D12D4BBF
:10683000181CFFF731FC44E0FB1D1B78012B1ED117
:10684000BB1D1B78002B04D1284B181CFFF714FC30
:1068500037E0BB1D1B78012B04D1244B181CFFF71C
:10686000FBFB2EE0BB1D1B78022B2AD11E4B1B7895
:10687000002B26D11D4B181CFFF70EFC21E0FB1D41
:106880001B78022B1DD1BB1D1B78002B04D1184B8C
:10689000181CFFF7F1FB14E0BB1D1B78012B04D182
:1068A000134B181CFFF7D8FB0BE0BB1D1B78022B0A
:1068B00007D10D4B1B78002B03D10D4B181CFFF794
:1068C000EBFB094B1B780133DAB2074B1A70064B0E
:1068D0001B78082B02D9044B00221A70BD4602B067
:1068E00080BDC0463CCF0010E90A00204CCF00100C
:1068F0005CCF001080B582B000AF78600A1CFB1C32
:106900001A70FB1C1B7801229A407B685A60BD46B6
:1069100002B080BD80B582B000AF78600A1CFB1C5D
:106920001A70FB1C1B78802252029A407B685A60C6
:10693000BD4602B080BDC04680B582B000AF786071
:106940007B681A687B681B7B101C191CFFF7D2FF41
:10695000BD4602B080BDC04680B582B000AF786051
:106960007B681A687B681B7B101C191CFFF7D2FF21
:10697000BD4602B080BDC04680B500AF034B034AA0
:10698000526801210A435A60BD4680BD00000240A2
:1069900080B500AF024B0122DA61BD4680BDC04622
:1069A0000000024080B500AFFFF7E6FFBD4680BDA6
:1069B00080B500AFFFF7ECFFBD4680BD90B583B05A
:1069C00000AFFC1DFDF7D4FA031C2370FB1D1B78E0
:1069D000002B00D0FEE7094B181CFDF71DFA031C25
:1069E0001A1C074B1A70064B1B78002B02D1054B63
:1069F00001221A60FFF7D6FFFEE7C04640D0001024
:106A00002C0B0020EC0A002080B500AFFFF7D0FF70
:106A1000024B181CFFF790FFBD4680BD1CCF001035
:106A200080B582B000AF484B181CFFF785FF474B7D
:106A30001B78DBB2181CFEF799FF454B1B78DBB2C5
:106A4000012B07D1434B1B68092B03D9424B181C60
:106A5000FFF782FF414B1B78DBB2012B13D1404B78
:106A60001968404B1A68394B1B78DBB2081C111CA3
:106A70001A1CFDF7EBFE374B1B68002B30D0354B53
:106A800000221A602CE0334B1B685A1C314B1A60F1
:106A9000304B1B68142B08D8334B1B78DBB20A2B06
:106AA00003D8324B1B78002B1AD02A4B14221A60C1
:106AB0002F4B00221A602E4B00225A602C4B0022D2
:106AC0009A602B4B0022DA602A4B00221A60294B75
:106AD00000225A60274B00229A60264B0022DA607F
