:020000041000EA
:10100000500500201D100010000000009D10001071
:101010000018040000010000000000801149124A7D
:10102000124B00F018F8124880471249124A134B2D
:1010300000F011F81249134A134B00F00CF8134951
:10104000134A0020521A02DD043A8850FCDC114891
:101050008047114880479B1A03DD043BC858D05095
:10106000FBDC7047445400100C00002050010020AD
:10107000A1100010885500105005002038060020EF
:101080007056001038060020380600203806002070
:10109000940600208951001071300010FEE7000016
:1010A00080B500AF01F060FB01F0ACFBBD4680BD38
:1010B00080B500AF2A4B1A68FF231B0213401A0A9F
:1010C000284B1A60274B1B68002B37D0244B1B681A
:1010D000FF221A40244B1A60214BDB690322134084
:1010E0001A02214B1B681A431F4B1A601C4BDA690A
:1010F00080239B0013400ED11A4B1B689A021A4B97
:101100001B68D3181948191C00F078FF031C1A013A
:10111000174B1A6021E000F02FF8031C9901114BC6
:101120001B689A02104B1B68D318081C191C00F08E
:1011300065FF031C1A010E4B1A600EE0084BDA69BA
:1011400080239B00134003D1094B0A4A1A6004E034
:1011500000F012F8021C064B1A60BD4680BDC04666
:1011600000030140380600203C06002000001BB7A9
:10117000FC3F0020006CDC0280B500AF014B181C66
:10118000BD4680BD002D310180B582B000AF7860D2
:10119000BD4602B080BDC04690B585B000AFF860D6
:1011A0007A600B23FB180A1C1A700B23FB181B78A0
:1011B0009B08DBB2181C0B23FB181B789B08DBB2C7
:1011C0001A1CFB6804329200D3580B22BA1812780A
:1011D00003210A40D200111CFC228A40D2431A404B
:1011E000111CFB68021D9200D150FB685B6F0B2243
:1011F000BA1812785200111C03228A40D2431A40B6
:10120000FB685A670B23FB181B78DB08DBB2181C42
:101210000B23FB181B78DB08DBB21A1CFB681032AF
:101220009200D3580B22BA18127807210A40920074
:10123000111C04228A40D2431A40111CFB68021C74
:1012400010329200D1500B23FB181B78DB08DBB265
:10125000181C0B23FB181B78DB08DBB21A1CFB687D
:1012600010329200D2587B685B781C1C0B23FB1851
:101270001B7807210B409B009C40231C1A43111C28
:10128000FB68021C10329200D150FB68204A934246
:101290000BD1FB681B6E0B22BA181278012191400A
:1012A0000A1CD2431A40FB681A667B681B78DBB2C3
:1012B0005BB2002B07DA7B685A680B23FB181B789C
:1012C0009A40FB685A600B23FB181B789B08DBB223
:1012D000181C0B23FB181B789B08DBB21A1CFB683D
:1012E00004329200D2587B681B781C1C0B23FB181D
:1012F0001B7803210B40DB009C40231C1A43111C6C
:10130000FB68021D9200D150BD4605B090BDC0469D
:101310000002044080B500AF024BC3225A62BD46B2
:1013200080BDC0460000014080B500AF054BC02223
:101330005A62C046034B5B6A04221340FAD1BD4691
:1013400080BDC0460000014080B586B000AF786027
:10135000FFF7EAFF7B689B79302B53D0FFF70CFF38
:10136000021E494B9A4209D9484A48499023CB5A10
:101370009BB240210B4399B29023D152434A434937
:101380009023CB5A9BB29BB2191C322399430B1C5E
:1013900099B27B689B799BB20B439BB299B2902325
:1013A000D1523B4B02229A623A4B3A4A52693A492D
:1013B0000A405A61394B7B6100E0C0467B69013BC2
:1013C0007B617B69002BF8D1324B324A5269C021D4
:1013D00089040A435A61C0462E4B5A6980235B0434
:1013E0001340F9D12E4B3B6100E0C0463B69013B05
:1013F0003B613B69002BF8D1254B1B6A022213404D
:10140000CFD109E0214A21499023CB5A9BB2302108
:101410000B4399B29023D1521C4A7B68DB7999B275
:101420008C23D1527B68DB79002B09D11D4BFB60EB
:1014300000E0C046FB68013BFB60FB68002BF8D175
:10144000144B144AD26918490A40796889880A43BA
:10145000DA61104A0F4B1B68144919407B68DB683E
:1014600019437B689B680B431360FFF753FF7B684E
:101470009B781A1C7B681B88101C191C00F032F822
:10148000BD4606B080BDC046002D310100100140B0
:101490003800014000030140FFFFFFFD1A02000079
:1014A0007D0A0000A02E6300FFFDFFFFFFFFF0FF9D
:1014B00080B582B000AF7860FFF736FF084B084A6E
:1014C00011697A680A431A61C046054B1A6880237D
:1014D000DB051340F9D1FFF71DFFBD4602B080BD0B
:1014E0000003014080B584B000AF78603960FFF739
:1014F0001BFF274B1A68FF231B0213401B0AFB60CC
:10150000234B234AD26903218A43111C3A68120AE9
:101510000A43DA611E4B1E4A12681E4911403A689E
:10152000FF2002400A431C490A431A60C046184B78
:101530001A688023DB051340F9D1FA687B689A4268
:1015400006D8FA687B68101C191C00F053F805E0F7
:10155000FA687B68101C191C00F022F80C4B0C4A2E
:1015600012680E4911407A6812020A430A490A4376
:101570001A60C046064B1A688023DB051340F9D178
:10158000FFF7C8FEFFF794FDBD4604B080BDC0461E
:101590000003014000FF0FC00000F03FFF000FC03C
:1015A00080B582B000AF7860396014E07B689B083A
:1015B0007B600D4B0C4A12680C4911407A6812028C
:1015C0000A430B490A431A60C046074B1A68802336
:1015D000DB051340F9D13B689A007B689A42E5D35A
:1015E000BD4602B080BDC04600030140FF000FC0F1
:1015F0000000F03F80B582B000AF7860396019E03C
:101600007B68002B01D101237B607B689B007B60A2
:101610000C4B0C4A12680C4911407A6812020A43BA
:101620000A490A431A60C046064B1A688023DB0544
:101630001340F9D17B689A003B689A42E0D3BD46DB
:1016400002B080BD00030140FF000FC00000F03F6A
:1016500080B500AF024B1B68181CBD4680BDC0465C
:10166000FC3F002080B582B000AF021CFB1D1A7049
:101670003B1D0A1C1A803B1D3A1D128803210A409B
:101680001A80FB1D1B780F2B13D8184B174AD26EEC
:10169000F91D09784900081C03218140C9430A400B
:1016A000391D0988F81D0078400081400A43DA6638
:1016B00018E0FB1DFA1D12780F210A401A700B4B1F
:1016C0000A4A126FF91D09784900081C032181405C
:1016D000C9430A40391D0988F81D0078400081403F
:1016E0000A431A67BD4602B080BDC04600000140F3
:1016F00080B582B000AF78607A68E2235B00D25890
:10170000C0239B0013405A425341DBB2181CBD4614
:1017100002B080BD90B583B000AF78600C1C101C87
:10172000191CFB1C221C1A70BB1C021C1A707B1C8F
:101730000A1C1A70FB1C1A78BB1C1B781904FF23A7
:101740001B040B401A437B1C1B781B061A43111CFD
:101750007A68E2235B00D150BD4603B090BDC0461D
:1017600080B582B000AF78607B681B6840221A4366
:101770007B681A60BD4602B080BDC04680B582B0AD
:1017800000AF78607B681B68402293431A1C7B681B
:101790001A60BD4602B080BD80B582B000AF7860EF
:1017A00039607A683B68934200D2131C181CBD460E
:1017B00002B080BD80B582B000AF786039607A68D1
:1017C0003B68934200D9131C181CBD4602B080BD73
:1017D00080B588B000AF786039603B681A683B68B4
:1017E0005B68101C191C00F031FC0B1E00D096E049
:1017F0000023FB610023BB613B681A683B685B68A0
:10180000101C191C00F0FAFB031CBB6019237B6140
:1018100000233B610023FB6049E0BB68181C796929
:1018200000F014FC0B1E3FD10023BB61B86879693E
:1018300000F0E4FB031CFB61FB69002B34D0FA6968
:1018400080239B009A422FD8FB693F2B09D9FB6963
:101850000722134003D07B69013B7B6127E0012312
:10186000BB617B69013B3A6812895343181C2E49BE
:1018700000F0C4FB031C3B617A693B69D31A013B4E
:10188000FB603B69022B0FD93B690F2B0CD8FB681F
:10189000012B09D9FB68062B06D83B685B891A1E09
:1018A000FB689A4200D805E07B69013B7B617B695C
:1018B000072BB2D87B69072B31D97B68181CFFF73F
:1018C0004FFFFB68013B1A03E023DB011A403B6832
:1018D0005B89013B9B01FF210B401A433B69013BA4
:1018E0001902F0231B010B401A43111CBA69131C87
:1018F0005B009B181A1CFB69D340013B3F2213403D
:101900000A1C1A43BB69DB031B041B0C1A437B68CC
:101910001A617B68181CFFF731FF002300E00123E8
:10192000181CBD4608B080BD1027000090B583B0DC
:1019300000AF7860081C111CFB1C021C1A70BB1C39
:101940000A1C1A70C0467B68181CFFF7D1FE031CE6
:101950001A1C01235340DBB2002BF4D1FB1C1B7873
:101960000133DCB27A68BB1C1B78101C02211A1CE4
:10197000231CFFF7CFFEBD4603B090BD80B582B0FB
:1019800000AF786080239B03181CFFF791FD7B68F4
:101990001B68012293431A1C7B681A60C0467B684F
:1019A0001B6802221340FAD1BD4602B080BDC0467A
:1019B00080B582B000AF78600A1CFB1C1A707A6890
:1019C000E4235B00D3580F2293431A1CFB1C1B78A3
:1019D0001A43111C7A68E4235B00D150BD4602B063
:1019E00080BDC04680B582B000AF78607A68E423DD
:1019F0005B00D358DBB20F221340DBB2181CBD468C
:101A000002B080BD80B584B000AF78600023FB6079
:101A10007B68181CFFF7E6FF031E012B02D0022B88
:101A200005D009E0FFF714FE031CFB6004E0FFF79C
:101A3000A3FB031CFB60C046FB68181CBD4604B03A
:101A400080BDC04680B588B000AFF8607A600B23D7
:101A5000FB180A1C1A70FB68181CFFF78FFFFA6846
:101A60000B23FB181B78101C191CFFF7A1FFFB6848
:101A7000181CFFF7C7FF031CFB61F869796800F0C9
:101A8000BDFA031C1A1C8023DB009B1A0020191CC2
:101A9000FFF782FE021C124B101C191CFFF78AFE76
:101AA000031CBB61BB698022D200D31AF869191CE0
:101AB00000F0A4FA031C7B61FB68DB68094A1A404A
:101AC000FB68DA60FB68DA68BB6913438022D201E5
:101AD0001A43FB68DA607B69181CBD4608B080BDFC
:101AE000FF030000003CFFFF80B586B000AF7860C8
:101AF0007B681B68484A944663445B097B617B6949
:101B00005B095A037B691F210B401B0213433B6196
:101B10007B681B687A681268926840490A409A603C
:101B20007B681B687A68126891683A690A439A6010
:101B30007B68DB7920221340DBB2002B07D07B6867
:101B4000DB7920221340DBB2002B00D161E07B68FF
:101B50001B7E002B04D07B681B7E012B00D058E03D
:101B60007B681B682022DA617B68DB7920221340C6
:101B7000DBB2002B28D17B685B68FB60FB685B0FE6
:101B80005B07FB607B685B68DB00DB089B041A1C5F
:101B9000FB681343FB607B681B68FA689A617B688B
:101BA0009B68FB60FB685B0F5B07FB607B689B6867
:101BB000DB00DB089B041A1CFB681343FB607B689B
:101BC0001B68FA68DA6009E07B681B687A6852680B
:101BD0009A617B681B687A689268DA607B681B7E12
:101BE000012B0DD17B68181C00F01EF87B681B6868
:101BF00080221205DA617B681B68094ADA6108E015
:101C00007B681B6880221201DA617B681B68054AC9
:101C1000DA61BD4606B080BD00F0FBAFFF00FFFFFC
:101C2000C00020064006A00080B584B000AF7860F8
:101C30000F23FB1803221A707B681B7E012B25D112
:101C40007B681B682022DA617B681B687A681268EF
:101C50001268144911407A68127B1006F0221205AE
:101C600002400A431A607B681B687A6812691A612D
:101C70007B681B687A6852695A617B681B680A4AEC
:101C8000DA610F23FB1800221A7003E00F23FB1800
:101C900003221A700F23FB181B78181CBD4604B0D2
:101CA00080BDC046FFFFFFF04000280080B586B031
:101CB00000AF78601723FB1801221A707B681B683D
:101CC000DB69202213405B093B617B681B68DA6992
:101CD00080235B0013401B0AFB603B69002B04D18F
:101CE0001723FB1804221A7010E0FB68012B04D1A3
:101CF0001723FB1802221A7008E07B681B68E02299
:101D0000D204DA611723FB1800221A701723FB187C
:101D10001B78181CBD4606B080BDC04680B582B099
:101D200000AF786039603A688023DB039A4206D0BE
:101D30007B681A683B681A437B681A6005E07B6819
:101D40009A693B681A437B689A61BD4602B080BDC0
:101D500080B582B000AF78607B6880225200DA6084
:101D6000BD4602B080BDC04680B582B000AF78608D
:101D70007B68094A934203D10420FFF799FB08E0EE
:101D80007B68064A934204D180239B02181CFFF70C
:101D90008FFBBD4602B080BD0000044800400448EF
:101DA00080B582B000AF78607B68181CFFF7DCFF5D
:101DB000BD4602B080BDC04680B584B000AF78603B
:101DC0000A1CFB1C1A707B68181CFFF7E9FF7B6874
:101DD000181CFFF7BDFF7B681B68FB60FB68074AA8
:101DE0001340FB60FB1C1B789B03FA681343FB60EA
:101DF0007B68FA681A60BD4604B080BDFF3FFFFFF4
:101E000080B582B000AF786039603B681A687B6843
:101E10005A613B685B799B06DB0FDBB21A057B6876
:101E20005A603B681B791B071B0FDBB21A1C7B68CF
:101E30005A623B685B791B071B0FDBB21A1C7B687D
:101E40001A623B685B79DB06DB0FDBB21A1C7B682E
:101E50009A613B681B791B061B0FDBB21A1C7B685F
:101E6000DA62BD4602B080BD80B586B000AF786052
:101E7000081C111CFB1C021C1A70BB1C0A1C1A70CB
:101E8000FB1C1B780B2B20D89A00204BD3181B6807
:101E90009F4603233B6100237B611BE00C233B61D6
:101EA00002237B6116E0C0239B003B6108237B611A
:101EB00010E0C0231B013B610A237B610AE0C023C1
:101EC0009B013B610C237B6104E000233B61002309
:101ED0007B61C0463B69002B14D07B68A8229B58CD
:101EE000FB603B69DA43FB681340FB60BB1C1A785C
:101EF0007B699A40131CFA681343FB607B68A82136
:101F0000FA685A50BD4606B080BDC046D451001094
:101F100080B584B000AFF8607A600B23FB180A1C10
:101F20001A70FB68181CFFF72FF9FB681B680B225F
:101F3000BA1812789200111C0F228A40D2431A401C
:101F40007B681B680B217918097889008B401A433C
:101F5000FB681A600B23FB181A787B685968FB68CA
:101F600004329200D150BD4604B080BD90B583B01C
:101F700000AF7860081C111CFB1C021C1A70BB1CF3
:101F80000A1C1A70FB1C1A78BB1C1B7803210B401F
:101F9000D9B27B6808329200032001400901D05871
:101FA0003024A0430143D150BD4603B090BDC0468C
:101FB00080B582B000AF7860081C111CFB1C021CAD
:101FC0001A70BB1C0A1C1A707B685B6FFA1C1278B3
:101FD0005200111C03228A40D2431A407B685A6780
:101FE0007B685A6FBB1C1B78F91C097849008B4031
:101FF0001A437B685A67BD4602B080BD80B588B081
:1020000000AF78603960EFF310837B617B693B61DF
:1020100072B63B69FB610C4B04225A630A4B7A6827
:102020001A62094B3A685A62074B9B6ABB61FB69AB
:10203000FB60FB68BB60BB6883F31088BB69181C3E
:10204000BD4608B080BDC04600000340F0B58DB06D
:1020500000AF78603960EFF310827A617A693A6193
:1020600072B63A69FA62154A04215163134A7968D3
:102070001162124A39685162104AD26A3A620022E9
:102080007A620E4A926ABA610022FA61FA6AFA60CA
:10209000FA68BA60BA6882F310883A6A14000022BB
:1020A000131CBA691A43151CFA692243161C2B1C0F
:1020B000341C181C211CBD460DB0F0BD00000340AF
:1020C00080B500AF80239B00181CFFF7F1F9BD46D7
:1020D00080BDC04680B582B000AF7860FFF7F0FFEA
:1020E000074A7B689B685360054A7B685B6813619D
:1020F000034A7B681B685361BD4602B080BDC04681
:102100000000024080B500AFBD4680BD80B584B000
:1021100000AF78600F23FB1800221A707B681B79D0
:1021200001225340DBB2002B07D07B681B68181CD0
:10213000FFF7D0FF7B6801221A710F23FB181B7871
:10214000181CBD4604B080BD80B582B000AF786079
:102150000A1CFB1C1A70FB1C1B7801229A407B682E
:10216000DA60BD4602B080BD80B582B000AF786055
:102170007B680122DA60BD4602B080BD80B582B0C6
:1021800000AF78607B6802221A61BD4602B080BD54
:1021900080B582B000AF78600A1CBB1C1A80BB1CE3
:1021A0001A887B685A63BD4602B080BD80B582B094
:1021B00000AF78600A1CBB1C1A80BB1C1A887B68A5
:1021C000DA63BD4602B080BD80B582B000AF7860F2
:1021D00039607B683A681A61BD4602B080BDC0466E
:1021E00080B582B000AF78600A1CFB1C1A707B6857
:1021F000A4229A58FB1C1B78012199400B1C1A43FE
:102200007B68A4215A50BD4602B080BD90B585B010
:1022100000AF78600F23FB1800221A707B6826221B
:102220009B5C01225340DBB2002B0CD07B68212247
:102230009B5C002B07D10F23FC187B68181C00F057
:1022400009F8031C23700F23FB181B78181CBD46CC
:1022500005B090BD90B585B000AF78607B681B6914
:102260000F22BC18181C00F017FA031C23707B689F
:102270001B699A687B681B7E101C191CFFF764FFA2
:102280007B685A697B68DB69101C191CFFF7B8FD75
:102290007B68181C00F030F87B6825229B5C002BC3
:1022A0000FD07B6859697B6820229B5C081C002149
:1022B0001A1CFFF7D9FD7B685B69181C0021FFF72A
:1022C0008FFF7B685B69181CFFF758FF7B6826222D
:1022D000012199547B6824229B5C002B04D07B68ED
:1022E0005B69181CFFF740FF0F23FB181B78181CB5
:1022F000BD4605B090BDC04680B582B000AF7860E5
:102300007B685A697B685B8C101C191CFFF740FFC7
:102310007B685B69181C0021FFF748FF7B681B691D
:102320009A687B68DB68101C191CFFF74DFFBD46DF
:1023300002B080BD80B582B000AF021CFB1D1A70D8
:10234000FB1D1B787F2B09D8064BFA1D1278111C38
:102350001F220A40012191400A1C1A60BD4602B0AA
:1023600080BDC04600E100E080B582B000AF021C35
:10237000FB1D1A70FB1D1B787F2B0AD80649FB1D1D
:102380001B781A1C1F23134001229A40C0235B00B4
:10239000CA50BD4602B080BD00E100E0B0B582B0D9
:1023A00000AF021C3960FB1D1A70FB1D1B787F2BD0
:1023B00027D82D4CFB1D1B785BB29B082A49FA1DC0
:1023C000127852B29208C03292005258F91D097820
:1023D000081C03210140C900081CFF218140C9439A
:1023E00011403A689201FF200240F81D0078051C58
:1023F00003202840C00082400A43C0339B001A518A
:102400002EE01A4CFB1D1B781A1C0F231340083BAF
:102410009908164AFB1D1B78181C0F230340083B24
:102420009B0806339B00D3185B68FA1D1278101CBA
:1024300003220240D200101CFF228240D2431A40E5
:102440003B689B01FF200340F81D0078051C03201A
:102450002840C00083401A438B1D9B00E3185A603C
:10246000BD4602B0B0BDC04600E100E000ED00E0B6
:1024700080B582B000AF78607B6859687B689A7FCE
:102480007B680833081C111C1A1CFEF785FE7B684C
:1024900019687B681A7F7B681033081C111C1A1C92
:1024A000FFF736FD7B681A687B685B7F101C191C80
:1024B0000122FFF75BFD7B689A7E7B68DB7E191C3F
:1024C00053B2181CFFF76AFF7B689B7EDAB27B6809
:1024D0001B8B101C191CFFF7C5F87B68DB7F002BDA
:1024E0000BD07B689B7E5BB2181CFFF73DFF7B68BF
:1024F0009B7E5BB2181CFFF71DFF0023181CBD4616
:1025000002B080BD80B582B000AF021CFB1D1A7006
:10251000FB1D1B787F2B09D8064BFA1D1278111C66
:102520001F220A40012191400A1C1A60BD4602B0D8
:1025300080BDC04600E100E0B0B582B000AF021C33
:102540003960FB1D1A70FB1D1B787F2B27D82D4C83
:10255000FB1D1B785BB29B082A49FA1D127852B208
:102560009208C03292005258F91D0978081C0321C4
:102570000140C900081CFF218140C94311403A684D
:102580009201FF200240F81D0078051C032028401E
:10259000C00082400A43C0339B001A512EE01A4CFF
:1025A000FB1D1B781A1C0F231340083B9908164A81
:1025B000FB1D1B78181C0F230340083B9B080633A8
:1025C0009B00D3185B68FA1D1278101C032202408E
:1025D000D200101CFF228240D2431A403B689B016C
:1025E000FF200340F81D0078051C03202840C00090
:1025F00083401A438B1D9B00E3185A60BD4602B00E
:10260000B0BDC04600E100E000ED00E080B582B062
:1026100000AF78607B689B785BB2181CFFF772FF95
:10262000BD4602B080BDC04680B582B000AF7860C4
:102630007B689A787B68DB78191C53B2181CFFF70B
:102640007BFF7B689B78DAB27B689B785BB21B026E
:1026500099B27B681B889BB20B439BB29BB2101C48
:10266000191CFEF7FFFF7B681B79002B03D07B68EA
:10267000181CFFF7CBFF0023181CBD4602B080BD1D
:1026800080B582B000AF78607B6880225200DA604B
:10269000BD4602B080BDC04680B582B000AF786054
:1026A0007B685B7B01225340DBB2002B0FD07B6841
:1026B0009A687B681B7B101C191CFFF77DFB7B68ED
:1026C0009B68181CFFF7DCFF7B6801225A7300230C
:1026D000181CBD4602B080BD80B584B000AF7860E4
:1026E0000F23FB1800221A707B685B7A012253408B
:1026F000DBB2002B11D07B6859687B681A7A7B6843
:102700001B68081C111C1A1CFFF79CF97B6801222E
:102710005A720F23FB1800221A700F23FB181B7824
:10272000181CBD4604B080BD80B582B000AF786093
:102730007B6819687B681A7B7B680433081C111C52
:102740001A1CFEF729FD7B6819687B681A7B7B6879
:102750005B7B081C111C1A1CFFF72AFC0023181CA9
:10276000BD4602B080BDC04680B500AF034B034AF2
:10277000926E01218A439A66BD4680BD00000140E9
:1027800080B584B000AF78600F23FB1800221A7068
:102790000E23FB1800221A700D23FB1800221A705A
:1027A0000C23FB1800221A700B23FB1800221A704E
:1027B0007B681B7801225340DBB2002B1BD00E2319
:1027C000FA180D23FB1812781B781343DAB20C2386
:1027D000FB181B781343D9B20F23FB180B22BA182E
:1027E00012780A431A700F23FB181B78002B02D1B2
:1027F0007B6801221A700F23FB181B78181CBD463A
:1028000004B080BD90B585B000AF3B1C054A13CA2B
:1028100013C312681A603B1C181CFEF795FDBD46D9
:1028200005B090BDAC52001080B584B000AFF86028
:102830007A600B23FB180A1C1A70FB689B680B223A
:10284000BA181278072191400A1CD2431A400B2370
:10285000FB181B78796899400B1C1A43FB689A6037
:10286000BD4604B080BDC04680B582B000AF786080
:102870000A1CFB1C1A707B68DB68072293431A1C36
:10288000FB1C1B7807210B401A437B68DA60BD46AE
:1028900002B080BD80B582B000AF78607B68DB6835
:1028A000802252001A437B68DA60BD4602B080BDC8
:1028B00080B582B000AF78607B681B6840221A4305
:1028C0007B681A60BD4602B080BDC04680B582B04C
:1028D00000AF78607B681B68402293431A1C7B68BA
:1028E0001A60BD4602B080BD80B582B000AF78608E
:1028F0007B681B6801221A437B681A60BD4602B0E0
:1029000080BDC04680B582B000AF78607B681B6830
:10291000012293431A1C7B681A60BD4602B080BD39
:1029200080B582B000AF78607B681B6880229343DB
:102930001A1C7B681A60BD4602B080BD80B584B0A9
:1029400000AFF8607A600B23FB180A1C1A70FB6852
:102950001B68FA68126892680B21791809780720B9
:102960008840011CC94311400B22BA1812787868BC
:102970009040021C0A439A60BD4604B080BDC04628
:1029800080B582B000AF786039607B681B687A6878
:10299000126811683A680A431A60BD4602B080BDE9
:1029A00080B582B000AF78607B681A6880239B0294
:1029B000101C191CFFF7E4FFBD4602B080BDC046E5
:1029C00080B582B000AF78607B681A6880235B02B4
:1029D000101C191CFFF7D4FFBD4602B080BDC046D5
:1029E00080B584B000AF78600023FB607B68181C62
:1029F00000F032F87B68A4229B5C002B03D0FB68BC
:102A000002221343FB607B68A3229B5C002B03D054
:102A1000FB6804221343FB607B68A5229B5C002BB0
:102A200003D0FB6808221343FB607B685A68FB688D
:102A3000101C191CFFF772F97B68A6229B5C002B07
:102A400007D07B685A688023DB03101C191CFFF732
:102A500065F9BD4604B080BD80B582B000AF786036
:102A60007B6859687B688C229B581B78081C002166
:102A70001A1CFFF7D9FE7B6859687B688C229B582B
:102A80005B78081C04211A1CFFF7CEFE7B6859688E
:102A90007B688C229B589B78081C08211A1CFFF726
:102AA000C3FE7B6859687B688C229B58DB78081CC6
:102AB0000C211A1CFFF7B8FEBD4602B080BDC0460F
:102AC00080B582B000AF78607B681B68181CFFF788
:102AD0000BF87B68DB79002B0CD07B681A687B686D
:102AE0005B79101C04211A1CFFF728FF7B68181C57
:102AF000FFF756FF7B681B7A002B0CD07B681A68A7
:102B00007B689B79101C00211A1CFFF717FF7B685C
:102B1000181CFFF755FFBD4602B080BD90B585B0CB
:102B200000AF78600F23FB1800221A707B681B68C7
:102B30000F22BC18181CFFF7B9F8031C23700F23D1
:102B4000FB181B78181CBD4605B090BD90B585B02C
:102B500000AF786039600F23FB1800221A703B68C1
:102B6000BB607B681B68BA6812681A617B681B6867
:102B7000BA6852685A617B681B680F22BC18181C1F
:102B8000FFF752F8031C23700F23FB181B78181C47
:102B9000BD4605B090BDC04690B587B000AF786027
:102BA0001723FB1800221A707B6890229B58FB6049
:102BB0007B681B681722BC18181CFFF78DFD031CCF
:102BC00023701723FB181B78002B00D085E07B684F
:102BD0005A687B689B68101C191CFEF7F9FD031EE0
:102BE00076D17B685B68181CFFF762FE7B685B68C8
:102BF000181CFFF779FE7B685B68181CFFF790FED6
:102C00007B68A7229B5C002B05D07B685B68181C47
:102C1000FFF740FE16E07B6898229B5818687B6897
:102C200098229B5819797B689C229B581A1CFEF7A6
:102C3000B3FA7B6859687B68A0229B5C081C191C4E
:102C4000FFF712FE7B68181CFFF7CAFE00233B61EA
:102C50001AE07A683B6902339B00D3185B68BB605B
:102C60007B681B6859687B68A1229A5CBB681B79EA
:102C7000081C111C1A1CFEF759FEBB68181CFFF734
:102C80001FFF3B6901333B617B68A2229B5C1A1EDC
:102C90003B699A42DDD87B685B68181CFFF716FE1B
:102CA0007B685B68181CFFF72DFE7B68A7229B5C86
:102CB00001225340DBB2002B13D0FB681868FB687D
:102CC00019797B6894229B581A1CFEF765FA08E074
:102CD0001723FB1801221A7003E01723FB180122A7
:102CE0001A701723FB181B78181CBD4607B090BD3F
:102CF00080B584B000AFF8607A600B23FB180A1C23
:102D00001A700B23FB181B787A689A40FB685A608C
:102D1000BD4604B080BDC04680B584B000AF7860C9
:102D20007B685B7B01225340DBB2002B2CD00F234E
:102D3000FB1800221A701DE07B681A680F23FB182D
:102D40001B78DB00D31819687B681A680F23FB18FF
:102D50001B78DB00D3181A797B680433081C111C1C
:102D60001A1CFEF719FA0F23FB181A780F23FB1809
:102D700001321A707B681B7B0F22BA1812789A42B4
:102D8000DAD37B6801225A730023181CBD4604B0B5
:102D900080BDC04680B584B000AF78600A1CBB1C03
:102DA0001A807B681B68BB600F23FB1800221A7017
:102DB0002BE00F23FB181B7801229A40131C9BB2B7
:102DC000BA1C128813409BB2002B09D0BB681A684A
:102DD000BB681B79101C191C0122FFF789FF0AE050
:102DE000BB681968BB681A7980235B02081C111C38
:102DF0001A1CFFF77DFFBB680833BB600F23FB186D
:102E00001A780F23FB1801321A707B681B7B0F2284
:102E1000BA1812789A42CCD3BD4604B080BDC046E1
:102E200090B583B000AFFB1D00221A70FC1D4D4B06
:102E3000181CFFF7A5FC031C2370FB1D1B78002B3F
:102E400006D1FC1D484B181CFFF7E0F9031C23704A
:102E5000FB1D1B78002B06D1FC1D444B181CFFF7F3
:102E6000E3FB031C2370FB1D1B78002B06D1FC1D0C
:102E70003F4B181CFFF7FCFA031C2370FB1D1B784B
:102E8000002B06D1FC1D3B4B181CFFF7F1FA031C6D
:102E90002370FB1D1B78002B06D1FC1D364B181C24
:102EA000FFF7E6FA031C2370FB1D1B78002B06D1ED
:102EB000FC1D324B181CFFF7DBFA031C2370FB1DB3
:102EC0001B78002B06D1FC1D2D4B181CFFF724FF8F
:102ED000031C2370FB1D1B78002B06D1FC1D294B06
:102EE000181CFFF759FE031C2370FB1D1B78002BD9
:102EF00006D1FC1D244B181CFFF788F9031C237016
:102F0000FB1D1B78002B06D1FC1D204B181CFFF766
:102F10008BFB031C2370FB1D1B78002B06D1FC1DB3
:102F20001B4B181CFFF7F2F8031C2370FB1D1B78CA
:102F3000002B06D1FC1D174B181CFFF7F5FB031CDB
:102F40002370FB1D1B78002B06D1FC1D124B181C97
:102F5000FFF76AFB031C2370FB1D1B78181CBD4682
:102F600003B090BD48060020640500208452001084
:102F700004520010245200104452001064520010F9
:102F80001806002004530010940500208C520010F5
:102F90005C0500209C5200109452001080B582B055
:102FA00000AF78600A1CFB1C1A70FB1C1B78012206
:102FB0009A407B685A60BD4602B080BD80B582B041
:102FC00000AF78600A1CFB1C1A707B685A6AFB1CF5
:102FD0001B78DA40131C01221340181CBD4602B0B6
:102FE00080BDC04680B582B000AF78607B685A680B
:102FF0007B689B7F101C191CFFF7E0FF031C181C4B
:10300000BD4602B080BDC04680B500AF034B034A49
:10301000526801210A435A60BD4680BD000002404B
:1030200080B500AF024B034A9A60BD4680BDC046E2
:1030300000000240FECAADAB80B500AFFFF7E4FF71
:10304000BD4680BD80B500AFFFF7EAFFBD4680BD3D
:1030500080B582B000AF78607B681A687B681B7BA4
:10306000101C191CFFF79AFFBD4602B080BDC04678
:1030700090B583B000AFFC1DFFF7D2FE031C237098
:10308000FB1D1B78002B00D0FEE7094B181CFFF737
:1030900083FD031C1A1C074B1A70064B1B78002B70
:1030A00002D1054B01221A70FFF7C6FFFEE7C046AA
:1030B00004530010900600204C06002080B500AF9D
:1030C000414B1B78DBB2012B00D07BE03F4B1B68F0
:1030D0005A1C3E4B1A603E4B1B78DBB2012B04D1CD
:1030E0003C4B1B685A1C3B4B1A60384B1B68012B2E
:1030F00009D1394B1B78DBB29BB2384A101C191C22
:10310000FFF748FE5EE0314B1B680B2B05D1334BBC
:10311000181C0021FFF73EFE54E02C4B1B68142BBB
:1031200048D12D4B1B78DBB2022B0CD0042B13D0D3
:10313000012B1AD12A4B181CFFF754FF031CDAB2DB
:10314000284B1A7011E0284B181CFFF74BFF031C8B
:10315000DAB2244B1A7008E0244B181CFFF742FF28
:10316000031CDAB21F4B1A70C0461E4B1B78DBB231
:10317000002B1BD01E4B1B685A1C1D4B1A601D4B8D
:103180001B881A1C114B1B68D2181B4B1A601A4B58
:103190001B689AB2194B1B881949101C1A1C00F0A5
:1031A00099FA031C1A1C144B1A600BE0154B0122F0
:1031B0001A7007E0054B1A680F4B1B689A4201D939
:1031C00000F022F8BD4680BD2E06002050060020EB
:1031D0004F06002054060020350600201806002067
:1031E000045200104D0600202452001044520010DA
:1031F000800600202A060020300600202C06002031
:103200008C0A00004E06002080B500AF174B00224C
:103210001A70174B00221A60164B00221A70164BB8
:1032200000221A70154B00221A60154B154A1A60BD
:10323000154B1B78DBB2DB18DAB2134B1A70124B4A
:103240001B78DBB2042B06D90F4B01221A7000F059
:10325000A3FA00F067FA0D4B1B685A1C0B4B1A605F
:10326000024B01221A70BD4680BDC0462E060020CA
:10327000500600204E0600204F0600205406002075
:10328000300600208C0A0000350600207006002061
:1032900098B500AF364B1B78DBB2012B66D1354BAE
:1032A000181CFFF79FFE031CDAB2334B1A70334B26
:1032B0001B78DBB2012B08D12F4B1B78DBB2012B23
:1032C00003D12F4B01221A7050E02B4B1B78DBB23D
:1032D000002B4BD12A4B1B78DBB2012B46D1294B5B
:1032E0001A68294B1A60284B1B681A1C274B101CA4
:1032F000191C0A2200F0D8F9031E1CD0224B1B68AF
:10330000181C01F099FD031C0C1C181C211C204AE0
:10331000204B00F047FF031C0C1C181C211C00F064
:10332000AFFA031C9AB21C4B1A801C4B1B685A1C28
:103330001A4B1A6004E01A4B1B685A1C184B1A608F
:10334000184B1B881A1C184B1B68D218174B1A6095
:10335000164B1B689AB2164B1B881649101C1A1C78
:1033600000F0B8F9031C1A1C104B1A60BD4698BD3A
:1033700035060020045200104D0600204E060020A5
:103380004F0600205406002058060020280A00009E
:10339000C3F5285C8FC2C53F5C0600207406002080
:1033A0008C06002028060020500600203006002051
:1033B0002C0600208C0A000098B500AF364B1B7815
:1033C000DBB2022B66D1354B181CFFF70BFE031C3A
:1033D000DAB2334B1A70334B1B78DBB2012B08D1B6
:1033E0002F4B1B78DBB2012B03D12F4B01221A701C
:1033F00050E02B4B1B78DBB2002B4BD12A4B1B78B8
:10340000DBB2012B46D1294B1A68294B1A60284B95
:103410001B681A1C274B101C191C0A2200F044F9C7
:10342000031E1CD0224B1B68181C01F005FD031C59
:103430000C1C181C211C204A204B00F0B3FE031C5E
:103440000C1C181C211C00F01BFA031C9AB21C4B0C
:103450001A801C4B1B685A1C1A4B1A6004E01A4B4A
:103460001B685A1C184B1A60184B1B881A1C184BE7
:103470001B68D218174B1A60164B1B689AB2164B72
:103480001B881649101C1A1C00F024F9031C1A1C76
:10349000104B1A60BD4698BD35060020245200101E
:1034A0004D0600204E0600204F0600205406002046
:1034B00058060020280A0000C3F5285C8FC2C53FCB
:1034C0005E060020740600208C06002028060020DE
:1034D00050060020300600202C0600208C0A000038
:1034E00098B500AF364B1B78DBB2042B66D1354B59
:1034F000181CFFF777FD031CDAB2334B1A70334BFD
:103500001B78DBB2012B08D12F4B1B78DBB2012BD0
:1035100003D12F4B01221A7050E02B4B1B78DBB2EA
:10352000002B4BD12A4B1B78DBB2012B46D1294B08
:103530001A68294B1A60284B1B681A1C274B101C51
:10354000191C0A2200F0B0F8031E1CD0224B1B6885
:10355000181C01F071FC031C0C1C181C211C204AB7
:10356000204B00F01FFE031C0C1C181C211C00F03B
:1035700087F9031C9AB21C4B1A801C4B1B685A1CFF
:103580001A4B1A6004E01A4B1B685A1C184B1A603D
:10359000184B1B881A1C184B1B68D218174B1A6043
:1035A000164B1B689AB2164B1B881649101C1A1C26
:1035B00000F090F8031C1A1C104B1A60BD4698BD11
:1035C00035060020445200104D0600204E06002013
:1035D0004F0600205406002058060020280A00004C
:1035E000C3F5285C8FC2C53F60060020740600202A
:1035F0008C060020280600205006002030060020FF
:103600002C0600208C0A000080B500AF154B1A680C
:10361000154B1A60154B1A68124B1B689A4207D952
:10362000124B1A680F4B1B68D21A114B1A6002E03A
:103630000F4B00221A600F4B1A680F4B1A600F4B8A
:103640001A680F4B1A60074B00221A60074B0022C2
:103650001A600A4B00221A60064B00221A60BD460F
:1036600080BDC04674060020780600207006002049
:103670007C06002080060020840600208C060020A6
:103680008806002080B500AFFFF7DCFC044B181C57
:10369000FFF7DEFC034B00221A70BD4680BDC0461A
:1036A0009C5200103406002080B584B000AFF86052
:1036B000B9607A60FA687B68D31AF968BA688A1ABE
:1036C0005343002B01DC012300E00023181CBD46FE
:1036D00004B080BD90B583B000AF041C081C111C61
:1036E000BB1D221C1A803B1D021C1A80BB1C0A1C1D
:1036F0001A80BA1DBB1C12881B889A4202D2BB1CBE
:103700001B880AE0BA1D3B1D12881B889A4202D909
:103710003B1D1B8801E0BB1D1B88181CBD4603B068
:1037200090BDC04680B582B000AF164B1B789AB2F0
:103730003B1C1A80144B1B889AB23B1C5A80134BBB
:103740001B889AB23B1C9A80114B1B889AB23B1C77
:10375000DA80104BDA683B1C101C191CFFF7F6F9D5
:103760000C4BDB68181CFFF7D9F9074B00221A80B5
:10377000064B00221A80064B00221A80BD4602B07A
:1037800080BDC0464C0600205C0600205E0600207E
:10379000600600200453001080B500AF214B1B8849
:1037A0009BB2002B10D01F4B1B889BB2181C00F043
:1037B000B1FC011C1C4B1B681C4A081C191C00F0A6
:1037C0003FF8021C184B1A60194B1B889BB2002B48
:1037D00010D0174B1B889BB2181C00F09BFC011CDF
:1037E000144B1B68114A081C191C00F029F8021C14
:1037F000104B1A60104B1B889BB2002B10D00E4B45
:103800001B889BB2181C00F085FC011C0B4B1B682D
:10381000064A081C191C00F013F8021C074B1A601A
:10382000BD4680BD5C06002064060020CDCC4C3F28
:103830005E06002068060020600600206C0600205E
:1038400090B585B000AFF860B9607A60F8687968C3
:1038500000F0B0F9031C1C1CFE208005796800F004
:10386000DBFA031C181CB96800F0A4F9031C201C27
:10387000191C00F023F8031C181CBD4605B090BDB0
:1038800038B500220C4B041C0D1C01F03BFB00283A
:1038900004D1201C291C01F099FA38BD064B0022E6
:1038A000201C291C00F018FF01F090FA80231B0651
:1038B0009C466044F1E7C0460000E041F8B54A008C
:1038C000430244004E02C50F240E281C9B09120E11
:1038D000C90FB7098D4240D0A01A002800DC84E04F
:1038E000002A1CD1002F5CD15A0704D00F221A40A5
:1038F000042A00D004338022D2041A40281C002A53
:1039000024D00134FF2C00D17BE09B015B0AE4B2A0
:103910005B02E4055B0A2343C0071843F8BDFF2C94
:10392000E2D08022D204174301261B2808DC391C70
:1039300020223E1CC140101A8640771EBE410E4315
:103940009B1B5A0133D4281C5A07CFD1DB08FF2C0C
:103950001ED05B025B0AE4B2DAE7A11A002957DD48
:10396000002A3AD0FF2CBFD08022D2041743012670
:103970001B2972DD9B195A01E5D50134FF2C00D1BA
:1039800087E001218A4A194013405B080B43ABE7EB
:10399000002B36D08022D20313435B025B0AFF2444
:1039A000B6E7013800283FD1DB1B5A01CBD59B017C
:1039B0009E09301C01F0B0FA05388640844223DCB1
:1039C000001B1F24321C431C201ADA408640131CA3
:1039D000741EA6410024334386E7002F00D183E7FD
:1039E0000139002950D1DB19C5E7002820D1621C1C
:1039F000D2B2012A5EDDDE1B720128D5FE1A0D1C33
:103A0000D7E7FF24002383E7694B241A33406BE791
:103A1000002958D1621CD1B201293CDDFF2A37D0E0
:103A2000FB185B08141C5FE7FF2C00D07CE75BE70A
:103A3000002C1ED0FF2A23D08024E40440422343DC
:103A40001B285BDD0123FB1A141C0D1CADE7002EA7
:103A5000AFD100230020002478E73A1CCA409446E6
:103A600020223E1C511A8E406246771EBE411643EC
:103A700080E7002B3ED0C0430028E4D0FF2ADFD1EE
:103A80003B1CFF240D1C2FE7FF2C00D06FE72BE71A
:103A9000FF2400235AE7002C5AD1002B7FD0002F9F
:103AA00000D121E7DB195A0100D44CE7404A013428
:103AB000134019E7002C15D1002B2FD1002F5DD01A
:103AC0003B1C0D1C10E7002C21D1002B53D0C94307
:103AD000002904D0FF2A4BD01B2957DD0123DB1915
:103AE000141C48E7002B22D1002F4AD03B1C0D1C90
:103AF000FF24F9E63B1C141C0D1CF5E61D1C2024BC
:103B0000C540201A8340581E83412B439BE7FF2A60
:103B10002ED08024E40449422343DDE7002F00D166
:103B2000E2E6DA1B50013CD5FB1A0D1CDCE6FF2453
:103B3000002F00D1D8E68022DB08D203134204D044
:103B4000FE08164201D1331C0D1CDB00FF24CBE61E
:103B5000002B0DD0FF24002F00D1C5E68022DB080A
:103B6000D2031342F1D0FE081642EED1331CECE72B
:103B70003B1CFF24B8E63B1C141CB5E6231C0020AC
:103B8000E4E6802300209B04FF24DFE61E1C2024A3
:103B9000CE40611A8B40591E8B4133439FE73B1C3B
:103BA000A2E6131E00D0CEE600230020CEE6C046DB
:103BB000FFFFFFFBF0B55F4656464D464446F0B466
:103BC00045024600C40F83B00F1C6D0A360EA34693
:103BD00045D0FF2E25D080231B041D4300239A4689
:103BE000ED007F3E01937B025B0A98467800FB0F55
:103BF000000E994640D0FF2838D0802342461B044F
:103C00001343DB00984600237F384A46019F301853
:103C10006240411C1F430F2F69D87D4EBF00F659EB
:103C2000B746002D45D108230193063B9A46DAE7B3
:103C300093465346022B2FD15B46012400251C409E
:103C4000FF236D02DB056D0AE4071D432543281C95
:103C500003B03CBC90469946A246AB46F0BD002D51
:103C60002CD104230193033B9A46BCE743465A42B6
:103C700053410322D31AC8E742460123002AC4D085
:103C8000404601F049F94246431F9A4076235B4281
:103C9000181A90460023B8E7032B00D1ADE0012BA2
:103CA00000D08CE05B4654461C40E4B20023002563
:103CB000C7E70C230193093B9A4694E7281C01F0BF
:103CC0002BF97626431F9D4000237642361A019336
:103CD0009A4688E780250024ED03FF23B1E7454697
:103CE000CB469A46A5E7454693469A46A1E7434602
:103CF0002C041B0C9C46230C444626041C1C360C2E
:103D00002F0C7443351C66467D4373437743EB1891
:103D1000260C9E19B54203D980235B029C4667445A
:103D200024043304240C1B199D016C1EA5419B0E19
:103D3000360C2B43BD19AD011D432B0104D50123C6
:103D400068081D400543081C031C7F33002B2CDD35
:103D5000690704D00F212940042900D00435290126
:103D600003D52C4B1D40031C8033FE2B17DD012493
:103D7000FF231440002564E78020C003054209D0DA
:103D80004346034206D1454605436D026D0A4C4643
:103D9000FF2356E705436D026D0AFF2351E7012417
:103DA000AD016D0ADBB214404BE77E235B421B1A68
:103DB0001B2B07DD012400231440002541E7081CCC
:103DC0005A46C1E79E30291C8540D940681E85416E
:103DD0000D436B0704D00F232B40042B00D0043578
:103DE0006B0104D5012401231440002529E7012497
:103DF000AD016D0A1440002323E78023DB031D433C
:103E000001245B466D0223401C1C6D0AFF2318E74A
:103E1000C4530010FFFFFFF7F8B54A004302440007
:103E20004D02C00F240E061C9B09120EC90FAD09CE
:103E3000FF2A00D175E001277940884250D0A01AAE
:103E4000002800DC8FE0002A1ED1002D00D075E094
:103E50005A0704D00F221A40042A00D004338022CB
:103E60000120D2041A403040002A32D00134FF2C05
:103E700000D184E09B015B0AE4B25B02E4055B0ACB
:103E80002343C0071843F8BDFF2CE1D08022D204A1
:103E900015431B287ADD01255B1B5A015DD59B016B
:103EA0009F09381C01F038F805388740844269DCE6
:103EB000001B1F243A1C431C201ADA408740131CA5
:103EC0007C1EA74100243B43C2E7131E45D10023BB
:103ED0000020DB08FF2C28D05B025B0AE4B2CCE7B1
:103EE000A11A00295BDD002A2ED0FF2CB0D0802241
:103EF000D20415431B2974DC2F1C2022CF40511AF9
:103F00008D40691E8D413D435B195A0125D5013411
:103F1000FF2C74D001217E4A194013405B080B43EB
:103F200096E7002D00D088E785E7002B27D0802278
:103F3000D20313435B025B0AFF249EE7013800288B
:103F4000AAD0FF2CA5D183E7002D00D180E701394D
:103F50000029D9D0FF2CCDD17AE75A0700D079E7D4
:103F600001203040B5E7002825D1621CD2B2012AD9
:103F700055DD5F1B7A012DD5EF1A0E1C91E7FF244A
:103F800000237AE7624B241A3B4061E7291C202278
:103F9000C140101A8540681E85410D437CE7002909
:103FA00046D1621CD1B201292BDDFF2A26D0EB18A5
:103FB0005B08141C4CE7002C15D0FF2A1AD0802473
:103FC000E404404223431B284DDD0123EB1A141C5B
:103FD0000E1C62E7002F00D063E7002300200024BE
:103FE00077E7012590E7002B39D0C0430028EDD0BA
:103FF000FF2AE8D12B1CFF240E1C29E7FF240023F5
:1040000067E7002C5AD1002B7FD0002D00D11FE78D
:104010005B195A01A1D53E4A0134134018E7002C20
:1040200015D1002B2FD1002D5ED02B1C0E1C0FE7BD
:10403000002C21D1002B54D0C943002904D0FF2AE1
:104040004CD01B2958DD01235B19141C5DE7002BA4
:1040500023D1002D4BD02B1C0E1CFF24F8E62B1C6B
:10406000141C0E1CF4E61E1C2024C640201A83409B
:10407000581E83413343A9E7FF2A2FD08024E4044C
:1040800049422343DDE7002D00D1E1E65A1B5001F0
:1040900000D41AE7EB1A0E1CDAE6FF24002D00D13B
:1040A000D6E68022DB08D203134204D0ED08154285
:1040B00001D12B1C0E1CDB00FF24C9E6002B0DD008
:1040C000FF24002D00D1C3E68022DB08D203134277
:1040D000F1D0ED081542EED12B1CECE72B1CFF2490
:1040E000B6E62B1C141CB3E6231C0020F1E680234B
:1040F00000209B04FF24ECE61F1C2024CF40611A03
:104100008B40591E8B413B439EE72B1CA0E6C046CB
:10411000FFFFFFFB10B5041E35D000F0FDFE9E2111
:10412000091A962909DC082830DD021C231C083AEC
:1041300093405B025B0AC8B220E099290CDD05229E
:10414000231C121AD3401A1C031C1B339C40231C33
:104150005C1EA34113431C1C052801DD431F9C402A
:104160000F4B2340620704D00F221440042C00D0D0
:1041700004335A010ED49B015B0AC8B25B025B0A8E
:10418000C005184310BD00200023F7E763025B0A57
:10419000C8B2F3E79F21024A091A1340EBE7C04671
:1041A000FFFFFFFBF0B55F4656464D464446F0B470
:1041B000051C061C080387B099464F00030BCC0F63
:1041C00092469B467F0D019467D06C4B9F4236D040
:1041D00080205B4640031843C0006B0F1843684BB8
:1041E00083469C4600239846EE00674400934B4666
:1041F00049461D03C90F5B0052462D0B5B0D8946D6
:1042000000D16EE05D498B4264D080205C49400360
:104210008C4600210543ED00500F0543D200634456
:104220004846FF187B1C9A46009B604002900B4357
:104230000F2B00D9ACE053489B00C3589F465B4608
:104240001D4300D082E00823009300239B460233E5
:1042500000269846CBE7029B01934346022B59D197
:10426000012400250026019B1C40444B00212D0306
:104270000A0D12052D0B1543434A1B0515401D431E
:104280006D00E4076D082543301C291C07B03CBCB9
:1042900090469946A246AB46F0BD2B434ED05B46B6
:1042A000002B00D185E1584600F036FE021C282381
:1042B000291C9B1A161C5846D940083EB0400B1CBE
:1042C000B54003439B462E1C0023304F0093BF1A7A
:1042D00098468CE7514629432ED100250022022121
:1042E0009EE75146294323D0002D00D154E1281CDC
:1042F00000F012FE031C28215046C91A1A1CC8409F
:104300005146083A914095400A1C05431F48002138
:10431000C31A85E7032B00D1C2E1012B00D06DE168
:104320004446019B00251C40E4B2002300269DE783
:1043300000250022012173E7032171E70423009384
:1043400000239B4601330026984650E70C23009338
:10435000093B98464BE7802500242D030026074B98
:1043600084E74B46AB46161C0193884675E7029BD3
:10437000AB46161C019388466FE7C046FF07000056
:1043800001FCFFFF04540010FFFF0F800DFCFFFF36
:10439000330C3604360C9C46331C140C1204120CDD
:1043A0005343984663465343994663466343019398
:1043B000331C41466343090C4B445B18994505D9AE
:1043C000802040028146019949440191190C0391D2
:1043D00041460904090C1B045B1804932B0C9846F6
:1043E000331C2D04290C4B4360460093434665461D
:1043F00058435E43009B4D431B0C9946AE194E44F7
:104400008446B54203D980235B029946CC44350CDF
:104410002B1C0398634484460593009B36041B04BD
:104420001B0CF3189C446046039058460504060C88
:10443000280C84465043351C8146604665434443FE
:104440004846000C8346724314195C44A24203D9C7
:104450008022520293465D44220CAD184A46120453
:10446000120C24044046A41862464A437143464352
:1044700060460096464670438046100C8446884449
:10448000E044414505D9802149028C4600996144A8
:104490000091019803998446614499429B415B4293
:1044A00099460598434684461204120C1B049B1837
:1044B00063449C46AB4683429B4140460A19CC4428
:1044C000A2428941E344CC45B6415C46000C80469B
:1044D000494276425B426418334398448C42894196
:1044E000AB459B4149425B4219430D1C009B45442F
:1044F000EE187602E50D2E43B346049B56021E438A
:10450000731E9E415B46D20D324366021643DB01A9
:104510000AD50123334076081E435B46DB071E4362
:104520005B465B089B465746634BFB18002B5ADDE6
:10453000720709D00F223240042A05D0321DB24240
:10454000B6417642B344161C5A46D20106D55A46A5
:104550005A4B1A4080239346DB00FB18584A93427B
:1045600034DD0124029B00251C400026554B7DE6CE
:1045700080205B460003034208D0054206D1054374
:104580002D032D0B4C46161C4E4B6FE65D46054326
:104590002D032D0B4B4B69E6504600F0BDFC031C70
:1045A0002033272B00DCA6E655460838854000223C
:1045B000ACE6281C00F0B0FC021C2032272A00DCEC
:1045C00075E6083885400026AB467DE65A46F60873
:1045D000520716435A4601245502029A5B052D0BD9
:1045E0005B0D144042E6384DED1B382D0ADD0124E9
:1045F000029B00251C400026002337E6019B5746FE
:10460000029391E71F2D25DC304B321C9C466744FA
:10461000BE405B46BB40371CEA407E1EB741134399
:104620003B431E1C5B46EB401D1C730709D00F2348
:104630003340042B05D0331DB342B6417642AD1949
:104640001E1C2B0220D50124029B00251C400026A5
:1046500001230BE65A461E4BDB1BDA40131C202DB0
:104660001CD01C4A94465A466744BA40171C3E4325
:10467000721E96411E4307230025334007D00F23A7
:1046800000253340042BD6D16B076D022D0B01247E
:10469000F6081E43029B1C400023E7E50027E6E7DF
:1046A00080255B4601242D031D43019B2D032340E0
:1046B0001C1C2D0B034BD9E5FF030000FFFFFFFE81
:1046C000FE070000FF07000002FCFFFF1E040000C1
:1046D000E2FBFFFF3E040000F0B54D4644465F4656
:1046E0005646F0B40E1C111C3203520A470F1743F2
:1046F000C5001A035800DB0F9946520A4B0F83B0CE
:104700001A43CB000193CF4B7400F60F640DB046F3
:10471000400D984200D1E8E00123494659400B1C66
:104720009E4200D1B1E0261A002E00DC1CE10028D8
:1047300042D1131C01990B4300D0E6E06B0700D176
:104740008EE00F232B40042B00D189E02A1DAA42C2
:10475000AD418023012641466D427F191B043B4039
:104760000E40151C002B00D183E0B64B01349C4257
:1047700000D116E13A1CB44BED081A40500764050D
:1047800052020543120B640D002112030B0D1B0591
:104790006405120B1A436308AC4CF60714401C4323
:1047A000640064083443281C211C03B03CBC9046C0
:1047B0009946A246AB46F0BDA24B9C42BED0802398
:1047C0001B041A43382E00DD03E11F2E00DD3FE1FC
:1047D0002020831B9946131C49468B409C46019B15
:1047E0006046F34003430198F2408840011C481E94
:1047F00081410B43EB1A9D4280411D1CBA1A404275
:10480000171A3B0200D4A8E07A02560A002E00D103
:10481000CAE0301C00F080FB031C083B1F2B00DDAE
:10482000CBE02822291C121AD1409E400A1C9D4030
:1048300032439C4200DDC8E01C1B671C1F2F00DDBB
:10484000EDE01F23291C1C1B131CA540A340F940AD
:104850006C1EA541FA4019430D43171C00246DE757
:104860008023012642461B043B401640002B00D00B
:104870007BE7744BED0878070543FA089C423BD070
:1048800012036405120B640D7EE7231A9A46002B6F
:1048900000DCA5E0002844D06A48844200D14DE7FE
:1048A0008020000402435346382B00DC1CE1019BAE
:1048B0001A43511E8A41D1B200224919A9428041AE
:1048C0000D1CD219404217183B0246D55D4B0134EE
:1048D0009C4200D169E101205B4A6B083A402840C4
:1048E0001843D5070543570828E7131C01990B43C4
:1048F00000D111E74B4613E72B1C134351D0802303
:104900001B031A431203120B3EE7013E002E00D098
:1049100080E0691A8D429B41BA1A5B42D71A0D1C7E
:104920006FE7101C019B184300D107E701235B428E
:104930009C46E2445346002B00D002E1019BD21971
:104940005919A9429B415B42D7180D1CBCE763462D
:10495000034300D128E1071C65466B0700D0F0E651
:10496000012643461E4084E7002E00D081E0601CF3
:104970004005400D012800DC07E10199681A8446D2
:104980006545B641B81A7642861B300200D4A1E0D4
:104990008C464D1BAC458941D21B4942561A98465C
:1049A00034E700220025EFE6281C00F0B5FA20309D
:1049B000031C083B1F2B00DC33E7021C283A954000
:1049C0002A1C00259C4200DC36E71F4FE41A1740E2
:1049D000B4E6019B1A43511E8A41D3B2002209E773
:1049E000002B00D001E1601C43055B0D012B00DCB6
:1049F000B0E0144B984200D11EE1019BD219591925
:104A0000A9429B415B42D2184908D5070D4357087C
:104A1000041C93E60B4B9C4200D0D3E68EE6211C8F
:104A2000131C1F39CB40191C202F00D18EE03F23CF
:104A30001C1BA24015436A1E954100270D4300240C
:104A40008BE7C046FF070000FFFF7FFFFFFF0F80DF
:104A5000331C101C203BD840202E79D040239B1BB8
:104A60009A40131C019A1343591E8B4100220343A1
:104A7000C0E6002C53D0C74CA04200D1B0E0802447
:104A800071428946240427434946382900DDCDE098
:104A90001F2900DD59E120243E1C611A8E408A4600
:104AA000B04649462E1CCE405146B4468D40644621
:104AB0004646494626436C1EA541CF4035430199E1
:104AC000D71B8C464D1BAC4592415242BF1A041C69
:104AD000984696E663466546334300D096E6002640
:104AE000002700240025C4E61F2B61DC2020C31A08
:104AF0009B46131C59468B4051469946019BCB401F
:104B00009C464B46604603439C465B460199994050
:104B10006346481E814119435346DA40CDE63C1CAA
:104B20002C435DD0F1438946002955D10199D21B10
:104B30008C464D1BAC4589414942571A041C984686
:104B40005FE69448844200D0ADE6F7E5002271E7C5
:104B5000002387E73B1C2B43002C00D0DAE0002B1E
:104B600000D113E1131C01990B4300D1E6E549196B
:104B7000A9429B41D2195B42D7183B0200D421E1E4
:104B8000854B0D1C1F40041CD8E5381C2843002C05
:104B900040D1002800D083E0101C0199084303D0C5
:104BA000171C0D1C9846C9E500260027002560E665
:104BB0005046131C2038C340181C5346202B00D1EC
:104BC000C1E0402351465B1A9A40019911434A1EA5
:104BD00091410022014370E66E4CA04200D053E7A1
:104BE000171C019D041C9846A8E5002C28D13C1CEC
:104BF0002C4300D18AE0DB439A46002B00D082E0B0
:104C0000019BD2199C4665449D42894149425718EF
:104C1000041C59E600285BD1101C0199084300D1FF
:104C2000A4E0171C0D1C98465A4C87E53D436F1EA7
:104C3000BD410027EDB242E7041C0027002518E61D
:104C4000544CA04262D0534680245B429A462404CE
:104C500027435346382B00DD8EE01F2B00DD9DE0FF
:104C60002024E31A9B463B1C59468B4051469946EB
:104C70002B1CCB409C464B46644623439C465B46DC
:104C80009D4063466C1EA541CF401D43019BBF184C
:104C90009C4665449D4292415242BF18041C13E653
:104CA000101C0199084300D148E5681A84468542E2
:104CB0008041BE1A4042301A060200D447E68C46B4
:104CC0004D1BAC458941D21B4942571A984635E5E0
:104CD000101C0199084334D080247807ED08FF08A0
:104CE00024032843274208D0D608264205D1C90804
:104CF00052070A43101C371C9846FF00420F174307
:104D0000C500244C1AE5234CA042A2D1171C019DDA
:104D1000041C13E5002B35D0131C01990B4310D054
:104D200080247807ED08FF08240328432742E4D0B5
:104D3000D3082342E1D1C90852070A43101C1F1CA3
:104D4000DBE7144CFAE400223FE74C463E1C203CD3
:104D5000E6404946341C202932D04026761AB74016
:104D60003D436F1EBD4100272543A8E6802700264E
:104D7000FF03084C00257CE53D436F1EBD41002725
:104D8000EDB283E7171C019D024CD7E4171C019D6F
:104D9000D4E4C046FF070000FFFF7FFF54463B1CE2
:104DA000203CE3401C1C5346202B0DD04023514691
:104DB0005B1A9F403D436F1EBD410027254365E7B9
:104DC0000027CDE70D1CC8E50027F3E70B0330B53E
:104DD000134C1A0B4B00051C5B0DC90F0020A3429E
:104DE00010DD104883420EDC80200F4C400302434C
:104DF000E41A1F2C0ADD0D48C31ADA40131C48427E
:104E00004340581830BD0A4BC818FBE7281CE04047
:104E1000084CA44663449A40131C0343EFE7C04682
:104E2000FE0300001D040000330400001304000012
:104E3000FFFFFF7FEDFBFFFF10B5041E10D000F059
:104E40006BF8144A121A0A281ADC0B23211C1B1AAD
:104E5000D94015300B03520584401B0B520D01E065
:104E60000022002300211B03201C1C0B0B0D1B0523
:104E70002343094C1205234013435B00590810BD1E
:104E8000031C0B3B9C40520523031B0B520D0024BB
:104E9000E8E7C0461E040000FFFF0F808446101C98
:104EA00062468C46191C634600E0C0461FB500F000
:104EB00005F9002801D40021C8421FBD10B500F03B
:104EC00049F84042013010BD10B500F0F7F8002855
:104ED00001DB002010BD012010BDC04610B500F060
:104EE000EDF8002801DD002010BD012010BDC046F6
:104EF00010B500F073F8002801DC002010BD01207F
:104F000010BDC04610B500F069F8002801DA002095
:104F100010BD012010BDC0461C2101231B04984276
:104F200001D3000C10391B0A984201D3000A08393A
:104F30001B09984201D30009043902A2105C4018F1
:104F40007047C04604030202010101010000000095
:104F500000000000F0B55F464D4644465646F0B4AA
:104F60001F035C00DB0F99461B4B0E034D00C90F5E
:104F70008446360B6D0D8B4690463F0B640D9D426B
:104F80000CD0154B9C4210D00123A54214D0181C04
:104F90003CBC90469946A246AB46F0BD311C01236D
:104FA0000143F4D10C4B9C42EED13A430123002A39
:104FB000EDD10123A542EAD1BE42E8D1C445E6D1F4
:104FC000CB4506D0002DE2D13043031C581E83414F
:104FD000DDE70023DBE7C046FF070000F0B55746DA
:104FE00045464E46E0B40F034E00C90F8A4632498B
:104FF0001D035C0084463F0B760D90462D0B640D1F
:10500000DB0F8E420FD08C4239D0002E10D13843A6
:10501000414241418946002C27D12A4325D1002015
:1050200000290ED108E0391C01432ED1B44226D00C
:10503000002C0BD09A450DD05346594201231943F9
:10504000081C1CBC90469946A246F0BD2A43F3D0EA
:105050009A45F1D1A642EFDC1ADA50464142484166
:10506000012341421943081CEBE74A46002AE1D0DC
:1050700058425841012241421143081CE1E7291CD2
:10508000114302D1002EC2D0D4E702204042D8E71B
:10509000AF42D1D809D00020AF42D2D250464142CF
:1050A0004841012340421843CBE7C445C4D80020FF
:1050B000C445F3D3C5E7C046FF070000F0B55F461F
:1050C0004D46444656468046F0B4061C0803000B85
:1050D00084462C484C001F035D00C90F640D8B46AD
:1050E00091463F0B6D0DDB0F844212D0854225D0D7
:1050F000002C14D161460E4370424641002D35D03C
:10510000002E21D058425841012143420B43181C24
:105110000EE06146022031430AD1A5420ED0002D97
:1051200012D13A4310D15B46594201231943081C5E
:105130003CBC90469946A246AB46F0BD391C0220C5
:105140001143F5D1002CD5D09B45ECD1AC42EADC23
:1051500005DBBC45E7D80FD00020BC45E8D2584657
:1051600041424841414201200843E1E73A43C7D167
:105170000020002EDCD1D6E7C845D4D80020C84591
:10518000EDD3D5E7FF0700000E4B70B500251E1CC0
:105190000D4CE41AA410A54204D0AB00F358984774
:1051A0000135F8E7FCF7AEFF084B00251E1C084C44
:1051B000E41AA410A54204D0AB00F3589847013577
:1051C000F8E770BD380600203806002038060020B9
:1051D00038060020921E0010921E00109C1E001027
:1051E0009C1E0010CA1E0010CA1E0010CA1E00100D
:1051F000CA1E0010A61E0010B21E0010BE1E001017
:10520000BE1E001000060140000204400000000025
:1052100000000000010000002D0000000000050259
:1052200002020601000601400002044000000000E6
:1052300000000000040000000D0100000000030257
:1052400003000801000601400002044000000000C5
:1052500000000000000000003D0100000000060208
:1052600000030001000601400002044000000000AD
:105270000000000001000000150000000000040311
:105280000101050001000801010000000200070300
:1052900001000000010000030100000000040440C0
:1052A000800000000000010000000000000001007C
:1052B0000000300300000100000000000004044072
:1052C00009000000A40000000100000000040440E8
:1052D000080000000000000000000000006CDC027C
:1052E00020A10700401F010000000000D805002099
:1052F0001100000000000000F8050020130000006D
:1053000001000000CC05002000030450DC52001016
:10531000EC520010F85200100000000000000000E5
:10532000000000000000000000000000000000007D
:10533000000000000000000000000000000000006D
:10534000000000000000000000000000000000005D
:10535000000000000000000000000000000000004D
:10536000000000000000000000000000000000003D
:10537000000000000000000000000000000000002D
:10538000000000000000000000000000000000001D
:10539000E8520010BC520010C4520010CC52001051
:1053A000D45200100201020000000000000104407D
:1053B000040000000001044005000000000104405A
:1053C00006000000EE3C0010E63C0010E63C001039
:1053D000DE3C0010303C0010303C0010D43C00108B
:1053E000DE3C0010303C0010D43C0010303C00107B
:1053F000DE3C0010323C0010323C0010323C001009
:10540000783D0010904300106E4300106E43001072
:1054100062430010564200105642001056430010DE
:1054200062430010564200105643001056420010CE
:10543000624300105A4200105A4200105A420010B3
:0454400070450010A3
:105444002C4800470000000000000000000000009D
:105454000000000000000000000000000000000048
:1054640025480047000000000000000023480047D2
:105474002348004723480047234800472348004760
:105484002348004723480047234800472348004750
:105494002348004723480047234800472348004740
:1054A4002348004723480047234800472348004730
:1054B4002348004723480047234800472348004720
:1054C4002348004723480047234800472348004710
:1054D4002348004723480047234800472348004700
:1054E40023480047234800472348004723480047F0
:1054F400234800479D1000109D1000109D100010BF
:105504009D100010853600109D1000109D10001095
:10551400B93300109D10001091320010E1340010D6
:1055240009360010BD3000109D1000109D100010B1
:105534009D1000109D1000109D1000109D10001073
:105544009D1000109D1000109D1000109D10001063
:105554009D1000109D1000109D1000109D10001053
:105564009D1000109D1000109D1000109D10001043
:105574009D1000109D1000109D1000109D10001033
:045584009D10001066
:10558800008000000000000000000000500500201E
:1055980000000000E803000000D054850A00000065
:1055A80050000000BC050020000204480100000073
:1055B800400600200000BF030101000000000000B9
:1055C8000B00000000E1F50500D054850A0000003A
:1055D80005000000BC050020000104480000000090
:1055E8008C05002001001AB70101000000D8B80599
:1055F800010000000000044800000000006CDC020C
:105608000000045001000000201204500003008034
:10561800FF07002008000000000000000000000054
:10562800010000000000000060120450010000802A
:10563800FF07002008000000000000000000000034
:105648000000000000000000AC53001080000000C3
:1056580000000100030000000A00F40164000100DA
:085668008C0A0000010400009F
:040000051000101DBA
:00000001FF
